:100000000C94D6060C94FE060C94FE060C94FE0688
:100010000C94FE060C94FE060C94FE060C94FE0650
:100020000C94FE060C94FE060C94C9180C943B1913
:100030000C94FE060C94FE060C94FE060C94FE0630
:100040000C94FE060C94A6090C94FE060C94FE0675
:100050000C94FE060C94FE060C94FE060C94B80854
:100060000C94FE060C94FE060C94FE060C94FE0600
:100070000C94FE060C94FE060C94FE060C94FE06F0
:100080000C94B70A0C94FE060C94FE060C94FE0623
:100090000C94FE060C94FE060C94FE060C94FE06D0
:1000A0000C94FE060C94FE060C94FE06FE07010856
:1000B000F007F407F80722082208220805080908B3
:1000C0000D081308170822081D08F0F89C8E878376
:1000D000878E9CF8F00000FEFF0303030303070E66
:1000E000FCF80000FEFF0303030303070EFCF80007
:1000F00000FFFF00000000000000FFFF0000FEFF07
:100100008383838383C7EE7C380000F8FC0E0703EB
:100110000303070EFCF800003F7FE0C08080C0E0D2
:100120007F3FFFFF01010101010101FFFF0000FF0F
:10013000FF0C0C0C0C1C3E77E3C100007FFFC0C01D
:10014000C0C0C0E0703F1F00001F3F70E0C0C0C0D3
:10015000E0703F1F00007FFFC1C1C1C1C1E3773E16
:100160001C00001F3F70E0C0C0C0E0703F1F0000D7
:1001700000000001FFFF010000000000000024005B
:1001800027002A002D003000D5F08D14A1C881CFA2
:10019000D9F1AF20000B020A021202040208020188
:1001A00002150117011601000012905400C0915869
:1001B0000031800039905B004381003B9160007FFB
:1001C00080007281F0001290490058914A00298005
:1001D0000043904C0014810027914E003B80005B4F
:1001E00081F002050B050200279054007780001C67
:1001F0009053005880002990520060800017905161
:1002000000658000149050004E80000A904F00431B
:10021000800021904E004E80001F904D004B8000CA
:100220002C904C005580000D904B005080000A909F
:100230004A005880904900DD80F0000B904F914BB0
:100240000117808100D60023904100239151011DA8
:100250008100F480000590430023914F011D81032C
:1002600088800005F007070790379113004780004A
:10027000478190430047800047903E0047800047F9
:10028000903B00478000059014913800478100475B
:100290008090440047800047903F0047800047908F
:1002A00020913C00478100419113000580003B00F4
:1002B000478190430047800047903E004D800041B9
:1002C000903B004D800005903F911E00478090407C
:1002D000004181809041004D91408000418100119A
:1002E0009043911F00948081F0FF0101410101C9F9
:1002F0004141C901014901017F40407F010149019C
:1003000001C94141C90101490101C9414149414175
:10031000494141C90101490101FF0000FF000000FE
:100320000000FF0000FF0101490101C941414941AD
:1003300041494141C90101490101C94141C9010185
:100340004901017F40407F0101490101C94141C983
:100350000101410101FF0000000000000000000059
:10036000000000000000000000FF0000920000FFFD
:100370000000FF0000920000F29090929090929006
:10038000909F8080FF0000920000FF80808080802E
:10039000808080FF0000920000FF8080FF0000004E
:1003A0000000FF8080FF0000920000FF80808080BE
:1003B00080808080FF0000920000FF80809F9090EE
:1003C000929090929090F20000920000FF0000FF47
:1003D0000000920000FF000000000000000000008C
:1003E000000000000000000000FF0000240000FFEB
:1003F00000003F2020242020242020E400002400AE
:1004000000E42020E40000240000E4202024202038
:10041000242020E40000040000E0202020202020F0
:100420002020202020E00000040000E420202420E0
:1004300020242020E40000240000E42020E4000028
:10044000240000E420202420202420203F0000FF5E
:100450000000240000FF0000000000000000000079
:10046000000000000000000000FF0000490000C97B
:100470004141494141494141494141494040494047
:10048000407F0000FF0000490000FF000000000066
:10049000000000FF0000000000FF0000000000005E
:1004A0000000000000FF0000000000FF000000004E
:1004B00000000000FF0000490000FF00007F4040F6
:1004C000494040494141494141494141494141C96E
:1004D0000000490000FF00000000000000000000D4
:1004E000000000000000000000FF000092000093E8
:1004F000828292828292828292828292020292020C
:1005000002FE0000FF0000920000FF00000000005B
:10051000000000FF0000000000FF000000000000DD
:100520000000000000FF0000000000FF00000000CD
:1005300000000000FF0000920000FF0000FE020229
:10054000920202928282928282928282928282932A
:100550000000920000FF000000000000000000000A
:10056000000000000000000000FF0000240000FF69
:100570000000FC04042404042404042700002400D4
:100580000027040427000024000027040424040496
:1005900024040427000020000007040404040404C9
:1005A00004040404040700002000002704042404B9
:1005B000042404042700002400002704042700006A
:1005C000240000270404240404240404FC0000FF85
:1005D0000000240000FF00000000000000000000F8
:1005E000000000000000000000FF0000490000FFC4
:1005F0000000FF00004900004F09094909094909A5
:1006000009F90101FF0000490000FF01010101019A
:10061000010101FF0000490000FF0101FF0000008F
:100620000000FF0101FF0000490000FF010101017E
:1006300001010101FF0000490000FF0101F9090962
:100640004909094909094F0000490000FF0000FF5E
:100650000000490000FF0000000000000000000052
:10066000000000000000000000FF80808280809376
:100670008282938080928080FE0202FE808092803F
:100680008093828293808092808093828292828201
:10069000928282938080928080FF0000FF000000A1
:1006A0000000FF0000FF808092808093828292820F
:1006B00082928282938080928080938282938080D3
:1006C000928080FE0202FE808092808093828293DC
:1006D0008080828080FF0000000000000000000099
:1006E00000000000000000000000000000003E5B71
:1006F0004F5B3E3E6B4F6B3E1C3E7C3E1C183C7E6F
:100700003C181C577D571C1C5E7F5E1C00183C1853
:1007100000FFE7C3E7FF0018241800FFE7DBE7FF4F
:1007200030483A060E2629792926407F05050740DC
:100730007F05253F5A3CE73C5A7F3E1C1C08081C9D
:100740001C3E7F14227F22145F5F005F5F06097FDB
:10075000017F006689956A606060606094A2FFA274
:100760009408047E040810207E201008082A1C0823
:10077000081C2A08081E101010100C1E0C1E0C302D
:10078000383E3830060E3E0E060000000000000025
:100790005F00000007000700147F147F14242A7FE5
:1007A0002A122313086462364956205000080703B2
:1007B00000001C2241000041221C002A1C7F1C2A30
:1007C00008083E0808008070300008080808080083
:1007D0000060600020100804023E5149453E00427E
:1007E0007F400072494949462141494D331814124E
:1007F0007F1027454545393C4A4949314121110976
:10080000073649494936464949291E000014000067
:100810000040340000000814224114141414140081
:100820004122140802015909063E415D594E7C12CD
:1008300011127C7F494949363E414141227F414165
:10084000413E7F494949417F090909013E414151E2
:10085000737F0808087F00417F41002040413F012D
:100860007F081422417F404040407F021C027F7F6E
:100870000408107F3E4141413E7F090909063E417F
:1008800051215E7F09192946264949493203017FD2
:1008900001033F4040403F1F2040201F3F40384061
:1008A0003F631408146303047804036159494D43FA
:1008B000007F4141410204081020004141417F0472
:1008C0000201020440404040400003070800205459
:1008D0005478407F284444383844444428384444B9
:1008E000287F385454541800087E090218A4A49C88
:1008F000787F0804047800447D40002040403D009B
:100900007F1028440000417F40007C047804787CFC
:10091000080404783844444438FC18242418182463
:100920002418FC7C08040408485454542404043F4C
:1009300044243C4040207C1C2040201C3C40304053
:100940003C44281028444C9090907C4464544C447F
:100950000008364100000077000000413608000220
:10096000010204023C2623263C1EA1A161123A404A
:1009700040207A38545455592155557941215454C1
:100980007841215554784020545579400C1E5272BC
:100990001239555555593954545459395554545898
:1009A0000000457C410002457D420001457C40F04D
:1009B000292429F0F0282528F07C5455450020549E
:1009C000547C547C0A097F493249494932324848AB
:1009D0004832324A4848303A4141217A3A4240202E
:1009E00078009DA0A07D39444444393D4040403DBD
:1009F0003C24FF2424487E4943662B2FFC2F2BFFE9
:100A00000929F620C0887E0903205454794100004A
:100A1000447D413048484A32384040227A007A0AC0
:100A20000A727D0D19317D2629292F282629292989
:100A30002630484D402038080808080808080838BB
:100A40002F10C8ACBA2F102834FA00007B00000821
:100A5000142A142222142A14089500220095AA00B0
:100A60005500AAAA55AA55AA000000FF00101010B0
:100A7000FF00141414FF001010FF00FF1010F010FE
:100A8000F0141414FC001414F700FF0000FF00FF22
:100A90001414F404FC141417101F10101F101F144A
:100AA00014141F00101010F0000000001F10101090
:100AB000101F10101010F010000000FF1010101088
:100AC0001010101010FF10000000FF140000FF00B5
:100AD000FF00001F10170000FC04F4141417101777
:100AE0001414F404F40000FF00F714141414141484
:100AF00014F700F7141414171410101F101F1414F7
:100B000014F4141010F010F000001F101F0000006B
:100B10001F14000000FC140000F010F01010FF1073
:100B2000FF141414FF141010101F00000000F01028
:100B3000FFFFFFFFFFF0F0F0F0F0FFFFFF0000000D
:100B40000000FFFF0F0F0F0F0F38444438447C2A7A
:100B50002A3E147E02020606027E027E0263554988
:100B600041633844443C04407E201E2006027E023D
:100B70000299A5E7A5991C2A492A1C4C7201724CBE
:100B8000304A4D4D303048784830BC625A463D3E80
:100B9000494949007E0101017E2A2A2A2A2A444421
:100BA0005F444440514A444040444A51400000FFA1
:100BB0000103E080FF000008086B6B083612362442
:100BC00036060F090F06000018180000001010006C
:100BD0003040FF0101001F01011E00191D17120006
:100BE0003C3C3C3C0000000000060115012601379A
:100BF000014A015D01720188019F01B801D201EE35
:100C0000010B022A024B026E029302BA02E40210A6
:100C1000033F037003A403DC03170455049704DDAA
:100C20000427057505C80520067D06E0064907B8B6
:100C3000072D08A9082D09B9094D0AEA0A900B40A9
:100C40000CFA0CC00D910E6F0F5A1053115B1272FB
:100C5000139A14D41520178018F519801B231DDE54
:100C60001EB420A622B524E4263429A72B402E004A
:100C700031EA330037453ABC3D68414C456B49C8C1
:100C80004D68524F57805C006210111213151617F1
:100C9000181A1C1D1F21232527292C2E3134373AE1
:100CA0003E4145494E52575C62686E757B838B931B
:100CB0009CA5AFB9C4D0DCE9F70000000200090F21
:100CC0000000030401000C00000000000000000010
:100CD00000000000000000000408020110408040F5
:100CE0001020408040800802040180402010020152
:100CF0001080102040402000000000250028002B1C
:100D0000002E00310004040404040304050202025E
:100D10000204030202020206060606060604040294
:100D20000202040403010707070701070704070578
:100D30000507070505070707070107080B0002025B
:100D40000201000904000001020200000524001055
:100D500001052401010104240206052406000107FF
:100D600005810310004009040100020A0000000789
:100D70000502024000000705830240000004030949
:100D80000412010002EF02014041233680000101FC
:100D900002030141726475696E6F204C4C4300413F
:100DA000424C313330360000F728F62811241FBE9C
:100DB000CFEFDAE0DEBFCDBF11E0A0E0B1E0E4ECC0
:100DC000F8E502C005900D92A03AB107D9F727E0E7
:100DD000A0EAB1E001C01D92A237B207E1F716E028
:100DE000C5EDD6E004C02197FE010E94362CC43D1B
:100DF000D107C9F70E946B1B0C94552C0C94000072
:100E0000CF92DF92EF92FF920F931F93CF93DF93D6
:100E10006C017A018B01C0E0D0E0CE15DF0589F0CE
:100E2000D8016D918D01D601ED91FC910190F08179
:100E3000E02DC6010995892B11F47E0102C021968F
:100E4000ECCFC701DF91CF911F910F91FF90EF90F1
:100E5000DF90CF9008953FB7F8948091BB019091B7
:100E6000BC01A091BD01B091BE0126B5A89B05C0F3
:100E70002F3F19F00196A11DB11D3FBFBA2FA92F19
:100E8000982F8827820F911DA11DB11DBC01CD0196
:100E900042E0660F771F881F991F4A95D1F7089582
:100EA0006034710500F5E62FE695E695E6956770E6
:100EB00090E8E99FF0011124EE5FFD4FE80FF11D6E
:100EC0008489282F30E081E090E0062E02C0880F50
:100ED000991F0A94E2F78223932302C09595879580
:100EE0006A95E2F7089580E008950E94502CCF9310
:100EF000DF9300D000D0CDB7DEB761157105810555
:100F0000910579F09B01AC0169833A834B835C8343
:100F10000E94CF2929813A814B815C810E94F3296B
:100F200003C060E070E0CB010F900F900F900F9026
:100F3000DF91CF910895CF92DF92EF920F93CF93ED
:100F4000DF930E945715EE24E39400E420E849EE75
:100F500052E060E070E080E090E00E9423120E9486
:100F60000816C0E0D0E0CC24C394D12C80910001BD
:100F700090E0C817D90784F4EE24E39404E025E058
:100F800042EE51E0B6018EE690E00E94231285E029
:100F9000C80ED11C2196EACFDF91CF910F91EF902F
:100FA000DF90CF900895362F90E0FC01E754F34F87
:100FB0004491FC01E852F34F2491FC01EB5FF24FA6
:100FC0008491882309F451C04423E1F150E0FA01EF
:100FD0003197EF30F105B0F5EA5AFF4F0C94362CFB
:100FE000909180009F7707C0909180009F7D03C003
:100FF00090918000977F9093800024C094B59F7754
:1010000002C094B59F7D94BD1DC0909190009F77C4
:1010100007C0909190009F7D03C090919000977FB2
:10102000909390000FC09091C0009F7703C0909163
:10103000C0009F7D9093C00005C09091C200977F33
:101040009093C200E82FF0E0EE0FFF1FE950F34F3E
:10105000A591B4918FB7F894EC91311103C020950C
:101060002E2301C02E2B2C938FBF0895CF93DF9397
:1010700090E0FC01E852F34F2491FC01EB5FF24F4A
:101080008491882361F190E0880F991FFC01E65854
:10109000FE4FC591D491FC01E950F34FA591B49155
:1010A000611109C09FB7F8948881209582238883B5
:1010B000EC912E230BC0623061F49FB7F894388115
:1010C000822F809583238883EC912E2B2C939FBFB6
:1010D00006C08FB7F894E8812E2B28838FBFDF914D
:1010E000CF9108958F929F92AF92BF92CF92DF924D
:1010F000EF92FF926B017C010E942B074B015C0178
:10110000C114D104E104F104F1F00E942B07DC01C9
:10111000CB0188199909AA09BB09883E9340A1050A
:10112000B10570F321E0C21AD108E108F10888EE98
:10113000880E83E0981EA11CB11CC114D104E104E7
:10114000F10419F7DDCFFF90EF90DF90CF90BF90C3
:10115000AF909F908F9008952FB7F8946091B7014A
:101160007091B8018091B9019091BA012FBF089593
:101170001F920F920FB60F9211242F933F938F93CC
:101180009F93AF93BF938091B7019091B801A091C5
:10119000B901B091BA013091B60123E0230F2D3788
:1011A00020F40196A11DB11D05C026E8230F02966B
:1011B000A11DB11D2093B6018093B7019093B80192
:1011C000A093B901B093BA018091BB019091BC0189
:1011D000A091BD01B091BE010196A11DB11D8093EA
:1011E000BB019093BC01A093BD01B093BE01BF9120
:1011F000AF919F918F913F912F910F900FBE0F90C4
:101200001F90189583B12FB199B130E0209530959A
:1012100020783327A90124E0559547952A95E1F7D1
:10122000292F30E0209530952871332753E03595EC
:1012300027955A95E1F7242B8095807D822B089580
:10124000FC0121912EBD9C5F21910DB407FEFDCFC5
:101250002EBDE817F907C1F70DB407FEFDCF0895BD
:10126000CF92DF92EF92FF920F931F93CF93E82FCD
:10127000F0E0EC5DF24FC491E62FF0E0603330F423
:10128000E757F34FE4910E2F10E006C0EE0FFF1F5B
:10129000E757F44F059114916801E12CF12C60E0BF
:1012A00074E284EF90E0A70196010E94F329BA014D
:1012B000A90141505109610971094115510581E0A8
:1012C0006807710580F060E970ED83E090E0A701A8
:1012D00096010E94F329BA01A901415051096109FF
:1012E000710983E001C081E0C130C9F0C33031F53C
:1012F00090919100987F892B809391005093990051
:10130000409398001093B5010093B40181E080935D
:10131000B301809171008260809371000FC0909141
:101320008100987F892B809381005093890040939E
:10133000880080916F00826080936F00CF911F9131
:101340000F91FF90EF90DF90CF9008951F920F9232
:101350000FB60F9211242F933F938F939F93AF93C8
:10136000BF93EF93FF938091CE01882309F44DC082
:101370008091CA019091CB01A091CC01B091CD0197
:10138000892B8A2B8B2B51F18091C601E091C701EB
:10139000F091C8019081892780838091CA01909142
:1013A000CB01A091CC01B091CD01181619061A06F7
:1013B0001B06A4F58091CA019091CB01A091CC01AC
:1013C000B091CD010197A109B1098093CA01909311
:1013D000CB01A093CC01B093CD0120C01092CE01DF
:1013E00080916F008D7F80936F009091C601E09196
:1013F000C701F091C8018081282F30E0892F90E04B
:10140000809590958223932308C08091C601E09136
:10141000C701F091C801908189278083FF91EF91E6
:10142000BF91AF919F918F913F912F910F900FBEE0
:101430000F901F901895E82FF0E0EC5DF24FE491CB
:10144000E13019F0E33069F0089580916F008D7FED
:1014500080936F009091C601E091C701F091C8019F
:1014600008C01092B3019091C301E091C401F091C2
:10147000C5018081282F30E0892F90E080959095DC
:101480008223932380830895E091A101F091A2012A
:10149000BF016F5F7F4F7093A2016093A1014491E0
:1014A000942F907F842F8F70903819F40E941B0A1C
:1014B000EBCF903981F43296F093A201E093A10131
:1014C000FB0164919091C9018917F0F667FDDCCFAB
:1014D0000E943009D9CF903E49F48091A3019091A8
:1014E000A4019093A2018093A101CECF903F19F463
:1014F0001092A001089597FDC7CF3296F093A201F4
:10150000E093A101FB01249130E0342BA091B401C0
:10151000B091B5010E94472A6C507E4F8F4F9F4F6C
:1015200028EE33E040E050E00E94252A2093AF01EE
:101530003093B0014093B1015093B2018091AF015B
:101540009091B001A091B101B091B201892B8A2B89
:101550008B2B61F481E090E0A0E0B0E08093AF01DC
:101560009093B001A093B101B093B20108951F927E
:101570000F920FB60F9211242F933F934F935F93C7
:101580006F937F938F939F93AF93BF93EF93FF934B
:101590008091B301882349F08091C301E091C40197
:1015A000F091C5019081892780838091A0018823D3
:1015B00029F18091AF019091B001A091B101B0915A
:1015C000B201892B8A2B8B2BC9F08091AF019091AE
:1015D000B001A091B101B091B2010197A109B10987
:1015E0008093AF019093B001A093B101B093B20189
:1015F000892B8A2B8B2B11F40E94440AFF91EF91C7
:10160000BF91AF919F918F917F916F915F914F911A
:101610003F912F910F900FBE0F901F9018956091E2
:10162000A50182E090E00C94E5291092A501E4E682
:10163000F0E0808188608083E5E6F0E0808188606A
:1016400080830895E4E6F0E08081877F8083E5E68B
:10165000F0E08081877F808381E08093A5010895F9
:101660006038710518F54034510500F5A42FA69592
:10167000A695A695B0E047705527B695BA2FAA272C
:10168000B795A7956A0F7B1FFC01E60FF71F81E056
:1016900090E001C0880F4A95EAF7222319F0948957
:1016A000892B03C0809594898923848B08952F9278
:1016B0003F924F925F926F927F928F929F92AF92E2
:1016C000BF92CF92DF92EF92FF920F931F93CF932F
:1016D000DF93CDB7DEB72A970FB6F894DEBF0FBE03
:1016E000CDBF6A3091F4FC01E85EFB4F4081329738
:1016F0002081318158E0459F200D311D1124318317
:101700002083329711821082C1C06D3009F4BEC0AF
:101710009A878987885E9B4F9C838B83DC012C9002
:10172000E985FA85EA5EFB4F60807180E985FA857C
:10173000EC5EFB4FFA83E9830081118100381105CB
:10174000D4F0AB81BC812C91422F50E0E981FA8129
:1017500080819181F6E02F9F800D911D1124A98138
:10176000BA818D939C93E985FA85E75EFB4F2081D2
:1017700021115EC08BC0B0E46B16710414F7C80170
:10178000E5E02E9E800D911D112418161906CCF649
:10179000422C512CC301F8E02F9E800D911D112485
:1017A0001816190674F655E0659F900111243F83C1
:1017B0002E83E12CF12C85E0E816F10441F0EE8156
:1017C000FF81EE0DFF1DE751F94F349001C0312C20
:1017D000630138E0932D91709D834801882D801B13
:1017E0008215B0F456018A2D8C19821568F42D816A
:1017F000A501B40189859A8538870E94300BAFEF27
:10180000AA1ABA0A3885EFCFBFEF8B1A9B0AE6CF28
:1018100036943150C40CD51C3111DCCFEFEFEE1AE9
:10182000FE0A040D151DF6E0EF16F10421F689CF2E
:101830006AEF64039001659F300D112420583F4FDB
:10184000281739071CF5A985BA85ED91FC911197E8
:101850000190F081E02D6AE0CD012A960FB6F89450
:10186000DEBF0FBECDBFDF91CF911F910F91FF90D3
:10187000EF90DF90CF90BF90AF909F908F907F9030
:101880006F905F904F903F902F9009942A960FB6DB
:10189000F894DEBF0FBECDBFDF91CF911F910F91A6
:1018A000FF90EF90DF90CF90BF90AF909F908F9080
:1018B0007F906F905F904F903F902F9008950E947F
:1018C000571585E090E09093170680931606909345
:1018D00019068093180684E591E00E9402158DE5B3
:1018E00091E00E94021529E14091A60160E080E6A6
:1018F00091E00E94A01723E24091A60161E085E6F5
:1019000091E00E94A0178091A5012DE24091A601CF
:1019100062E0882319F081E791E002C08EE791E050
:101920000E94A01786E192E00C9420098F929F926A
:10193000AF92BF92EF92FF921F93CF93DF93CDB7F9
:10194000DEB7A1970FB6F894DEBF0FBECDBF88E219
:1019500090E0909317068093160686E090E09093AF
:101960001906809318068CE891E00E945515209185
:10197000D8013091D9014091DA015091DB0119A2CF
:1019800010E07E0181E2E80EF11C8AE0882E912CA5
:10199000A12CB12C1F5FCA01B901A50194010E94BD
:1019A000F329605DF70162937F012115310541053F
:1019B000510581F74DEF410390011124295C3F4F00
:1019C000309317062093160680E190E09093190655
:1019D00080931806CF010E940215A1960FB6F894C5
:1019E000DEBF0FBECDBFDF91CF911F91FF90EF9073
:1019F000BF90AF909F908F9008954F925F926F929B
:101A00007F928F929F92AF92BF92CF92DF92EF928E
:101A1000FF920F931F93CF93DF931F92CDB7DEB743
:101A20005C014B017A018901C9010297CE9738F513
:101A3000412C512C612C712C6201CE0CDF1CB301A6
:101A4000600F711FC60129830E94500729818823D6
:101A500041F0E40CF501E082260DF401208381E0E1
:101A60000FC0FFEF6F1A7F0A83E06816710439F721
:101A7000EFEF4E1A5E0AF3E04F165104D9F680E0FC
:101A80000F90DF91CF911F910F91FF90EF90DF901A
:101A9000CF90BF90AF909F908F907F906F905F900E
:101AA0004F9008950F931F93CF93DF938C01EB0119
:101AB0002496BE0101970E945007811107C0BE0104
:101AC000C80103960E94500791E0811190E0892F90
:101AD000DF91CF911F910F9108950F931F93CF9393
:101AE000DF93EB018C010250110961507109C801AB
:101AF0000E945007811108C0BE016D5F7F4FC80171
:101B00000E94500791E0811190E0892FDF91CF91E1
:101B10001F910F9108950F931F93CF93DF938C0123
:101B2000EB012297BE0101970E945007811107C067
:101B3000BE01C80103960E94500791E0811190E018
:101B4000892FDF91CF911F910F9108950F931F93CC
:101B5000CF93DF93EB018C010C5F1F4F6150710934
:101B6000C8010E945007811108C0BE016D5F7F4F00
:101B7000C8010E94500791E0811190E0892FDF9108
:101B8000CF911F910F910895CF92DF92EF92FF9224
:101B90000F931F93CF93DF938C01EB017B0181E0C7
:101BA000E81AF108680183E0C80ED11CB701C6012C
:101BB0000E94500781110FC02396BE01C6010E94EA
:101BC0005007811108C001501109B701C8010E94D6
:101BD0005007882311F091E008C0BE01C8010E949F
:101BE000500791E0811101C090E0892FDF91CF91E2
:101BF0001F910F91FF90EF90DF90CF900895EF929B
:101C0000FF920F931F93CF93DF937C01EB01942FEF
:101C1000A901980196FF08C0F70160817181828156
:101C200093810E94572A09C097FF0DC0F701608178
:101C30007181828193810E94562AF70160837183AA
:101C40008283938315C093FF07C0688179818A815D
:101C50009B810E94562A08C091FF0AC06881798141
:101C60008A819B810E94572A688379838A839B8318
:101C7000DF91CF911F910F91FF90EF900895CF9337
:101C8000DF93FC01168A148E138EA5E9B6E01C9230
:101C900011961D921D921D921C92149793E0958FA0
:101CA000968F81E0878F90A32CE321A382A339E64E
:101CB00033A394A385A336A327A380A711A612A6B6
:101CC00013A614A688E7ADE1B6E0ED0119928A9556
:101CD000E9F710921C06148A80E090E0A0E0BFE3D0
:101CE000808B918BA28BB38B80E090E0A4E5B2E473
:101CF00080839183A283B38380E090E0A0E3B2E489
:101D000084839583A683B783178A108E118E128ED3
:101D100015A61586108616A617A610AA11AADF9179
:101D2000CF9108950C94DD298F929F92AF92BF922C
:101D3000CF92DF92EF92FF920F93CF93DF93EC015C
:101D4000C880D980EA80FB8020E030E0A901C7018B
:101D5000B6010E94C32A882361F16C817D818E8146
:101D60009F810E94C82A4B015C01C701B6010E94F5
:101D7000C82ADC01CB01E12C03E023E045E652E078
:101D8000B4010E9423126D85662399F04E8550E0C0
:101D900070E021E082E092E0DF91CF910F91FF901F
:101DA000EF90DF90CF90BF90AF909F908F900C946A
:101DB000300BDF91CF910F91FF90EF90DF90CF909C
:101DC000BF90AF909F908F900895CF92DF92EF9247
:101DD000FF92CF93DF93EC01C98CDA8CEB8CFC8CF7
:101DE0000E94AC08C616D706E806F90680F5888D6D
:101DF000811111C00E94AC086B017C0168EB7BE093
:101E000080E090E00E947707DC01CB0188579C4E70
:101E1000AF4FBF4F10C00E94AC086B017C0160ED5A
:101E200077E080E090E00E947707DC01CB018851E9
:101E30009C4FAF4FBF4FC80ED91EEA1EFB1EC98E66
:101E4000DA8EEB8EFC8E988D81E08927888F888DC5
:101E5000DF91CF91FF90EF90DF90CF900895CF93D7
:101E6000C82F62E070E080E090E00E947707C03801
:101E700011F0C03441F46115710551F06130710504
:101E800049F482E008C06130710521F480E403C0A8
:101E900088E001C080E8CF910895CF93DF93EC01F3
:101EA0000E94940E1D861D8A1C8A1F8A1E8A80E04D
:101EB00090E0A0E0BFE389879A87AB87BC8780E08A
:101EC00090E0A4E5B2E488839983AA83BB836B89FD
:101ED000643028F485E0689FB001112406C06FE0EB
:101EE00070E080E090E00E947707072E000C880BDE
:101EF000990B0E94002B20E030E048EB51E40E9457
:101F0000572A6C837D838E839F8388E00E942F0FE6
:101F10008887188E6CEA7DE080E090E00E94770769
:101F2000DC01CB018C509E4FAF4FBF4F898F9A8FF2
:101F3000AB8FBC8FDF91CF9108954F925F926F92DC
:101F40007F928F929F92AF92BF92DF92EF92FF9219
:101F50000F931F93CF93DF93D82E84E080930101DA
:101F60008DEAE82E86E0F82ECAE9D6E094EF892EB5
:101F700099249394A12CB12C00E010E080910101F0
:101F800090E008171907BCF5DD2059F0F7013697E6
:101F90001082188219821A821B821C821D821E8264
:101FA0001F82F7010083CE010E944D0F0E94AC08F2
:101FB000DC01CB01880D991DAA1DBB1D8F87988B55
:101FC000A98BBA8B498C5A8C6B8C7C8C840D951D9B
:101FD000A61DB71D898F9A8FAB8FBC8F0F5F1F4FC8
:101FE000FDE1EF0EF11C6D9680E2880E83E0981EF5
:101FF000A11CB11CC3CFDF91CF911F910F91FF9016
:10200000EF90DF90BF90AF909F908F907F906F90F8
:102010005F904F900895CF92DF92EF92FF920F93CF
:102020001F93CF93DF93809164008E7F8093640031
:1020300087EC80937C0080E280937B0062E070E01C
:1020400080E090E00E94720880917A008064809322
:102050007A0080917A0086FDFCCFC0917800D09103
:102060007900C095D0958EE580937C0062E070E0A9
:1020700080E090E00E94720880917A0080648093F2
:102080007A0080917A0086FDFCCF00917800109153
:1020900079000E942B079B01AC012095309540955B
:1020A0005095009510950C9FD0010D9FB00D1C9F71
:1020B000B00D11240E94122A6B017C010E942B0793
:1020C0006C0D7D1D8E1D9F1D61157105810591058E
:1020D00011F00E94D4298091640081608093640093
:1020E000C3E0D0E0D0930301C093020188E692E000
:1020F0009093A4018093A3019093A2018093A101E6
:102100000E94440A81E08093A0010E949B0786E11F
:1021100092E00E94200968EE73E080E090E00E9467
:1021200072080E94960C8EE190E0909317068093BF
:1021300016068EE290E0909319068093180683E9C4
:1021400091E00E9455156091000170E080E090E000
:102150004AE00E94141586E192E00E9420096CED8D
:1021600075E080E090E00E9472080E949B076CE29C
:1021700071E080E090E00E9472080E949B0781E07D
:102180000E949D0F86E192E00E942009D0930301F6
:10219000C0930201DF91CF911F910F91FF90EF90BB
:1021A000DF90CF900895FC018091C201811103C09E
:1021B0008FEF9FEF08959FB7F89482E08093E90036
:1021C0002091F20030E01216130614F421E030E002
:1021D0002115310559F0289884E68093C10180913A
:1021E000F10080838091F200882319F09FBFC9011C
:1021F00008958BE68093E800F9CFCF93DF931F9289
:10220000CDB7DEB76983DC01ED91FC910280F381EB
:10221000E02D41E050E0BE016F5F7F4F09950F90C8
:10222000DF91CF91089583E08093E9008091F200DF
:10223000882319F08AE38093E8000895CF93DF9311
:102240001F92CDB7DEB7FC018485958597FD05C04B
:102250002FEF3FEF358724870BC0CE0101960E94F8
:10226000D310019719F4898190E002C08FEF9FEF9E
:102270000F90DF91CF9108950F931F93CF93DF932A
:102280001F92CDB7DEB78C01FC018485958597FF41
:102290000EC0CE0101960E94D310019719F4298136
:1022A00030E002C02FEF3FEFF80135872487F801B7
:1022B000848595850F90DF91CF911F910F9108959F
:1022C0007F928F929F92AF92BF92CF92DF92EF92C6
:1022D000FF920F931F93CF93DF936C015B017A0101
:1022E00080910B01882309F46BC08091C20188237F
:1022F00009F466C08091C00180FF05C08091E000B4
:1023000082608093E000E70110E00AEF83E0982EFE
:1023100090E4792E2AE3822E209709F448C08FB7E3
:10232000F8949092E9009091E80095FF06C0909192
:10233000F200272D291B922F01C090E08FBF911131
:102340000AC0015009F43CC061E070E080E090E018
:102350000E947208E1CF292F30E0C217D3070CF496
:102360009C2F8FB7F8949092E9002091E80025FF08
:102370001CC0292F30E0C21BD30BF501915020F077
:1023800041914093F100FACFA20EB31E112319F030
:102390008092E80009C09091E80095FD06C0809207
:1023A000E80011E0209709F010E08FBFB5CF1111C0
:1023B000B6CF5D9884E68093BF011E141F0444F0DD
:1023C00081E090E0F6019383828380E090E001C099
:1023D000C701DF91CF911F910F91FF90EF90DF9098
:1023E000CF90BF90AF909F908F907F9008950F9364
:1023F0001F930091D8011091D9012091DA013091F9
:10240000DB01DC01CB01800F911FA21FB31F809362
:10241000D8019093D901A093DA01B093DB01209108
:10242000010221110DC080319742A105B10540F094
:102430008091E4018F5F8093E40181E08093010249
:102440001F910F9108952F923F924F925F926F923A
:102450007F928F929F92AF92BF92CF92DF92EF9234
:10246000FF920F931F93CF93DF93CDB7DEB72897DB
:102470000FB6F894DEBF0FBECDBF222E312C9C01CB
:10248000220D331D37FD30C1803891050CF02CC171
:102490009B01200F311D37FD27C1603471050CF001
:1024A00023C1DB0177FF04C0AA27BB27A61BB70BFC
:1024B000A770BB279B0177FF02C0295F3F4F13E046
:1024C000359527951A95E1F777FF08C02150310916
:1024D00068E070E05B01AA1ABB0AD501E02FE6951F
:1024E000E695E695CE2ED12C077019F00FEFC01AA5
:1024F000D00AB9017695762F662777956795680F8C
:10250000791F5601A20EB31EBC82AB82412C512C06
:10251000F8E0CF2ED12C86010A1B1B0B1A830983EE
:10252000AB80BC802A153B0509F4DEC0283031059C
:1025300009F4DAC02F3F1FEF31070CF4CAC03B018A
:10254000E0E86E0E711C8B010A561D4F1E830D8331
:102550004C0100E010E0021513050CF0BAC0E0E8F1
:102560008E16910409F4B5C097FCA8C02F3FFFEF69
:102570003F0709F4B5C0F801E40DF51DCD80DE80FC
:10258000C618D708AA24A394E40FF51FEA1013C0B5
:10259000E491C60ED71EF0E05F010A2E02C0AA0C1D
:1025A000BB1C0A94E2F7B886AF82F601B080EF81D7
:1025B000F885EB292BC0E11017C0E491C60ED71E99
:1025C000F0E00A2E02C0EE0FFF1F0A94E2F75F014F
:1025D000A094B094B886AF82F601A080B12CEF81B0
:1025E000F885AE22BF2213C0E491C60ED71EF0E0DC
:1025F0005F010A2E02C0AA0CBB1C0A94E2F7B8863F
:10260000AF82F601B080EF81F885EB255F01F6011E
:10261000A082109709F452C02730310509F44EC04A
:10262000F801E40DF51DAA24A394EA1011C0E40FEB
:10263000F51FE491CE2ED12C5601098002C0B5942D
:10264000A7940A94E2F7ED81FE81D080AD2835C0D1
:10265000CD80DE80C618D708E40FF51FE11018C042
:10266000E491C60CD71CAE2EB12C098002C0B594E3
:10267000A7940A94E2F7F501E095F095F887EF83C7
:10268000F601A080B12CEF81F885AE22BF2214C0E4
:10269000E491C60CD71CAE2EB12CF501098002C006
:1026A000F595E7950A94E2F7F887EF83F601B08095
:1026B000EF81F885EB255F01F601A0820F5F1F4FC8
:1026C000ED81FE813196FE83ED83FFEF8F1A9F0A25
:1026D00042CF2F5F3F4F420C531C60587F4F20CF9B
:1026E000109709F09DCFEACF28960FB6F894DEBF79
:1026F0000FBECDBFDF91CF911F910F91FF90EF9053
:10270000DF90CF90BF90AF909F908F907F906F9011
:102710005F904F903F902F9008958F929F92AF922D
:10272000BF92CF92DF92EF92FF920F93CF93DF93FE
:10273000EC01B62E20E030E0A901688179818A8120
:102740009B810E94C32A882309F444C0C090F801E9
:10275000D090F901E090FA01F090FB0128EEC2164A
:1027600023E0D206E104F104E4F00E94AC0828EE74
:10277000C21A23E0D20AE108F1086C157D058E0526
:102780009F0578F40E94AC0824E630E040E050E079
:102790000E94252A633371058105910510F4BB2041
:1027A000C9F06C817D818E819F810E94C82A4B0176
:1027B0005C01688179818A819B810E94C82ADC0141
:1027C000CB01EE24E39403E023E048E35DE0B401B1
:1027D0000E942312DF91CF910F91FF90EF90DF9035
:1027E000CF90BF90AF909F908F9008954F925F923F
:1027F0006F927F928F929F92AF92BF92CF92DF9211
:10280000EF92FF92CF93DF93EC014A015B0181E0ED
:102810008093CE012E01612C712C60E072E18AE779
:1028200090E0A30192010E94F32969017A0181E0FD
:10283000C81AD108E108F108C114D10481E0E80602
:10284000F10488F068E478EE81E090E0A301920161
:102850000E94F32969017A0181E0C81AD108E108D0
:10286000F10883E001C081E090918100987F982B6E
:102870009093810081149104A104B10471F0DE01F0
:10288000AA0FBB1FA50194010E94122A28EE33E073
:1028900040E050E00E94252A03C02FEF3FEFA9013E
:1028A000D0928900C09288002093CA013093CB0156
:1028B0004093CC015093CD0180916F008260809352
:1028C0006F00DF91CF91FF90EF90DF90CF90BF909E
:1028D000AF909F908F907F906F905F904F900895F2
:1028E0004F925F926F927F928F929F92AF92BF9220
:1028F000CF92DF92EF92FF920F931F93CF93DF93CC
:10290000EC017B016A01C901A901461B570B57FF66
:1029100003C051954195510996012C1B3D0B37FF82
:1029200003C031952195310911E02417350714F0C2
:1029300010E00AC03C2D2D2D6C01832F922F3C2FCF
:102940002D2FE701E32EF22ECC16DD0654F43E2D9A
:102950002F2D7C01832F922F3C2F2D2FE601C32E8C
:10296000D22E26014C1A5D0A4C018E189F0897FE44
:1029700003C0919481949108520157FE03C02FEF38
:10298000A21AB20AB594A794E816F90614F08FEFCC
:1029900001C081E0682E880F7708CC16DD06B4F000
:1029A000202F112319F0AE01B70102C0A701BE010B
:1029B00082E092E00E94300BA818B908B7FE04C06C
:1029C000E60CF71CA40CB51C2196E7CFDF91CF9144
:1029D0001F910F91FF90EF90DF90CF90BF90AF903D
:1029E0009F908F907F906F905F904F900895E091AF
:1029F0000202F09103020190F081E02D682F82E045
:102A000092E00994009769F0FC0101900020E9F739
:102A10003197AF01481B590BBC0182E092E00C9446
:102A2000000780E090E008958F929F92AF92BF924E
:102A30000F931F93CF93DF93CDB7DEB7A1970FB658
:102A4000F894DEBF0FBECDBF19A2423008F44AE0B1
:102A50008E010F5D1F4F842E912CA12CB12CA5014E
:102A600094010E94252AE62FB901CA0101501109DB
:102A7000EA3014F4E05D01C0E95CD801EC93232B4B
:102A8000242B252B61F7C8010E940215A1960FB6D1
:102A9000F894DEBF0FBECDBFDF91CF911F910F9194
:102AA000BF90AF909F908F9008950C94021520E0F6
:102AB00086E192E0B22FB111BFEFFC010024B19387
:102AC000B193B193B1930394D1F708958F929F92EC
:102AD000AF92BF92EF920F93CF93DF936091D301A8
:102AE0007091D4018091D5019091D6010E94C82A9D
:102AF0004B015C016091CF017091D0018091D101B7
:102B00009091D2010E94C82ADC01CB01E12C03E0A4
:102B100023E045E35DE0B4010E942312C0E0D0E071
:102B2000FE01E153FE4F668D70E061507109858DA5
:102B300090E0E12C03E023E045E35DE001970E9493
:102B400023122396CC30D10559F7DF91CF910F9105
:102B5000EF90BF90AF909F908F9008954F925F92AB
:102B60006F927F928F929F92AF92BF92CF92DF929D
:102B7000EF92FF920F931F93CF93DF93EC016CE2E0
:102B800071E080E090E00E9472080FEC11E0F80123
:102B9000C080D180E280F380BE0180E090E00E949E
:102BA000FE2AF80124813581468157810E94572AE7
:102BB0000E94C82A4B015C0120E030E040E450E470
:102BC000C701B6010E94572A0E94C82A2B013C0166
:102BD000C701B6010E94C82ADC01CB0100E09401C4
:102BE000A201B4010E94701486E192E0DF91CF91BE
:102BF0001F910F91FF90EF90DF90CF90BF90AF901B
:102C00009F908F907F906F905F904F900C942009D1
:102C10008F929F92AF92BF92CF92DF92EF92FF92EC
:102C20000F931F93CF93DF93CDB7DEB7A2970FB665
:102C3000F894DEBF0FBECDBF8091E501811112C0B7
:102C40008091D701882371F00E94AC0824EF31E015
:102C500040E050E00E94252A6B3F710581059105F7
:102C600008F4EAC01092E5018091D701883019F488
:102C70008CE29DE005C0803809F0D6C08FE29DE06F
:102C80009093DE018093DD01C090DD01D090DE01E4
:102C90006091D3017091D4018091D5019091D601BA
:102CA0000E94C82A4B015C016091CF017091D00154
:102CB0008091D1019091D2010E94C82ADC01CB0100
:102CC000EE24E39403E023E0A601B4010E94231262
:102CD000C12CD12CF601E153FE4F878D882379F06A
:102CE000668D70E061507109858D90E0EE24E3946B
:102CF00003E023E045E35DE001970E94231283E0B7
:102D0000C80ED11CECE0CE16D10421F7E9E7EE2E77
:102D1000F12C00E010E020E0A801B70182E092E091
:102D20000E94300B0F5F1F4F00341105A1F7FFEF1A
:102D3000EF1AFF0A80E8E816F10459F77DE6E72E5E
:102D4000F12C07E310E020E0A801B70182E092E057
:102D50000E94300B0F5F1F4F00341105A1F7EFEFFA
:102D6000EE1AFE0AF0E8EF16F10459F72091D801A7
:102D70003091D9014091DA015091DB0119A28E0105
:102D80000F5D1F4F6AE0C62ED12CE12CF12CCA0139
:102D9000B901A70196010E94F329605DF8016293D1
:102DA0008F01211531054105510589F721E099E78A
:102DB000E92EF12CF80181918F01882381F0F092A6
:102DC0001706E0921606422F50E0509319064093E2
:102DD0001806285F2AA30E94F7142AA1EBCFC12C62
:102DE000D12C8EE6A82EB12C2091E40130E02730C2
:102DF00031051CF42150310902C025E030E0C21633
:102E0000D306ECF4EE24E39403E023E042E35DE038
:102E10006AE370E0C5010E942312F4E0AF0EB11C1A
:102E20008FEFC81AD80AE0CF823019F489E29DE00A
:102E300027CF82E39DE024CF86E29DE021CFA296BA
:102E40000FB6F894DEBF0FBECDBFDF91CF911F91BB
:102E50000F91FF90EF90DF90CF90BF90AF909F9039
:102E60008F900895CF938091C901823009F466C094
:102E7000282F30E0F901EC5DF24FC491F901E65ED4
:102E8000F84F99E090838F5F8093C90161E089E0FA
:102E90000E943608C13019F0C33019F14FC01092AA
:102EA0008000109281008091810088608093810071
:102EB00080918100816080938100EEE0FDE0E491EB
:102EC000F0E0EE0FFF1FE950F34F8591949190933E
:102ED000C8018093C701E1EEFCE0E491E093C601F4
:102EE0002DC0109290001092910080919100886006
:102EF0008093910080919100816080939100EEE039
:102F0000FDE0E491F0E0EE0FFF1FE950F34F8591F3
:102F100094919093C5018093C401E1EEFCE0E491AB
:102F2000E093C3018091C901882321F06CE380E024
:102F30000E94300980E0CF910C941B0ACF91089534
:102F40000F931F93CF93DF938C01D62FC42F85E06F
:102F500090E0909317068093160630E030931906A0
:102F600020931806641304C08AE991E00E94551565
:102F7000C8010E945515DC1308C08DE991E0DF916E
:102F8000CF911F910F910C945515DF91CF911F9107
:102F90000F9108958091120781110DC082E08093F6
:102FA0000E0784E080930F0710921107109210070C
:102FB00081E0809312078EE097E00895FC018485FC
:102FC000958597FD0BC09FB7F89482E08093E90048
:102FD0008091F2009FBF90E0019608959FB7F8940A
:102FE00082E08093E9008091F2009FBF90E0089515
:102FF000409170075091710720916E0730916F07D3
:1030000042175307B4F49091E8009570E1F3909162
:10301000E80092FD19C08093F100809170079091B3
:10302000710701968F739927892B19F48EEF80937E
:10303000E800809170079091710701969093710755
:103040008093700781E0089580E00895CF92DF9229
:10305000EF92FF920F931F93CF93DF931F92CDB701
:10306000DEB7182F062FE42E862F880F8E5F9983E8
:103070000E94F81783E00E94F817F12EC12E998163
:10308000D92E8C2D8F19801798F4F601E7FE02C017
:10309000849101C080810E94F817182F80E00E945F
:1030A000F8178123FFEFCF1ADF0A8111EACF01C0A1
:1030B00081E00F90DF91CF911F910F91FF90EF90E2
:1030C000DF90CF900895DF92EF92FF920F931F93BE
:1030D000CF93DF93D82E8A017B01E40EF51EEB011E
:1030E000CE15DF0571F0D7FE03C0FE01849101C04B
:1030F00088810E94F81721968111F2CF8FEF9FEF00
:1031000001C0C801DF91CF911F910F91FF90EF9007
:10311000DF900895615030F02091F100FC01208390
:103120000196F8CF289884E68093C10108950F9303
:103130001F93CF93DF931F92CDB7DEB782E08983D1
:1031400042E450E06BE37DE080E80E9463180E9457
:10315000CA17DC0112960D911C91139701151105E8
:1031600069F0D801ED91FC910280F381E02DBE0160
:103170006F5F7F4FC801099597FF07C089810F9046
:10318000DF91CF911F910F910895F801008511856E
:10319000E5CF1F920F920FB60F9211248F939F933A
:1031A0008091E1009091E100937F9093E10083FF93
:1031B0000FC01092E90091E09093EB001092EC00A8
:1031C00092E39093ED001092C20198E09093F0008A
:1031D00082FF20C093E09093E9009091F200992340
:1031E00019F09AE39093E8009091BF01992339F088
:1031F0009091BF0191509093BF01992389F19091D3
:10320000C101992339F09091C10191509093C1016E
:10321000992341F184FF10C08091E2008E7E81608D
:103220008093E2008091E1008F7E8093E1008091A5
:10323000C0018E7E806111C080FF16C08091E200C7
:103240008E7E80618093E2008091E1008E7E80938B
:10325000E1008091C0018E7E81608093C00104C036
:103260005D9ACDCF289AD6CF9F918F910F900FBEA8
:103270000F901F9018951F920F920FB60F92112466
:10328000CF92DF92EF92FF920F931F932F933F9372
:103290004F935F936F937F938F939F93AF93BF935E
:1032A000EF93FF93CF93DF93CDB7DEB76C97DEBF7D
:1032B000CDBF1092E9008091E80083FFEDC168E086
:1032C000CE0145960E948A1882EF8093E8008D898E
:1032D00087FF05C09091E80090FFFCCF03C09EEFF0
:1032E0009093E800982F907609F0C6C09E892F89A8
:1032F000188D91110CC0803829F480916D0780934E
:10330000F10002C01092F1001092F10048C1422F6A
:1033100050E0512B913051F4811141C141305105A0
:1033200009F03DC180916D078D7F0BC0933061F432
:10333000811135C14130510509F031C180916D07CE
:10334000826080936D072BC1953041F48091E80035
:1033500080FFFCCF20682093E30021C1963009F064
:103360005FC0EB8CFC8C1092E900109271071092F8
:103370007007123091F510926F0710926E070E943D
:10338000971899E0BE016F5F7F4FDB01E92F1D9217
:10339000EA95E9F799831A8391E09E8390EA9887EA
:1033A0009AEF99872091700730917107275F3F4FFF
:1033B0003C832B838D831092E90010927107109249
:1033C0007007F0926F07E0926E0749E050E080E0EE
:1033D0000E9463180E949718E2C0F0926F07E09273
:1033E0006E070E94CA17DC011296ED90FC901397AD
:1033F000E114F10409F4C0C0D701ED91FC910480FF
:10340000F581E02DBE016B5E7F4FC70109950097E6
:1034100019F00CF0C4C0C7C0F701E084F184E8CF14
:10342000973009F4C0C0983021F481E08093F10016
:10343000B6C0993009F0B3C0837009F0B4C0EDE2B2
:10344000F1E081E021E036E39081992361F08093FF
:10345000E9002093EB0091919093EC003093ED0004
:103460008F5F873089F78EE78093EA001092EA0039
:103470008F898093C20193C08B8D9C8D1092E9003F
:10348000109271071092700790936F0780936E07E8
:10349000898D811156C08E899D89913A59F4813266
:1034A00009F081C047E050E064E071E080E00E94F4
:1034B000631875C0913209F076C0833289F4888D23
:1034C00090E0982F88272F89822BA0E0B0E080938E
:1034D0000C0190930D01A0930E01B0930F015FC0FA
:1034E000803269F48091E80082FFFCCF67E084E0DD
:1034F00091E00E948A188BEF8093E80006C0823228
:1035000009F04DC08F8980930B0180916C0788234F
:1035100019F0EEEFFAE002C0E0E0F8E0809104017B
:1035200090910501A0910601B0910701803B944064
:10353000A105B10509F07BC080910B0180FF93C00C
:1035400076C00E94CA17DC0112960D911C91139748
:103550000115110541F1D801ED91FC910190F08127
:10356000E02DBE016B5E7F4FC8010995811117C028
:10357000F80100851185ECCF113009F44EC01330ED
:1035800091F48F89882309F445C0823081F440E8A2
:1035900067E08FE99DE00E942618882321F08EEFD6
:1035A0008093E80079C081E28093EB0075C08130A0
:1035B00029F440E86BE083E99DE0EDCF833099F793
:1035C0000E94CA17DC011296ED90FC9013978E01B1
:1035D0000F5F1F4F6801E114F10479F0D701ED91FD
:1035E000FC910680F781E02DB801C7010995080F0D
:1035F000111DF701E084F184EECFD8011C92F60191
:1036000001900020E9F73197BF016C197D0940E076
:10361000C601C1CF6DE77DE002C061E87DE06115C4
:10362000710509F2FB01449150E080E840CF0FB6EC
:10363000F894A89580916000886180936000109252
:1036400060000FBEA895EE3F2AE0F20739F08091A6
:10365000FE0A9091FF0A91838083A1CF1092FF0A06
:103660001092FE0A9CCFEE3F8AE0F80731F080818D
:1036700091819093FF0A8093FE0A87E797E79183F1
:1036800080839BE088E10FB6F894A8958093600052
:103690000FBE9093600083CF6C960FB6F894DEBF98
:1036A0000FBECDBFDF91CF91FF91EF91BF91AF9151
:1036B0009F918F917F916F915F914F913F912F914A
:1036C0001F910F91FF90EF90DF90CF900F900FBE62
:1036D0000F901F901895CF93DF93CDB7DEB7689703
:1036E0000FB6F894DEBF0FBECDBF789484B582606C
:1036F00084BD84B5816084BD85B5826085BD85B596
:10370000816085BD80916E00816080936E00109213
:10371000810080918100826080938100809181008E
:10372000816080938100809180008160809380001F
:1037300080919100826080939100809191008160DE
:10374000809391008091900081608093900080919F
:10375000C10084608093C1008091C1008260809329
:10376000C1008091C10081608093C1008091C3003D
:1037700081608093C3008091C00082608093C0000C
:103780008091C20081608093C20080917A00846041
:1037900080937A0080917A00826080937A00809191
:1037A0007A00816080937A0080917A0080688093AB
:1037B0007A001092C20110926D071092C0018091A0
:1037C000D70081608093D70080EA8093D80089B5C4
:1037D000806189BD89B5826089BD09B400FEFDCFD5
:1037E00061E070E080E090E00E9472088091D80073
:1037F0008F7C80618093D8008091E000807F8093EF
:10380000E0008091E1008E7E8093E1008DE0809366
:10381000E200559A209AEEEFFFE7859194918B3F55
:103820009C4D19F481E080936C070E9432170E942E
:1038300032171FB7F8948091A701811127C0E6E1E4
:10384000FDE08491E9EEFCE09491E82FF0E0EE0FCA
:10385000FF1FE658FE4FA591B491EC91E92321F4A6
:1038600061E081E10E94D30761E081E10E943608B6
:103870008CB580618CBD8CB580648CBD61E08FE0BF
:103880000E94360861E080E10E9436088091A7011D
:103890008F5F8093A7011FBF05E911E0F8018491B4
:1038A0000E5F1F4F31966491882319F00E943608ED
:1038B000F5CF61E086E10E94D30761E070E080E02F
:1038C00090E00E94720860E086E10E94D3076AE0FF
:1038D00070E080E090E00E94720861E086E10E9462
:1038E000D307ECE1FDE0E491F0E0EE0FFF1FE950BB
:1038F000F34FA591B4919C918091AB018095892360
:103900008C93EFEEFCE0E491E093AB01EAE1FDE0A3
:10391000E491F0E0EE0FFF1FE950F34F8591949191
:103920009093AA018093A901EDEEFCE0E491E0936D
:10393000A8018CB58C7F8CBD8DB581608DBDE0916B
:10394000A901F091AA0190818091A8018095892315
:103950008083E8E8F1E001E0E539F00749F084917F
:103960008EBD00000DB407FEFDCF8EB53196F3CFAE
:10397000E091A901F091AA0190818091A801892B81
:1039800080838091640081608093640080916400F2
:1039900082608093640080916400806880936400FA
:1039A00080916400806480936400809165008160F0
:1039B000809365000E94020983FF0BC080E094E0C1
:1039C0001EBC00000DB407FEFDCF2EB50197C1F758
:1039D000FFCFAEEECA2EDD24DA940E945715EE24F6
:1039E000E39400E128E54AEC50E0B60184E190E080
:1039F0000E94231286E192E00E9420096BE170E0B0
:103A000080E090E00E94720810EFC11206C06AEFD9
:103A100070E080E090E00E9472082FEFC21AD20A94
:103A200039E1C316D104C9F66EEE72E080E090E091
:103A30000E9472080E9432170E9432171092A00151
:103A400082E090E00E94DD2981110E94220B80918A
:103A5000A501811104C00E94150B0E940F0B88E282
:103A60008093080289E180930B020E94AC089B01BD
:103A7000AB01BC0180911402882389F080910C0273
:103A8000922F981B909315028091090290910A023F
:103A9000019690930A028093090210921402809179
:103AA000100290911102A0911202B09113024817D6
:103AB00059076A077B078CF4821B823010F40C9440
:103AC000BC2683B7817F83BF83B7816083BF88951E
:103AD00083B78E7F83BF0C94BC2680910B028A0132
:103AE0009B01080F111D211D311D00931002109321
:103AF0001102209312023093130240930C02509350
:103B00000D0260930E0270930F0281E08093140205
:103B100080910201909103018230910511F40C947F
:103B2000C92534F4019711F40C94CC250C94BC26CF
:103B30008330910511F1059711F00C94BC260E9479
:103B4000571580E290E09093170680931606109226
:103B500019061092180688E491E00E94551500E9B4
:103B600011E0A12CB12C6501A3944AE0E42EF12CC4
:103B700058E1252E312C0C9482260E946615E12CEA
:103B800004E025E042EE51E06CE270E084E390E076
:103B90000E9423122AE936E0388B2F87790100E052
:103BA00010E08091010190E0081719074CF4C7015B
:103BB0000E94940E0F5F1F4F3DE1E30EF11CF1CF09
:103BC0008091E3018111B1C20E940209182FC090B7
:103BD000F801D090F901E090FA01F090FB010E9409
:103BE000AC086C157D058E059F0538F5C090FD016C
:103BF000D090FE01E090FF01F09000020E94AC081E
:103C0000C616D706E806F906C0F44EE150E060E0BB
:103C100070E080E293E00E94F6130E94AC08DC01A1
:103C2000CB01845D9E4FAF4FBF4F8093FD019093BA
:103C3000FE01A093FF01B093000211111093DC016B
:103C4000C090CF01D090D001E090D101F090D2018E
:103C5000CD82DE82EF82F8868090D3019090D401ED
:103C6000A090D501B090D60189829A82AB82BC82A5
:103C70001091DC018091D701181709F450C016FF8C
:103C800012C0C501B4010E94C82A2B013C01C70122
:103C9000B6010E94C82ADC01CB01B2010E94A60D28
:103CA00081110C94C62613FF12C0C501B4010E94F5
:103CB000C82A2B013C01C701B6010E94C82ADC01B9
:103CC000CB01B2010E948B0D81110C94CB2617FF02
:103CD00012C0C501B4010E94C82A2B013C01C701D2
:103CE000B6010E94C82ADC01CB01B2010E946D0D11
:103CF00081110C94D02611FF12C0C501B4010E949D
:103D0000C82A4B015C01C701B6010E94C82ADC0128
:103D1000CB01B4010E94520D81110C94D526C090A4
:103D2000E601D090E701E090E801F090E9010E94FF
:103D3000AC086C157D058E059F0528F48FE892EC84
:103D4000A5EFBEE304C08AE999E9A9E1BFE3809346
:103D5000DF019093E001A093E101B093E201409173
:103D6000D7016091D3017091D4018091D5019091D8
:103D7000D601488F0E94C82A6B017C016091CF0157
:103D80007091D0018091D1019091D2010E94C82AF6
:103D90004B015C0180911C0690E055E0589FF001BA
:103DA000599FF00D1124E45EF94F21813281019673
:103DB000488D2815390529F4238134812C153D05BA
:103DC00099F068E170E00E94222C80931C0655E077
:103DD000589FF001599FF00D1124E45EF94F928233
:103DE0008182D482C3820196589F9001599F300DE1
:103DF0001124F901E45EF94F40830091DF01109135
:103E0000E0012091E1013091E201BE016F5F7F4F3F
:103E1000CE0105960E94FF0DC980DA80EB80FC8000
:103E20004D805E806F807884C301B2010E94C82AF1
:103E30004B015C01C701B6010E94C82AC4010E945F
:103E4000C40D882341F08091DC018093D70181E08B
:103E50008093E5016AC14092CF015092D0016092F7
:103E6000D1017092D20120E030E04CE752E4C7016A
:103E7000B6010E94B02B18164CF0C092D301D0921C
:103E8000D401E092D501F092D6010CC080E090E020
:103E9000A0E0B0EC8093D3019093D401A093D5011E
:103EA000B093D60120E030E040E450EC6091D301C3
:103EB0007091D4018091D5019091D6010E94C32ABE
:103EC00087FF0CC000E010E028E732E40093D30144
:103ED0001093D4012093D5013093D6016091D30182
:103EE0007091D4018091D5019091D6010E94C82A89
:103EF0009B01A401BE01675F7F4FCE010A960E941D
:103F0000FD0C882309F440C044E150E060E070E01B
:103F10008BE092E00E94F6130E94AC08DC01CB011A
:103F200088539F4FAF4FBF4F8093E6019093E701B7
:103F3000A093E801B093E9016AE070E080E090E0CE
:103F40000E94F7118091EA019091EB010196909304
:103F5000EB018093EA018634910519F08A3A9105C4
:103F600099F481E0809395060E94AC08DC01CB01B6
:103F7000885D9C4DAF4FBF4F8093960690939706F8
:103F8000A0939806B09399060EEE11E0EE24E39408
:103F9000F12CF8EECF2EF3E0DF2ED8018C918823A0
:103FA00009F470C0F8013197B0804090D30150906F
:103FB000D4016090D5017090D6013197608170E096
:103FC00080E090E00E94FE2A9B01AC016091CF014D
:103FD0007091D0018091D1019091D2010E94562A16
:103FE0009F7720E030E040E050E40E94C32A18169A
:103FF0000CF448C06B2D70E080E090E00E94FE2A37
:104000009B01AC01C301B2010E94562A9F7720E0B8
:1040100030E040E050E40E94C32A18169CF1D80119
:104020001C921092FC010E94AC0820910001F70143
:10403000E21BF109EC9DA001ED9D500DFC9D500D82
:1040400011244837FCEE5F0714F40C9417289A01EA
:104050002059384E4901330FAA08BB08DC01CB01B7
:10406000880D991DAA1DBB1D8093F8019093F9013D
:10407000A093FA01B093FB0162E370E080E090E06E
:104080000E94F7110D5F1F4FB1E00A3F1B0709F0B7
:1040900084CF1091D7016091D3017091D4018091A8
:1040A000D5019091D6010E94C82A6B017C016091D4
:1040B000CF017091D0018091D1019091D2010E94E5
:1040C000C82A2B013C0180911C0690E045E0489FE6
:1040D000F001499FF00D1124E45EF94F21813281F6
:1040E00001962415350529F4238134812C153D05CD
:1040F00099F068E170E00E94222C80931C0645E054
:10410000489FF001499FF00D1124E45EF94F52825F
:104110004182D482C3820196489F9001499F300D0D
:104120001124F901E45EF94F1083809195068823EC
:1041300009F452C0C090D301D090D401E090D501D1
:10414000F090D6012091CF013091D0014091D10162
:104150005091D20160E070E084E592E40E94562A1A
:104160009F7720E030E040E050E40E94C32A181618
:104170000CF464C7A701960160E070E080E392E46C
:104180000E94562A9F7720E030E040E050E40E94F1
:10419000C32A18160CF452C788EA91E09093A40140
:1041A0008093A3019093A2018093A1010E94440AED
:1041B00081E08093A001109295062091000188EE85
:1041C00093E0289FB001299F700D1124072E000C49
:1041D000880B990B0E94F71162EA262E66E0362EB4
:1041E0007AE9472E76E0572EE8EAF6E0FC87EB877F
:1041F0001E861D860091010110E08D859E85801729
:1042000091070CF0C0C1D1016C90F201C784D08835
:10421000E188F2880E94AC086C157D058E059F052B
:1042200008F47AC1D2018D909D90AD90BC9020E0B1
:1042300030E044E552E4C501B4010E94C32AF20112
:10424000C480D580E680F78081112CC020E030E06A
:1042500048E851E4C701B6010E94B02B181614F5C6
:1042600020E030E04CE152E4C701B6010E94C32ACD
:1042700087FF18C020E030E040E85FE3C701B601E7
:104280000E94562A0E94C82A072E000C880B990B00
:104290000E94002BD20114966D937D938D939C9375
:1042A00017975EC18D829E82AF82B886C982DA82FC
:1042B000EB82FC822091D3013091D4014091D50151
:1042C0005091D601298B3A8B4B8B5C8B2091CF017F
:1042D0003091D0014091D1015091D201C501B4017A
:1042E0000E94562A9F7720E030E040E050E40E9490
:1042F000C32A1816B4F469817A818B819C810E944B
:10430000C82A6B017C018B016D817E818F8198852C
:104310000E94C82A4B015C01ECE1F6E020E030E0AD
:1043200012C029893A894B895C89C701B6010E946C
:10433000562A9F7720E030E040E050E40E94C32AF4
:104340001816CCF28EC6818192812F5F3F4F86175F
:10435000970781F4838194818017910759F445E090
:10436000429FC001439F900D1124FC01E45EF94F70
:10437000708005C035962831310529F7712CD2019E
:1043800054968D919C9155976817790739F45696F4
:104390008D919C9157970817190799F0D1018C912D
:1043A000803819F0803409F005C5B601C4010E94B7
:1043B0008B0D81110AC5B601C4010E94520D8111F5
:1043C00004C5C090F801D090F901E090FA01F09096
:1043D000FB010E94AC086C157D058E059F05C0F0A1
:1043E000C980DA80EB80FC806D817E818F81988529
:1043F0000E94C82A6533710509F0F0C6C701B601ED
:104400000E94C82A6C5071096532710508F4E6C62D
:104410002AE939E949E15FE3F20161857285838523
:1044200094850E94B52B8B019C01D1014C91BE015A
:104430006F5F7F4FCE0105960E94FF0D762C95E0B1
:10444000F92E69817A818B819C810E94C82A4B0157
:104450005C016D817E818F8198850E94C82ADC0174
:10446000CB01B4010E94C40D8823C1F0F201848005
:104470009580A680B78020E030E0A901C501B40195
:104480000E94B02B181654F420E030E040E752E4CC
:10449000C501B4010E94C32A87FD62C5D1017C9287
:1044A0008D819E81AF81B885F20180839183A28343
:1044B000B38369817A818B819C81648375838683D0
:1044C000978320E030E04CE752E40E94B02B1816AE
:1044D0005CF400E010E020E030ECD20114960D9383
:1044E0001D932D933C93179720E030E040E450EC6F
:1044F000F20164817581868197810E94C32A87FFBA
:104500000BC000E010E028E732E4D20114960D93CE
:104510001D932D933C931797EB85FC851082319763
:104520001082D20114966D917D918D919C91179777
:104530000E94C82A9B01AC01F201608171818281D5
:1045400093812D8B3E8B488F5F8B0E94C82A2D89CB
:104550003E89AB016B857C85C2010D960E94FD0CE6
:104560000D851E850F5F1F4F1E870D872B853C8590
:10457000235E3F4F3C872B873DE1430E511C4DE1AD
:10458000240E311C37CE0E94081680919506882390
:1045900061F0EE24E39404E025E042EE51E06CE2A9
:1045A00070E084E390E00E94231200E010E080912C
:1045B000010190E0081719076CF460E08F85988975
:1045C0000E948D130F5F1F4FAF85B8895D96B88B22
:1045D000AF87EDCF8091E301882309F4B0C287EE65
:1045E00091E09093A4018093A3019093A201809302
:1045F000A1010E94440A81E08093A0018091E4011E
:1046000081508093E4011092950680E090E00E9432
:10461000AE1581E090E00E94AE1582E090E00E942D
:10462000AE158091E401811132C260E070E0CB01EF
:104630000E9472080E94960C8EE190E090931706FB
:104640008093160683E290E09093190680931806F3
:1046500083E391E00E94551586E192E00E942009D3
:1046600060ED77E080E090E00E94720881E090E0E9
:1046700090930301809302018090D8019090D9011A
:10468000A090DA01B090DB0181149104A104B1047F
:1046900009F455C200E911E0D12CC8010E94920E24
:1046A000F82EC80101960E94920EBFEFFB1202C0C5
:1046B0008F3F19F090E09F2902C080E090E0A0E0D9
:1046C000B0E088159905AA05BB0508F0C9C10E948C
:1046D000571580E28093AC018093AD018093AE01C9
:1046E00010E0F8E54F2E512CA8E38A2E912CB4E16E
:1046F000AB2EB12C00E4602E712C88E4282E312CD6
:10470000E0E2CE2E86E192E00E9420090E94571539
:10471000E0E1F0E0F0931706E09316061092190618
:10472000109218068DE391E00E94551550921706DD
:104730004092160610921906109218066091D80140
:104740007091D9018091DA019091DB014AE00E94D9
:1047500014159092170680921606B0921906A09230
:1047600018068091AC010E94F714709217066092AF
:104770001606B0921906A09218068091AD010E940B
:10478000F7143092170620921606B0921906A092DE
:1047900018068091AE010E94F71401E02BE130E091
:1047A0004EE350E06BE170E088E390E00E9470140B
:1047B0002BE130E046E450E06BE170E080E490E013
:1047C0000E9470142BE130E04EE450E06BE170E0A9
:1047D00088E490E00E94701400E02CE130E048E5AD
:1047E00050E06CE170E088E390E00E947014812F4B
:1047F000012E000C990B079673E0880F991F7A958C
:10480000E1F7AC014A5F5F4F01E02CE130E06CE181
:1048100070E00E94701466E970E080E090E00E9411
:1048200072080E94020987FD04C00E94020980FFED
:104830000BC0115017FDF9C34AEF50E060E070E083
:1048400086E194E00E94F6130E94020986FF0DC0E3
:104850001F5F13304CF44AEF50E060E070E086E1F7
:1048600094E00E94F61301C012E00E94020981FF49
:104870002AC0812F012E000C990B9C0124553E4F1C
:104880007901D9010C910F5F0C934AEF50E060E081
:1048900070E08BE092E00E94F613003311F4F70110
:1048A000C082D7018C91813211F4E1E4EC93D701FD
:1048B0008C918B3511F4E0E3EC93D7018C9180342B
:1048C00011F4E1E2EC930E94020983FF2AC0812FD8
:1048D000012E000C990B9C0124553E4F7901D90102
:1048E0000C9101500C934AEF50E060E070E08BE0D7
:1048F00092E00E94F613003219F48FE3F7018083EF
:10490000D7018C918F3211F4EAE5EC93D7018C91A9
:104910008F3111F4EFE2EC93D7018C91803409F4DC
:10492000CC920E94020984FFEDCE123054F41F5F36
:104930004AEF50E060E070E086E194E00E94F613F8
:10494000DFCE4AEF50E060E070E086E194E00E9444
:10495000F613B5E0DB9E700111243701E0E76E1A13
:10496000EEEF7E0AC3010E94920E182F4701FFE668
:104970008F1AFEEF9F0AC4010E94920E1F3F11F48E
:104980008F3F29F090E09C01312B890102C000E0AB
:1049900010E027013EE6431A3EEF530AC2010E948F
:1049A000920E382E57014DE6A41A4EEFB40AC501F7
:1049B0000E94920EC82E5CE6E51A5EEFF50AC7016A
:1049C0000E94920E282E8091D8019091D901A09139
:1049D000DA01B091DB01692F7A2F8B2F9927C30160
:1049E0000E94E5296091D801C4010E94E5296091E7
:1049F000AC01C2010E94E5296091AD01C5010E9490
:104A0000E5296091AE01C7010E94E52920E030E070
:104A10000093D8011093D9012093DA013093DB0180
:104A20003092AC01C092AD012092AE01D3948AE0E5
:104A3000D8128FCF1092D8011092D9011092DA01BA
:104A40001092DB0180E28093AC018093AD018093F2
:104A5000AE0185E090E0909303018093020108C0CD
:104A6000D3940B5F1F4F023C91E0190709F015CE5C
:104A700044E150E060E070E08BE092E00E94F613C9
:104A80006CE271E080E090E00E94720858C064EF30
:104A900071E080E090E00E9472080E94661510921A
:104AA000F8011092F9011092FA011092FB0188E7C7
:104AB000EDE1F6E0DF011D928A95E9F710921C0600
:104AC0001092E30180E090E0A0E0BFE38093DF017B
:104AD0009093E001A093E101B093E20180E090E0C7
:104AE000A4E5B2E48093CF019093D001A093D101CB
:104AF000B093D20180E090E0A0E3B2E48093D301D0
:104B00009093D401A093D501B093D6011092E60101
:104B10001092E7011092E8011092E9011092FC0155
:104B20001092DC011092D7011092FD011092FE014B
:104B30001092FF011092000280E00E949D0F86E11A
:104B400092E00E9420098091EA019091EB01843F5C
:104B5000910508F411C18AE392E09093A401809337
:104B6000A3019093A2018093A1010E94440A81E0D5
:104B70008093A001809100018F5F809300016CEA17
:104B80007DE080E090E00E9472088FEC91E00E944E
:104B90003F0E0E940B10F0C083E08093E40110925E
:104BA000D8011092D9011092DA011092DB01109213
:104BB00001028FEC91E00E943F0E0E945F0C109169
:104BC000A6010E94020983FF06C08FEF810F87FDB7
:104BD00082E08093A6010E94020981FF0CC08091AF
:104BE000A601082E000C990B019663E070E00E946C
:104BF000222C8093A6010E94020984FF2EC00E94ED
:104C00005F0C44E150E060E070E08FE692E00E94CB
:104C1000F61368EC70E080E090E00E9472088091EA
:104C2000A601823061F48091A501882319F00E94C9
:104C3000150B02C00E94220B0E940F0B9DC0811118
:104C400003C082E090E004C0813039F485E090E058
:104C500090930301809302018FC08091A601811778
:104C600009F48AC00E945F0C74C08F3F09F463C0CE
:104C7000482E512C5928052C000C66087708C801CD
:104C800002960E94920E982E8093AC01C801039662
:104C90000E94920E8093AD01C80104960E94920E6C
:104CA0008093AE014114510461047104E9F0E0E322
:104CB000F0E0F0931706E0931606F0921906E092E2
:104CC0001806892D0E94F7148091AD010E94F714F7
:104CD0008091AE010E94F71480E20E94F7144AE02E
:104CE000C301B2010E941415F8E0EF0EF11C2FEF82
:104CF000A21AB20AC20AD20A0B5F1F4F3AE5E316A4
:104D0000F104E9F03092170620921606F092190687
:104D1000E09218064AE0C601B5010E941415C801C8
:104D20000E94920E982EC80101960E94920EBFEF2B
:104D30009B129ECF9ACF412C512C3201A0CF0E94C2
:104D4000020984FF15C081E090E0909303018093F5
:104D5000020144E150E060E070E08BE092E00E94EC
:104D6000F61368EC70E080E090E00E94720804C0E6
:104D700086E192E00E94200980E090E0892B11F406
:104D80000C94351D0E9400000C94351D80E4809326
:104D9000D7010C94531E88E08093D7010C94671EB2
:104DA00080E88093D7010C947B1E82E08093D7012A
:104DB0000C948F1EB601C4010E946D0D811105C0B7
:104DC000B601C4010E94A60DFACA0E94CF2923E0B1
:104DD00030E040E050E00E94F329672B682B692BFC
:104DE00011F0772081F0F201C480D580E680F78051
:104DF00020E030E040EA50E4C701B6010E94B02B49
:104E000018163CF0DECAC2010E94E50E8111EBCFFC
:104E1000D8CA20E030E040E752E4C701B6010E9462
:104E2000C32A87FFCECA71104FC0C2010E94E50E8F
:104E3000D101882309F43EC02C91F201C480D580B1
:104E4000E680F7806081718182819381203811F042
:104E50002034C9F4C701B6010E94C82A072E000CED
:104E6000880B990B0E94002B2091D3013091D40123
:104E70004091D5015091D6010E94B02B1816FCF03C
:104E800052E0752E21C00E94C82A072E000C880B04
:104E9000990B0E94002B2091CF013091D0014091BD
:104EA000D1015091D2010E94C32A87FD0BC040E876
:104EB000742E0AC08C910E942F0F782E05C038E006
:104EC000732E02C020E4722E69817A818B819C81CD
:104ED0000E94C82A6B017C016D817E818F8198853B
:104EE0000E94C82AF201758B648BD78AC68A00E0BB
:104EF00010E020E83FE3472DBE016F5F7F4FCE01FA
:104F000005960E94FF0D69817A818B819C810E94A8
:104F1000C82A6B017C016D817E818F8198850E94FA
:104F2000C82ADC01CB01B6010E94C40D882309F414
:104F3000B5CAF20180819181A281B3818D839E8364
:104F4000AF83B88784819581A681B78189839A834D
:104F5000AB83BC83D1018C910E942F0F782EC7CFD9
:104F6000C501B4010E94C82A8B01F20160817181E0
:104F7000828193810E94C82AECE1F6E080E090E013
:104F80002181328101962617370789F423813481E4
:104F90002017310761F4F89E9001F99E300D11241D
:104FA000F901E45EF94F708071100AC004C03596B3
:104FB0008831910529F7F10180810E942F0F782E09
:104FC000F20180819181A281B3818D839E83AF8321
:104FD000B88784819581A681B78189839A83AB83C1
:104FE000BC8300E010E020E83FE3472DBE016F5F87
:104FF0007F4FCE0105960E94FF0D69817A818B81DA
:105000009C810E94C82A4B015C016D817E818F8149
:1050100098850E94C82AD20155967C936E93549726
:1050200057969C928E9256970CCA10E00DCC28EEA3
:10503000822E23E0922EA12CB12C10C8C09096068F
:10504000D0909706E0909806F09099060E94AC08E0
:10505000C616D706E806F90608F0BEC810929506EF
:10506000BBC8C090F801D090F901E090FA01F0902F
:10507000FB010E94AC086C157D058E059F0508F0AC
:1050800082C045EC51E05093A4014093A30150939A
:10509000A2014093A1010E94440A51E05093A00153
:1050A00061E0C2010E948D136CE771E080E090E046
:1050B0000E94720886E192E00E942009C2010E94CB
:1050C0004D0F0E94AC086B017C018090F80190901C
:1050D000F901A090FA01B090FB010E94AC08D20146
:1050E00053962C915397E4EFF1E02E9FA0012F9F50
:1050F000500D11248A01550F220B330B800E911E87
:10510000A21EB31E8C0C9D1CAE1CBF1C861A970AD7
:10511000A80AB90A1F968D929D92AD92BC925297A1
:105120005996CD90DD90ED90FC905C978C0C9D1C79
:10513000AE1CBF1CF201818E928EA38EB48E609144
:10514000FC016F5F6093FC01F8EC6F9FB0011124CC
:10515000072E000C880B990B0E94F7118091F80123
:105160009091F901A091FA01B091FB0184589E4FF2
:10517000AF4FBF4F8093F8019093F901A093FA01CC
:10518000B093FB01EDC921E02093E3016091D301CD
:105190007091D4018091D5019091D6010E94CF2ABF
:1051A000F62E6091CF017091D0018091D101909144
:1051B000D2010E94CF2AE8EAF6E080E090E0DF0129
:1051C0002E91621305C020812F1102C010821C9203
:1051D00001967D968017910794F38DC8D201199698
:1051E0000D911D912D913C911C971FC9089510920E
:1051F0001F0710921E0788EE93E0A0E0B0E08093B6
:10520000200790932107A0932207B093230788E1FA
:1052100091E090931D0780931C078FEF9FEF909371
:10522000290780932807109205021092040288E251
:1052300091E090930302809302028CE38093080232
:1052400080E180930B0210920A02109209021092E0
:105250001002109211021092120210921302109278
:105260001402109217061092160610921906109248
:10527000180681E080931A0683E08093E40110927F
:10528000D8011092D9011092DA011092DB0110922C
:1052900001028FEC91E00E943F0E88E7EDE1F6E01D
:1052A000DF011D928A95E9F710921C06EAE9F6E003
:1052B00080E090E0108211821282138214821582A3
:1052C00016821782DC01A656B94F53961C9253974B
:1052D0001786108A118A128A1E961C921E971D9696
:1052E0001C924D967D968437910521F71092950674
:1052F00010929606109297061092980610929906B0
:1053000008958F929F92AF92BF92CF92DF92EF92C9
:10531000FF92CF93DF93EC01688179818A819B8131
:10532000611571058105910521F464E279ED8BE544
:1053300097E02DE133EF41E050E00E94F32949016D
:105340005A019B01AC01A7EAB1E40E94122A6B0149
:105350007C01ACEEB4EFA50194010E94202ADC018F
:10536000CB018C0D9D1DAE1DBF1DB7FF03C0019766
:10537000A109B04888839983AA83BB83BC01CD016E
:105380009F77DF91CF91FF90EF90DF90CF90BF900C
:10539000AF909F908F9008950E948129089580E199
:1053A00091E00E948129089560931001709311018A
:1053B00080931201909313010895F999FECF92BD45
:1053C00081BDF89A992780B50895262FF999FECFC7
:1053D0001FBA92BD81BD20BD0FB6F894FA9AF99A12
:1053E0000FBE01960895052E97FB1EF400940E94AF
:1053F0000A2A57FD07D00E94252A07FC03D04EF445
:105400000C940A2A50954095309521953F4F4F4F67
:105410005F4F089590958095709561957F4F8F4F60
:105420009F4F08950E94472AA59F900DB49F900D0D
:10543000A49F800D911D11240895B7FF0C94122A8A
:105440000E94122A821B930B0895A1E21A2EAA1B16
:10545000BB1BFD010DC0AA1FBB1FEE1FFF1FA21724
:10546000B307E407F50720F0A21BB30BE40BF50B21
:10547000661F771F881F991F1A9469F760957095AA
:10548000809590959B01AC01BD01CF010895A29F2D
:10549000B001B39FC001A39F700D811D1124911D08
:1054A000B29F700D811D1124911D08955058BB2786
:1054B000AA270E946E2A0C94762B0E94682B38F043
:1054C0000E946F2B20F039F49F3F19F426F40C94BE
:1054D000652B0EF4E095E7FB0C945F2BE92F0E94FF
:1054E000872B58F3BA17620773078407950720F0D4
:1054F00079F4A6F50C94A92B0EF4E0950B2EBA2F97
:10550000A02D0B01B90190010C01CA01A0011124C9
:10551000FF27591B99F0593F50F4503E68F11A1675
:10552000F040A22F232F342F4427585FF3CF469506
:1055300037952795A795F0405395C9F77EF41F1628
:10554000BA0B620B730B840BBAF09150A1F0FF0FF2
:10555000BB1F661F771F881FC2F70EC0BA0F621FDE
:10556000731F841F48F4879577956795B795F795CE
:105570009E3F08F0B0CF9395880F08F09927EE0F63
:105580009795879508950E943B2B08F481E0089534
:105590000E94CF2A6894B1110C94AA2B08950E94FE
:1055A0008F2B88F09F5798F0B92F9927B751B0F0FB
:1055B000E1F0660F771F881F991F1AF0BA95C9F797
:1055C00014C0B13091F00E94A92BB1E008950C9461
:1055D000A92B672F782F8827B85F39F0B93FCCF314
:1055E000869577956795B395D9F73EF49095809514
:1055F000709561957F4F8F4F9F4F0895E89409C034
:1056000097FB3EF490958095709561957F4F8F4FF5
:105610009F4F9923A9F0F92F96E9BB279395F6950B
:10562000879577956795B795F111F8CFFAF4BB0F89
:1056300011F460FF1BC06F5F7F4F8F4F9F4F16C0ED
:10564000882311F096E911C0772321F09EE8872F77
:10565000762F05C0662371F096E8862F70E060E033
:105660002AF09A95660F771F881FDAF7880F9695AC
:10567000879597F90895990F0008550FAA0BE0E850
:10568000FEEF16161706E807F907C0F01216130604
:10569000E407F50798F0621B730B840B950B39F444
:1056A0000A2661F0232B242B252B21F408950A26AA
:1056B00009F4A140A6958FEF811D811D089597F9EA
:1056C0009F6780E870E060E008959FEF80EC0895A8
:1056D00000240A94161617061806090608950024D1
:1056E0000A9412161306140605060895092E03944B
:1056F000000C11F4882352F0BB0F40F4BF2B11F4BF
:1057000060FF04C06F5F7F4F8F4F9F4F089557FD1D
:105710009058440F551F59F05F3F71F04795880F1F
:1057200097FB991F61F09F3F79F0879508951216B6
:1057300013061406551FF2CF4695F1DF08C0161662
:1057400017061806991FF1CF869571056105089413
:105750000895E894BB2766277727CB0197F908952A
:105760000E943B2B08F48FEF08950E94C82B0C94E5
:10577000762B0E94682B38F00E946F2B20F0952327
:1057800011F00C945F2B0C94652B11240C94AA2B14
:105790000E94872B70F3959FC1F3950F50E0551F22
:1057A000629FF001729FBB27F00DB11D639FAA2776
:1057B000F00DB11DAA1F649F6627B00DA11D661FC5
:1057C000829F2227B00DA11D621F739FB00DA11DE6
:1057D000621F839FA00D611D221F749F3327A00DA0
:1057E000611D231F849F600D211D822F762F6A2F3C
:1057F00011249F5750409AF0F1F088234AF0EE0FA1
:10580000FF1FBB1F661F771F881F91505040A9F7CD
:105810009E3F510580F00C945F2B0C94AA2B5F3FA8
:10582000E4F3983ED4F3869577956795B795F79509
:10583000E7959F5FC1F7FE2B880F911D9695879581
:1058400097F9089597FB072E16F4009407D077FD7B
:1058500009D00E943C2C07FC05D03EF49095819520
:105860009F4F0895709561957F4F0895EE0FFF1F2C
:105870000590F491E02D0994AA1BBB1B51E107C0D0
:10588000AA1FBB1FA617B70710F0A61BB70B881FD0
:10589000991F5A95A9F780959095BC01CD0108955F
:1058A00081E090E0F8940C94552C16E0C5EDD6E01C
:1058B00004C0FE010E94362C2196C63DD107C9F7CF
:0458C000F894FFCF8A
:1058C4000104010000E1000000000000FFFFFFFFF1
:1058D4000100000000000000FD106011DE171E1121
:1058E4003C11131100000000570B000700C1808118
:1058F40000000047414D45204F5645520048494756
:10590400482053434F524500484947482053434F8A
:1059140052455300417264752D6D616E000D0A008D
:10592400506C617900486967682053636F726573CE
:1059340000536F756E642069733A204F4E00536FA5
:10594400756E642069733A204F46460053636F7244
:10595400653A004C6576656C20005B2000205D0094
:00000001FF
