:100000000C9410060C9438060C9438060C943806A0
:100010000C9438060C9438060C9438060C94380668
:100020000C9438060C9438060C94B70F0C942910D5
:100030000C9438060C9438060C9438060C94380648
:100040000C9438060C9438060C9438060C94380638
:100050000C9438060C9438060C9438060C948E0ACE
:100060000C9438060C9438060C9438060C94380618
:100070000C9438060C9438060C9438060C94380608
:100080000C94900B0C9438060C9438060C9438069B
:100090000C9438060C9438060C9438060C943806E8
:1000A0000C9438060C9438060C943806F0F89C8EA4
:1000B0008783878E9CF8F00000FEFF030303030391
:1000C000070EFCF80000FEFF0303030303070EFC0A
:1000D000F80000FFFF00000000000000FFFF00002C
:1000E000FEFF8383838383C7EE7C380000F8FC0E19
:1000F00007030303070EFCF800003F7FE0C0808089
:10010000C0E07F3FFFFF01010101010101FFFF008E
:1001100000FFFF0C0C0C0C1C3E77E3C100007FFFBE
:10012000C0C0C0C0C0E0703F1F00001F3F70E0C0F3
:10013000C0C0E0703F1F00007FFFC1C1C1C1C1E36B
:10014000773E1C00001F3F70E0C0C0C0E0703F1F42
:10015000000000000001FFFF01000000D5F08D1439
:10016000A1C881CFD9F1AF2000000000000000003D
:10017000000000000000000000000000000000007F
:1001800000000000000000000001800001FFFFFFF0
:10019000FFFFFFFFFF800001800140000100000021
:1001A000000000000080000280012000010000002B
:1001B00000000000008000048001980001003FFF63
:1001C000FFFC0000008000198000CE0001003FFF0E
:1001D000FC000000008000730000F38001003FF885
:1001E00000000000008001CF00013CE00100380069
:1001F000000000000080073C80018E30010038398B
:10020000F9B9B98300800C718000C3100100383B3C
:10021000FDFDFDC7008008C30000F05001003F391C
:10022000FDFDFCC600800A0F0000789801003F38F1
:100230001DDDDCEE0080191E00004CC801003F38B7
:100240001DDDDC7E00801332000063CC01003839F4
:10025000FDFDFC3C008033C6000030660100383BE9
:10026000FDFDFC3C0080660C00003CEB8100383B4F
:10027000FDF9F8380081D73C00002FB8E100383B89
:100280009DC1C03800871DF40000333A1900383B87
:10029000FDC1C03800985CCC00001E6C0F00383BDC
:1002A000FDC1C07000F03678000017C489003839ED
:1002B000EDC1C1F0009123E80000198F2700383804
:1002C000018183C000E4F19800000F39DB00383968
:1002D000FFFFFF8000DB9CF0000007F33700000009
:1002E000007FFE0000ECCFE0000000C36B000000C8
:1002F0000000000000D6C300000000FECF00000098
:100300000000000000F37F000000007B9300003F2E
:10031000C001DC0000C9DE00000000031700003F40
:10032000E001DC0000E8C000000000002F00003FFA
:10033000F001DC0000F4000000000000790000384B
:100340007801DC00009E0000000000003100003851
:100350003801DC00008C00000000000001000038C3
:100360003801DC00008000000000000001000038BF
:1003700031F9DC0000800000000000000100003FB7
:10038000F3FDDC0000800000000000000100003FE1
:10039000E1FDDC0000800000000000000100003FE3
:1003A000F01DDC00008000000000000001000038AB
:1003B000381DDC0000800000000000000100003853
:1003C00039FDDC0000800000000000000100003862
:1003D0003BFDDC0000800000000000000100003850
:1003E0003BFDDC0000800000000000000100003840
:1003F0007B9DDC0000800000000000000100003F49
:10040000FBFDDC0000800000000000000100003F58
:10041000F3FDDC0000800000000000000100003F50
:10042000E1EDDC00008000000000000001000000A1
:10043000000000000080000000000000010000003B
:10044000000000000080000000000000010000002B
:1004500000000000008000000000000001FFFFFF1E
:10046000FFFFFFFFFF800000000000000000000011
:10047000000000000000000000000000000000007C
:10048000000000000000000000000000000000006C
:10049000000000000000000000000000000000005C
:1004A000000000000000000000000000000000004C
:1004B000000000000000000000000000000000003C
:1004C000000000000000000000000000000000002C
:1004D000000000000000000000000000000000001C
:1004E000000000000000000000000000000000000C
:1004F00000000000000000000000000000000000FC
:1005000000000000000000000000000000000000EB
:1005100000000000000000000000000000000000DB
:1005200000000000000000000000000000000000CB
:1005300000000000000000000000000000000000BB
:1005400000000000000000000000000000000000AB
:10055000000000000000000000000000000000009B
:100560000000000000000000000B02F4010601F48E
:10057000014A01F401B801F4018801F4010601F413
:10058000010B02F4010601F4014A01F401B801F47F
:10059000018801F4010601F401B801F401DC00F462
:1005A000010601F4015D01F4012601F401DC00F40F
:1005B00001B801F401DC00F4010601F4018801F442
:1005C000012601F4015D01F4010B02D0070080FF58
:1005D00080003FC3FC07F80080FFFFE04207FC0FEC
:1005E000F08083002042044C0810808300244204E1
:1005F0004C88108FF3002442644C88108903232018
:1006000042644C09908903232042644C0990890379
:10061000232042644C09F089132321C2644C390021
:1006200089132327C2040CF9008103232042040C00
:1006300009008103232042060C0900FFFFFFFFC3CE
:10064000FDF7FF0000000000000000000006012C84
:1006500001930096000000960083009600C400EE0F
:100660000226018403F7002500C4002500A500250B
:1006700000830025006E0025005700250049002555
:10068000003E00F401008006011F0015011F002636
:10069000011F000080DC034B002705E10000802ED5
:1006A000006B000601F401008001020408102040E4
:1006B0008000000000003E5B4F5B3E3E6B4F6B3E98
:1006C0001C3E7C3E1C183C7E3C181C577D571C1C55
:1006D0005E7F5E1C00183C1800FFE7C3E7FF0018B0
:1006E000241800FFE7DBE7FF30483A060E26297999
:1006F0002926407F050507407F05253F5A3CE73CFA
:100700005A7F3E1C1C08081C1C3E7F14227F2214AA
:100710005F5F005F5F06097F017F006689956A6001
:100720006060606094A2FFA29408047E0408102018
:100730007E201008082A1C08081C2A08081E101011
:1007400010100C1E0C1E0C30383E3830060E3E0EBB
:1007500006000000000000005F0000000700070026
:10076000147F147F14242A7F2A122313086462360C
:10077000495620500008070300001C224100004198
:10078000221C002A1C7F1C2A08083E0808008070D2
:100790003000080808080800006060002010080405
:1007A000023E5149453E00427F4000724949494658
:1007B0002141494D331814127F1027454545393CD6
:1007C0004A494931412111090736494949364649C3
:1007D00049291E00001400000040340000000814E5
:1007E000224114141414140041221408020159095E
:1007F000063E415D594E7C1211127C7F49494936B3
:100800003E414141227F4141413E7F494949417F2B
:10081000090909013E414151737F0808087F0041E1
:100820007F41002040413F017F081422417F40402A
:1008300040407F021C027F7F0408107F3E414141FF
:100840003E7F090909063E4151215E7F091929466B
:10085000264949493203017F01033F4040403F1F81
:100860002040201F3F4038403F63140814630304B6
:100870007804036159494D43007F41414102040816
:100880001020004141417F040201020440404040E9
:1008900040000307080020545478407F284444381F
:1008A0003844444428384444287F38545454180069
:1008B000087E090218A4A49C787F080404780044E8
:1008C0007D40002040403D007F1028440000417FD3
:1008D00040007C047804787C08040478384444445C
:1008E00038FC1824241818242418FC7C0804040854
:1008F000485454542404043F44243C4040207C1C6D
:100900002040201C3C4030403C44281028444C905F
:1009100090907C4464544C440008364100000077B9
:100920000000004136080002010204023C26232692
:100930003C1EA1A161123A4040207A3854545559C6
:1009400021555579412154547841215554784020FE
:10095000545579400C1E5272123955555559395417
:1009600054545939555454580000457C41000245AF
:100970007D420001457C40F0292429F0F0282528FB
:10098000F07C545545002054547C547C0A097F491E
:1009900032494949323248484832324A4848303A66
:1009A0004141217A3A42402078009DA0A07D3944FF
:1009B0004444393D4040403D3C24FF2424487E4986
:1009C00043662B2FFC2F2BFF0929F620C0887E09B8
:1009D0000320545479410000447D413048484A3254
:1009E000384040227A007A0A0A727D0D19317D263C
:1009F00029292F28262929292630484D4020380822
:100A000008080808080808382F10C8ACBA2F1028A2
:100A100034FA00007B000008142A142222142A143D
:100A2000089500220095AA005500AAAA55AA55AA21
:100A3000000000FF00101010FF00141414FF00103D
:100A400010FF00FF1010F010F0141414FC00141428
:100A5000F700FF0000FF00FF1414F404FC14141747
:100A6000101F10101F101F1414141F00101010F06E
:100A7000000000001F101010101F10101010F010B8
:100A8000000000FF101010101010101010FF1000C8
:100A90000000FF140000FF00FF00001F10170000FF
:100AA000FC04F414141710171414F404F40000FFD9
:100AB00000F714141414141414F700F71414141772
:100AC0001410101F101F141414F4141010F010F050
:100AD00000001F101F0000001F14000000FC140085
:100AE00000F010F01010FF10FF141414FF14101079
:100AF000101F00000000F010FFFFFFFFFFF0F0F0FC
:100B0000F0F0FFFFFF0000000000FFFF0F0F0F0FCE
:100B10000F38444438447C2A2A3E147E02020606DA
:100B2000027E027E0263554941633844443C0440DE
:100B30007E201E2006027E020299A5E7A5991C2AA6
:100B4000492A1C4C7201724C304A4D4D3030487865
:100B50004830BC625A463D3E494949007E01010188
:100B60007E2A2A2A2A2A44445F444440514A444067
:100B700040444A51400000FF0103E080FF000008AC
:100B8000086B6B083612362436060F090F06000074
:100B900018180000001010003040FF0101001F0174
:100BA000011E00191D1712003C3C3C3C00000000D7
:100BB00000080B0002020201000904000001020209
:100BC000000005240010010524010101042402068F
:100BD00005240600010705810310004009040100F7
:100BE000020A000000070502024000000705830218
:100BF0004000000403090412010002EF0201404119
:100C000023368000010102030141726475696E6F31
:100C1000204C4C430041424C313330360000B81771
:100C200011241FBECFEFDAE0DEBFCDBF11E0A0E0A0
:100C3000B1E0EAEBF2E302C005900D92AE37B107E6
:100C4000D9F726E0AEE7B1E001C01D92AD33B2079F
:100C5000E1F716E0C0E1D6E004C02197FE010E9452
:100C60005019CF30D107C9F70E9459120C945B1963
:100C70000C9400007F928F929F92AF92BF92CF927E
:100C8000DF92EF92FF920F931F93CF93DF936C014C
:100C90005B017A0180910C01882309F46BC080917B
:100CA0009501882309F466C08091930180FF05C0F7
:100CB0008091E00082608093E000E70110E00AEF9D
:100CC00083E0982E90E4792E2AE3822E209709F46F
:100CD00048C08FB7F8949092E9009091E80095FF92
:100CE00006C09091F200272D291B922F01C090E0A1
:100CF0008FBF91110AC0015009F43CC061E070E05F
:100D000080E090E00E94540AE1CF292F30E0C21722
:100D1000D3070CF49C2F8FB7F8949092E9002091A0
:100D2000E80025FF1CC0292F30E0C21BD30BF501C2
:100D3000915020F041914093F100FACFA20EB31EE2
:100D4000112319F08092E80009C09091E80095FD08
:100D500006C08092E80011E0209709F010E08FBFF4
:100D6000B5CF1111B6CF5D9884E6809392011E1421
:100D70001F0444F081E090E0F6019383828380E0D9
:100D800090E001C0C701DF91CF911F910F91FF90BB
:100D9000EF90DF90CF90BF90AF909F908F907F901B
:100DA00008959C01240F311D1216130674F5803826
:100DB00091055CF5FC0197FF02C0E0E0F0E021380E
:100DC000310514F020E830E02E1BAB0147705527A9
:100DD00081E001C0880F4A95EAF777FF02C0695F9A
:100DE0007F4F93E0759567959A95E1F77695762F05
:100DF000662777956795E60FF71FE656FE4F215059
:100E000020F09081982B9193FACF0895009769F084
:100E1000FC0101900020E9F73197AF01481B590B05
:100E2000BC018AEA95E00C94E40980E090E0089522
:100E30005F926F927F928F929F92AF92BF92CF926A
:100E4000DF92EF92FF920F931F93CF93DF93EC010A
:100E50008B017A01A901461B570B57FF03C051951F
:100E600041955109C7018C1B9D0B97FF03C09195BC
:100E700081959109552453948417950714F0512CAA
:100E80000AC09E2D8F2D7901292F382F9C2F8D2F51
:100E9000E801092F182FEC16FD0654F4902F812F2E
:100EA0008901292F382F9C2F8D2FE701E92EF82E4D
:100EB00037016C1A7D0A5901A01AB10AB7FE03C0A6
:100EC000B194A194B108630177FE03C08FEFC81AF3
:100ED000D80AD594C7940217130714F08FEF01C0F6
:100EE00081E0882E880F9908EC16FD06B4F021E009
:100EF000552019F0AE01B80102C0A801BE018EEA6A
:100F000095E00E94540CCA18DB08D7FE04C0080DF7
:100F1000191DC60CD71C2196E7CFDF91CF911F91E9
:100F20000F91FF90EF90DF90CF90BF90AF909F9088
:100F30008F907F906F905F9008952F923F925F9275
:100F40006F927F928F929F92AF92BF92CF92DF92D9
:100F5000EF92FF920F931F93CF93DF9300D000D0B7
:100F6000CDB7DEB79C838B83562EAC014C5F5F4FB1
:100F7000262F60E270E08EEA95E00E94540C4B81CF
:100F80005C8144505109252D60E270E08EEA95E0C5
:100F90000E94540C252D4B815C8164E270E08EEA46
:100FA00095E00E94540C252D4B815C816CE170E032
:100FB0008EEA95E00E94540C81E090E09A83898348
:100FC000E12CF12C04E010E028EF222E33243A9497
:100FD0003DEFC32EDD24DA94EFEFEE1AFE0A89818D
:100FE0009A8102969A838983C80ED91E470190E29E
:100FF000890E911C252DAB80BC80A00EB11EA501D1
:10100000B4018EEA95E00E94540C80E2682E712CA7
:101010006E187F08252DA501B3018EEA95E00E9488
:10102000540C252DAB80BC80A01AB10AA501B401D7
:101030008EEA95E00E94540C252DA501B3018EEA9D
:1010400095E00E94540C8B809C808E0C9F1C252D5B
:10105000A4015801E0E2AE0EB11CB5018EEA95E0A4
:101060000E94540C252DA40190E2692E712C601A67
:10107000710AB3018EEA95E00E94540C8B809C802B
:101080008E189F08252DA401B5018EEA95E00E94D7
:10109000540C252DA401B3018EEA95E00E94540C56
:1010A000E016F10654F4D7FC97CF0150110992E0F5
:1010B000290E311CC20CD31C8FCF0F900F900F90B4
:1010C0000F90DF91CF911F910F91FF90EF90DF90E4
:1010D000CF90BF90AF909F908F907F906F905F90D8
:1010E0003F902F9008956F927F929F92AF92BF9200
:1010F000CF92DF92EF92FF920F931F93CF93DF93E4
:101100001F92CDB7DEB78C013B01942E6034710580
:1011100028F4C80129830E94D10629815301A20E17
:10112000B11CB501615071096034710520F4492D7D
:10113000C8010E94D10677FE02C0612C712C730198
:10114000650181E4A816B1041CF080E4C82ED12CFE
:10115000EC14FD045CF421E0A701B8018EEA95E0EF
:101160000E94540C8FEFE81AF80AEACF090D111DFE
:10117000015011096C147D045CF421E0A301B80155
:101180008EEA95E00E94540C8FEF681A780AF2CF2D
:101190000F90DF91CF911F910F91FF90EF90DF9013
:1011A000CF90BF90AF909F907F906F90089580E018
:1011B000EAE9F1E081118FEF00248193819381931B
:1011C00081930394D1F708951F93CF93DF931F92D8
:1011D000CDB7DEB7182F5E9A88EC90E069830E9445
:1011E000030C5E9882E090E00E94D718698168172E
:1011F00021F082E090E00E94DF1884EF91E00E94ED
:10120000030C5E9A0E94080C81238117D9F30F907A
:10121000DF91CF911F910895CF92DF92EF92FF92CD
:101220000F931F93CF93DF93CDB7DEB7A1970FB680
:10123000F894DEBF0FBECDBF9C0140E050E019A284
:101240008E010F5D1F4F8AE0C82ED12CE12CF12CAE
:10125000CA01B901A70196010E941F19605DF8013A
:1012600062938F01211531054105510589F7CF01A1
:101270000E940607A1960FB6F894DEBF0FBECDBF41
:10128000DF91CF911F910F91FF90EF90DF90CF9062
:1012900008950F931F93CF93DF931F92CDB7DEB7BF
:1012A0008FB7F89440919601509197016091980101
:1012B000709199018FBF0091BA051091BB052091E3
:1012C000BC053091BD058091BE05882349F0809111
:1012D000B605481B4093BF051092BE0580E030C0A4
:1012E000401751076207730740F4041B023040F1B6
:1012F00089830E94260C898123C081E08093BE05EA
:101300004093B6055093B7056093B8057093B9053F
:101310008091B505480F511D611D711D4093BA059F
:101320005093BB056093BC057093BD058091B105DA
:101330009091B20501969093B2058093B10581E03A
:101340000F90DF91CF911F910F910895FC01809133
:101350009501811103C08FEF9FEF08959FB7F89417
:1013600082E08093E9002091F20030E0121613062B
:1013700014F421E030E02115310559F0289884E675
:10138000809394018091F10080838091F200882302
:1013900019F09FBFC90108958BE68093E800F9CF4B
:1013A0008091CC0581110DC082E08093C80584E056
:1013B0008093C9051092CB051092CA0581E08093F5
:1013C000CC0588EC95E00895CF92DF92EF92FF92E2
:1013D0000F931F93CF93DF936C017A018B01C0E0D1
:1013E000D0E0CE15DF0589F0D8016D918D01D601D1
:1013F000ED91FC910190F081E02DC6010995892BBA
:1014000011F47E0102C02196ECCFC701DF91CF918C
:101410001F910F91FF90EF90DF90CF9008958091F2
:101420002B06E0912906F0912A06882349F0CF0186
:10143000029690932A0680932906859194910895A7
:10144000CF01029690932A0680932906808191818C
:10145000089580918101089508950E9456193FB71B
:10146000F8948091330690913406A0913506B0919E
:10147000360626B5A89B05C02F3F19F00196A11D81
:10148000B11D3FBFBA2FA92F982F8827820F911D1A
:10149000A11DB11DBC01CD0142E0660F771F881F61
:1014A000991F4A95D1F708958F929F92AF92BF925C
:1014B000CF92DF92EF92FF926B017C010E942F0A84
:1014C0004B015C01C114D104E104F104F1F00E946C
:1014D0002F0ADC01CB0188199909AA09BB09883EAA
:1014E0009340A105B10570F321E0C21AD108E108CB
:1014F000F10888EE880E83E0981EA11CB11CC1146F
:10150000D104E104F10419F7DDCFFF90EF90DF90F3
:10151000CF90BF90AF909F908F9008951F920F92A1
:101520000FB60F9211242F933F938F939F93AF93F6
:10153000BF938091960190919701A0919801B091ED
:1015400099013091320623E0230F2D3720F40196C4
:10155000A11DB11D05C026E8230F0296A11DB11DD6
:10156000209332068093960190939701A09398015F
:10157000B09399018091330690913406A09135067D
:10158000B09136060196A11DB11D8093330690934C
:101590003406A0933506B0933606BF91AF919F9164
:1015A0008F913F912F910F900FBE0F901F90189524
:1015B000E1E7F0E080818D7F8083109291002D988B
:1015C0002D98109228060895CF92DF92EF92FF9205
:1015D0000F931F93CF93DF930E940F0A811520E88A
:1015E000920751F4DF91CF911F910F91FF90EF90EF
:1015F000DF90CF900C94D80A21E020932806813008
:1016000020E8920751F48091260690912706909346
:101610002A06809329060E940F0A97FD05C0209193
:101620002506222309F440C02091240621113CC044
:1016300021E020932C06EC01DF77209769F481E00C
:1016400080932D062D983FE9C32E3FE0D32EE12C49
:10165000F12CCAEFD0E014C08E0120E030E060E44D
:1016600072E48FE090E0A90198010E94ED186901F1
:101670007A0181E0C81AD108E108F10810922D061C
:10168000E091A805F091A9050995811103C081E0B9
:1016900080932D0680912C06882309F43FC0809109
:1016A0002D0681113BC003C010922C06C4CF2D998A
:1016B00035C02D9A0E940F0A009771F09C01DE013F
:1016C0000E944119DC01CB0129E0B595A7959795BA
:1016D00087952A95D1F703C08FEF9FEFDC01109219
:1016E00090002AE020939100D0929900C092980037
:1016F00080932E0690932F06A0933006B093310668
:1017000080917100826080937100DF91CF911F9171
:101710000F91FF90EF90DF90CF9008952D98CACF52
:101720001F920F920FB60F9211242F933F934F9356
:101730005F936F937F938F939F93AF93BF93EF9339
:10174000FF9380912E0690912F06A0913006B091C4
:101750003106892B8A2B8B2B81F180912D068111EB
:101760000BC095B180E2982795B990912C069923EA
:1017700019F095B1892785B980912E0690912F0691
:10178000A0913006B0913106181619061A061B06EC
:10179000B4F480912E0690912F06A0913006B0915E
:1017A00031060197A109B10980932E0690932F0667
:1017B000A0933006B093310602C00E94E40AFF9164
:1017C000EF91BF91AF919F918F917F916F915F91B9
:1017D0004F913F912F910F900FBE0F901F90189532
:1017E0009C01E1E7F0E090819D7F908381E0809310
:1017F0002B0630932A062093290630932706209340
:1018000026060C94E40ABC0180E090E00C94540A93
:1018100083B12FB199B130E02095309520783327EE
:10182000A90124E0559547952A95E1F7292F30E045
:10183000209530952871332753E0359527955A9593
:10184000E1F7242B8095807D822B089583B7817FDB
:1018500083BF83B7816083BF889583B78E7F83BF43
:1018600008958EBD00000DB407FEFDCF08951092BF
:101870008101259825980895259A259A81E08093DD
:101880008101089580919A018EBDEBE9F1E081918B
:101890000DB407FEFDCF8EBD85E0EA39F807B9F734
:1018A0000DB407FEFDCF089560387105D0F44034C3
:1018B0005105B8F4E9EAF6E080E1849FD001A07810
:1018C0001124A60F4770E40FF11D8491A656BE4F58
:1018D000222319F06C91862B03C080956C9186238E
:1018E0008C9308952F923F924F925F926F927F92C6
:1018F0008F929F92AF92BF92CF92DF92EF92FF9220
:101900000F931F93CF93DF93CDB7DEB729970FB611
:10191000F894DEBF0FBECDBFFC016A3069F4248DA0
:10192000808D918D38E0239F800D911D1124918F22
:10193000808F178A168AAAC06D3009F4A7C09987CC
:101940008887F48C338C228C608C718C0689178983
:1019500000381105C4F0A885B9855C962C915C9778
:10196000422F50E056968D919C915797B6E02B9F51
:10197000800D911D1124E885F985978B868B258D27
:1019800021116EC083C0F0E46F16710424F7C80102
:1019900025E0F29E800D911D112418161906DCF623
:1019A0008F2D90E09C838B83C301A8E0FA9E800D6D
:1019B000911D11241816190674F6B5E06B9FB0013D
:1019C0001124FB01EF54F94FFA83E98330E0888555
:1019D000998504969E838D83E981FA81E490353060
:1019E00009F4E12C430188E0482EE0FC02C0532CAE
:1019F00001C0522C51100BC0321009C0E6944A9419
:101A00008B819C81880E991E4110EFCF1BC068010D
:101A10008C2D801B8F1590F754018A2D88198F15F6
:101A200068F4252DA501B6018D819E813F830E941A
:101A3000540C9FEFA91AB90A3F81EFCFAFEFCA1A32
:101A4000DA0AE6CF3F5FEB81FC810E0F1F1F898111
:101A50009A8101969A838983363009F0BDCF7BCF76
:101A60006AEF64039001659F300D112420583F4FA9
:101A7000281739075CF4A885B985ED91FC91119779
:101A80000190F081E02D6AE0CD01099581E090E0C0
:101A900029960FB6F894DEBF0FBECDBFDF91CF9170
:101AA0001F910F91FF90EF90DF90CF90BF90AF907C
:101AB0009F908F907F906F905F904F903F902F906E
:101AC000089564E670E080E090E00E94540A0E946D
:101AD000080C8111FCCF64E670E080E090E00C948B
:101AE000540A8091030180930401909180019F5FCB
:101AF0009093800140917E0150917F01485F5F4F3C
:101B000050937F0140937E018091000160EC680F4B
:101B1000949F9001959F300D1124C901805E9F4EC6
:101B200026E0959587952A95E1F7860F8093030126
:101B3000089580912806811125C0809171008D7FC4
:101B40008093710010922B068AE995E090932A0603
:101B500080932906909327068093260681E290E0E1
:101B600090939B0580939A058DE790E090939D0557
:101B700080939C0580E090E890939F0580939E055C
:101B80000E94E40A80E79FEF90937F0180937E019B
:101B90001092800180910301809300010895EF92DB
:101BA000FF920F931F93CF93DF9306E811E0C2E8F3
:101BB000D1E080E4E82EFC2E84E0F80E88818823B2
:101BC00009F465C0F80120814CE06FEF7FEF082E2B
:101BD000000C990B0E947308F8018081609101014B
:101BE0002E2D261B281B70E0680F711D87FD7A952E
:101BF00088814CE0082E000C990B0E947308F801B4
:101C00006081062E000C770B635071098881082EC5
:101C1000000C990B23E040E102970E947308F80141
:101C200080816091010170E0680F711D87FD7A95D8
:101C30008881082E000C990B23E040E102970E9456
:101C400073088881082E000C990B0296F8012081F8
:101C5000022E000C330B25503109AC0160E070E01E
:101C60000E9418078881082E000C990B0296F80133
:101C700020816091010170E0620F711D27FD7A954E
:101C80006B5F7F4F2DE330E0AC010E941807219677
:101C90000F5F1F4FFC1292CFDF91CF911F910F91D9
:101CA000FF90EF900895CF93DF9380910D018150C5
:101CB00087FD84E080930D018091030160E0082E90
:101CC000000C990B0E949D078091030161E0082E92
:101CD000000C990B0E949D0760910301062E000CD9
:101CE000770BC0910D010C2E000CDD0B9B012C1B02
:101CF0003D0B4BE150E080E290E00E9418074091DC
:101D00000301042E000C550B4C1B5D0B4F5F5F4F06
:101D100021E06BE170E08EEA95E00E94540C409166
:101D20000301042E000C550B4250510921E061E2E1
:101D300070E08EEA95E0DF91CF910C94540C40E86E
:101D40006FE370E080E090E00C94D106CF93DF93D6
:101D50001F92CDB7DEB76983DC01ED91FC91028063
:101D6000F381E02D41E050E0BE016F5F7F4F0995A8
:101D70000F90DF91CF91089583E08093E9008091E7
:101D8000F200882319F08AE38093E8000895FC01AB
:101D90008485958597FD0BC09FB7F89482E080936A
:101DA000E9008091F2009FBF90E0019608959FB7EF
:101DB000F89482E08093E9008091F2009FBF90E068
:101DC000089540913B0650913C0620913906309190
:101DD0003A0642175307B4F49091E8009570E1F386
:101DE0009091E80092FD19C08093F10080913B062C
:101DF00090913C0601968F739927892B19F48EEFE9
:101E00008093E80080913B0690913C060196909368
:101E10003C0680933B0681E0089580E00895DF92C0
:101E2000EF92FF920F931F93CF93DF93D82E8A01E7
:101E30007B01E40EF51EEB01CE15DF0571F0D7FE38
:101E400003C0FE01849101C088810E94E10E2196A9
:101E50008111F2CF8FEF9FEF01C0C801DF91CF91C9
:101E60001F910F91FF90EF90DF900895615030F037
:101E70002091F100FC0120830196F8CF289884E698
:101E8000809394010895CF93DF931F92CDB7DEB76F
:101E9000FC018485958597FD05C02FEF3FEF3587C1
:101EA00024870BC0CE0101960E94A609019719F460
:101EB000898190E002C08FEF9FEF0F90DF91CF916B
:101EC00008950F931F93CF93DF931F92CDB7DEB783
:101ED0008C01FC018485958597FF0EC0CE0101968B
:101EE0000E94A609019719F4298130E002C02FEF62
:101EF0003FEFF80135872487F801848595850F9099
:101F0000DF91CF911F910F9108950F931F93CF935E
:101F1000DF931F92CDB7DEB782E0898342E450E0C1
:101F200061EB7BE080E80E940F0F0E94D009DC018A
:101F300012960D911C9113970115110569F0D801A6
:101F4000ED91FC910280F381E02DBE016F5F7F4F28
:101F5000C801099597FF07C089810F90DF91CF9144
:101F60001F910F910895F80100851185E5CF1F920B
:101F70000F920FB60F9211248F939F938091E100DF
:101F80009091E100937F9093E10083FF0FC0109246
:101F9000E90091E09093EB001092EC0092E39093B3
:101FA000ED001092950198E09093F00082FF20C020
:101FB00093E09093E9009091F200992319F09AE34D
:101FC0009093E80090919201992339F090919201B9
:101FD000915090939201992389F1909194019923C2
:101FE00039F090919401915090939401992341F18B
:101FF00084FF10C08091E2008E7E81608093E200B9
:102000008091E1008F7E8093E100809193018E7E2C
:10201000806111C080FF16C08091E2008E7E8061D9
:102020008093E2008091E1008E7E8093E1008091B8
:1020300093018E7E81608093930104C05D9ACDCF21
:10204000289AD6CF9F918F910F900FBE0F901F901F
:1020500018951F920F920FB60F921124CF92DF9214
:10206000EF92FF920F931F932F933F934F935F93A2
:102070006F937F938F939F93AF93BF93EF93FF9350
:10208000CF93DF93CDB7DEB76C97DEBFCDBF109295
:10209000E9008091E80083FFEDC168E0CE0145963C
:1020A0000E94360F82EF8093E8008D8987FF05C07C
:1020B0009091E80090FFFCCF03C09EEF9093E80062
:1020C000982F907609F0C6C09E892F89188D91119E
:1020D0000CC0803829F4809138068093F10002C04A
:1020E0001092F1001092F10048C1422F50E0512BA4
:1020F000913051F4811141C14130510509F03DC188
:10210000809138068D7F0BC0933061F4811135C109
:102110004130510509F031C18091380682608093C9
:1021200038062BC1953041F48091E80080FFFCCF48
:1021300020682093E30021C1963009F05FC0EB8C4A
:10214000FC8C1092E90010923C0610923B06123073
:1021500091F510923A06109239060E94850F99E087
:10216000BE016F5F7F4FDB01E92F1D92EA95E9F712
:1021700099831A8391E09E8390EA98879AEF9987D2
:1021800020913B0630913C06275F3F4F3C832B83D9
:102190008D831092E90010923C0610923B06F0925B
:1021A0003A06E092390649E050E080E00E940F0FC5
:1021B0000E94850FE2C0F0923A06E09239060E9432
:1021C000D009DC011296ED90FC901397E114F10414
:1021D00009F4C0C0D701ED91FC910480F581E02D98
:1021E000BE016B5E7F4FC7010995009719F00CF097
:1021F000C4C0C7C0F701E084F184E8CF973009F488
:10220000C0C0983021F481E08093F100B6C09930CD
:1022100009F0B3C0837009F0B4C0E7E3F1E081E0F6
:1022200021E036E39081992361F08093E9002093C7
:10223000EB0091919093EC003093ED008F5F87302D
:1022400089F78EE78093EA001092EA008F898093E5
:10225000950193C08B8D9C8D1092E90010923C06E5
:1022600010923B0690933A0680933906898D81112E
:1022700056C08E899D89913A59F4813209F081C006
:1022800047E050E065E071E080E00E940F0F75C00C
:10229000913209F076C0833289F4888D90E0982FCE
:1022A00088272F89822BA0E0B0E080930E019093C5
:1022B0000F01A0931001B09311015FC0803269F447
:1022C0008091E80082FFFCCF67E085E091E00E940A
:1022D000360F8BEF8093E80006C0823209F04DC0C4
:1022E0008F8980930C0180913706882319F0EEEFD7
:1022F000FAE002C0E0E0F8E080910501909106016B
:10230000A0910701B0910801803B9440A105B1055F
:1023100009F07BC080910C0180FF93C076C00E94C1
:10232000D009DC0112960D911C911397011511052E
:1023300041F1D801ED91FC910190F081E02DBE01B9
:102340006B5E7F4FC8010995811117C0F8010085A8
:102350001185ECCF113009F44EC0133091F48F8900
:10236000882309F445C0823081F440E867E085E1C4
:102370009CE00E943E18882321F08EEF8093E800B5
:1023800079C081E28093EB0075C0813029F440E888
:102390006BE089E09CE0EDCF833099F70E94D00993
:1023A000DC011296ED90FC9013978E010F5F1F4F8A
:1023B0006801E114F10479F0D701ED91FC910680F8
:1023C000F781E02DB801C7010995080F111DF7012C
:1023D000E084F184EECFD8011C92F6010190002038
:1023E000E9F73197BF016C197D0940E0C601C1CF03
:1023F00063EF7BE002C067EF7BE06115710509F2D6
:10240000FB01449150E080E840CF0FB6F894A895C6
:1024100080916000886180936000109260000FBE20
:10242000A895EE3F2AE0F20739F08091FE0A9091DC
:10243000FF0A91838083A1CF1092FF0A1092FE0AB7
:102440009CCFEE3F8AE0F80731F080819181909334
:10245000FF0A8093FE0A87E797E7918380839BE0DA
:1024600088E10FB6F894A895809360000FBE909312
:10247000600083CF6C960FB6F894DEBF0FBECDBF61
:10248000DF91CF91FF91EF91BF91AF919F918F918C
:102490007F916F915F914F913F912F911F910F917C
:1024A000FF90EF90DF90CF900F900FBE0F901F9096
:1024B0001895789484B5826084BD84B5816084BDAC
:1024C00085B5826085BD85B5816085BD80916E00D2
:1024D000816080936E001092810080918100826003
:1024E0008093810080918100816080938100809140
:1024F0008000816080938000809191008260809351
:102500009100809191008160809391008091900072
:102510008160809390008091C10084608093C100AD
:102520008091C10082608093C1008091C100816070
:102530008093C1008091C30081608093C30080912B
:10254000C00082608093C0008091C200816080934F
:10255000C20080917A00846080937A0080917A0032
:10256000826080937A0080917A00816080937A0003
:1025700080917A00806880937A0010929501109281
:102580003806109293018091D70081608093D70024
:1025900080EA8093D80089B5806189BD89B5826061
:1025A00089BD09B400FEFDCF61E070E080E090E0FD
:1025B0000E94540A8091D8008F7C80618093D8005B
:1025C0008091E000807F8093E0008091E1008E7E2A
:1025D0008093E1008DE08093E200559A209AEEEF1F
:1025E000FFE7859194918B3F9C4D19F481E0809396
:1025F000370681EC80937C0085B1886485B9239887
:1026000084B1866484B9589A899880B3836180BB09
:102610008F9A85B1806D85B98BB188618BB9879AA6
:1026200084B18F6284B98AB1876E8AB92D9A84B1D8
:102630008F6D84B98EB18F6B8EB98DB18F6B8DB963
:10264000259A259A80E58CBD81E08DBD85E090E0DE
:102650000E94030C899A85E090E00E94030C889800
:102660008C98CCE5D1E01C2F135FFE0184910E9471
:10267000310C21961C13F9CF8C9A81E88093640069
:1026800081E080936500C0E0D4E080E00E94310CDE
:102690002197D9F70E94080C83FF25C08C9885EA02
:1026A0000E94310C8C9A5E985E985E9880916400CE
:1026B0008062809364000E94260CFDCF5E980E9489
:1026C000080C8970893019F46FEF0E94E4080E94A9
:1026D000080C8370833019F460E00E94E40888ECF1
:1026E00090E00E94030C0E94080C80FDE7CF5E9AE8
:1026F00082E090E00E94D718882319F00E943C0CD9
:1027000002C00E94370C5E98CEEEDFEF08E010E0CA
:102710000E94080C86FF04C05E9A5E9A5E9A89C089
:10272000CC3F2FEFD20719F0C831D10511F45E9AD2
:102730005E980E94D708C03F4FEFD40794F48EEA0A
:1027400095E00E94420C8BE190E00E94030CC03F98
:102750005FEFD50709F059C08AEF90E00E94030CA3
:1027600054C09E01D7FF04C0222733272C1B3D0BEA
:1027700027703327CE01D7FD079653E095958795AF
:102780005A95E1F7D7FF05C00197B801621B730B9B
:102790009B017C01F694FE2CEE24F794E79440E034
:1027A00050E04801821A930AF701E058FF4F5F0199
:1027B0008F3FFFEF9F0744F40196485A5F4F750122
:1027C000403B510589F7BBCFD701A25DBD4F60E00B
:1027D00070E08F3FEFEF9E0709F4ACC3FB01E40FFD
:1027E000F51FE455FF4FE4916D01CA18DB08CE0CCC
:1027F000DF1CF0E02F01022E01C0440C0A94EAF71E
:10280000F60170804728408295C32196C931D105D1
:1028100009F07ECF8CEB92E00E94030C5E9AE0916F
:10282000AE05F091AF050190F081E02D8EEA95E0C4
:10283000099582E390E00E94030C0E94080C81112C
:10284000F8CF81E28093B5050E94D7081092C305A6
:102850001092C2051092C1051092C005E12CF12C16
:1028600000E010E0B0E8CB2ED12CC0E0D0E0FE01BB
:10287000A3E0F595E795AA95E1F7EE0DFF1DE75961
:10288000FE4F84919E0127703327A60102C0559503
:1028900047952A95E2F7E82FF0E0E423F523EF2BA4
:1028A00039F021E0A801BE018EEA95E00E94540CA7
:1028B0002196C038D105D9F60F5F1F4F50E1E50EC4
:1028C000F11C0034110589F68EEA95E00E94420C55
:1028D00089E695E00E94F00B64EF71E080E090E003
:1028E0000E94540A82E190E09093C1058093C00554
:1028F00087E390E09093C3058093C2058DE391E058
:102900000E9406078EEA95E00E94420C0E94080C85
:102910008823E1F30E94610D809164008E7F809393
:10292000640080917A00806480937A0080917A00BC
:1029300086FDFCCFC0917800D09179000E942F0ACB
:102940008E0120E030E0980111270027600F711FF1
:10295000821F931F611571058105910511F00E9479
:10296000CE1880916400816080936400109282018F
:1029700010928301109284011092850140E8C42EC8
:10298000D12C82E891E054E0B52EB80E0E9449099E
:10299000882309F4C7C20E94080C87FF11C08091E8
:1029A0008101882329F00E94D80A0E94370C06C0B2
:1029B0000E943C0C8FE996E00E94F00B0E94610D92
:1029C0000E94D7081092C3051092C2051092C1054B
:1029D0001092C00580919101811143C00E949F0E09
:1029E0000E94530EC6E0D0E0D093C105C093C0054D
:1029F00083E090E09093C3058093C2058EE491E05C
:102A00000E940607D093C105C093C00583E390E000
:102A10009093C3058093C20580E691E00E9406076B
:102A200080918101811103C011E1C0E602C01BE069
:102A3000CEE4D0E0412F6BE370E0CE010E94D106DE
:102A4000412F6CE370E0CE010E94D1060E94080C79
:102A50008B7139F081E0809391010E94D80A0E9425
:102A6000990D80919101813009F016C19091040176
:102A70008091030189172CF00E94080C8B7109F0DA
:102A800074C20E94710D8091030184305CF484E073
:102A900080930301109280018093000110927F01C6
:102AA00010927E018091B1059091B2058F719927A6
:102AB000009769F5E2E8F1E02191211130C0EC01C5
:102AC000CE57DE4F80E88883809101012AE330E011
:102AD0008901081B110907301105A4F00E94C918CB
:102AE000012E000C220B330BA9019801265031094D
:102AF000410951090E94ED18DC01CB010696A11D88
:102B0000B11D04C086E090E0A0E0B0E08C83C2E894
:102B1000D1E08E0120E2F22E3FE0E32E2CC00196A0
:102B20008430910549F6F3CF8250843F4CF1808385
:102B3000F80180818031D9F480918F0190919001CA
:102B400001969093900180938F01809102018150B2
:102B500080930201F0928E01809103018C5080934A
:102B60008D01E0928C0185E996E00E94F00B0F5FE9
:102B70001F4FB01641F0F80180818823C1F3D4CFF4
:102B8000F8011082D5CF80918C01882351F180917A
:102B90008D01815080938D0187FD21C020918E0190
:102BA000022E000C330B3093C1052093C005082E74
:102BB000000C990B9093C3058093C20580918F01FF
:102BC000909190010E940C0980918E018250809317
:102BD0008E0180918C01815080938C0102C01092F3
:102BE0008C01809103018C3334F08BE380930301DB
:102BF00082E080939101909103014DEF490F9D5F19
:102C0000E0910101309191012991222369F17CE049
:102C1000720F8B817E3130F0233220F4481710F48C
:102C2000911121C05EEF520F6EE0620F6E3140F0E5
:102C3000533230F4481720F4FDEFF80FF91798F0ED
:102C40008E0F7E3130F0233220F44F3310F4891789
:102C500050F06E3148F0533238F423E0280F421719
:102C600018F4891708F432E0BC12CECF30939101EA
:102C70000E94CF0D0E949F0E0E94530E8091010171
:102C8000833150F090910201911106C081508093E0
:102C9000010185E08093020180919101823009F069
:102CA0003DC180918F019091900120918A013091D6
:102CB0008B012817390720F490938B0180938A01A8
:102CC0008EEA95E00E94420C87E896E00E94F00BA5
:102CD00064E670E080E090E00E94540A1092800167
:102CE000809103018093000110927F0110927E0178
:102CF000809103018B33DCF40E94710D0E94D70890
:102D00001092C3051092C2051092C1051092C00521
:102D10000E94CF0D0E949F0E0E94530E8EEA95E0F6
:102D20000E94420C0E9449098823E1F3E1CF8DE41F
:102D300096E00E94F00B20E340E668E070E080E15E
:102D400090E00E94730801E110E0C9E0D0E020E0CB
:102D5000AE01B8018EEA95E00E94540C2196C7336B
:102D6000D105A9F70F5F1F4F0F36110571F700E06E
:102D700010E08CE0E82EF12CC0E0D0E0FE0193E002
:102D8000F595E7959A95E1F7E00FF11FE153FA4FBA
:102D900084919E0127703327A60102C0559547955F
:102DA0002A95E2F7E82FF0E0E423F523EF2B49F032
:102DB00021E0A701BE01625E7F4F8EEA95E00E948E
:102DC000540C2196C834D105C9F6075F1F4F5FEF39
:102DD000E51AF50A0E37110579F680918F01909169
:102DE0009001803167E2960760F4883E73E09707B0
:102DF00050F48436910548F48A30910540F420E07F
:102E000007C028E105C022E103C02CE001C026E094
:102E100042E350E0FA01E21BF109F093C105E093AF
:102E2000C005CEE1D0E0D093C305C093C2050E9497
:102E30000C098EE390E09093C1058093C005D09378
:102E4000C305C093C20583E791E00E940607809105
:102E50008A0190918B018031F7E29F0760F4883EF0
:102E600023E0920750F48436910548F48A309105A6
:102E700040F420E007C028E105C022E103C02CE0B7
:102E800001C026E042E350E0BA01621B7109709371
:102E9000C1056093C005CAE2D0E0D093C305C093DA
:102EA000C2050E940C098EE390E09093C1058093C7
:102EB000C005D093C305C093C20589E791E00E9485
:102EC00006078EEA95E00E94420C68EE73E080E00F
:102ED00090E00E94540A0E94080C8B71E1F30E945A
:102EE000610D1092910189E695E00E94F00B10921D
:102EF000900110928F0110928C0110928201109219
:102F0000830110928401109285018FE18093030167
:102F10008EE18093010185E0809302018EEA95E0C5
:102F20000E94420C80E090E0892B09F42FCD0E9492
:102F300000002CCD2115310581F0FB01E40FF51FB8
:102F4000E455FF4FE491F0E0082C02C0F595E795B9
:102F50000A94E2F7DC90ED29EC936F5F7F4F1196B6
:102F60006835710509F035CC27CC0E94990D89CDC3
:102F7000E4EDF5E01382128288EE93E0A0E0B0E089
:102F800084839583A683B7838AE191E091838083CC
:102F90008FEF9FEF95878487EAEAF5E0138212822C
:102FA0001186128620E1238790878783108A118AF1
:102FB000128A138A148A8AE291E09183808384E3DF
:102FC00091E095838483178A168A118E108E81E092
:102FD000828F138E848F158E89E29AE09093A905D3
:102FE0008093A80580E090E89093A7058093A605BC
:102FF0002D98259A2D98259A08950F931F93CF9376
:10300000DF93EC0181E090E00E94D71880FF2EC092
:103010008AE090E00E94D7189FEF980F9E3F30F50E
:1030200022E330E03F8B2E8B28E330E0398F288F6E
:103030000BE010E0E881F9810190F081E02D682F2C
:10304000CE010995C8010E94D7180F5F1F4F0131AB
:10305000110581F7CE0104960E94420C88EE93E0A0
:10306000DF91CF911F910F910C94030CDF91CF91C1
:103070001F910F91089504970C94FD17CF92DF9242
:10308000EF92FF920F931F93CF93DF931F92CDB7D1
:10309000DEB7182F062FE42E862F880F8E5F9983B8
:1030A0000E94E10E83E00E94E10EF12EC12E998173
:1030B000D92E8C2D8F19801798F4F601E7FE02C0E7
:1030C000849101C080810E94E10E182F80E00E944F
:1030D000E10E8123FFEFCF1ADF0A8111EACF01C091
:1030E00081E00F90DF91CF911F910F91FF90EF90B2
:1030F000DF90CF9008958F929F92AF92BF92CF9220
:10310000DF92EF92FF92CF93DF93EC016881798198
:103110008A819B81611571058105910521F464E225
:1031200079ED8BE597E02DE133EF41E050E00E942F
:10313000ED1849015A019B01AC01A7EAB1E40E94D4
:103140000C196B017C01ACEEB4EFA50194010E9457
:103150001A19DC01CB018C0D9D1DAE1DBF1DB7FFE3
:1031600003C00197A109B04888839983AA83BB83D0
:10317000BC01CD019F77DF91CF91FF90EF90DF9061
:10318000CF90BF90AF909F908F9008950E947B1832
:10319000089582E191E00E947B18089560931201E6
:1031A0007093130180931401909315010895F99978
:1031B000FECF92BD81BDF89A992780B50895262F3C
:1031C000F999FECF1FBA92BD81BD20BD0FB6F8940C
:1031D000FA9AF99A0FBE01960895052E97FB1EF4F0
:1031E00000940E94041957FD07D00E941F1907FC84
:1031F00003D04EF40C9404195095409530952195C8
:103200003F4F4F4F5F4F0895909580957095619512
:103210007F4F8F4F9F4F08950E944119A59F900D9A
:10322000B49F900DA49F800D911D11240895B7FFA8
:103230000C940C190E940C19821B930B0895A1E2A7
:103240001A2EAA1BBB1BFD010DC0AA1FBB1FEE1F20
:10325000FF1FA217B307E407F50720F0A21BB30B6B
:10326000E40BF50B661F771F881F991F1A9469F7E7
:1032700060957095809590959B01AC01BD01CF0143
:103280000895A29FB001B39FC001A39F700D811D3F
:103290001124911DB29F700D811D1124911D08955F
:1032A000EE0FFF1F0590F491E02D099481E090E06E
:0A32B000F8940C945B19F894FFCF1A
:1032BA001F1E051F1F00E100000000000004FFFFA1
:1032CA00FFFF0100000000000000A60E3A06C70E2C
:1032DA00430F610FBC0E00000000720CE409FD17D9
:1032EA00FCFF00003B1800C180810000005072659D
:1032FA00737320416E7920427574746F6E00412C8D
:10330A00422C55702C446F776E3A204A756D7000C6
:10331A004C6566743A20536F756E64204F6E2F4F5A
:0E332A0066660053636F72650048696768004D
:00000001FF
