:100000000C94E0110C9408120C9408120C94081231
:100010000C9408120C9408120C9408120C940812F8
:100020000C9408120C9408120C9432280C94A428F6
:100030000C9408120C9408120C9408120C940812D8
:100040000C9408120C9408120C9408120C940812C8
:100050000C9408120C9408120C9408120C947F1E35
:100060000C9408120C9408120C9408120C940812A8
:100070000C9408120C9408120C9408120C94081298
:100080000C94C91E0C9408120C9408120C940812BB
:100090000C9408120C9408120C9408120C94081278
:1000A0000C9408120C9408120C9408121010FF0003
:1000B000FEFAFE0E060606060EFEFAFE00FFFF0022
:1000C000FFBFFFCFC6C0C0C6CFFFBFFF00FFFF000E
:1000D000FE020202020202020262626200FFFF00EE
:1000E000DFC0C0D8D8D8DBDBDBDBDBDB00FF1010E8
:1000F000FFFFFFFFFFDFBF7FBFDFFFFFFFFFFFFF50
:10010000FFFFFFFFFFFDFEFFFEFDFFFFFFFFFFFF05
:10011000037D3E1E3E7E3E1E3E7E3E1E3E7E3E1EBB
:1001200000BAEEBBEEFA6E3B1E8EC6E3F0B8ECBE34
:100130003E7E3E1E3E7E3E1E3E7E3E1E3E7E3E1E5F
:10014000EEBAEEBBEEFA6E3B1E8EC6E3F0B8ECBE26
:100150003E7E3E1E3E7E3E1E3E7E3E1E3E7E3D035B
:10016000EEBAEEBBEEFA6E3B1E8EC6E3F0B8EC00C4
:10017000008FC6E3F1B8ECBEEFBBEEBBEEFB6E3B0F
:1001800000BBEEBBEEFB6E3B1E8FC6E3F1B8ECBED0
:100190001E8FC6E3F1B8ECBEEFBBEEBBEEFB6E3BD1
:1001A000EFBBEEBBEEFB6E3B1E8FC6E3F1B8ECBEC1
:1001B0001E8FC6E3F1B8ECBAEFBBEEBBEEFB6E00F0
:1001C000EFBBEEBBEEFB6E3B1E8FC6E3F1B8EC005F
:1001D000008FC6E3F1B8ECBEEFBBEEBBEEFB6E3BAF
:1001E000003B6E3B6E3B6E3B1E0F466371386C3EB0
:1001F0001E8FC6E3F1B8ECBEEFBBEEBBEEFB6E3B71
:100200006F3B6E3B6E3B6E3B1E0F466371386C3E20
:100210001E8FC6E3F1B8ECBEEFBBEEBBEEFB6E008B
:100220006F3B6E3B6E3B6E3B1E0F466371386C003E
:10023000037D3E1E3E7E3E1E3E7E3E1E3E7E3D03B6
:10024000003A6E3B6E3A6E3B6E3A6E3B6E3A6E0013
:1002500008088FE1CED29ED21E21211ED29ED2CE80
:10026000E18F84784B794B7387F1F187734B794B2E
:100270007884101003397D64E2E2E2E28E8E8E8E85
:100280004C7D3903C09F3F7E006C6C6C6C006C6CC5
:10029000000099C003397D7CF6929282929292DEA0
:1002A0007C7D3903C09F3F7E006C6C6C6C006C6C75
:1002B000000099C003397D4C8E8E8E8EE2E2E2E220
:1002C000647D3903C09F3F7E006C6C6C6C006C6C6D
:1002D000000099C008080096CDCDEBEBEBF73F4F3F
:1002E000713E410F3F7FF7EBEBEBCDCD9600FCF27B
:1002F0008E7C82F0FCFE0A1003F90472EAFA7204A2
:10030000F903FCF9F2F4F4F4F4F2F9FCFF0371F8E8
:1003100072060CF903FFFFFCF8F0F4F6F3F9FCFFAA
:10032000FFFFFF00060600FFFFFFFFFFFFF0F4F4F2
:10033000F0FFFFFFFF03F90C0672F87103FFFFFCEB
:10034000F9F3F6F4F0F8FCFFFF813C66C2C2663CAC
:1003500081FFFFFFFF007F7F286B03FF0108031071
:100360001040C03EFE81FF9CFFBEFF3EFF76FFF6C1
:10037000FF7CFFF9FF72FE74FC74FC08F8F0F0805B
:100380008080FF3FFF67FF6BFF73FF7FFF78FF7386
:10039000FF76FF76FF70FF33FF81FF4C7F5E7F406B
:1003A0007F0000FEFE01FF3CFF7EFF7EFFF6FFF6B2
:1003B000FF7CFFF9FF72FE74FC74FC08F870F040DB
:1003C000C07F7F80FF3EFF67FF67FF7EFF78FF7380
:1003D000FF76FF76FF30FF80FF4C7F9EFFBFFF80E0
:1003E000FF8080F0F008F874FC74FC72FEF9FF7C6A
:1003F000FFF6FF76FF3EFFBEFF9CFF81FF3EFE4003
:10040000C0407F5E7F4C7F81FF33FF70FF76FF76B9
:10041000FF73FF78FF7FFF73FF6BFF67FF3FFF8076
:10042000FF40C070F008F874FC75FD73FFF9FF7CA5
:10043000FFF6FFF6FF7EFF7EFF3CFF01FFFEFE00A2
:100440000080FFBFFF9EFF4C7F80FF30FF76FF766E
:10045000FF73FF78FF7EFF67FF67FF3EFF80FF7F30
:100460007F0C103EE38101011903868C888870009F
:1004700000FD93988EA0F31E0000007CC6020202CD
:1004800032060C181010E0FE939F80D054F6B2B3E1
:100490009FF1003EE38101011903868C888870007A
:1004A00000FD93988EA0F31E0000007CC60202029D
:1004B00032060C181010E06E93B37A68CC90B39F9C
:1004C0007507007CC682020A1A020684C44C78FCB6
:1004D000B29399CCE080CF790000003EE381012106
:1004E000311B8AEEBC887800001F202161474D64D3
:1004F0003C00007088888C860319010181E33E006E
:1005000000001EF3A08E9893FD0000E01010180C60
:100510000632020202C67C00F19FB3B2F654D080CC
:100520009F93FE7088888C860319010181E33E0049
:1005300000001EF3A08E9893FD0000E01010180C30
:100540000632020202C67C0007759FB390CC687A1F
:10055000B3936E784CC48406021A0A0282C67C00E9
:10056000000079CF80E0CC9993B2FC7888BCEE8A09
:100570001B31210181E33E00003C644D4761212095
:100580001F00003CFFFFFFFFFFFEFCFCFCF8F06CCF
:10059000FEFFFFFFFFFFFFFF7F0500F0F8FCFCFC04
:1005A000FEFFFFFFFFFF3C00057FFFFFFFFFFFFF98
:1005B000FFFE6C0A1000F8F8FCFCFEFEFFFEFFFEDA
:1005C000FFFAFFC4FEF8FC00F8000000010103037D
:1005D00007077F070F0307010300010000050881DB
:1005E0009D8181819B8181819F85859191919D953F
:1005F000818181E1E78181819191858585819185E5
:100600008585F9F9818181819581818191958181AA
:1006100081E34181C5E3EBBFFDBFEBC38D8581C3A2
:10062000F1918585F10808FFFFFFFFFFFFFFFFF055
:10063000F89C8E8783878E9CF8F00000FEFF0303F2
:10064000030303070EFCF80000FEFF03030303038C
:10065000070EFCF80000FFFF00000000000000FF94
:10066000FF0000FEFF8383838383C7EE7C38000096
:10067000F8FC0E07030303070EFCF800003F7FE0C1
:10068000C08080C0E07F3FFFFF0101010101010147
:10069000FFFF0000FFFF0C0C0C0C1C3E77E3C100B9
:1006A000007FFFC0C0C0C0C0E0703F1F00001F3F00
:1006B00070E0C0C0C0E0703F1F00007FFFC1C1C13B
:1006C000C1C1E3773E1C00001F3F70E0C0C0C0E026
:1006D000703F1F000000000001FFFF01000000D577
:1006E000F08D14A1C881CFD9F1AF2000DF1F6220A7
:1006F000631F2520C32583260A220A12822E502F2B
:10070000FF1F431F867F7FC6FFFFC60F0CCE0F0C57
:10071000C68F0DE68F1DC69F8DC88F0DC0CF1DE003
:100720008F0DC79F8DC78F0DC7CF1DC78F0DC79F5B
:100730008DC08F0DC0CF1DFE8F0DFE9F8D06800DCD
:1007400002C01D00800146880D06808D771703B515
:1007500015B50890054F0E8CAC4B14090186EE457B
:10076000F7241484ECA4E04310430FC21781E5A1E1
:1007700000A017A00F80C3FF0006030006030006B9
:100780000300060B302603300603F00627F40603A9
:10079000300613302643300603300603B40703B097
:1007A00027033006033006033006033426033006E1
:1007B000033006033000003020003F2603BF26032D
:1007C000770D1777070F770213760D1676020F75E0
:1007D0000D1535031500AE02AD0E8B274816C81552
:1007E000A813880D8807A806471445154512A40EBE
:1007F000A40C83EF83EB4213FF1F03301E03703002
:100800000363360363660366663E66C63C63CC18C4
:10081000318C993198811818C31830C30C30660C8C
:10082000306606003C06003C03C01803C0991180E6
:10083000810100C30000C300006600077E07073C7B
:1008400007770013760012551235115501B40BB11C
:10085000035014AF144F078B31CB078A10893288AD
:1008600011671405040BA202A1118100A00BFFFD6A
:10087000FF07FFFF77000074FEFF75FEFF753E80E7
:100880004506805DB6BF5DB6BF5DB63140B6F57F4B
:10089000BEF57FBEB57106B471F6B77DF6B77D368D
:1008A000BC7116A07116AD7136AD7116AD7186BDF5
:1008B00071B60170B6FD73771115770E1255059458
:1008C0000CB10C510A8F0B6E09062D13CD0E8C0E38
:1008D0008A03A90B4605A60385F7451485E0A20007
:1008E000A0170015A041FFFE8FFFFFBFFF00389843
:1008F000001098FE9399FEBB991893991B93994306
:10090000BB994F93997F93991FBB99DF9301C7932D
:1009100001F1BB1FFC931F0E93110EBB11789311B5
:100920006383110F831130831106FF01FFFF3B77B3
:100930001515771115770711770014760E16760ABC
:1009400016150CB50054045302B117D104B0138E20
:10095000F54E038D714D05AA0B4905486284F68456
:10096000F584F284F1A215200CA080FFDC1D40DC90
:10097000FD7F0C1C40001C40000C401F18F83F1865
:100980003EFB007F0B0063013860037C6003FE6068
:1009900001FE70C10070C30078FF007F7F007F0FF1
:1009A0000070030040033C40017E0001FF0081FF16
:1009B00001FFFFFF771717B61596D11603730D0DBC
:1009C0004E124C07AB04A913A9018862A616461063
:1009D0004607650005C4172415A40C8441834D40C7
:1009E0001380418080FF0000000000E00000E01C58
:1009F0000000380000F13F00E07F0007E0E707E07B
:100A0000E7E0E7E7F8E7E718E8E700E0C720F0CF1E
:100A1000F0FFCF18FCCF03C0CF0B84CFFF8FCF18D0
:100A2000980100C00120D001F7FFFFF7FFFF770B0F
:100A30001777041776140F351295E41501540CB48A
:100A400008540591E4500AB00750038E94AD088D08
:100A5000E44CEC4C85AA01879487B3A017C016A07C
:100A600015FFFFFFFFFF00FF3F00FC0F00F007C076
:100A7000E0C7FFE0C71FC03F00C03F0087011887E5
:100A80000118BF01FFBF0303800100801900801916
:100A9000F08F03F6CFC336C0C730E0073CE0010C4F
:100AA000F03900FCFF00FFFFFFFF1501520B520A57
:100AB000B10B700E0990266F110C6F0E088F298EE6
:100AC000ECCD0E8CECAB16AA164A0F4A0E4A0D86D8
:100AD0004D26E384E6A309FF00FC1F00FEFF7067BC
:100AE000F0386600BC66003E6E037E6F0338660316
:100AF000B16603336603776703376603B166033075
:100B00006603380003382003FEFF03FEFF1F00C00A
:100B10003F000000000080004080C7FFFFC7FFFFCC
:100B2000771214770C14770817770717770617953D
:100B3000AF95E61501B411940EB40993EE92E64F09
:100B40000F4F0E8FC62F01AB164B07A7164707A3F3
:100B500016A30B4307C016FF00000000000043FE71
:100B60000718FEC718FEC7180006F80F06F80F7E14
:100B7000180C7E000C1E000CC6000CF6180CF6F8C3
:100B80003FC6F83F1F180C7E184C66180C06180C50
:100B9000C7000CF6004C30000C003A0C073A0E8FE0
:100BA0007717117713117709077701147601141558
:100BB00004B41752145116B017D013AF054E164D8A
:100BC00014AC132C0C8C85AB094A144916A8178653
:100BD00073853685458320FF0000004744340700B5
:100BE00030070030070030070030070830FFFF3FB4
:100BF000FCFF3F8001308001308319309119328031
:100C0000193084193880193081193280193084598B
:100C100030801930901931001800C0193CC0193CBF
:100C20005304510EAF134D028CEA8CE94B11AB0DFE
:100C3000AA168A738A2BCA062A00A91386EC660BA9
:100C40000486E3A511A545400A0001FF000000004D
:100C5000000000000000000007002007004C00001A
:100C60000C00000C60C30C60C30C60C30C60C34C70
:100C700001C00C01C00C39C00C39C00C38C00C00CC
:100C8000C02C00C00C00C00C00C00000C00C00DF75
:100C90006C00DE6C7716147715147616147615141E
:100CA00076080A150AB410B3089215B202AC118C7A
:100CB000856C0005CA2BA7154708470586168515BC
:100CC0002301A20AFF3000383F803930803900808C
:100CD000B90780990F80592F8259009019009019F7
:100CE00000C01900C01900E11908E019008039039B
:100CF0000078030058FFFF19FFFF190000B800003B
:100D0000B80000000000000300FC0700FC76171785
:100D10007616177615171513B4019016B0158D16A3
:100D20004A0DAA0389578975A908A7178716450987
:100D300045054416440383242301A111400FC0013B
:100D4000FF81FF7F80FF7F98C160FEC160FEC162AE
:100D500086C36684C162B1E17231E062FBFF66FB6B
:100D60003F6210A2731022631E67673E226302B2C5
:100D700073FA2363F86767F823633DB27330320375
:100D8000007607FF0703FFFFAB771717760316768A
:100D90000216760116760016B51515075202910156
:100DA000AE134D052C0AAC086B1007AB038B204A21
:100DB00010480348018702A613A50B8563440983E5
:100DC00074C20D8100FF000070F80070FCFC7F060B
:100DD000FC0F067E00E67FE0E671F87670FE76F0A6
:100DE000077EFF031EFF01DE8101C681E1F619ECDB
:100DF000F619ECF681EDF681EDF681ED86C1EDBEDA
:100E0000C1EDBE83E10080E1FF8FEDFF8FFD771420
:100E10000A7600135512740907D10EAF0C4E0F4C11
:100E2000124C0B4C05AC032B164A07AA05080AA85E
:100E300003870F861165170585138415A411A40F68
:100E400082298108FFE00130E70130C70130DFFF70
:100E5000379FFF37BF07303F0030FF503CFFFF3F59
:100E6000FFFF2300E02000E034409E290F9E210F69
:100E70001E230F1E270F1E26EF0728EF07200F66E1
:100E8000300FE0310FF807FFFFFFFFFFFF7604058B
:100E90009412540C93107108055006AE17AE062C30
:100EA000018B13CB0B4B86AA14681305A70DA6164E
:100EB000864C4606440563090482E94203A10E00FC
:100EC00001FF0200000300000000FC0000FED4024D
:100ED000FE003800013800003000241D00001C0016
:100EE00001D82000D80004D80800D80001C002F1C1
:100EF000C100FFFF08FFFF00C00720000000000046
:100F000080000080FF27C9FF07C07608047606042A
:100F1000B513B510B50D9586150293868E84C869F4
:100F2000A70B47084705854A6417054211A20E2101
:100F300015A000FF00030001830180838100830965
:100F400011830300833F02337C003300383EFE7878
:100F500000FF008003001F00803F00803100C06060
:100F600000C06800E0E0007EC21B3E821B308801AA
:100F70000008000020003020C07980C47712057777
:100F8000E00556129600B5059410B4099311CD0AE8
:100F90000A0A270AA213A117A1E74010400FA000D8
:100FA000FFC40040C00080C00000C85615090600FC
:100FB000FF0780FE079138000000600000E000009D
:100FC000C0004182010093030403030003001047A3
:100FD000000000C00400D10000000100000100007A
:100FE0000300000BA2E40300E01516B509B5037079
:100FF0001704B014CE0A6B000DA60083058324836A
:1010000022A212A20E20178001FF0000700000F043
:101010000000F00000F000F3FF00F3FF00F3070210
:10102000F30388F33180F33880738C803386803308
:10103000C3FC83C1FCC3E00060E00030F00018F0A6
:10104000FE0FF8FE07F80000FC0000FC00E0FF01C6
:10105000F0FF770C0A77000A150EB50653125113EC
:101060004F148F0C4D15AD0E8D0C6D0607AC0BACEF
:101070000A4B168B1049178912670106A615C6037D
:1010800084EB84EA2311A017FFE00300E0030000D3
:10109000000007D8F607D8F60018F0E01FF0F8FFB8
:1010A000FFF8FFFFC00000C0C000C7C021C7870312
:1010B000C0070780000EF8000CF800C00000C00058
:1010C0000060078060070400070080FF01C0FF0385
:1010D000C176040E73010EB217AE062B098A85A9DC
:1010E0001667100446B24610460E660A05660804E6
:1010F000660604A5108546A30AA3E7C216822B82C2
:10110000660201800AFF003C30001CE0000CC00FAA
:101110000CC00F0C000CACE10CCC010E8C010E9C31
:10112000050C8C010C8C010C8C110C80010CFC0149
:101130000CFC41FCFF01FCFF11008001078001074E
:1011400080050780C10700D00700C0D7A9CA771360
:1011500015770405B317B20CB20872000B4E094E96
:10116000084E074E064E054E046D0E0C6D0D0C6DAF
:101170000C0BAC05890C870E860D2601C417820C5A
:101180000201810DA017A016800EFF0000000000D4
:10119000000000000783C1070000030000010000F9
:1011A0000100000100000100000138000338801B2D
:1011B0007CB03DFE783DFE781938303DEE783DFE3E
:1011C000781938303DEE783DFE781938303D7C781E
:1011D0007D7C7C77121477061496129606B513B5AB
:1011E00005B20EB20AAF0EAF0A6D0C0AC92C221757
:1011F000421042080201FF807F000000000700004B
:10120000070000FFFF1FFFFF1F000000000000009D
:101210000000F8E1FFF8FFFF001F00000E000000D3
:1012200000C01818FFFF1FFFFF1F00000000000094
:1012300000000080C100C0C101FF80FFFF08FF77F0
:101240000B06761608B62B15E3350191896F01065A
:101250004E0EAE0D4E0A4E08AB17691605492C49C5
:1012600009880D8884860EA60D640A0383E7A20E02
:10127000A20781E7C101FF016700FF610001E01FD4
:1012800030E63F300660780600FFE7FFFFE7FF0328
:10129000E600016600E067F8F067FE1C00FF0C0046
:1012A00000000000FFE73FFFE73F00600000600034
:1012B0000060FE0060FE0060C0FFE7FFFFFFFF77F9
:1012C0000C17770B17760F0D962BD515551215E2C7
:1012D000731605B3466F00054E124E068B104B0376
:1012E0008A00A816A80766080445122501A4114221
:1012F0000481AFA012A002FF0018C00018C00E1F8A
:10130000F09F07E1FF0780FF3F04FF3F0000001050
:101310000000000000C00000C00000FEFF87FFFFCB
:10132000870138060010060000067800FE7F82F86C
:1013300007000000000000000000FFCFCCFFCFCC72
:1013400077170A77040776040695E0B304710B0853
:101350009107AF07AF010B01A90DC40C8311A20EB9
:101360002102A00F804DFFC0C1FFE0CDFFB0CD0036
:1013700087CD0007CD0080CD03FCDD03FCCD0F0C35
:10138000CC8F0CCC800CCCC08CCFC08CCFF08CEF31
:10139000F18CCF018CCF038CCF039CCF0F8CCF8FE0
:1013A0008C0F80800FC0800FC0FFFFF3FFFFF3762C
:1013B000060671040850128C0D4B15AB0D6B090A13
:1013C0008B86A912A90488844612850C2410A40CCB
:1013D000A4078346A303C2160201FF60FEE760FE76
:1013E000E7610000600000600018E0CF1FE0CF8FD1
:1013F0007486816000C06000C0E0FFCFE0FFCF6670
:101400000000600000600000600000600000746088
:10141000F86070F8607800007C00007E00FF7FF8C4
:10142000FFFFF8770F067600055504B31671040622
:1014300010169002AE11AE026C01088B02491189A0
:101440002CA801C711A708670407860224114408C5
:1014500084E0A100FF000000000000000F00FFFF7B
:1014600007FFFF3FFFFF3F003E00001C0000008021
:101470000000C000FFFFFCFFFFFCFF010C00000CA0
:1014800000000C00000C00000C00F00C00F00C0040
:10149000F00000F00000F03F7FFE7FFFFF771010AC
:1014A000770F0F77060A76010AB10B3016AD06AC3E
:1014B00013AB00C90F490D4909A51782100201415C
:1014C0000AA106FF000000000000000006AFFE0FAA
:1014D0000FFE1D0F00C00000C00000F00000F8F873
:1014E00055FFF000060300000300000700000FFC9A
:1014F000011FFE0F18060E00001C0000000000C0B7
:101500000060C08061F0FFFFFFFFFFFF1501B3081F
:10151000B014AC08AC05A60D630703630503C20253
:101520002200A006FF1008206060606040000000FC
:101530000000181C0E07033070707070600000000F
:1015400000001C1E0F0703404040404040000000C8
:10155000000010080402010000000000000000006C
:10156000000000000000000000000000000001007A
:101570000203030200000000000000000000010060
:10158000020303020000000608001C1E1E0E0000DD
:101590000C1E1E0C00001C1E1F0F06040C18100051
:1015A000000000000000000508060E0E0C000206F8
:1015B0000E0C00060F0F070303060C0000000000CE
:1015C000000000000000000000000000000000001B
:1015D00000000000000000000000000102030404FD
:1015E00004012040FFFFFEF8E0C08FFF7F7F3F3FF8
:1015F0001F1F0F0F0F0F0F0F1F1F3F7FFFFFFFFF5B
:10160000FFFFFFFF070703030101000000000000C8
:1016100000000000000000000000000000C3FFFF09
:10162000FFFFFFFF000000000000000000000000BE
:10163000000000000080C0E0F0F8FCFEFFFFFFFFAC
:10164000FFFFFFFF0080800000000000000000009E
:1016500000000C1E3F3F7F7F7F7F3FBF9FCF6733E0
:101660001B99FDFC0003070700001018181808005C
:10167000000000F0FCFEFEFEFFF7F3FBFFFCFCFEAB
:10168000FFFFFFFF0080C0C0E0E0F0F0F0B8B83826
:10169000787878F8F3E7CFDF9FBF3F7F7F63C3831E
:1016A000A3A78FFF0F1F3F7FFFFFFFFFFFFFFFFF7E
:1016B000FFEF8E1EDC9DB9B3A78FFFFEF8C0E0F0F0
:1016C000F8FCFE3E808080C0C0E1E1F3E7EFECEC87
:1016D000E1F3F7F6F0FFFFFFFFFFFFFFFF7F3F1F84
:1016E0000F030000FCF0E0C08001071F3F7FFFFFF9
:1016F000FFFFFFFFFFFFFFFFFCF0E0C08081071F3F
:101700007FFFFFFFFFFFFFFFFFFFFEFCFCF8F8F984
:10171000F3F7F7FFDFDF9FBFBFFFFFFFFFFFFFFF15
:10172000FFFFFFFFFFFF7F7F7F7F7F7F7F7FFFFFC9
:10173000FFFFFFFFFFFFFFFFFFFFFFFFFF7F3FBF39
:10174000BF1F5F4FFCC0007CFEC7D3732386FCF92C
:10175000F3E78F1F7FFFFF03F9FDDD9DBCB8333337
:10176000000EE7F3FF7F3F1E1E8E8ECEFFFFFFFFB2
:10177000FFFFFF3E80F3F1E4ECC99B33E3033F7FBF
:101780007E3C3C1CFDF9FB7F7F7F3FBF9FDF4F6F9F
:101790002733181E4FCFC78783030918183A3A7AA0
:1017A0007A7AFBF90E060606030301010000000029
:1017B0000000000000000101030303020606040408
:1017C00004848484000000C0701C060331190103E6
:1017D000020202067404040CF8000000C0F0FCF6DB
:1017E000E7E7E7EF00003FFFFFFF3F9FCF6030805C
:1017F000C60F1F3FFFFFFFFFFF7FFF7FDF77DD7714
:10180000DD77DD77FFF8E0830F3F7FF9CCE6339992
:10181000CC6600801F373D371D1F0D0703010101F6
:10182000010307076F27B793DBC006EC4903078F57
:101830009C1E3B396C66F2D8C8E0B090C040008076
:1018400080008080F33674E18F3FFCF8FAFBF9FCEE
:10185000FFFFFFFEFEFCFCFCF87979793939191994
:101860000901018180FE00E7F3F8FFFFFFFFFFFBA6
:10187000FBF9F9F9F9F8F8F8FCFCFCFCFCFC7E7EBD
:101880007E7F3F3FFDFCF6F7E7E7E7C7C7C7C747DF
:1018900043030303030301010101010000000000F1
:1018A00000000000C0C0C1E1E1E1F1F1F0F8F8F89A
:1018B000F870302060C080000000000000000000D0
:1018C00000000000FFFFFFF7F3F3F1F9FDFFFF0F4A
:1018D00001000000000003060000000000000000FE
:1018E00000000000DD7FC7030100000000000000D1
:1018F00000000080FFFFFFFF1F0080FF0080C0E0AE
:10190000F0FCFFFF050707030000000000000000D7
:1019100080E0F87F3F0F03C0F0FCFFFFFFFFFF7F79
:101920001F0F0701C04000406070703818040603A4
:1019300083C1E0F0F87E7F3F9F8FCFC7E3E17070F7
:1019400038F8FCFC80C0C0E0E0F0F0F818CC66335A
:101950001B190D0C06060707030301010000000018
:1019600000031FFF3F1F1F1F0F0F0703000FF8008B
:101970000000000000000000000000000000000067
:101980000000000000000000000000000000010F47
:10199000080000000000000000000000000000003F
:1019A0000000000000000000000000000000000037
:1019B0000000000000000000000000000000000027
:1019C0000000000000000000000000000000000017
:1019D0000000000000000000000000000000000007
:1019E000000000003C38000000000080F8FE0FE31B
:1019F000FB1B0B0B8BFBF3F7F6F6F60606ECECEC99
:101A0000ECECECECECECECECECECECEEE6F6F6F6FC
:101A1000F7F3FBFBCBCBFBE30FFEF8801E3321215A
:101A2000339E00000080F8FF0FE0F8F9F9F9F9F9AA
:101A3000F9F9F1F3F3F3F3F0F0FFFFFFFFFFFFFF1E
:101A4000FFFFFFFFFFFFFFFFFFFFFFFFFFFFFFFFA6
:101A5000FFFF7F7FFEE00FFFF8800606000000001A
:101A6000000F3FF0C607040407070707070707072B
:101A700007070707FFFFFFFFFFFFFFFFFFFFFFFF56
:101A8000FFFFFFFF07070707070787870707268668
:101A90000707C6F03F1F0080800000000000000024
:101AA000030784C4E4E4E4E4E4E4E4E4C49C000F55
:101AB000E7E7E7E7E7E7E7E7E7E7C7870F1F0FC7CE
:101AC000E7E0ECE4E4E4E5E5E4C40404040703002F
:101AD000C040C30311000000000000000000FFFF31
:101AE000FFFFFF393939FFFFFF0FE0E0EFEF0FFF96
:101AF000FF183879FFFFF703E0E0EFEF0FFFF9F091
:101B0000F0FCFDFDFD0DECE0E0E000000121010036
:101B10000000000080C0602060C080000000000C59
:101B20000C007EFE803C3E1C1C1C1C1C0C0C0E0C75
:101B30000C0C0C0E1E1C1C1C1C3C3E80FE7E00006F
:101B40000000C0E0E0C000000000030300000E1B26
:101B50003166C680D060311B0E0000382838000185
:101B6000471E3820202020301010D0D010109010A8
:101B70003020202020381E0701000006060000014A
:101B8000010000000000000000001B2801FCFE0214
:101B9000FA2222FA02FAAAAA8A02FA82BEBE02FA3D
:101BA0002AAABA82FEFC0100FFFF06F65656760608
:101BB000F6067E7E06F69696F6067646C77707FF09
:101BC000FF0000FFFF0C2DEC2F0FEC4D8D0DED0CE9
:101BD000EDACAC2D0CEF2C2DEC0FFFFF0000FFFF48
:101BE00018DA5B5A181BD85859DB18DB981EDE1818
:101BF000DB5A5A5B18FFFF00C0CF9F9017141515D2
:101C000010171454575057D0D1D7D0D7D15D5C5F3F
:101C10001F0F004020FFFFFF0707E7E767676767C1
:101C20006767E7E70707FFFF9F9FFFFF8787FFFFC4
:101C30006767E7E7FFFF9F9F67679F9FE7E7676724
:101C4000E7E7FFFF0707E7E7676767676767E7E7B4
:101C50000707FFFFFFFFFFFF00007F7F60606060FE
:101C600060607F7F0000FFFF1919818179799F9F54
:101C70001818F9F901019F9F7E7E81816161E6E676
:101C80000101FFFF00007F7F6060606060607F7F18
:101C90000000FFFFFFFFFFFF060666666666E6E6DA
:101CA00006067E7E6666E7E70606E1E11818E1E1D2
:101CB0009E9E878766667979181887879E9E8181A0
:101CC000989887879E9E86861E1EE6E6FEFEE6E6BE
:101CD0009E9EFFFFFFFFFFFF8686FEFE98989F9F58
:101CE0001E1E00006666191986860707E6E67F7FD6
:101CF00061618787606060601E1E87877F7F81814A
:101D000079791F1F9F9F81819898E7E70707F9F965
:101D10009F9FFFFFFFFFFFFF1919E1E1F9F96161E3
:101D20008080E6E66666989861610606E7E7E0E08F
:101D30009E9E1F1F7E7E6060808067671E1E999931
:101D400098989E9E1F1F79799F9F1F1F0606F9F97D
:101D50009F9FFFFFFFFFFFFF60607F7F7F7F7E7E93
:101D6000616161616666E7E71E1E1E1E19197F7FAD
:101D70006161F8F8E6E67E7E191986869898191949
:101D80000707E7E76666E0E001011E1E060681819F
:101D90008787FFFFFFFFFFFF0000FEFE0606060627
:101DA0000606FEFE0000FFFF0606FEFE1E1EE0E029
:101DB0009E9E1F1F191960601E1E8787818198983B
:101DC000E0E00707666607076060000066660101DD
:101DD0008787FFFFFFFFFFFFE0E0E7E7E6E6E6E6D5
:101DE000E6E6E7E7E0E0FFFFE0E0FFFFE6E6FFFF13
:101DF000E1E1F8F8E6E6F8F8F8F8E7E7FFFFE7E7EB
:101E0000F9F9FEFEF8F8E0E0E6E6E0E0E6E6F8F8EC
:101E1000FFFFFFFFFF0F10FDFD3131FDFD01C9DDAB
:101E2000DDEDED4D01FE0404060604040604040481
:101E300004040406030210FE0103060910FE01C992
:101E4000DDDDEDED4D010306040404040406063057
:101E500010864D49CBC30000CF494D4D00CF4545BD
:101E6000CF00C7C84847004FCB4B09C04F42C40FF3
:101E700040CF49094F808A4F08C0CACF4800CD0DD6
:101E80000B61D392B2300000438282F200F3919151
:101E9000F30092B2B3F300F05350B00391F191000C
:101EA0000203020003000003000302020200030217
:101EB0000207100010389000040600000103010022
:101EC0000010107C1010001C00000000000000003A
:101ED00010381000040E0000000100000000000097
:101EE0008004040700000103010000000090C0848A
:101EF0000E07000103070301002A18FE03F9FD0D78
:101F0000FDF90DFDF9C3D9DDDDD1F1FD7D01C9DD9F
:101F1000DDEDEDED410D0DFDFD0D01EDED0179FD69
:101F2000CDCD4903FEFF007E7E7A6E6C38007C7E4C
:101F30001A1A7E7C007E7E60600E7E606C6E0E7E65
:101F4000663C427E7E663C007E7E067E7C01FF0112
:101F5000030202020202020302020202020203025E
:101F6000020202030202020203020203020202024E
:101F7000020302020202020301232001FCFE02BA54
:101F8000AAAAEA02FA2AAA8A028ADA72DA8A22FE5D
:101F9000FEFEFEFEFC0180C00F1B1E1B0E0FFCF997
:101FA000FBFAFA7A3A9A02FEFEFFFFFE06F61616D2
:101FB000F606F757571707F7545514C4FDFDFCF8FC
:101FC00000017CFEEECEDEDC9900FFFFFFFFFFFC90
:101FD000FD0DED2D2CED0CEF4F9C0DEC0FFFFFFFD9
:101FE000FFFFFF00F2F6E4CD1971011F30270F8FBC
:101FF0008FCF6F0FE8EBEAEAEBE8EBE8ECE9EBE810
:10200000EFEFEFEFEFE7F0211000F8F0FCF8FCE85D
:10201000FCC8FCF0FC00FB02030203020302030203
:102020000302030203020302030203020302030288
:102030000302030203020302030203020302030278
:1020400003020302030203FCFF00FE000100030180
:1020500007037F01070007020F020E020E020E02A5
:102060000E020E020E020E020E020E020E020E02F0
:102070000E020E020E020E020E020E020E020E02E0
:102080000E020E020E020E030F010F00071B1801B5
:10209000FCFE02FA82BEBE02FA8A8AFA02FA4A4AB2
:1020A000FA02FA8A8AF206FEFC0100FFFF06F62613
:1020B0004E86F606F656561606F686CE86F606FEC8
:1020C000FEFEFFFF00F06307348584969485C445C7
:1020D000653585F4F5F5F4F5F5F6F7F7F7F7F3F070
:1020E00007081E3F31313F1E8000323F3F3080C025
:1020F000103B3B373732803135353F3F1E80CE8F26
:102100000C3C3F3F803237373B3B90C01E3F37355A
:102110003D19808203333B3F8F801E3F35353F1E84
:1021200080123735353F1E801118FEFF01FDFDC1BD
:10213000C3C11D7DE1E17D3D81FFFEFF8000000008
:102140000000000000000000000000FF0103020288
:10215000020202020202020202020203010710014D
:10216000010101010101040404040404040210FE3D
:1021700003030603FE06033410FE01FDFD35353D65
:10218000D9E53D75FDD921FDF5D5DD5981DDDDEDC3
:10219000ED419DDDEDED410301FDFD3179EDC539E9
:1021A000FDF5D5DD5985DDD1D1FD7D01FE030604A8
:1021B00004040606040404060404060404040406D5
:1021C00004040404040604040404040604040406C9
:1021D00004040406040404040604040404040406B9
:1021E000030C10FE07F309E5D5F5E509F307FE7FBB
:1021F000F0E3C4C8C9C9C8C4E3F07FFE0FF7FBFD14
:10220000FDFDF58BF70FFE7FFEFCF9F38787E3F109
:10221000F8FC7F2418FE03F9FD0DFDF90379FDFD9F
:10222000D5D5DDD9C3C1ED7D397DEDC10D0DFDFDE8
:102230000DEDE1FBF3E74E18F0FF007E7E606C0EC3
:102240007E6A6A6E2C001E3E70703E1E003C7E6AE6
:102250006A6E2C007E7E606B690CFE030101030236
:10226000020202020202020202030202020202034C
:10227000020202020202030202020202020301003F
:1022800000080B0002020201000904000001020222
:1022900000000524001001052401010104240206A8
:1022A0000524060001070581031000400904010010
:1022B000020A000000070502024000000705830231
:1022C0004000000403090412010002EF0201404132
:1022D00023368000010102030141726475696E6F4B
:1022E000204C4C430041424C31333036002218FE22
:1022F0000379FDFD85B5F57103F9FD3535FDF9036C
:10230000F9FD0DFDF90DFDF90379FDD5D5DD590375
:10231000FEFF017E7E1A1A1E0C707E1A1A7E7C0247
:102320007E60607E3E406E6E7676200C7E6A6A6EBF
:102330002C01FF0103020202030303020202020254
:10234000020302020202030202020202020302026A
:1023500002020203012218FE0379FDFD85B5F57125
:1023600003F9FD3535FDF903F9FD0DFDF90DFDF915
:102370000379FDD5D5DD5903FEFF013C7E7E7E7ECF
:10238000663C001E3E7060703E1E003C7E7E6A6AA7
:102390006E2C007E7E1A3E7E6C01FF01030202025B
:1023A000020202020302020202020203020202020B
:1023B00002020302020202030202020301008B3244
:1023C00011241FBECFEFDAE0DEBFCDBF11E0A0E0E9
:1023D000B1E0E6E8F9E602C005900D92AC38B1072D
:1023E000D9F727E0ACE8B1E001C01D92AE39B207E1
:1023F000E1F711E1C0EED1E104C02197FE010E9496
:10240000B634CF3DD107C9F70E94A82F0C94C13430
:102410000C9400002F923F924F925F926F927F92A6
:102420008F929F92AF92BF92CF92DF92EF92FF92E4
:102430000F931F93CF93DF93CDB7DEB7E3970FB61C
:10244000F894DEBF0FBECDBF80910E07882309F43C
:1024500026C11092F3061092F2061092F506109221
:10246000F406109205070E94A52E81FF06C085E0A4
:1024700090E09093F5068093F4060E94A52E87FFC6
:102480004AC080910A07811146C080E38093000111
:102490008BEF9FEF9093F3068093F20681E0809399
:1024A00004078091060781110C94351C8091080760
:1024B00081110C94351C8091070781110C94351CF7
:1024C0006091F8067091F906685F7F4FA4E07595FA
:1024D0006795AA95E1F78091F6069091F706019726
:1024E000B4E095958795BA95E1F70E94CE208111C9
:1024F00009C08091FA069091FB0680979093FB06A5
:102500008093FA0681E0809305078FEF9FEF909309
:10251000FF068093FE060E94A52E83FF06C08BEF68
:102520009FEF9093F5068093F4060E94A52E86FFF8
:1025300046C080910A07811142C085E090E09093E7
:10254000F3068093F206109204078091060781112A
:102550000C94441C8091080781110C94441C8091B8
:10256000070781110C94441C6091F8067091F906DC
:10257000685F7F4FE4E075956795EA95E1F7809194
:10258000F6069091F7060C96F4E095958795FA95E6
:10259000E1F70E94CE20811109C08091FA06909146
:1025A000FB0680969093FB068093FA0681E0809369
:1025B000050781E090E09093FF068093FE060E945D
:1025C000A52E8271823119F488E08093CE010E9499
:1025D000A52E84FD02C00C94521C80910807811125
:1025E0000C94521C81E080930A0781E00E94D42A57
:1025F000882309F447C08091000790910107892B37
:1026000099F58091060781112FC0809107078111EC
:102610002BC064E670E088EC90E00E945A2E109285
:10262000050781E080930607109209078BE08093ED
:102630000C0788E290E090930107809300070E94C6
:10264000A52E86FF06C080E290E09093FF0680935F
:10265000FE060E94A52E87FF15C080EE9FEF909387
:10266000FF068093FE060EC080910E07882351F06E
:1026700081E08093080790E190930F07109206077E
:10268000809307070E94A52E80FD09C010920807BD
:1026900080910607882319F081E0809309078091D3
:1026A00003078823F9F0809127079091280763E0BA
:1026B00070E00E94A234892B31F49091020781E0EE
:1026C00089278093020780910B078F5F8D3318F461
:1026D00080930B0707C010920B071092030781E04D
:1026E0008093020780910507811104C080910A0739
:1026F0008823C1F080912707909128078770992738
:10270000892B91F480910D078F5F982F9370909390
:102710000D0780FD09C064E170E086E990E00E9449
:102720005A2E02C010920D072091080780910007D1
:1027300090910107211119C018161906B4F421E06F
:10274000209306071092070720910907211114C052
:1027500020910C07222381F0059690930107809326
:102760000007215020930C0707C097FF05C0109267
:10277000060781E0809307070091F8061091F9069B
:10278000E090F606F090F70636E0E30EF11C94E0D8
:10279000F594E7949A95E1F7B801605F7F4F24E0E4
:1027A000759567952A95E1F78E2D0E94CE20982E7B
:1027B0006091F8067091F9066150710934E07595E1
:1027C00067953A95E1F78E2D0E94CE20085F1F4F46
:1027D00044E0159507954A95E1F78091F6069091AA
:1027E000F706019754E0959587955A95E1F7602F84
:1027F0000E94CE208091F6069091F7060D9664E037
:10280000959587956A95E1F7602F0E94CE2080917B
:10281000FE069091FF06C090FA06D090FB06C80E07
:10282000D91E75E0D594C7947A95E1F741E0C41AB2
:10283000D108181619061CF080E090E002C08EE066
:1028400090E0C80ED91E14E0D594C7941A95E1F70C
:102850006091F8067091F9066E5F7F4F84E0759580
:1028600067958A95E1F78C2D0E94CE20811110C0CA
:102870006091F8067091F906635F7F4FB4E075953B
:102880006795BA95E1F78C2D0E94CE20C82E02C024
:10289000CC24C3948091000790910107A090FC067E
:1028A000B090FD06A81AB90AA5E0B594A794AA9518
:1028B000E1F797FD03C080E090E002C081E190E085
:1028C000A80EB91EE4E0B594A794EA95E1F78091CB
:1028D000F6069091F7060296F4E095958795FA959D
:1028E000E1F76A2D0E94CE2081110FC08091F6067B
:1028F0009091F7060A9674E0959587957A95E1F799
:102900006A2D0E94CE20D82E02C0DD24D39440919F
:102910000E072091000730910107442371F0121631
:1029200013065CF0992049F080910007909101070F
:10293000181619060CF461C027C0213A5FEF35075D
:102940001CF02350310902C020EA3FEF3093010709
:102950002093000780910807882399F080910F0742
:10296000882321F0825080930F070BC0842F90E0C2
:102970000597281739070CF49C0130930107209321
:1029800000074423D1F1D0CFD11002C09920A9F182
:1029900080910707882331F06EE170E080E590E0D8
:1029A0000E945A2E10920107109200071092FF0603
:1029B0001092FE0610920707109206071092080761
:1029C0008091FC069091FD0655E0959587955A9566
:1029D000E1F70C9664E0959587956A95E1F7880F85
:1029E0001092FC068093FD060E94A52E86FD2EC047
:1029F0000E94A52E87FD2AC059C72091FE0630915E
:102A0000FF06C90137FF04C088279927821B930B53
:102A10000297C4F080912707909128078370992727
:102A2000892BA1F4121613061CF42150310905C09C
:102A30002115310559F02F5F3F4F3093FF0620934A
:102A4000FE0604C01092FF061092FE06602F8E2D27
:102A50000E94CE2081112CC08091F6069091F7063D
:102A600034E0959587953A95E1F7602F0E94CE2046
:102A7000882331F08091FA069091FB06089614C0E5
:102A80008091F6069091F7060B9624E09595879530
:102A90002A95E1F7602F0E94CE20882349F080918B
:102AA000FA069091FB0608979093FB068093FA062E
:102AB00020910E078091000790910107222321F0B9
:102AC000D1100EC0009741F12091FC063091FD0617
:102AD000B901681B790B7093FD066093FC061CC05E
:102AE00018161906CCF48091F8069091F90608960C
:102AF00004E0959587950A95E1F7880F1092FC06FA
:102B00008093FD0610920107109200076EE170E0BD
:102B100080E590E00E945A2E8091FE069091FF067B
:102B2000009729F1C11007C02091FA063091FB06E9
:102B3000820F931F18C01092FF061092FE0680911C
:102B4000F6069091F7060696807F3091040721E003
:102B5000232774E0279F800D911D112415E0880F15
:102B6000991F1A95E1F79093FB068093FA068091DE
:102B7000FC069091FD06A5E095958795AA95E1F74D
:102B80002091FA063091FB06B5E035952795BA9568
:102B9000E1F73093F7062093F6069093F9068093B9
:102BA000F80680910A0781110E94B42080910E07D7
:102BB000882309F460C08091F2069091F3061816FC
:102BC000190614F4019703C0009729F00196909319
:102BD000F3068093F2068091F4069091F50618169C
:102BE000190614F4019703C0009729F001969093F9
:102BF000F5068093F4064091EE065091EF06809121
:102C0000F2069091F306480F591F2091F00630917B
:102C1000F1068091F4069091F506820F931F2091A2
:102C2000F8063091F906281B390B28513109E3E0E9
:102C300035952795EA95E1F76091F6067091F706CC
:102C4000641B750B6A537109F3E075956795FA95E6
:102C5000E1F7460F571F5093EF064093EE06820FA1
:102C6000931F8134A1E09A0714F080E491E09093DF
:102C7000F1068093F006E090EE06F090EF0674E027
:102C8000F594E7947A95E1F7E091EE06F091EF067E
:102C9000CF0124E0959587952A95E1F70896009154
:102CA000F0061091F1068E159F050CF472C054E0E9
:102CB000159507955A95E1F7670164E0CC0CDD1C8A
:102CC0006A95E1F7AA24AA94AE0C992493949E0CD9
:102CD0008091F0069091F10634E0959587953A95AC
:102CE000E1F70496801791070CF44FC0602F8E2DEA
:102CF0000E94CE20882359F1602F8A2D0E94CE2079
:102D0000782E6FEF600F8E2D0E94CE20B82E602F90
:102D1000892D0E94CE20882E61E0600F8E2D0E94AA
:102D2000CE20B4E07B9EF001112448E0B49E9001D7
:102D300011242E2BE82DEE0FE22B8E2BEDEFE80F5A
:102D4000ED3038F4F0E0EE5EFE4F208103C020E06D
:102D500001C02AE0B80144E0660F771F4A95E1F709
:102D60008091F0069091F106681B790B8091EE0638
:102D70009091EF064EEE50E0D601A81BB90BCD01A5
:102D80000E947C2E0F5F1F4FA3CFBFEFEB1AFB0AF1
:102D90007BCF6091220770912307601B710B80919C
:102DA0002007909121072091CF064CEA50E08E1B1E
:102DB0009F0B0E949A2E8091270790912807877079
:102DC0009927892B61F48091C3018F5F8170809373
:102DD000C3018091C2018F5F83708093C201809193
:102DE000CE068823C9F06091CC067091CD06809103
:102DF000F0069091F106681B790B8091CA069091BC
:102E0000CB06E091EE06F091EF0624E046EF52E0AB
:102E10008E1B9F0B0E949A2EECE8F1E0FDA7ECA719
:102E20008F01A12CB12C950124573E4F3901D901B6
:102E300017969C9092FC0AC0B8E0AB0EB11C085FDC
:102E40001F4FE0E3AE16B10471F750C0D801ED900A
:102E5000FC9011978091EE069091EF06E81AF90A1E
:102E60001296CD90DC9013978091F0069091F10628
:102E7000C81AD90AB92DB3705B2E2B2F44ED52E03E
:102E8000B601C7010E949A2E90FE04C088E0882EE9
:102E9000912C18C0B8E08B2E912CD80115968D91ED
:102EA0009C911697881699063CF6B4016C0D7D1D11
:102EB000252D44ED52E0C7010E949A2EE8E08E0EC7
:102EC000911CEBCFF301848190E0881699060CF0F9
:102ED000B3CF252D44ED52E0B601C4018E0D9F1DE8
:102EE0000E949A2EB8E08B0E911CECCF80912707A0
:102EF0009091280765E070E00E94A234892B41F48C
:102F00008091C1018F5F63E00E9496349093C1016C
:102F100028EF35E039A728A740ED56E05BA74AA780
:102F2000FAE92F2EF6E03F2EAEE9CA2EA6E0DA2E01
:102F300081013A017901812C912CD7015A968C910B
:102F4000882309F473C08091270780FF18C0F70118
:102F5000628173818091F0069091F106681B790B74
:102F600080819181E091EE06F091EF062091C10100
:102F700042E752E08E1B9F0B0E949A2E57C05701CA
:102F8000512CD50116968D919C911797F701208DA4
:102F9000318D8217930724F49C012A5F3F4F1BC099
:102FA0003595279535952795032E000C440B550B29
:102FB000211531054105510571F028AB39AB4AABFC
:102FC0005BAB0E94A93328A939A94AA95BA90E9431
:102FD00033349B01AC01D50117963C932E93169781
:102FE000F70162817381621B730B8091F0069091EF
:102FF000F106681B790B2081318114968D919C918B
:103000001597820F931FE091EE06F091EF0620E0F6
:103010004CE553E08E1B9F0B0E94942E5394F4E0DA
:10302000AF0EB11C24E05212ACCF91CFA401465692
:10303000594F5A01DA0117968C911797882309F492
:1030400074C08091270780FD4FC015968C9115970D
:1030500018160CF049C016968C91811145C0D60106
:103060002C91F8016281738184E0759567958A954A
:10307000E1F7808191810496F5E02F02800D911D8A
:10308000112424E0959587952A95E1F70E94CE209A
:10309000811168C4F6012081D80112966D917C914E
:1030A000139754E0759567955A95E1F76F5F8D9189
:1030B0009C910496B5E02B02800D911D112474E0C3
:1030C000959587957A95E1F70E94CE20882309F49B
:1030D00049C4D6012C91F80180819181820F911D04
:1030E00027FD9A95918380838091C301F501958195
:1030F000191614F420E001C022E0280FD80112961E
:103100006D917C9113978091F0069091F106681B68
:10311000790B8D919C91E091EE06F091EF0640E5E0
:1031200052E08E1B9F0B0E949A2EF301848188230C
:10313000B1F0628173818091F0069091F106681B75
:10314000790B80819181E091EE06F091EF0620915C
:10315000C20146EF52E08E1B9F0B0E949A2EFBE1AC
:10316000EF0EF11C25E0620E711C38E0830E911CFD
:10317000085F1F4F48E0C40ED11C50E38516910430
:1031800009F0DBCE80910207882309F411C1C090B9
:10319000F606D090F7068091EE069091EF06C81AD9
:1031A000D90AE090F806F090F9068091F006909127
:1031B000F106E81AF90A60E5E616F104CCF0809110
:1031C0001C0790911D079093FB068093FA0680914F
:1031D0001E0790911F079093FD068093FC060E94A6
:1031E0009F2080910E07811103C089E08093CE015A
:1031F00080910807882399F180910407560176E0B1
:10320000879FA018B108112480910F078701080F2C
:10321000111D80910E078230C0F020E043EB55E095
:10322000B8016B507109C50101960E94762E8091FC
:103230000E07833050F020E043EB55E0B8016C50AE
:103240007109C50107960E94762EB801695071096F
:1032500020E043EB55E0C50104960E94762E809154
:103260000A0720910407811131C0245F41E654E030
:10327000B701C6010E947C2E20910D0740910607E0
:1032800084E0489FA001112490910707911102C08A
:103290009091080780910407382F330F830F880F10
:1032A000820F9A01A5E09A9F200D311D11243091C3
:1032B0000A0791E09327929F800D1124282F41E661
:1032C00054E0B701C6010E94942E72C0220F809173
:1032D000C301280F4FE553E0B701C60102970E94D2
:1032E000762E06EF16E030E1832E912C4DE0442E31
:1032F000512C612C712CF7013A967F015601FFE0A9
:10330000AF0EB11CD8015C968D919C915D97833076
:10331000910534F001975D969C938E935C9708C05D
:103320008E3FBFEF9B0724F40196F801958F848FA1
:10333000D8015A968D919C915B9702975B969C93CE
:103340008E935A9797FF0FC05B969C928E925A97D6
:103350000E94A933A30192010E9433346450710981
:10336000F801758F648F20910407D8015C966D91E8
:103370007C915D975A968D919C915B976E0D7F1D08
:10338000222341F020E04CE553E0F601E81BF90B65
:10339000CF0105C020E04CE553E08A0D9B1D0E9443
:1033A000942E0C5F1F4FF7E002301F0709F0AACFE1
:1033B00000E010E020E045E256E060E070E0C80187
:1033C0000E947C2E085F1F4F0038110599F710E00E
:1033D00080910E07181770F427E0129FC001112486
:1033E0002AE04DED55E060E070E002960E949A2ED2
:1033F0001F5FEECF21E041E060E08BE50E94FB2003
:1034000098E2E92EF12C00E010E026E0C22ED12C4B
:103410008091BD01A601481B51090417150714F03E
:103420002BE001C02CE04DED55E060E070E0C701FD
:103430000E949A2E0F5F1F4F56E0E50EF11C0630DA
:10344000110531F78091CF06882349F02DE04DED2D
:1034500055E060E070E08CE190E00E949A2E80914F
:103460000E07882309F46BC347E0FE017D96DF0158
:10347000242F1D922A95E9F788E089A38CE090E03B
:103480009BA38AA38091F6069091F7069C012E5F7C
:103490003F4F3E8F2D8F2091F8063091F9062E5F19
:1034A0003F4F38A32F8F3797DF01542F1D925A9526
:1034B000E9F750E15A8F6EE070E07C8F6B8F50918E
:1034C000040711E0652F612770E1679F800D911D52
:1034D0001124A0E15A9F8019910911249F8B8E8B92
:1034E000398F288F3797DF011D924A95E9F780E1E0
:1034F000782F8C8B1D8A8091CA069091CB06282F3D
:103500008F87988B8091CC069091CD06482F898B20
:103510009A8BAD8CBE8CCF8CD8A0E9A0FAA00BA161
:103520003889592F68E080E00E941326882321F013
:103530008091CE0681111BC2FE01389687E0DF0123
:103540001D928A95E9F780E1782F8D871E868091FC
:103550002007909121070496282F998788878091CA
:10356000220790912307482F8A879B87AD8CBE8CBA
:10357000CF8CD8A0E9A0FAA00BA13985592F68E01B
:1035800080E00E941326882349F088E00E94D42A14
:10359000882321F08091CF068111F4C1E4EDF6E09B
:1035A000FFA7EEA781EA682E86E0782E2FE936E0A5
:1035B0003FA32EA3412C512C17E0AE014F5F5F4F6C
:1035C0005DA34CA3AEA5BFA58C918823F1F1ECA11E
:1035D000FDA1212F11922A95E9F73AE03D834CE0B5
:1035E00050E05F834E83AAA5BBA58D909C90119758
:1035F0009A82898212968D919C9113979C838B83DA
:1036000080910A07882309F4D7C1A980BA80CB80AA
:10361000DC800AE0E02EFE800F812E893F89488DF4
:10362000598D6A8D7B8D8C8D0E941326882309F419
:10363000C3C180910407882309F4B6C1BFEF8B1A78
:103640009B0AEAA5FBA591828082D3018C918823F5
:1036500009F462C0ECA1FDA1212F11922A95E9F78E
:1036600038E03D83A8E0FA2EFE821F82D1018D90C2
:103670009C901197A82C9A82898212968C9112970D
:1036800013969C91C82E8B839C83BA80D92EB8E068
:10369000EB2E00E02E893F89488D598D6A8D7B8DF8
:1036A0008C8D0E941326F3013197882309F41BC2E5
:1036B00080910A07882309F416C2AEA1BFA18C919C
:1036C00081508C93B1E0B0831816A4F020910407C8
:1036D0008091F6069091F706222309F4B6C1BFEF58
:1036E0008B1A9B0AF10191828082079788169906AE
:1036F0000CF0B6C1A980BA80CB80DC80ED80FE8062
:103700000F812D8D3E8D4F8D58A169A17AA18BA17E
:103710000E9413268111DCC1A8A5B9A55A968C91E7
:103720005A97882309F43FC0ECA1FDA1212F1192E3
:103730002A95E9F78D919C9111979A8389835896E0
:103740002D913C91599712968D919C911397821BC4
:10375000930B9C838B833F832E8380910807882360
:1037600011F1A980BA80CB80DC80E0E1EE2EFE80F2
:103770000F812D8D3E8D4F8D58A169A17AA18BA10E
:103780000E941326882379F0809100079091010709
:103790008B3591050CF0D0C105969093010780936D
:1037A00000070E94B42080910307811133C0ACA5AB
:1037B000BDA517968C9182FF2DC0F20173E0EE0F2C
:1037C000FF1F7A95E1F7E457FE4FA080B180C280D9
:1037D000D380E480F58006812D8D3E8D4F8D58A1DC
:1037E00069A17AA18BA10E941326882399F00E94D7
:1037F0009F202091F8063091F906ECA5FDA5828165
:1038000093812817390734F4E8E2F0E0F0930107D8
:10381000E0930007FFEF4F1A5F0A2EA53FA52B5F2D
:103820003F4F3FA72EA74AA55BA54B5F5F4F5BA706
:103830004AA76CA57DA5685F7F4F7DA76CA788A56B
:1038400099A54B9699A788A798E0690E711CA8E0E6
:103850002A0E311CEEA1FFA13896FFA3EEA3F6E0DD
:103860004F16510409F0AECE6AC18091FE069091C8
:10387000FF06833E2FEF92071CF002970C948712ED
:1038800080EE9FEF0C9487128091FE069091FF06C8
:103890008E3191051CF402960C94DB1280E290E0CC
:1038A0000C94DB1210920A070C94F512A090F80603
:1038B000B090F90620E1A20EB11C34E0B594A794B3
:1038C0003A95E1F78091F6069091F706049644E068
:1038D000959587954A95E1F76A2D0E94CE20882E0E
:1038E0002091F6063091F706285F3F4FC90154E05A
:1038F000959587955A95E1F76A2D0E94CE20982ECE
:103900002091F6063091F706255F3F4FC90164E02C
:10391000959587956A95E1F76A2D0E94CE208816C5
:1039200030F48091FA069091FB06449716C09110EE
:103930008DC88091F6069091F70644E0959587959D
:103940004A95E1F76A2D0E94CE20882309F47EC8AB
:103950008091FA069091FB0644969093FB06809323
:10396000FA0674C8D6018C9181958C93BDCB1092C8
:10397000CE061093CF0668EC70E084EA91E00E94D6
:103980005A2EDACD80910E078093C00181E080939A
:10399000BF011092BE01809197078F5F80939707B8
:1039A00086E08093CE01FACDF1E08F1A9108AAA5A6
:1039B000BBA58D929C9249CEA980BA80CB80DC8039
:1039C000ED80FE800F812D8D3E8D4F8D58A169A118
:1039D0007AA18BA10E941326882309F436CEEEA586
:1039E000FFA510828091BD0181508093BD0180911F
:1039F000BC018F5F8093BC01809192078F5F8093A1
:103A0000920768EC70E080E991E00E945A2E2091C4
:103A1000BD018091930790919407A0919507B09173
:103A20009607211105C08C509E4FAF4FBF4F04C069
:103A300088539F4FAF4FBF4F809393079093940746
:103A4000A0939507B093960700CEB1E08B1A91082A
:103A5000F101918280820F96881599050CF44ACE67
:103A6000D3011C9280910E07833020F48F5F8093E6
:103A70000E0714C08091930790919407A091950729
:103A8000B09196078C599F4FAF4FBF4F80939307CC
:103A900090939407A0939507B0939607809193070E
:103AA00090919407A0919507B0919607C296A11D99
:103AB000B11D8093930790939407A0939507B093BB
:103AC000960764E670E088EC90E00E945A2E12CED1
:103AD000EEA1FFA1808118160CF01ECE8091030785
:103AE00081111ACE02C0108205CE0E949F20E8E20A
:103AF000F0E0F0930107E09300078091F6069091C3
:103B0000F706D1012D913C91821B930B97FD11C0BB
:103B1000853091053CF40297F5E0880F991FFA95DE
:103B2000E1F702C080E690E09093FF068093FE06E6
:103B3000F3CD80EA9FEFF8CF80E690E02ECEE396BB
:103B40000FB6F894DEBF0FBECDBFDF91CF911F91AE
:103B50000F91FF90EF90DF90CF90BF90AF909F902C
:103B60008F907F906F905F904F903F902F9008952F
:103B7000CF92DF92EF92FF920F931F93CF93DF9339
:103B80006C017A018B01C0E0D0E0CE15DF0589F031
:103B9000D8016D918D01D601ED91FC910190F081DC
:103BA000E02DC6010995892B11F47E0102C02196F2
:103BB000ECCFC701DF91CF911F910F91FF90EF9054
:103BC000DF90CF9008953FB7F8948091D001909105
:103BD000D101A091D201B091D30126B5A89B05C017
:103BE0002F3F19F00196A11DB11D3FBFBA2FA92F7C
:103BF000982F8827820F911DA11DB11DBC01CD01F9
:103C000042E0660F771F881F991F4A95D1F70895E4
:103C10000E94BC344091E0015091E1012091DE010D
:103C20003091DF0142175307B4F49091E80095708A
:103C3000E1F39091E80092FD19C08093F10080912A
:103C4000E0019091E10101968F739927892B19F476
:103C50008EEF8093E8008091E0019091E101019660
:103C60009093E1018093E00181E0089580E0089560
:103C7000615030F02091F100FC0120830196F8CFD3
:103C8000289884E68093E60108958F929F92AF92E0
:103C9000BF92CF92DF92EF92FF926B017C010E9464
:103CA000E31D4B015C01C114D104E104F104F1F006
:103CB0000E94E31DDC01CB0188199909AA09BB09FF
:103CC000883E9340A105B10570F321E0C21AD108E6
:103CD000E108F10888EE880E83E0981EA11CB11C53
:103CE000C114D104E104F10419F7DDCFFF90EF9086
:103CF000DF90CF90BF90AF909F908F9008951F92CC
:103D00000F920FB60F9211242F933F938F939F938F
:103D1000AF93BF938091D4019091D501A091D6012A
:103D2000B091D7013091CF0123E0230F2D3720F43C
:103D30000196A11DB11D05C026E8230F0296A11D05
:103D4000B11D2093CF018093D4019093D501A0930E
:103D5000D601B093D7018091D0019091D101A0916B
:103D6000D201B091D3010196A11DB11D8093D00164
:103D70009093D101A093D201B093D301BF91AF91A1
:103D80009F918F913F912F910F900FBE0F901F9099
:103D900018951F920F920FB60F9211242F933F93F5
:103DA0004F935F936F937F938F939F93AF93BF9343
:103DB000EF93FF938091C9019091CA01A091CB012B
:103DC000B091CC01892B8A2B8B2B81F18091C8017A
:103DD00081110BC095B180E2982795B99091C701E8
:103DE000992319F095B1892785B98091C9019091DE
:103DF000CA01A091CB01B091CC01181619061A0680
:103E00001B06B4F48091C9019091CA01A091CB0125
:103E1000B091CC010197A109B1098093C901909398
:103E2000CA01A093CB01B093CC0102C00E94AC2D7B
:103E3000FF91EF91BF91AF919F918F917F916F9182
:103E40005F914F913F912F910F900FBE0F901F9058
:103E500018958091C601E091C401F091C5018823B5
:103E600049F0CF0102969093C5018093C4018591DA
:103E700094910895CF0102969093C5018093C40157
:103E8000808191810895109297071092BC01109241
:103E900092071092C001109293071092940710920B
:103EA0009507109296071092DB0183E080930E072E
:103EB00086E08093CE011092BF0181E08093DA0109
:103EC0001092DC01089520E043E15CE160E070E0E5
:103ED00080E290E00E947C2E21E043E15CE160E220
:103EE00070E080E290E00E947C2E81E10E94D42A62
:103EF000882319F081E08093CE0108950F931F93DA
:103F0000CF93DF93809127079091280767E070E0B7
:103F10000E94A234892B31F48091D8018F5F8F7178
:103F20008093D80100E010E0C0E02C2F42EE55E174
:103F300060E070E0C8010E947C2ECF5F005E1F4FE2
:103F4000C43099F720E049EF5EE16DE270E085E56D
:103F500090E00E947C2E2091CD0141EB5EE16BE26E
:103F600070E08FE490E00E947C2EC091D801D0E0F8
:103F70008E010E531A4EF801249147EA55E169E08B
:103F800070E089E090E00E947C2EF801249147E8DF
:103F900055E16DE070E08FE090E00E947C2EFE0124
:103FA000E959FA4E249145E255E162E270E08DE66E
:103FB00090E0DF91CF911F910F910C947C2ECF93C5
:103FC000C091DB01CF5FC093DB01C03A50F420E029
:103FD00044EE59E164E070E082E290E0CF910C940D
:103FE0007C2E0E947E1FCB3F28F481E10E94D42AC0
:103FF000882319F081E08093CE01CF91089581E26A
:1040000090E00E941D348093970782E290E00E9426
:104010001D34809392071092BC011092C00163E995
:1040200077E084E290E00E94DF2E1092DB0183E0D3
:1040300080930E0786E08093CE011092BF0181E04D
:104040008093DA011092DC010895CF930E947E1FC5
:1040500020E04DE850E262E170E085E390E00E94EC
:104060009A2E82E00E94D42A882319F081E080935E
:10407000D90188E00E94D42A81111092D901C091FF
:10408000D90189E0C89FB00111246E5E7F4F20E006
:1040900047E050E280E390E00E94762E81E00E94AB
:1040A000D42A882329F0C65FC093CE011092D9018B
:1040B00080E10E94D42A882319F081E08093CE0108
:1040C000CF9108950E947E1F20E04AE85BE169E0FD
:1040D00070E083E390E00E949A2E82E00E94D42A4E
:1040E000882321F080910101853008F188E00E9449
:1040F000D42A882321F0809101018330E0F481E10A
:104100000E94D42A9091010181119093CE01892FB0
:1041100090E0019729E0289FB001299F700D11249C
:1041200020E047E050E28EE290E00C94762E8F5F24
:1041300080930101DBCF815080930101E0CF80911A
:104140000E07882381F010920807815080930E0794
:1041500064E670E084EA91E00E945A2E81E0809348
:10416000030710920B070895809127079091280765
:1041700063E070E00E94A234892B79F40E94A93395
:1041800024E130E040E050E00E943334CB01865B14
:104190009E4F6EE170E00C945A2E0895883138F5E8
:1041A000683138F5A0919707B0E0AA0FBB1FA15E58
:1041B000BE4FE82F082E000CFF0B23E0F595E79586
:1041C0002A95E1F723E06202E00DF11D11242D9103
:1041D0003C91E20FF31FE491F0E087709F0102C071
:1041E000359527958A95E2F7C9018170089581E098
:1041F000089580E008956F927F928F929F92AF9280
:10420000BF92CF92DF92EF92FF920F931F93CF93C3
:10421000DF93CDB7DEB72B970FB6F894DEBF0FBE96
:10422000CDBFF82E862E942E213029F1223009F0B0
:1042300065C08091970790E04AE08E010F5F1F4FA5
:10424000B80101962B870E94B733F8010190002036
:10425000E9F73197E01BF10BAE2E2B85B22EBE1A7B
:10426000682D70E0695071098F2D90E020E048E2E0
:1042700051E2029741C06091930770919407809139
:104280009507909196072AE08E010F5F1F4FA801B6
:104290000E94C233F80101900020E9F73197E01B3A
:1042A000F10BAE2E06E0B02EBE1AC82CD12C32E097
:1042B000C31AD1080F2D10E020E04DE651E2B601FF
:1042C000C80102970E947C2E612C712C20E04DE5E4
:1042D00051E2B601C301800F911F0E947C2E87E03E
:1042E000680E711C3AE26316710481F721E04DE615
:1042F00051E2B601C80189960E947C2EE12C0B2D5B
:10430000BB0C110BC82CD12C6F2C712C8E2D90E076
:10431000801791070CF581E0981681F032E0931236
:1043200019C020E040EE50E2B601C30137E0E39E41
:10433000800D911D11240E947C2E0CC020E04DEDBB
:1043400055E0B601C30136E0E39E800D911D1124B6
:104350000E949A2EE394DACF8F2D90E026E0209FE2
:104360007001219FF00C1124E80EF91E27E0209F18
:104370006001219FD00C1124C80ED91E712C0A2C6B
:10438000000CBB08082D10E0872D90E08A159B05D6
:1043900064F5E1E0F0E0EC0FFD1FE80FF91F20816C
:1043A00021331CF020532A3008F020E081E09816D9
:1043B00079F032E0931217C040EE50E2B801C60126
:1043C00037E0739E800D911D11240E947C2E0BC03E
:1043D0004DED55E0B801C70136E0739E800D911D8B
:1043E00011240E949A2E7394CFCF2B960FB6F89477
:1043F000DEBF0FBECDBFDF91CF911F910F91FF9018
:10440000EF90DF90CF90BF90AF909F908F907F9074
:104410006F9008952F923F924F925F926F927F928A
:104420008F929F92AF92BF92CF92DF92EF92FF92C4
:104430000F931F93CF93DF93CDB7DEB72A970FB6B5
:10444000F894DEBF0FBECDBF80912707909128075B
:1044500064E170E00E94A234892B09F062C01092DE
:10446000BE018091BC01E091DD01882379F081508B
:104470008093BC018091930790919407A091950738
:10448000B09196074496A11DB11D12C08091C00144
:10449000882331F181508093C001809193079091DE
:1044A0009407A0919507B09196074E96A11DB11D56
:1044B0008093930790939407A0939507B0939607E2
:1044C00081E08E0F8093DD01F0E0EE0FFF1FE55AD3
:1044D000FE4F66E970E0808191810E945A2E21C0D2
:1044E00081E08093BE011092BF019091DC01892789
:1044F0008093DC01EA3070F4F0E0EE0FFF1FE55A24
:10450000FE4F66E970E0808191810E945A2E8AE018
:104510008093DD01809197078E3118F089E08093B8
:10452000CE0167E977E081E290E00E94382F62E9EE
:1045300077E082E290E00E94382F63E977E084E23E
:1045400090E00E94052F809197078E3180F420E043
:1045500043E152E264E070E083E290E00E947C2E4E
:1045600022E042E06DE08EE40E94FB2011C01A823E
:104570001982CE0101960E941D2D19821A821B827A
:104580001C82BE016F5F7F4F84E290E00E94052F86
:1045900021E042E061E38BE20E94FB208091BF01B9
:1045A000811105C08091BE01811122C0D3C2F0905B
:1045B000C0018091BC01F80E2F2D39EF320380012C
:1045C00011240F5B1F4FE12CEF1461F38091BC01AC
:1045D000E81610F420E001C021E041EE51E26BE169
:1045E00070E0C8010E949A2EE394025F1F4FECCF47
:1045F0008091DC01882349F020E047E751E26DE13A
:1046000070E086E290E00E949A2E81E10E94D42A16
:10461000882309F49FC21092DD0164E170E089EA09
:1046200091E00E945A2E1092F7061092F606109210
:10463000F9061092F80680E890E09093FB068093CC
:10464000FA061092FD061092FC061092FF061092D8
:10465000FE06109201071092000781E08093020786
:104660008093030710920B0710920C071092040717
:10467000109205071092060710920707109208077C
:104680008093090710920A0783E080930E07109227
:104690000F0706EF16E030E1C32ED12CE12CF12CF0
:1046A0000E94A9334B015C010E94A933A701960126
:1046B0000E943334D8015B967C936E935A97C50160
:1046C000B401A70196010E943334F801758F648FFD
:1046D0000C5F1F4FF7E002301F0711F71092EF0633
:1046E0001092EE0680E491E09093F1068093F0063C
:1046F0001092F3061092F2061092F5061092F4064C
:104700001092BD0108EF15E0BCE88B2EB1E09B2EA6
:104710008AE9A82E86E0B82E90ED292E96E0392E53
:10472000C12CD12C20E1422E512C612C712CD801AE
:1047300011961C921E9213961C921E921297E12CB7
:10474000F12C0E94A9336F83788789879A870E940A
:10475000A933F801EE0DFF1DFE83ED83A301920145
:104760000E943334AD81BE8115967C936E9314976D
:104770006F81788589859A85A30192010E943334DF
:10478000ED81FE8177836683F4E0EF0EF11C20E17A
:10479000E216F104B1F6D80159961C921E92589770
:1047A0005A961C92F4011182108213821282F60131
:1047B000E457FE4F20E12483D4011696FC92EE923A
:1047C0001597B1E0B783F50111821082138212822E
:1047D000F601E656F94F17822EE12583B48316823F
:1047E000D10111961C921E9213961C921E92129742
:1047F00014961C92055E1F4FB8E08B0E911CE8E0EA
:10480000CE0ED11CF8E0AF0EB11C25E0220E311CFB
:1048100036E00A39130709F08ACFE0919707F0E0F4
:10482000EE0FFF1FE15EFE4FC080D18088E4C80E0E
:10483000D11CF601849130E0AA24A39465E0962E61
:1048400078E0872EE4E04E2EF8E06F2E712CA7E082
:104850003A2E8F3F09F47BC1F601E30FF11D9491CD
:1048600064916F71562E42E0B42EB30E81E0830F37
:10487000F601E80FF11D84918F71282E892F807E1B
:10488000803609F469C0D8F4803269F1803409F4C3
:104890003BC0811156C1822D880F10921C07809356
:1048A0001D07660F10921E0760931F071092FA06ED
:1048B0008093FB061092FC066093FD0642C1803A8D
:1048C00009F4FFC0803C09F428C1803809F039C1DF
:1048D000EB2DF0E03197EC0DFD1DE490A3E9B1E084
:1048E00000E010E075C0F0E12F9EC001112490930C
:1048F00021078093200720E1629FB001112470936B
:104900002307609322071DC1E1EAF6E0A0E0B0E0D2
:10491000808181111BC030E1539EB001112433E02E
:10492000AA0FBB1F3A95E1F7A656B94FE0E12E9EBC
:10493000C001112411969C938E93685F7F4F13964C
:104940007C936E9312971796AC92FBC01196389693
:10495000A630B105E9F6F5C03D5FF601EB0DF11D9E
:10496000E491A2E1B6E080E090E04C91411122C0D8
:10497000FBE1F89FD001F99FB00D1124A850BA4F68
:1049800020E1229EC001112411969C938E9380E118
:10499000589EB001112413967C936E93129720E1D8
:1049A000E29FF00111245996FC93EE9358975A9682
:1049B000AC9205C001965B9686309105B1F6B32E98
:1049C000C0C00F5F1F4F18960630110509F4B9C01B
:1049D0008C9182FDF6CFF12C85E0F594E7948A95D1
:1049E000E1F73FEFE31AF30A94E0EE0CFF1C9A950F
:1049F000E1F723E0000F111F2A95E1F704571E4F3E
:104A0000A0E12A9EC0011124F80191838083F0E186
:104A10005F9EC0011124D80113969C938E93129728
:104A20006FEF650D822D0E94CE20882331F0F801B2
:104A30003782E4827682658284C061E0650D822DD2
:104A40000E94CE208823A9F0D80117969C92179730
:104A50001496EC92149716967C926E921597129675
:104A60008D919C911397089613969C938E93129711
:104A700068C0652D8FEF820D0E94CE20882331F013
:104A8000F80147828482F682E5825BC0652D81E071
:104A9000820D0E94CE20882309F453C0E6E0D8019D
:104AA0001796EC93179714968C9214971696FC927F
:104AB000EE9215978D919C91119708968D939C93EA
:104AC00040C0E4EDF6E080E090E0308131111FC09D
:104AD0003091BD013F5F3093BD01989ED001999EFA
:104AE000B00D1124A053B94FF0E12F9EC001112445
:104AF00020E1529EB001112413967C936E9312977D
:104B0000029611969C938E931496AC921AC00196BD
:104B1000359686309105C9F614C030E1239EC00158
:104B200011249093CB068093CA0680E1689FB00160
:104B300011247093CD066093CC06A092CE061092FD
:104B4000CF06F601EB0DF11D84913B2D82CE87E05F
:104B50008093CE012A960FB6F894DEBF0FBECDBF6C
:104B6000DF91CF911F910F91FF90EF90DF90CF9049
:104B7000BF90AF909F908F907F906F905F904F907D
:104B80003F902F90089520E049EF5EE162E070E0F1
:104B90008BE290E00E947C2E2091CD0141EB5EE102
:104BA00060E070E085E290E00E947C2E20E04FE41F
:104BB0005EE160E370E088E290E00E947C2E63E9B1
:104BC00077E088E290E00E94DF2E83E290E00E948E
:104BD0001D3420E0843B39F44BE35EE16CE170E08E
:104BE00085E190E006C045E35EE16CE170E08CE1B8
:104BF00090E00E947C2E20E045E15EE16CE170E0F7
:104C00008EE190E00E947C2E21E042E06EE187E39D
:104C10000E94FB2081E10E94D42A882319F081E0C0
:104C20008093CE010895AF92BF92CF92DF92EF9220
:104C3000FF920F93CF93DF93CDB7DEB72E970FB6CA
:104C4000F894DEBF0FBECDBF29833A834B835C83CC
:104C50007E838F83A886B986CA86DB86FD860E870B
:104C6000E981FA814B815C81888599852A853B851C
:104C7000DF01A60FB11D8A179B07A4F48E0D911DAD
:104C8000E817F9077CF48E819F81840F951F281700
:104C9000390744F48D859E85280F391F81E042171E
:104CA00053070CF080E02E960FB6F894DEBF0FBECF
:104CB000CDBFDF91CF910F91FF90EF90DF90CF901C
:104CC000BF90AF900895EF92FF920F931F93CF93F1
:104CD000DF931F92CDB7DEB77C01FC01008111810B
:104CE000C80169830E941D346981681719F0C801E1
:104CF0000E942534C7010F90DF91CF911F910F9132
:104D0000FF90EF900895CF93DF9300D0CDB7DEB73B
:104D10000E947E1F20E049E75FE169E070E083E3E5
:104D200090E00E949A2E82E00E94D42A81110E9473
:104D3000D92E88E00E94D42A81110E94D42E60913D
:104D4000980789E0689FB00111246E5E7F4F20E0D4
:104D500047E050E286E390E00E94762E81E10E94D7
:104D6000D42A882369F06091980782E090E09A83C2
:104D70008983CE0101960E94632681E08093CE0153
:104D80000F900F90DF91CF910895CF93DF931F92F3
:104D9000CDB7DEB76983DC01ED91FC910280F38130
:104DA000E02D41E050E0BE016F5F7F4F09950F900D
:104DB000DF91CF91089583E08093E9008091F20024
:104DC000882319F08AE38093E8000895FC01848524
:104DD000958597FD0BC09FB7F89482E08093E9001A
:104DE0008091F2009FBF90E0019608959FB7F894DC
:104DF00082E08093E9008091F2009FBF90E00895E7
:104E00007F928F929F92AF92BF92CF92DF92EF925A
:104E1000FF920F931F93CF93DF936C015B017A0195
:104E200080910D01882309F46BC08091E7018823EC
:104E300009F466C08091E40180FF05C08091E00024
:104E400082608093E000E70110E00AEF83E0982E93
:104E500090E4792E2AE3822E209709F448C08FB778
:104E6000F8949092E9009091E80095FF06C0909127
:104E7000F200272D291B922F01C090E08FBF9111C6
:104E80000AC0015009F43CC061E070E080E090E0AD
:104E90000E94451EE1CF292F30E0C217D3070CF442
:104EA0009C2F8FB7F8949092E9002091E80025FF9D
:104EB0001CC0292F30E0C21BD30BF501915020F00C
:104EC00041914093F100FACFA20EB31E112319F0C5
:104ED0008092E80009C09091E80095FD06C080929C
:104EE000E80011E0209709F010E08FBFB5CF111155
:104EF000B6CF5D9884E68093E5011E141F0444F04C
:104F000081E090E0F6019383828380E090E001C02D
:104F1000C701DF91CF911F910F91FF90EF90DF902C
:104F2000CF90BF90AF909F908F907F900895CF9338
:104F3000DF931F92CDB7DEB7FC018485958597FD81
:104F400005C02FEF3FEF358724870BC0CE010196B8
:104F50000E946A2D019719F4898190E002C08FEFB9
:104F60009FEF0F90DF91CF9108950F931F93CF93F1
:104F7000DF931F92CDB7DEB78C01FC018485958548
:104F800097FF0EC0CE0101960E946A2D019719F479
:104F9000298130E002C02FEF3FEFF80135872487E9
:104FA000F801848595850F90DF91CF911F910F9126
:104FB0000895DF92EF92FF920F931F93CF93DF93A9
:104FC000D82E8A017B01E40EF51EEB01CE15DF051C
:104FD00071F0D7FE03C0FE01849101C088810E9458
:104FE0000A1E21968111F2CF8FEF9FEF01C0C801F9
:104FF000DF91CF911F910F91FF90EF90DF90089577
:105000000F931F93CF93DF931F92CDB7DEB782E04C
:10501000898342E450E061E872E280E80E94D92787
:105020000E94942DDC0112960D911C91139701158D
:10503000110569F0D801ED91FC910280F381E02D1A
:10504000BE016F5F7F4FC801099597FF07C0898137
:105050000F90DF91CF911F910F910895F801008576
:105060001185E5CF1F920F920FB60F9211248F93E7
:105070009F938091E1009091E100937F9093E100F4
:1050800083FF0FC01092E90091E09093EB00109223
:10509000EC0092E39093ED001092E70198E090937A
:1050A000F00082FF20C093E09093E9009091F2001D
:1050B000992319F09AE39093E8009091E5019923E0
:1050C00039F09091E50191509093E501992389F190
:1050D0009091E601992339F09091E60191509093D7
:1050E000E601992341F184FF10C08091E2008E7E99
:1050F00081608093E2008091E1008F7E8093E100E7
:105100008091E4018E7E806111C080FF16C0809185
:10511000E2008E7E80618093E2008091E1008E7ECD
:105120008093E1008091E4018E7E81608093E401B0
:1051300004C05D9ACDCF289AD6CF9F918F910F90C2
:105140000FBE0F901F9018951F920F920FB60F92DF
:105150001124CF92DF92EF92FF920F931F932F9320
:105160003F934F935F936F937F938F939F93AF93EF
:10517000BF93EF93FF93CF93DF93CDB7DEB76C97D9
:10518000DEBFCDBF1092E9008091E80083FFEDC142
:1051900068E0CE0145960E94381E82EF8093E800B9
:1051A0008D8987FF05C09091E80090FFFCCF03C078
:1051B0009EEF9093E800982F907609F0C6C09E89E4
:1051C0002F89188D91110CC0803829F48091E3014A
:1051D0008093F10002C01092F1001092F10048C1DA
:1051E000422F50E0512B913051F4811141C1413097
:1051F000510509F03DC18091E3018D7F0BC09330D3
:1052000061F4811135C14130510509F031C18091FE
:10521000E30182608093E3012BC1953041F48091DA
:10522000E80080FFFCCF20682093E30021C1963086
:1052300009F05FC0EB8CFC8C1092E9001092E10148
:105240001092E001123091F51092DF011092DE0110
:105250000E94002899E0BE016F5F7F4FDB01E92FBC
:105260001D92EA95E9F799831A8391E09E8390EA6B
:1052700098879AEF99872091E0013091E101275FAB
:105280003F4F3C832B838D831092E9001092E10104
:105290001092E001F092DF01E092DE0149E050E07F
:1052A00080E00E94D9270E940028E2C0F092DF012E
:1052B000E092DE010E94942DDC011296ED90FC90AC
:1052C0001397E114F10409F4C0C0D701ED91FC91EA
:1052D0000480F581E02DBE016B5E7F4FC70109950B
:1052E000009719F00CF0C4C0C7C0F701E084F18446
:1052F000E8CF973009F4C0C0983021F481E0809362
:10530000F100B6C0993009F0B3C0837009F0B4C0A1
:10531000E0E7F1E081E021E036E39081992361F05C
:105320008093E9002093EB0091919093EC003093EF
:10533000ED008F5F873089F78EE78093EA00109247
:10534000EA008F898093E70193C08B8D9C8D10922A
:10535000E9001092E1011092E0019093DF01809347
:10536000DE01898D811156C08E899D89913A59F44B
:10537000813209F081C047E050E066E071E080E0F2
:105380000E94D92775C0913209F076C0833289F422
:10539000888D90E0982F88272F89822BA0E0B0E09D
:1053A0008093020190930301A0930401B09305013F
:1053B0005FC0803269F48091E80082FFFCCF67E033
:1053C00086E091E00E94381E8BEF8093E80006C0D3
:1053D000823209F04DC08F8980930D018091E201E6
:1053E000882319F0EEEFFAE002C0E0E0F8E08091E7
:1053F000060190910701A0910801B0910901803B3D
:105400009440A105B10509F07BC080910D0180FF9A
:1054100093C076C00E94942DDC0112960D911C91D0
:1054200013970115110541F1D801ED91FC910190FF
:10543000F081E02DBE016B5E7F4FC801099581119F
:1054400017C0F80100851185ECCF113009F44EC06A
:10545000133091F48F89882309F445C0823081F498
:1054600040E867E085EE92E20E944E32882321F008
:105470008EEF8093E80079C081E28093EB0075C0E5
:10548000813029F440E86BE089ED92E2EDCF833082
:1054900099F70E94942DDC011296ED90FC901397E1
:1054A0008E010F5F1F4F6801E114F10479F0D701FD
:1054B000ED91FC910680F781E02DB801C7010995B7
:1054C000080F111DF701E084F184EECFD8011C9282
:1054D000F60101900020E9F73197BF016C197D09B1
:1054E00040E0C601C1CF63EC72E202C067EC72E239
:1054F0006115710509F2FB01449150E080E840CF4D
:105500000FB6F894A8958091600088618093600040
:10551000109260000FBEA895EE3F2AE0F20739F026
:105520008091FE0A9091FF0A91838083A1CF10920F
:10553000FF0A1092FE0A9CCFEE3F8AE0F80731F096
:10554000808191819093FF0A8093FE0A87E797E715
:10555000918380839BE088E10FB6F894A8958093AF
:1055600060000FBE9093600083CF6C960FB6F894E6
:10557000DEBF0FBECDBFDF91CF91FF91EF91BF9105
:10558000AF919F918F917F916F915F914F913F91DB
:105590002F911F910F91FF90EF90DF90CF900F9080
:1055A0000FBE0F901F90189520912A07282329F4E9
:1055B00090912907982381E009F480E008954F92A3
:1055C0005F926F927F928F929F92AF92BF92CF9293
:1055D000DF92EF92FF920F931F93CF93DF9300D050
:1055E00000D0CDB7DEB7DC014115510509F4F1C19A
:1055F000FA0114913196F4914E5F5F4FE12EF12C38
:10560000222309F18F2F869586958695C82ED12C59
:1056100081E090E03F2F377011F480E090E08C0D36
:105620009D1DE89E6001E99ED00CF89ED00C1124CF
:10563000033011F4CC0CDD1C2C9DC0012D9D900D70
:105640001124480F591F0F3F09F402E0CD018E0DC0
:105650009F1D181619060CF0BCC1A038B1050CF03E
:10566000B8C19B012F0F311D121613060CF0B1C1EA
:10567000603471050CF0ADC14115510509F4A9C1A3
:105680009B0177FF04C022273327261B370B322FBD
:1056900037706B0177FF03C027E0C20ED11C23E0F7
:1056A000D594C7942A95E1F72C2D77FF07C03323B3
:1056B00029F02FEF2C0D68E0631B362FB7FF05C0D4
:1056C000CC24DD24CA1ADB0A02C0C12CD12C8038BC
:1056D000910524F080E8982E9A1A01C0912E9C180A
:1056E000622F022E000C770B2F3F1CF4B62EB094C5
:1056F00001C0B12C91E08F2F877009F490E0F695EE
:10570000F695F6959F0F690F711D6930710514F0BC
:1057100098E0921B792F7B192B0DCD0160E82603B1
:10572000800D911D11248C0D9D1DD601B19EA00DE3
:10573000B11D11244A0F5B1FE1E0F0E06F01032E61
:1057400002C0CC0CDD1C0A94E2F7033009F4FDC062
:10575000A0F4013009F4AFC0023009F03AC16FEF94
:105760006C9D80016D9D100D1124009510951C837A
:105770000B837C80672E620E28C00A3F31F00B3FFE
:1057800009F027C1B72EB20E82C0B72EB20E4DC09F
:10579000FA01E60FF71FE491EC9D5001ED9DB00C6E
:1057A0001124BA82A98227FD04C0EC91E023AE2A1D
:1057B000AC92311113C06F5F7F4F1196691540F3A2
:1057C0002F5F4E0D5F1D80589F4F261509F401C1B4
:1057D000DC01A851BE4F60E070E0F0CF27305CF7ED
:1057E000FD01E058FF4FB080B720AA80BA28B082F0
:1057F000E2CFFA01E60FF71FE491EC9D8001ED9DE9
:10580000100D11241A83098327FD03C0EC910E2B80
:105810000C93311113C06F5F7F4F1196691548F3D8
:105820002F5F4E0D5F1D80589F4F2B1509F4D1C07F
:10583000DC01A851BE4F60E070E0F0CF27305CF78C
:105840008D0100581F4FF801A080FA81AF2AF8019E
:10585000A082E1CFFA01E00FF11FE491EC9DB001CD
:10586000ED9D700D11247A83698327FD04C0609536
:105870007C9167236C93311113C00F5F1F4F1196FA
:10588000091540F32F5F4E0D5F1D80589F4F2B155C
:1058900009F49FC0DC01A851BE4F00E010E0F0CF3A
:1058A00027305CF7FD01E058FF4F6A8160957081F9
:1058B00067236083E2CF772E720EBD01641B750BE8
:1058C000271509F486C0FC01E851FE4F5F0100E096
:1058D00010E00915A0F5F801E60FF71FE40FF51F1A
:1058E000E491EC9DD001ED9DB00D1124A095B095F3
:1058F000BC83AB83FA01E00FF11FE491EC9D200122
:10590000ED9D500C11245A82498227FD05C0F501F6
:10591000B081AB234A2A4082332359F027304CF41C
:10592000F501E058FF4FB081AC81AB23BA81AB2BBE
:10593000A0830F5F1F4FFFEFAF1ABF0ACACF2F5FC1
:105940004E0D5F1D80589F4FBBCF692C712CFA0103
:10595000EA0FFB1FDC01A851BE4F8C0108591D4FF7
:1059600080E890E05C01A618B708E618F708EE0C8E
:10597000FF1C972F792C872ECF93DF93E801659139
:105980004591332359F06C9DB0014C9DA001273007
:105990002CF4D8805095D522D72AD99222233AF0D8
:1059A000DC904095D422D62ADD920C94D82C119606
:1059B0009A9429F79A9551F0972C23951124EE0D7E
:1059C000F11DAA0DB11DCA0DD11DD9CFDF91CF9107
:1059D00011240F900F900F900F90DF91CF911F9196
:1059E0000F91FF90EF90DF90CF90BF90AF909F907E
:1059F0008F907F906F905F904F90089580E0E8EED9
:105A0000F1E081118FEF0024819381938193819341
:105A10000394D1F708958091E8018EBDE9EEF1E09D
:105A200081910DB407FEFDCF8EBD85E0E83EF807FD
:105A3000B9F70DB407FEFDCF08950F931F93CF93D1
:105A4000DF9300D0CDB7DEB78C01FC01608181E22D
:105A500090E09A838983CE0101960E946326F80123
:105A6000618182E290E09A838983CE0101960E944F
:105A70006326C8010F900F90DF91CF911F910F9176
:105A800008951F93CF93DF9300D01F92CDB7DEB759
:105A9000182F5E9A88EC90E06B830E94A02E5E988F
:105AA00082E090E09A8389836B81CE0101960E9407
:105AB000632684EF91E00E94A02E5E9A0E94A52E9C
:105AC00081238117D9F30F900F900F90DF91CF9121
:105AD0001F910895FC018091E701811103C08FEFB0
