:100000000C948E040C94B6040C94B6040C94B604B0
:100010000C94B6040C94B6040C94B6040C94B60478
:100020000C94B6040C94B6040C943E130C94B013C8
:100030000C94B6040C94B6040C94B6040C94B60458
:100040000C94B6040C94A3070C94B6040C94B60458
:100050000C94B6040C94B6040C94B6040C9490065C
:100060000C94B6040C94B6040C94B6040C94B60428
:100070000C94B6040C94B6040C94B6040C94B60418
:100080000C9441080C94B6040C94B6040C94B60479
:100090000C94B6040C94B6040C94B6040C94B604F8
:1000A0000C94B6040C94B6040C94B604E205E50571
:1000B000D405D805DC05060606060606E905ED05A5
:1000C000F105F705FB0506060106F0F89C8E87830F
:1000D000878E9CF8F00000FEFF0303030303070E66
:1000E000FCF80000FEFF0303030303070EFCF80007
:1000F00000FFFF00000000000000FFFF0000FEFF07
:100100008383838383C7EE7C380000F8FC0E0703EB
:100110000303070EFCF800003F7FE0C08080C0E0D2
:100120007F3FFFFF01010101010101FFFF0000FF0F
:10013000FF0C0C0C0C1C3E77E3C100007FFFC0C01D
:10014000C0C0C0E0703F1F00001F3F70E0C0C0C0D3
:10015000E0703F1F00007FFFC1C1C1C1C1E3773E16
:100160001C00001F3F70E0C0C0C0E0703F1F0000D7
:1001700000000001FFFF010000000000000024005B
:1001800027002A002D003000D5F08D14A1C881CFA2
:10019000D9F1AF20000B020A021202040208020188
:1001A0000215011701160100F8FC24243C18003D3B
:1001B0003D0000183C24242400183C24243C180052
:1001C000041C3820381C0410382A2A2E3C20183CE5
:1001D0002424273F20001C3E2A2A2E0C00043C3EEB
:1001E0000202242E2A2A3A120606070606010506EE
:1001F00006050407040502050005000503050605BC
:1002000003060502050603060306030603060306A6
:1002100000030603000006030600060507030705A2
:10022000060005030006060007000606000606078E
:10023000000503000606050700060606063C3E1FED
:100240000F0F1F3E3C3F213F003F003D2527252546
:100250003F07043F27253D3F253D01013F3F253F07
:1002600027253F05020547414D45204F5645520081
:1002700000000000003E5B4F5B3E3E6B4F6B3E1C40
:100280003E7C3E1C183C7E3C181C577D571C1C5E57
:100290007F5E1C00183C1800FFE7C3E7FF0018242E
:1002A0001800FFE7DBE7FF30483A060E26297929D8
:1002B00026407F050507407F05253F5A3CE73C5A0D
:1002C0007F3E1C1C08081C1C3E7F14227F22145FEA
:1002D0005F005F5F06097F017F006689956A606045
:1002E00060606094A2FFA29408047E040810207E3F
:1002F000201008082A1C08081C2A08081E101010C4
:10030000100C1E0C1E0C30383E3830060E3E0E0609
:10031000000000000000005F00000007000700145C
:100320007F147F14242A7F2A12231308646236491B
:100330005620500008070300001C22410000412203
:100340001C002A1C7F1C2A08083E08080080703008
:100350000008080808080000606000201008040277
:100360003E5149453E00427F40007249494946217D
:1003700041494D331814127F1027454545393C4AF1
:100380004949314121110907364949493646494908
:10039000291E000014000000403400000008142250
:1003A00041141414141400412214080201590906BE
:1003B0003E415D594E7C1211127C7F494949363EBF
:1003C000414141227F4141413E7F494949417F09A5
:1003D0000909013E414151737F0808087F00417FB0
:1003E00041002040413F017F081422417F404040AE
:1003F000407F021C027F7F0408107F3E4141413E46
:100400007F090909063E4151215E7F0919294626C7
:100410004949493203017F01033F4040403F1F20CB
:1004200040201F3F4038403F6314081463030478A2
:1004300004036159494D43007F41414102040810C2
:1004400020004141417F04020102044040404040FD
:10045000000307080020545478407F28444438386B
:1004600044444428384444287F38545454180008DD
:100470007E090218A4A49C787F0804047800447DB7
:1004800040002040403D007F1028440000417F4054
:10049000007C047804787C080404783844444438A8
:1004A000FC1824241818242418FC7C080404084888
:1004B0005454542404043F44243C4040207C1C20D9
:1004C00040201C3C4030403C44281028444C909034
:1004D000907C4464544C440008364100000077008E
:1004E00000004136080002010204023C2623263C9B
:1004F0001EA1A161123A4040207A38545455592126
:10050000555579412154547841215554784020540F
:100510005579400C1E52721239555555593954545B
:10052000545939555454580000457C410002457DCA
:10053000420001457C40F0292429F0F0282528F0CC
:100540007C545545002054547C547C0A097F493220
:10055000494949323248484832324A4848303A419B
:1005600041217A3A42402078009DA0A07D39444440
:1005700044393D4040403D3C24FF2424487E4943CB
:10058000662B2FFC2F2BFF0929F620C0887E09033C
:1005900020545479410000447D413048484A323863
:1005A0004040227A007A0A0A727D0D19317D26298F
:1005B000292F28262929292630484D402038080887
:1005C000080808080808382F10C8ACBA2F102834BB
:1005D000FA00007B000008142A142222142A1408AE
:1005E0009500220095AA005500AAAA55AA55AA006E
:1005F0000000FF00101010FF00141414FF00101072
:10060000FF00FF1010F010F0141414FC001414F785
:1006100000FF0000FF00FF1414F404FC1414171072
:100620001F10101F101F1414141F00101010F000C2
:100630000000001F101010101F10101010F01000FC
:100640000000FF101010101010101010FF1000000C
:1006500000FF140000FF00FF00001F10170000FC47
:1006600004F414141710171414F404F40000FF0019
:10067000F714141414141414F700F71414141714A2
:1006800010101F101F141414F4141010F010F000A8
:10069000001F101F0000001F14000000FC140000C9
:1006A000F010F01010FF10FF141414FF14101010AD
:1006B0001F00000000F010FFFFFFFFFFF0F0F0F060
:1006C000F0FFFFFF0000000000FFFF0F0F0F0F0FF4
:1006D00038444438447C2A2A3E147E02020606022C
:1006E0007E027E0263554941633844443C04407EA7
:1006F000201E2006027E020299A5E7A5991C2A4920
:100700002A1C4C7201724C304A4D4D3030487848AA
:1007100030BC625A463D3E494949007E0101017E96
:100720002A2A2A2A2A44445F444440514A444040E9
:10073000444A51400000FF0103E080FF0000080828
:100740006B6B083612362436060F090F06000018A8
:10075000180000001010003040FF0101001F0101CF
:100760001E00191D1712003C3C3C3C00000000001C
:1007700006011501260137014A015D017201880158
:100780009F01B801D201EE010B022A024B026E0258
:100790009302BA02E40210033F037003A403DC03D4
:1007A000170455049704DD0427057505C8052006C0
:1007B0007D06E0064907B8072D08A9082D09B909E3
:1007C0004D0AEA0A900B400CFA0CC00D910E6F0F07
:1007D0005A1053115B1272139A14D41520178018F3
:1007E000F519801B231DDE1EB420A622B524E426A5
:1007F0003429A72B402E0031EA330037453ABC3D5F
:1008000068414C456B49C84D68524F57805C006247
:1008100010111213151617181A1C1D1F2123252736
:10082000292C2E3134373A3E4145494E52575C62AD
:10083000686E757B838B939CA5AFB9C4D0DCE9F758
:100840000000000200090F0000030401000C00007A
:100850000000000000000000000000000000000494
:1008600008020110408040102040804080080204AF
:100870000180402010020110801020404020000024
:100880000000250028002B002E0031000404040481
:100890000403040502020202040302020202060625
:1008A00006060606040402020204040301080B0003
:1008B00002020201000904000001020200000524F6
:1008C000001001052401010104240206052406008C
:1008D000010705810310004009040100020A00001D
:1008E00000070502024000000705830240000004E3
:1008F00003090412010002EF020140412336800087
:10090000010102030141726475696E6F204C4C4312
:100910000041424C313330360000951F11241FBE78
:10092000CFEFDAE0DEBFCDBF12E0A0E0B1E0ECEE49
:10093000F0E402C005900D92AE33B107D9F727E07D
:10094000AEE3B2E001C01D92A836B207E1F714E0B1
:10095000CEE8D4E004C02197FE010E946220CD3889
:10096000D107C9F70E94E0150C9474200C94000084
:10097000CF92DF92EF92FF920F931F93CF93DF936B
:100980006C017A018B01C0E0D0E0CE15DF0589F063
:10099000D8016D918D01D601ED91FC910190F0810E
:1009A000E02DC6010995892B11F47E0102C0219624
:1009B000ECCFC701DF91CF911F910F91FF90EF9086
:1009C000DF90CF9008953FB7F89480918302909183
:1009D0008402A0918502B091860226B5A89B05C02D
:1009E0002F3F19F00196A11DB11D3FBFBA2FA92FAE
:1009F000982F8827820F911DA11DB11DBC01CD012B
:100A000042E0660F771F881F991F4A95D1F7089516
:100A1000FC01862F96EF960F97FD0BC0A92F092E8C
:100A2000000CBB0BAB55BD4F2C912111892F9A5057
:100A3000F3CF15826AE00E9420202091DC023091E1
:100A4000DD0247E0949F200D311D11242F5F3F4FA1
:100A50003183208324E030E0A901481B5109CA01F9
:100A600026E0289FA001299F500D11242091DE022D
:100A70003091DF02240F351F2A5F3F4F33832283DB
:100A80000895FC012091E20230E0C901CC9662E3B6
:100A900070E00E944E20BC01DC01AB55BD4F8C9133
:100AA000882319F0CF010C94080508956091E202A3
:100AB0000C9408050E946F20CF92DF92EF920F9363
:100AC0001F93CF93DF93EC016B01142F26E043E0DB
:100AD0000E948710812F6AE00E942020492F50E059
:100AE000CA01880F991F480F591F4B5B5D4FEE24B9
:100AF000E39405E023E0B601CE010E941D0FDF91D3
:100B0000CF911F910F91EF90DF90CF900895EF92CA
:100B1000FF920F931F93CF93DF937C01C0919202BA
:100B2000CE5F0091E40210E003500C2E000CDD0BB0
:100B30002296602F610F062E000C770BCE010E94CB
:100B4000C31087FF0AC01650123E99F7DF91CF916C
:100B50001F910F91FF90EF900895682FC701DF91CB
:100B6000CF911F910F91FF90EF900C940805362FB5
:100B700090E0FC01E05CF74F4491FC01E15AF74F33
:100B80002491FC01E457F74F8491882309F451C064
:100B90004423E1F150E0FA013197EF30F105B0F56F
:100BA000EA5AFF4F0C946220909180009F7707C013
:100BB000909180009F7D03C090918000977F9093DB
:100BC000800024C094B59F7702C094B59F7D94BDEA
:100BD0001DC0909190009F7707C0909190009F7DDD
:100BE00003C090919000977F909390000FC09091D8
:100BF000C0009F7703C09091C0009F7D9093C0007C
:100C000005C09091C200977F9093C200E82FF0E05A
:100C1000EE0FFF1FE258F74FA591B4918FB7F894EC
:100C2000EC91311103C020952E2301C02E2B2C9363
:100C30008FBF0895CF93DF9390E0FC01E15AF74F07
:100C40002491FC01E457F74F8491882361F190E0EF
:100C5000880F991FFC01E658FE4FC591D491FC0105
:100C6000E258F74FA591B491611109C09FB7F8946C
:100C70008881209582238883EC912E230BC06230DB
:100C800061F49FB7F8943881822F809583238883FD
:100C9000EC912E2B2C939FBF06C08FB7F894E88160
:100CA0002E2B28838FBFDF91CF9108958F929F9233
:100CB000AF92BF92CF92DF92EF92FF926B017C01D5
:100CC0000E94E3044B015C01C114D104E104F1046E
:100CD000F1F00E94E304DC01CB0188199909AA090B
:100CE000BB09883E9340A105B10570F321E0C21A0B
:100CF000D108E108F10888EE880E83E0981EA11C57
:100D0000B11CC114D104E104F10419F7DDCFFF9047
:100D1000EF90DF90CF90BF90AF909F908F9008950D
:100D20001F920F920FB60F9211242F933F938F9320
:100D30009F93AF93BF9380913F0290914002A09107
:100D40004102B09142023091820223E0230F2D37FD
:100D500020F40196A11DB11D05C026E8230F0296BF
:100D6000A11DB11D2093820280933F029093400207
:100D7000A0934102B0934202809183029091840239
:100D8000A0918502B09186020196A11DB11D8093AC
:100D9000830290938402A0938502B0938602BF9150
:100DA000AF919F918F913F912F910F900FBE0F9018
:100DB0001F90189583B12FB199B130E020953095EF
:100DC00020783327A90124E0559547952A95E1F726
:100DD000292F30E0209530952871332753E0359541
:100DE00027955A95E1F7242B8095807D822B0895D5
:100DF0000F931F93CF93DF93D82F8B01FB01C081FB
:100E0000CC2321F00E94DA068D2369F0F801C0811D
:100E1000C1110CC00E94DA068D238D1307C081E03A
:100E2000F801808304C0F801108201C0C0E08C2F5B
:100E3000DF91CF911F910F910895FC0121912EBD5B
:100E40009C5F21910DB407FEFDCF2EBDE817F90779
:100E5000C1F70DB407FEFDCF0895CF92DF92EF9258
:100E6000FF920F931F93CF93E82FF0E0E555F74FD4
:100E7000C491E62FF0E0603330F4E05FF74FE49187
:100E80000E2F10E006C0EE0FFF1FE05FF84F059138
:100E900014916801E12CF12C60E074E284EF90E0A1
:100EA000A70196010E94D01FBA01A9014150510922
:100EB000610971094115510581E06807710580F0EC
:100EC00060E970ED83E090E0A70196010E94D01FD9
:100ED000BA01A901415051096109710983E001C0BA
:100EE00081E0C130C9F0C33031F590919100987F15
:100EF000892B809391005093990040939800109310
:100F000081020093800281E080937F0280917100D2
:100F10008260809371000FC090918100987F892B2F
:100F200080938100509389004093880080916F00E6
:100F3000826080936F00CF911F910F91FF90EF908F
:100F4000DF90CF9008951F920F920FB60F92112449
:100F50002F933F938F939F93AF93BF93EF93FF9301
:100F600080917802882309F44DC080917402909199
:100F70007502A0917602B0917702892B8A2B8B2B78
:100F800051F180918E02E0918F02F0919002908158
:100F9000892780838091740290917502A0917602D6
:100FA000B0917702181619061A061B06A4F580914F
:100FB000740290917502A0917602B0917702019728
:100FC000A109B1098093740290937502A0937602EF
:100FD000B093770220C01092780280916F008D7FCD
:100FE00080936F0090918E02E0918F02F0919002B9
:100FF0008081282F30E0892F90E080959095822382
:10100000932308C080918E02E0918F02F0919002AC
:10101000908189278083FF91EF91BF91AF919F913C
:101020008F913F912F910F900FBE0F901F901895A9
:10103000E82FF0E0E555F74FE491E13019F0E330A7
:1010400069F0089580916F008D7F80936F0090917B
:101050008E02E0918F02F091900208C010927F0200
:1010600090918B02E0918C02F0918D028081282F6B
:1010700030E0892F90E080959095822393238083A0
:1010800008951F920F920FB60F9211242F933F9342
:101090004F935F936F937F938F939F93AF93BF9380
:1010A000EF93FF9380917F02882349F080918B0218
:1010B000E0918C02F0918D0290818927808380914C
:1010C0003E02882309F493C080917B0290917C02B8
:1010D000A0917D02B0917E02892B8A2B8B2B09F483
:1010E00086C080917B0290917C02A0917D02B0919C
:1010F0007E020197A109B10980937B0290937C0243
:10110000A0937D02B0937E02892B8A2B8B2B09F052
:101110006EC0E0917902F0917A02BF016F5F7F4F5C
:1011200070937A02609379024491942F907F842F78
:101130008F70903819F40E941808EBCF903981F421
:101140003296F0937A02E0937902FB0164919091D8
:1011500091028917F0F667FDDCCF0E942D07D9CFE9
:10116000903E29F410927A0210927902D2CF903FE9
:1011700019F410923E023BC097FDCBCF3296F0930C
:101180007A02E0937902FB01249130E0342BA091A4
:101190008002B09181020E9411206C507E4F8F4FCF
:1011A0009F4F28EE33E040E050E00E94EF1F209375
:1011B0007B0230937C0240937D0250937E028091AB
:1011C0007B0290917C02A0917D02B0917E02892BDE
:1011D0008A2B8B2B61F481E090E0A0E0B0E080935B
:1011E0007B0290937C02A0937D02B0937E02FF91DC
:1011F000EF91BF91AF919F918F917F916F915F918F
:101200004F913F912F910F900FBE0F901F90189507
:10121000E4E6F0E08081877F8083E5E6F0E080818E
:10122000877F808381E08093730208956038710521
:1012300018F54034510500F5A42FA695A695A6955E
:10124000B0E047705527B695BA2FAA27B795A7954E
:101250006A0F7B1FFC01E60FF71F81E090E001C0E1
:10126000880F4A95EAF7222319F09489892B03C045
:10127000809594898923848B08952F923F924F9271
:101280005F926F927F928F929F92AF92BF92CF9216
:10129000DF92EF92FF920F931F93CF93DF93CDB71F
:1012A000DEB72A970FB6F894DEBF0FBECDBF6A3007
:1012B00091F4FC01E85EFB4F40813297208131813F
:1012C00058E0459F200D311D112431832083329732
:1012D00011821082C1C06D3009F4BEC09A8789871F
:1012E000885E9B4F9C838B83DC012C90E985FA857B
:1012F000EA5EFB4F60807180E985FA85EC5EFB4F0A
:10130000FA83E9830081118100381105D4F0AB81A3
:10131000BC812C91422F50E0E981FA81808191813A
:10132000F6E02F9F800D911D1124A981BA818D9324
:101330009C93E985FA85E75EFB4F208121115EC011
:101340008BC0B0E46B16710414F7C801E5E02E9E63
:10135000800D911D112418161906CCF6422C512C23
:10136000C301F8E02F9E800D911D11241816190657
:1013700074F655E0659F900111243F832E83E12C84
:10138000F12C85E0E816F10441F0EE81FF81EE0DCD
:10139000FF1DE059FD4F349001C0312C630138E04E
:1013A000932D91709D834801882D801B8215B0F488
:1013B00056018A2D8C19821568F42D81A501B4017E
:1013C00089859A8538870E941609AFEFAA1ABA0A4A
:1013D0003885EFCFBFEF8B1A9B0AE6CF369431509A
:1013E000C40CD51C3111DCCFEFEFEE1AFE0A040D50
:1013F000151DF6E0EF16F10421F689CF6AEF6403BC
:101400009001659F300D112420583F4F2817390750
:101410001CF5A985BA85ED91FC9111970190F08199
:10142000E02D6AE0CD012A960FB6F894DEBF0FBE1C
:10143000CDBFDF91CF911F910F91FF90EF90DF9083
:10144000CF90BF90AF909F908F907F906F905F9064
:101450004F903F902F9009942A960FB6F894DEBFD4
:101460000FBECDBFDF91CF911F910F91FF90EF90F5
:10147000DF90CF90BF90AF909F908F907F906F90B4
:101480005F904F903F902F900895EF92FF921F939F
:10149000CF93DF93EC01162FEA81FB817F0183E07C
:1014A000E81AF108F7FD3196CF01959587950196D9
:1014B00062E070E00E944E2028813981BC01620FF9
:1014C000731F212FA7018AEE92E00E9416098A81DC
:1014D0009B81FC01329797FD01969595879562E077
:1014E00070E00E944E2028813981BC01620F731F79
:1014F000212FAF018AEE92E00E941609EA81FB815A
:101500007F0181E0E81AF108F7FD3196F595E7953E
:10151000CF01019662E070E00E944E20288139815F
:10152000BC01620F731F212FA7018AEE92E00E9477
:101530001609EA81FB81CF01F7FD01969595879504
:1015400062E070E00E944E2028813981BC01620F68
:10155000731F212FAF018AEE92E0DF91CF911F918F
:10156000FF90EF900C9416091F93CF93DF93EC013B
:10157000162FEA81FB819F0121503109F7FD319639
:10158000CF019595879562E070E00E944E20A901F9
:10159000481B590B688179816F5F7F4F212F8AEE3D
:1015A00092E00E941609EA81FB819F0121503109D6
:1015B000F7FD3196CF019595879562E070E00E9426
:1015C0004E20A901481B590B68817981212F8AEE91
:1015D00092E00E9416094A815B81688179816F5F80
:1015E0007F4F212F8AEE92E00E9416094A815B818B
:1015F00068817981212F8AEE92E0DF91CF911F914E
:101600000C941609EF92FF921F93CF93DF93EC0196
:10161000162FEA81FB817F0182E0E81AF1083196FA
:10162000F7FD3196CF019595879562E070E00E94B5
:101630004E2028813981BC01620F731F212FA70121
:101640008AEE92E00E9416094A815B81415051095D
:10165000688179816F5F7F4F212F8AEE92E00E942F
:1016600016094A815B814150510968817981212F96
:101670008AEE92E00E941609EA81FB81CF01F7FD14
:1016800001969595879562E070E00E944E20288132
:101690003981BC01620F731F212FAF018AEE92E0E6
:1016A000DF91CF911F91FF90EF900C941609CF938B
:1016B000DF9325E24CE367E170E081E290E00E9475
:1016C000871085E290E09093FF068093FE068CE100
:1016D00090E09093010780930007C6E6D2E0FE01F8
:1016E0006491662369F0E091EA02F091EB020190C7
:1016F000F081E02D8AEE92E009952196892B79F709
:10170000DF91CF910895E3E4F2E0148223E1258391
:1017100080E490E09383828345E45AE057834683D4
:1017200046E555E051874087168627879587848749
:1017300044EB5AE0518B408B47E855E0538B428B8A
:10174000108E218F978B868B82E09BE0938F828F08
:1017500081E495E0958F848F0895CF93DF931F9256
:10176000CDB7DEB762E772E080E10E94F806882319
:1017700029F089830E940809898113C061E772E01A
:1017800081E00E94F806882361F010927302909124
:1017900064009860909364009091650098609093C5
:1017A00065000F90DF91CF9108952F923F924F9255
:1017B0005F926F927F928F929F92AF92BF92CF92E1
:1017C000DF92EF920F931F93CF93DF93EC01162FCD
:1017D000D7FD079623E0959587952A95E1F762E076
:1017E00070E00E944E2045E0489F9001499F300DD7
:1017F0001124C90184509E4F1C01C9018A5F9D4F6D
:101800002C01C901805F9D4F5C016E0194E1C91AF2
:10181000D1083BE1832E912C712C4BEA642E769CEF
:10182000812D1124869539F0813051F4E12E03E0A9
:1018300025E0A20109C0E12E03E025E0A10104C0DA
:10184000E12E03E025E0A501B601C4010E941D0FB1
:10185000739485E0880E911C93E0C90ED11C88E03A
:101860007812DDCF4E0192E0891A910883E4C82EE8
:10187000D12C96E0692E712CC30163E070E00E94C8
:101880004E206115710541F06130710551F4E12E72
:1018900003E025E0A20109C0E12E03E025E0A1015B
:1018A00004C0E12E03E025E0A501B401C6010E94B9
:1018B0001D0F81E0681A710895E0C90ED11C83E004
:1018C000881A910896E6C916D104B1F6E12E03E014
:1018D00027E04AE152E06CE170E081EA90E08C1B85
:1018E0009D0B0E941D0F27E04AE152E06FE170E07E
:1018F000CE018A970E941D0FDF91CF911F910F910A
:10190000EF90DF90CF90BF90AF909F908F907F909F
:101910006F905F904F903F902F900895482F64E113
:1019200070E08DE090E00C945C051F93CF93DF9303
:10193000EC01162F4A815B8168817981212F8AEE23
:1019400092E00E9416094A815B814F5F5F4F688178
:101950007981212F8AEE92E0DF91CF911F910C9433
:101960001609EF920F93E62EFC016281738180814C
:10197000918103E023E043E652E001970E941D0FAE
:101980000F91EF9008951F93CF93DF93EC01162FE3
:101990004A815B8168817981212F8AEE92E00E94E1
:1019A00016094A815B81688179816F5F7F4F212FA2
:1019B0008AEE92E00E9416094A815B8141505109EA
:1019C00068817981212F8AEE92E00E9416094A816E
:1019D0005B8141505109688179816F5F7F4F212F71
:1019E0008AEE92E0DF91CF911F910C941609DC01F1
:1019F0001696ED91FC91179709944F925F926F9212
:101A00007F92AF92BF92CF92DF92EF92FF920F93AD
:101A10001F93CF93DF93EC018F819885019709F095
:101A200086C08A810E8191E0900F9E8320EF200373
:101A300080011124080F111D101611060CF05BC057
:101A40008D8128819981E22FF92FE80FF11DE80F90
:101A5000F11DA080B18081E0809378022501612C86
:101A6000712C60E072E18AE790E0A30192010E948C
:101A7000D01F69017A0181E0C81AD108E108F10894
:101A8000C114D10421E0E206F10488F068E478EEA4
:101A900081E090E0A30192010E94D01F69017A01C8
:101AA00081E0C81AD108E108F10893E001C091E093
:101AB00080918100887F892B809381009501220F7E
:101AC000331FD8010E94682028EE33E040E050E048
:101AD0000E94EF1FD0928900C09288002093740268
:101AE00030937502409376025093770280916F0095
:101AF000826080936F009E818B818917C0F41E8263
:101B0000288199818D818F5F8D83E22FF92FE80FD6
:101B1000F11DE80FF11D8081918197FF08C08C8134
:101B2000811104C082E090E098878F831D82DF914D
:101B3000CF911F910F91FF90EF90DF90CF90BF90CA
:101B4000AF907F906F905F904F900895FC018781D8
:101B50009085892B31F481E090E09087878316820D
:101B600015820895AF92BF92CF92DF92EF92FF92CB
:101B70000F931F93CF93DF931F92CDB7DEB77B01F7
:101B800034E0239F800D911D1124BC016450710924
:101B90005B018AE0C82ED12C2223A1F0CA01B60134
:101BA0000E943A20162F072F482FB701C50129831D
:101BB0000E945C0574E0A71AB108412F502F2981BB
:101BC0002150EACF0F90DF91CF911F910F91FF909D
:101BD000EF90DF90CF90BF90AF9008954091610259
:101BE0005091620224E064E170E08DE690E00C9494
:101BF000B20DFC0180918A02811103C08FEF9FEF2B
:101C000008959FB7F89482E08093E9002091F20054
:101C100030E01216130614F421E030E021153105EE
:101C200059F0289884E6809389028091F10080839E
:101C30008091F200882319F09FBFC90108958BE6B7
:101C40008093E800F9CFCF93DF931F92CDB7DEB733
:101C50006983DC01ED91FC910280F381E02D41E08C
:101C600050E0BE016F5F7F4F09950F90DF91CF91DC
:101C7000089583E08093E9008091F200882319F0B1
:101C80008AE38093E8000895CF93DF931F92CDB746
:101C9000DEB7FC018485958597FD05C02FEF3FEFEA
:101CA000358724870BC0CE0101960E94F90D01975C
:101CB00019F4898190E002C08FEF9FEF0F90DF91C0
:101CC000CF9108950F931F93CF93DF931F92CDB7BA
:101CD000DEB78C01FC018485958597FF0EC0CE018F
:101CE00001960E94F90D019719F4298130E002C094
:101CF0002FEF3FEFF80135872487F801848595851C
:101D00000F90DF91CF911F910F9108957F928F9245
:101D10009F92AF92BF92CF92DF92EF92FF920F937A
:101D20001F93CF93DF936C015B017A018091EA01ED
:101D3000882309F46BC080918A02882309F466C065
:101D40008091880280FF05C08091E00082608093CE
:101D5000E000E70110E00AEF83E0982E90E4792E8E
:101D60002AE3822E209709F448C08FB7F894909206
:101D7000E9009091E80095FF06C09091F200272DB0
:101D8000291B922F01C090E08FBF91110AC0015012
:101D900009F43CC061E070E080E090E00E945606EB
:101DA000E1CF292F30E0C217D3070CF49C2F8FB757
:101DB000F8949092E9002091E80025FF1CC0292F9B
:101DC00030E0C21BD30BF501915020F041914093BC
:101DD000F100FACFA20EB31E112319F08092E80091
:101DE00009C09091E80095FD06C08092E80011E0DE
:101DF000209709F010E08FBFB5CF1111B6CF5D98D5
:101E000084E6809387021E141F0444F081E090E072
:101E1000F6019383828380E090E001C0C701DF91E7
:101E2000CF911F910F91FF90EF90DF90CF90BF90D7
:101E3000AF909F908F907F9008952F923F924F92F6
:101E40005F926F927F928F929F92AF92BF92CF924A
:101E5000DF92EF92FF920F931F93CF93DF93CDB753
:101E6000DEB728970FB6F894DEBF0FBECDBF222E87
:101E7000312C9C01220D331D37FD30C18038910576
:101E80000CF02CC19B01200F311D37FD27C16034A0
:101E900071050CF023C1DB0177FF04C0AA27BB2723
:101EA000A61BB70BA770BB279B0177FF02C0295F5A
:101EB0003F4F13E0359527951A95E1F777FF08C056
:101EC0002150310968E070E05B01AA1ABB0AD50114
:101ED000E02FE695E695E695CE2ED12C077019F009
:101EE0000FEFC01AD00AB9017695762F662777953D
:101EF0006795680F791F5601A20EB31EBC82AB8294
:101F0000412C512CF8E0CF2ED12C86010A1B1B0B43
:101F10001A830983AB80BC802A153B0509F4DEC017
:101F20002830310509F4DAC02F3F1FEF31070CF4D8
:101F3000CAC03B01E0E86E0E711C8B0102581C4FB9
:101F40001E830D834C0100E010E0021513050CF018
:101F5000BAC0E0E88E16910409F4B5C097FCA8C099
:101F60002F3FFFEF3F0709F4B5C0F801E40DF51D61
:101F7000CD80DE80C618D708AA24A394E40FF51FED
:101F8000EA1013C0E491C60ED71EF0E05F010A2EDE
:101F900002C0AA0CBB1C0A94E2F7B886AF82F60115
:101FA000B080EF81F885EB292BC0E11017C0E491D8
:101FB000C60ED71EF0E00A2E02C0EE0FFF1F0A94D5
:101FC000E2F75F01A094B094B886AF82F601A080DA
:101FD000B12CEF81F885AE22BF2213C0E491C60E6A
:101FE000D71EF0E05F010A2E02C0AA0CBB1C0A94A7
:101FF000E2F7B886AF82F601B080EF81F885EB2575
:102000005F01F601A082109709F452C02730310514
:1020100009F44EC0F801E40DF51DAA24A394EA10BA
:1020200011C0E40FF51FE491CE2ED12C560109808A
:1020300002C0B594A7940A94E2F7ED81FE81D080A6
:10204000AD2835C0CD80DE80C618D708E40FF51F57
:10205000E11018C0E491C60CD71CAE2EB12C09803B
:1020600002C0B594A7940A94E2F7F501E095F095C3
:10207000F887EF83F601A080B12CEF81F885AE22BE
:10208000BF2214C0E491C60CD71CAE2EB12CF501B2
:10209000098002C0F595E7950A94E2F7F887EF8387
:1020A000F601B080EF81F885EB255F01F601A08293
:1020B0000F5F1F4FED81FE813196FE83ED83FFEFB1
:1020C0008F1A9F0A42CF2F5F3F4F420C531C60581C
:1020D0007F4F20CF109709F09DCFEACF28960FB6FB
:1020E000F894DEBF0FBECDBFDF91CF911F910F914E
:1020F000FF90EF90DF90CF90BF90AF909F908F9028
:102100007F906F905F904F903F902F900895AF9287
:10211000BF92CF92DF92EF92FF920F931F93CF93D4
:10212000DF937B01EC015C01A40EB11C6B01C20EBC
:10213000D11CCA15DB05E4F48701F7FE0FC000E0EF
:1021400010E00CC0081719078CF420E0A801BE01AC
:102150008AEE92E00E9416090F5F1F4FC60121E42C
:10216000C216D1047CF380E490E0ECCF2196E1CF5D
:10217000DF91CF911F910F91FF90EF90DF90CF9063
:10218000BF90AF9008952F923F924F925F926F92BF
:102190007F928F929F92AF92BF92CF92DF92EF92F7
:1021A000FF920F931F93CF93DF939C01AB01A091FC
:1021B000D802B091D902E090DC02F090DD02B701C4
:1021C000AE15BF050CF4BD01C091DA02D091DB025F
:1021D000C090DE02D090DF02C601CC15DD050CF404
:1021E000CE01621773070CF084C06D5B7F4F6217DE
:1021F00073070CF47EC0841795070CF07AC04A96DA
:10220000841795070CF475C05090E20275EA672EAA
:1022100072E0772E8301EAE03E2EF4E0AF2EB12C7F
:1022200086E0282E402E4618451450F5F80181917D
:102230008F018823B9F3842D632D0E942020B701DC
:10224000F7E09F9F600D711D11242617370754F387
:102250006C5F7F4F621773072CF34501881A910852
:10226000289CF001299CF00D1124EC0DFD1D4E174A
:102270005F07C4F23296E417F507A4F2842D3AC042
:102280008AE0F82E94E0C92ED12C66E0E62E61E3B8
:10229000651578F1852D90E08B559D4FFC0180816F
:1022A000882329F1852D6F2D0E9420208D01F7E0D4
:1022B0009F9F000D111D112420173107C4F00C5FE2
:1022C0001F4F021713079CF0B601681B7109E69EA9
:1022D000C001E79E900D11248C0F9D1F48175907D0
:1022E00034F002968417950714F0852D03C053949B
:1022F000CECF8FEFDF91CF911F910F91FF90EF9095
:10230000DF90CF90BF90AF909F908F907F906F9015
:102310005F904F903F902F90089523E047E060E05A
:1023200070E080919F029091A0020C948710262F5C
:10233000269526952695677090E8299F900111248F
:1023400026513D4FF901E80FF11D8489282F30E017
:1023500081E090E0062E02C0880F991F0A94E2F7F0
:102360008223932302C0959587956A95E2F7089595
:1023700023E045E06DE370E080919202909193023A
:102380000C94871020E08EEF92E0B22FB111BFEFD6
:10239000FC010024B193B193B193B1930394D1F7AD
:1023A0000895CF9380919102823009F466C0282F5E
:1023B00030E0F901E555F74FC491F901E05FF84FBE
:1023C00099E090838F5F8093910261E089E00E94A1
:1023D0001A06C13019F0C33019F14FC010928000B5
:1023E00010928100809181008860809381008091AB
:1023F0008100816080938100E5E9F8E0E491F0E0FC
:10240000EE0FFF1FE258F74F859194919093900241
:1024100080938F02E8E6F8E0E491E0938E022DC00D
:1024200010929000109291008091910088608093AA
:10243000910080919100816080939100E5E9F8E03E
:10244000E491F0E0EE0FFF1FE258F74F8591949171
:1024500090938D0280938C02E8E6F8E0E491E0939B
:102460008B0280919102882321F06CE380E00E942E
:102470002D0780E0CF910C941808CF91089580919A
:10248000080781110DC082E08093040784E08093E7
:102490000507109207071092060781E0809308074E
:1024A00084E097E00895FC018485958597FD0BC035
:1024B0009FB7F89482E08093E9008091F2009FBF7B
:1024C00090E0019608959FB7F89482E08093E90028
:1024D0008091F2009FBF90E008954091660750916F
:1024E0006707209164073091650742175307B4F4DA
:1024F0009091E8009570E1F39091E80092FD19C089
:102500008093F100809166079091670701968F7321
:102510009927892B19F48EEF8093E8008091660744
:10252000909167070196909367078093660781E013
:10253000089580E00895CF92DF92EF92FF920F937B
:102540001F93CF93DF931F92CDB7DEB7182F062FBF
:10255000E42E862F880F8E5F99830E946D1283E090
:102560000E946D12F12EC12E9981D92E8C2D8F19BA
:10257000801798F4F601E7FE02C0849101C08081C3
:102580000E946D12182F80E00E946D128123FFEFD0
:10259000CF1ADF0A8111EACF01C081E00F90DF91ED
:1025A000CF911F910F91FF90EF90DF90CF90089502
:1025B000DF92EF92FF920F931F93CF93DF93D82E6A
:1025C0008A017B01E40EF51EEB01CE15DF0571F0EB
:1025D000D7FE03C0FE01849101C088810E946D1264
:1025E00021968111F2CF8FEF9FEF01C0C801DF91DB
:1025F000CF911F910F91FF90EF90DF900895615060
:1026000030F02091F100FC0120830196F8CF28984A
:1026100084E68093890208950F931F93CF93DF93ED
:102620001F92CDB7DEB782E0898342E450E06DEAC5
:1026300078E080E80E94D8120E943F12DC011296D6
:102640000D911C9113970115110569F0D801ED91B9
:10265000FC910280F381E02DBE016F5F7F4FC801C6
:10266000099597FF07C089810F90DF91CF911F9146
:102670000F910895F80100851185E5CF1F920F9203
:102680000FB60F9211248F939F938091E100909148
:10269000E100937F9093E10083FF0FC01092E90067
:1026A00091E09093EB001092EC0092E39093ED0098
:1026B00010928A0298E09093F00082FF20C093E08D
:1026C0009093E9009091F200992319F09AE3909386
:1026D000E80090918702992339F0909187029150F8
:1026E00090938702992389F190918902992339F077
:1026F00090918902915090938902992341F184FF2E
:1027000010C08091E2008E7E81608093E200809113
:10271000E1008F7E8093E100809188028E7E80614F
:1027200011C080FF16C08091E2008E7E8061809390
:10273000E2008091E1008E7E8093E100809188022A
:102740008E7E81608093880204C05D9ACDCF289AE6
:10275000D6CF9F918F910F900FBE0F901F9018951D
:102760001F920F920FB60F921124CF92DF92EF9229
:10277000FF920F931F932F933F934F935F936F930A
:102780007F938F939F93AF93BF93EF93FF93CF93D9
:10279000DF93CDB7DEB76C97DEBFCDBF1092E900F7
:1027A0008091E80083FFEDC168E0CE0145960E946C
:1027B000FF1282EF8093E8008D8987FF05C090911A
:1027C000E80090FFFCCF03C09EEF9093E800982FA5
:1027D000907609F0C6C09E892F89188D91110CC082
:1027E000803829F4809163078093F10002C0109231
:1027F000F1001092F10048C1422F50E0512B91306E
:1028000051F4811141C14130510509F03DC1809120
:1028100063078D7F0BC0933061F4811135C1413066
:10282000510509F031C1809163078260809363078D
:102830002BC1953041F48091E80080FFFCCF2068E7
:102840002093E30021C1963009F05FC0EB8CFC8C33
:102850001092E9001092670710926607123091F506
:1028600010926507109264070E940C1399E0BE0154
:102870006F5F7F4FDB01E92F1D92EA95E9F799839E
:102880001A8391E09E8390EA98879AEF9987209126
:10289000660730916707275F3F4F3C832B838D830B
:1028A0001092E9001092670710926607F092650790
:1028B000E092640749E050E080E00E94D8120E9454
:1028C0000C13E2C0F0926507E09264070E943F1289
:1028D000DC011296ED90FC901397E114F10409F4D9
:1028E000C0C0D701ED91FC910480F581E02DBE01BF
:1028F0006B5E7F4FC7010995009719F00CF0C4C0BB
:10290000C7C0F701E084F184E8CF973009F4C0C074
:10291000983021F481E08093F100B6C0993009F03D
:10292000B3C0837009F0B4C0E7E3F2E081E021E0D6
:1029300036E39081992361F08093E9002093EB00C6
:1029400091919093EC003093ED008F5F873089F781
:102950008EE78093EA001092EA008F8980938A02C2
:1029600093C08B8D9C8D1092E90010926707109296
:1029700066079093650780936407898D811156C01F
:102980008E899D89913A59F4813209F081C047E0DE
:1029900050E063EE71E080E00E94D81275C0913281
:1029A00009F076C0833289F4888D90E0982F8827CB
:1029B0002F89822BA0E0B0E08093EB019093EC0193
:1029C000A093ED01B093EE015FC0803269F4809175
:1029D000E80082FFFCCF67E083EE91E00E94FF12E7
:1029E0008BEF8093E80006C0823209F04DC08F89DA
:1029F0008093EA0180916207882319F0EEEFFAE0F4
:102A000002C0E0E0F8E08091E3019091E401A09140
:102A1000E501B091E601803B9440A105B10509F0C4
:102A20007BC08091EA0180FF93C076C00E943F1274
:102A3000DC0112960D911C9113970115110541F1BE
:102A4000D801ED91FC910190F081E02DBE016B5E0B
:102A50007F4FC8010995811117C0F80100851185C4
:102A6000ECCF113009F44EC0133091F48F898823D4
:102A700009F445C0823081F440E867E081E199E0E3
:102A80000E949B12882321F08EEF8093E80079C08A
:102A900081E28093EB0075C0813029F440E86BE05F
:102AA00085E099E0EDCF833099F70E943F12DC0179
:102AB0001296ED90FC9013978E010F5F1F4F6801E7
:102AC000E114F10479F0D701ED91FC910680F781D2
:102AD000E02DB801C7010995080F111DF701E08429
:102AE000F184EECFD8011C92F60101900020E9F7A5
:102AF0003197BF016C197D0940E0C601C1CF6FEE6F
:102B000078E002C063EF78E06115710509F2FB011E
:102B1000449150E080E840CF0FB6F894A89580919A
:102B20006000886180936000109260000FBEA895DD
:102B3000EE3F2AE0F20739F08091FE0A9091FF0AF9
:102B400091838083A1CF1092FF0A1092FE0A9CCF3E
:102B5000EE3F8AE0F80731F0808191819093FF0A7F
:102B60008093FE0A87E797E7918380839BE088E163
:102B70000FB6F894A895809360000FBE9093600004
:102B800083CF6C960FB6F894DEBF0FBECDBFDF913A
:102B9000CF91FF91EF91BF91AF919F918F917F91D5
:102BA0006F915F914F913F912F911F910F91FF90E6
:102BB000EF90DF90CF900F900FBE0F901F90189561
:102BC000CF93DF93CDB7DEB761970FB6F894DEBF32
:102BD0000FBECDBF789484B5826084BD84B581601A
:102BE00084BD85B5826085BD85B5816085BD8091D8
:102BF0006E00816080936E00109281008091810050
:102C00008260809381008091810081608093810047
:102C1000809180008160809380008091910082602B
:102C200080939100809191008160809391008091C8
:102C300090008160809390008091C10084608093B7
:102C4000C1008091C10082608093C1008091C10069
:102C500081608093C1008091C30081608093C30034
:102C60008091C00082608093C0008091C20081602A
:102C70008093C20080917A00846080937A00809172
:102C80007A00826080937A0080917A0081608093DC
:102C90007A0080917A00806880937A0010928A028C
:102CA00010926307109288028091D7008160809310
:102CB000D70080EA8093D80089B5806189BD89B545
:102CC000826089BD09B400FEFDCF61E070E080E064
:102CD00090E00E9456068091D8008F7C806180939E
:102CE000D8008091E000807F8093E0008091E10037
:102CF0008E7E8093E1008DE08093E200559A209AC9
:102D0000EEEFFFE7859194918B3F9C4D19F481E0A4
:102D1000809362071FB7F89480916902811127C0E0
:102D2000EDE9F8E08491E0E7F8E09491E82FF0E035
:102D3000EE0FFF1FE658FE4FA591B491EC91E923E9
:102D400021F461E081E10E94B70561E081E10E9428
:102D50001A068CB580618CBD8CB580648CBD61E039
:102D60008FE00E941A0661E080E10E941A068091BD
:102D700069028F5F809369021FBF05E911E0F801C6
:102D800084910E5F1F4F31966491882319F00E9441
:102D90001A06F5CF61E086E10E94B70561E070E0B8
:102DA00080E090E00E94560660E086E10E94B70550
:102DB0006AE070E080E090E00E94560661E086E103
:102DC0000E94B705E3EAF8E0E491F0E0EE0FFF1FA0
:102DD000E258F74FA591B4919C9180916D02809536
:102DE00089238C93E6E7F8E0E491E0936D02E1EA51
:102DF000F8E0E491F0E0EE0FFF1FE258F74F859105
:102E0000949190936C0280936B02E4E7F8E0E49174
:102E1000E0936A028CB58C7F8CBD8DB581608DBDD1
:102E2000E0916B02F0916C02908180916A02809532
:102E300089238083E8E8F1E021E0E539F20749F0F1
:102E400084918EBD00000DB407FEFDCF8EB5319686
:102E5000F3CFE0916B02F0916C02908180916A0255
:102E6000892B8083809164008160809364008091CD
:102E70006400826080936400809164008068809325
:102E80006400809164008064809364008091650098
:102E90008160809365000E94DA0683FF0BC080E0AA
:102EA00094E01EBC00000DB407FEFDCF2EB50197C7
:102EB000C1F7FFCF7EEEC72EDD24DA940E94C21147
:102EC000EE24E39400E128E54AEC50E0B60184E109
:102ED00090E00E941D0F8EEF92E00E941D076BE1B3
:102EE00070E080E090E00E94560630EFC31206C00A
:102EF0006AEF70E080E090E00E9456065FEFC51A2E
:102F0000D50A89E1C816D104C9F66EEE72E080E0F8
:102F100090E00E9456060E94D1110E94D111109299
:102F20003E0282E090E00E94C81F81110E940809C1
:102F30000E94C2118CE38093F00280E18093F3023F
:102F400084E090E09093680280936702DE0111961E
:102F50004D0185EA92E032E3380F3F8787E092E047
:102F60003AE0380F388B60E2262E312C442443940B
:102F7000512C52E0C52ED12C2FB7F89480913F02EE
:102F800090914002A0914102B09142022FBF209146
:102F9000FC02222391F02091F402582F521B5093EF
:102FA000FD022091F1023091F2022F5F3F4F3093EA
:102FB000F2022093F1021092FC024091F80250912B
:102FC000F9026091FA027091FB0284179507A60737
:102FD000B7077CF4481B423008F4CAC683B7817F28
:102FE00083BF83B7816083BF889583B78E7F83BF9C
:102FF000BFC62091F302AC01BD01420F511D611DFE
:10300000711D4093F8025093F9026093FA02709395
:10301000FB028093F4029093F502A093F602B09322
:10302000F70221E02093FC028091670290916802F0
:103030008230910581F03CF4009709F46DC5019749
:1030400009F486C091C68330910509F4AAC5049796
:1030500009F4C6C589C620E448E560E070E083E174
:1030600090E00E9487103092930220929202109278
:103070009B028FEF80939A028EE0809399021092C8
:103080009C028091650299E0EFEEF1E0D40101909D
:103090000D929A95E1F769E00E942020F401E90F72
:1030A000F11D8081A3E08A02C00111240796E5EAA0
:1030B000F2E021E021933F853E13FCCFACE1B0E08C
:1030C000B093D902A093D8025092E1024092E0025C
:1030D000EDE1F0E0F093DD02E093DC029093DB029F
:1030E0008093DA029093DF028093DE021092E50271
:1030F0001092E4021092E2021092E3021092E602B1
:103100001092E7021092E8021092E90282E38093A3
:10311000D70210929E0210929D028FEF8093A3021D
:1031200030E2A32EB12CEE24E39406E028E04DE338
:1031300052E064E370E0C5010E941D0FF2E1AF0EA2
:10314000B11C28E6A216B10471F70E94830B10C5CA
:1031500080919C02882351F0813009F05EC060E0CC
:1031600085E992E00E94950C8FEF7BC080919B02D5
:10317000811103C020939B0276C010929B020E9493
:10318000B8110E94DA0686FF09C0809192029091E0
:103190009302019690939302809392020E94DA0622
:1031A00087FF09C0809192029091930201979093BA
:1031B00093028093920280919202909193028331C4
:1031C000910530F08736910528F086E690E002C040
:1031D00083E190E09093930280939202EE24E39433
:1031E00003E025E048EE51E06DE370E00E941D0F22
:1031F000009192021091930280919A028F3F99F56B
:103200008091E80281112FC00E94DA0684FDB8C5C2
:103210000E94DA0680FDB4C526C00E94B8118091D4
:103220009C02082E000C990B95958795959587958E
:10323000B6010E944E2025E0289FA001299F500D35
:10324000112443515E4FEE24E39403E06DE370E0FC
:1032500080919202909193020E941D0F80919C0296
:10326000815080939C0280919C0281113BC385E038
:10327000E8EFF1E0D40101900D928A95E1F785E045
:103280008A878AE08B878FE08C878EE18D8780919B
:103290009A028823C1F024F48F3F09F4DAC0B2C047
:1032A000813009F4A6C0883109F0ACC060E085E93E
:1032B00092E00E94950C61E085E992E00E94B10CD9
:1032C00080919A029FC060E085E992E00E94950C8F
:1032D00080919A0281110FC080919702909198027B
:1032E00002979093980280939702181619061CF083
:1032F00088E180939A020091970210919802E090E1
:103300009502F0909602B801C7010E94C31087FD94
:103310001BC0E82F082E000CFF0BEB55FD4F108251
:103320008093E90298E19093E8029091D70291503E
:103330009093D7026AE00E942C20F401E81BF10967
:1033400087FDF39514812FC08091A30281112FC0B6
:103350000330110560F580919F029091A002E8165C
:10336000F90628F10796E816F90608F588E780932C
:10337000A3020E948D11E0919902ED3028F4F0E053
:10338000EF5EFD4F108101C011E088E78093A3023A
:103390000E948D111093A402EAE0F0E0EC0FFD1FF3
:1033A000E10FF11D10818FEF80939A0218C0C801C0
:1033B000C597059708F007C58091E4029091E50252
:1033C000801791070CF0FFC4602F8E2D0E9497117B
:1033D000882309F4F1C488E180939A0210E0809177
:1033E0009A02811111C061E085E992E00E94950C7A
:1033F0000BC060E085E992E00E94B10C8FEF8093F2
:103400009A0227C08150FBCF112319F1E09061028D
:10341000F0906202012F10E056E9E516F1048CF4F9
:10342000C701800F911F873991055CF0809166027A
:103430008F5F809366020E948E0C8AED91E00E945D
:10344000A60D0E0D1F1D10936202009361020E94D3
:10345000EE0D88E4E82E82E0F82E03E412E097E413
:10346000A92E92E0B92ED7018C91882331F11CF45A
:103470008F3F61F091C0813009F484C0843109F03C
:103480008BC061E0C8010E94C30C86C0F501808139
:103490008F5F80838D3344F080916E028F5F8093C5
:1034A0006E02853108F0B1C4D7018C91811178C0CA
:1034B00061E0C8010E94F70C73C0F501808184307F
:1034C0001CF48F5F808345C0108260E0C8010E94B9
:1034D000F70CF801828193813C01F2E06F0E711CC0
:1034E000D80113967C926E921297B1E46B16710418
:1034F00024F023E1F70120832CC0C397059728F51A
:10350000D8019C91662D892F998B0E9497119989DA
:10351000811117C021E0290F2E87662D822F0E946E
:103520009711998981110DC06A94662D892F0E9487
:103530009711811106C0662D8E850E9497118823F0
:1035400021F0E4E1D701EC9304C061E0C8010E94DE
:10355000F70CD8012D913C91119712968D919C9169
:103560001397CE970297E0F42F5F3F4F809192021E
:10357000909193022817390798F0059682179307C0
:1035800078F04DC460E0C8010E94C30C2FEFF70132
:103590002083D5011C9204C0F70180818150808373
:1035A000FAE0EF0EF11C065F1F4F2AE0A20EB11CDD
:1035B00032E00136130709F056CF8091A302882329
:1035C00001F124F48F3F09F451C068C0813009F43F
:1035D00061C0883709F062C04091A40287E0489F2B
:1035E000A00111244F5D5D4FEE24E39403E027E03A
:1035F00060E070E080919F029091A0020E941D0FF8
:103600004DC080919D0290919E028330910530F4CF
:10361000019690939E0280939D0245C010929E0257
:1036200010929D020E948D112091A10280919F0213
:103630009091A002820F911D27FD9A959093A00270
:1036400080939F029C01245131092035310518F0E7
:1036500021E02093A302EE24E39403E027E04AE173
:1036600052E060E070E00E941D0F1DC09091D702F3
:103670009830C8F020919D0230919E02A9014F5FC1
:103680005F4F50939E0240939D022D3D354008F0C0
:10369000DFC309C00E948D118FEF03C08091A30288
:1036A00081508093A3028091E802813009F4F6C032
:1036B000883109F4A2C0811112C18091E2020AE0AE
:1036C000602F0E942020392F14E0912F981B6091C9
:1036D000DA027091DB02A6E09A9F600D711D112441
:1036E0008091D8029091D90223E045E0B7E03B9F5A
:1036F000800D911D11240E9487108091E202E82F15
:10370000F0E0EB55FD4F9081992309F466C0602FDE
:103710000E942020181B6090DC027090DD02E7E020
:103720009E9F600C711C1124A090DE02B090DF02FD
:10373000F6E01F9FA00CB11C1124133058F44091E7
:10374000E302113090F425E0429FA0011124405F74
:103750005D4F14C0153080F44091E30285E0489F2E
:10376000A001112444505E4F09C035E0439FA001E1
:1037700011244A5F5D4F02C040E050E0EE24E39424
:1037800003E025E0B501C3010E941D0F94E1691615
:1037900071043CF48091E0029091E10297FF0FC028
:1037A0000BC0A6E66A16710454F08091E002909175
:1037B000E102181619061CF481E08093E6022091BC
:1037C000E4023091E502C5010396821793070CF4D9
:1037D000C9019093E5028093E4028091E2028F5F39
:1037E000823308F04EC3E82FF0E0EB55FD4F908197
:1037F0009923A9F38093E20275C03091E902832FE7
:103800006AE00E942020592F24E0281B8091E202C8
:10381000381748F08091D8029091D9026091DA026D
:103820007091DB0208C08091DC029091DD02609112
:10383000DE027091DF02B6E02B9F600D711D112436
:1038400023E045E0E7E05E9F800D911D11240E947A
:1038500087108091E9026AE00E942020392F94E0CD
:10386000981B6091DE027091DF02F6E09F9F600D71
:10387000711D11248091DC029091DD02EE24E3940D
:1038800003E025E047EF51E0A7E03A9F800D911D4E
:1038900011240E941D0F8091E80221C08091E9024D
:1038A0006AE00E942020392F24E0281B6091DE026C
:1038B0007091DF02B6E02B9F600D711D1124809185
:1038C000DC029091DD0223E045E0E7E03E9F800DC1
:1038D000911D11240E9487101092E80203C08150AC
:1038E0008093E80280919C028F3F21F4109268023D
:1038F000109267028091D70281110DC08091E80279
:10390000811109C0809165028F5F80936502D0921A
:103910006802C09267028091E702882341F00E940A
:10392000570B83E090E090936802809367022091A8
:10393000E802222339F08091BD019091BE01273128
:10394000B1F01CC09091D7028091A701ADEFB1E01A
:10395000E7E0F2E02191921301C08C911196388931
:103960003E13F8CF8093A70184EA91E004C0892B2D
:1039700059F486EB91E00E94A60D06C0029721F44F
:103980001092BE011092BD018091A3028130B1F06E
:10399000873729F081113AC08FEB91E00CC08091FC
:1039A000C6019091C701019721F4D092C701C0923E
:1039B000C60188EC91E00E94A60D28C08091C60146
:1039C0009091C701019721F4D092C701C092C6011E
:1039D0008091C6019091C701029721F41092C7010E
:1039E0001092C6018091CF019091D001019721F4EE
:1039F000D092D001C092CF018091CF019091D0019F
:103A0000029721F41092D0011092CF0180919C0274
:103A1000813039F08E37C9F481ED91E00E94A60D16
:103A200014C08091D8019091D901019721F4D092CE
:103A3000D901C092D8018091D8019091D901029703
:103A400021F41092D9011092D80180919A02882312
:103A500029F0813071F08F3F09F516C08091B401D3
:103A60009091B501892BD1F48DEA91E00E94A60DC9
:103A700015C08091B4019091B501019779F4D0926D
:103A8000B501C092B4010AC08091B4019091B50112
:103A9000029721F41092B5011092B401809167024F
:103AA00090916802019781F484EA91E00E94FD0CF4
:103AB0000DEA11E0C8010E94FD0C075F1F4F51E0A5
:103AC000033E1507B9F750C18091AB019091AC014D
:103AD000019721F4D092AC01C092AB018091AB016F
:103AE0009091AC01029721F41092AC011092AB01BD
:103AF000EDEAF1E087819085019711F4D086C782C5
:103B000087819085029711F410861782399681E09B
:103B1000E33EF80779F728C18091660281508093CF
:103B200066020E948E0C0E94B8113092930220927D
:103B3000920210929B028FEF80939A028EE0809304
:103B4000990210929C0260E083E492E00E94F70CDC
:103B500060E08DE492E00E94F70C60E087E592E07F
:103B60000E94F70C0E94830B80916602882329F043
:103B70005092680240926702F7C00E94570B8091F2
:103B800061029091620220916302309164022817D1
:103B9000390724F4909364028093630283E090E0F9
:103BA00014C080916F02909170029C012F5F3F4F73
:103BB0003093700220936F02893C91055CF0109263
:103BC000700210926F0284E090E0909368028093FC
:103BD0006702CAC00E94AD0B882309F4C5C0ABC000
:103BE00080916F02909170028E319105F1F054F442
:103BF0008A309105D1F08431910571F081309105C1
:103C000031F50AC08233910581F08835A2E09A0728
:103C1000C9F088329105D9F420E440E860E070E012
:103C200080E090E00E94871026C0EE24E39408E034
:103C300020E448EA51E06CE170E08FE190E00E94FE
:103C40001D0F19C01092700210926F0214C08D33B4
:103C500091058CF063E070E00E944E208B01892B6F
:103C600051F460E0C80145970E94D50B61E0C8019E
:103C700044970E94D50B80916F029091700201963B
:103C80009093700280936F020E94AD0B882309F419
:103C90006BC020E440E860E070E080E090E00E94CB
:103CA000871000E010E021E0A80162E170E08AEEF8
:103CB00092E00E9416090F5F1F4F0034110599F71B
:103CC00000E010E021E0A8016BE670E08AEE92E0EF
:103CD0000E9416090F5F1F4F0034110599F721E06C
:103CE00040E050E064E170E08DE790E00E94B20DAA
:103CF00021E040E050E06EE170E08DE790E00E944E
:103D0000B20D409163025091640224E06EE170E0D4
:103D10008DE690E00E94B20DEE24E39403E025E0EE
:103D200048EE51E066E170E084E090E00E941D0FF3
:103D300080E00E948E0C109262021092610210923A
:103D40006402109263021092650283E0809366021F
:103D50000E948E0C0E94EE0DD0926802C092670203
:103D60001092700210926F028EEF92E00E941D0777
:103D700080E090E0892B09F4FFC80E940000F6C89B
:103D800010929A020E5F1F4F1093960200939502B5
:103D90008CE390E09093980280939702809199022F
:103DA00090E001966FE070E00E944E2080939902AF
:103DB00081708093A20257CA61E0600F8E2D0E942D
:103DC0009711811108CB20919A02E3E4F2E08581FA
:103DD000811113C080819181E816F90621F00196C6
:103DE000E816F90651F4828193810817190721F02A
:103DF00001960817190709F428E13A9632E0E136EE
:103E0000F30729F720939A02E9CAD8011896ED9191
:103E1000FC911997C801099510926E0245CBBFE736
:103E2000B0939C0280919A028F3F21F4B1E0B0934D
:103E30009A02B6CB811106C060E085E992E00E944B
:103E4000950CF4CF60E085E992E00E94B10CEECFD2
:103E50001092A30210929E0210929D029091A202D3
:103E6000911106C081E08093A10283E190E004C03B
:103E70008093A10284E690E09093A00280939F0239
:103E800012CC8091E4029091E502803491051CF0FF
:103E900081E08093E702E5EAF2E080E09191911100
:103EA00003C08F5F8233D1F78093E2028091E302F7
:103EB00090E00196817099278093E3028091DC0263
:103EC0009091DD029093D9028093D8024091E00254
:103ED0005091E1029C01240F351F3093DD022093A5
:103EE000DC022091DE023091DF023093DB0220936E
:103EF000DA026091E602662309F4F4CC1092E6023D
:103F000066277727641B750B7093E1026093E002CC
:103F10002D5F3F4F3093DF022093DE02841B950B11
:103F20009093DD028093DC02DDCCE2E1F7E01382C6
:103F3000128288EE93E0A0E0B0E084839583A683AC
:103F4000B78382E292E0918380838FEF9FEF958722
:103F50008487EAEEF2E01382128282E392E0918398
:103F600080838CE3868380E18187108617821686A2
:103F70001786108A118A128A1092FF061092FE0686
:103F8000109201071092000781E0809302070895C4
:103F9000F999FECF92BD81BDF89A992780B5089511
:103FA000052E97FB1EF400940E94E71F57FD07D0D3
:103FB0000E94EF1F07FC03D04EF40C94E71F5095AE
:103FC0004095309521953F4F4F4F5F4F0895909505
:103FD0008095709561957F4F8F4F9F4F0895A1E217
:103FE0001A2EAA1BBB1BFD010DC0AA1FBB1FEE1F73
:103FF000FF1FA217B307E407F50720F0A21BB30BBE
:10400000E40BF50B661F771F881F991F1A9469F739
:1040100060957095809590959B01AC01BD01CF0195
:104020000895A29FB001B39FC001A39F700D811D91
:104030001124911DB29F700D811D1124911D0895B1
:10404000991B79E004C0991F961708F0961B881FEA
:104050007A95C9F78095089587FB082E062687FD77
:10406000819567FD61950E9420200EF4919507FCD3
:1040700081950895AA1BBB1B51E107C0AA1FBB1F56
:10408000A617B70710F0A61BB70B881F991F5A95E4
:10409000A9F780959095BC01CD01089597FB072E57
:1040A00016F4009407D077FD09D00E943A2007FC4F
:1040B00005D03EF4909581959F4F08957095619538
:1040C0007F4F0895EE0FFF1F0590F491E02D0994A6
:1040D0000E941120B7FF0895821B930B089581E081
:0C40E00090E0F8940C947420F894FFCF4A
:1040EC00A500930083007B00FFFFE8030000E803BA
:1040FC000000E8030000E8030000E8030000E80308
:10410C000000E8030000E8030000E803FFFF7B0069
:10411C000000FFFF7800B40059013A021B03C003F2
:10412C00FC03C0031B033A025901B400FFFF7800E3
:10413C00F1003A02FC03BE05080780070807BE051C
:10414C00FC033A02F100FFFF1003E402BA029302EF
:10415C000000E0067D062006C80575052705DD0470
:10416C00970455041704DC03A4032705DD04970406
:10417C005504FFFF000000000000B8072D080000E8
:10418C00B807FFFF0001463401000000009A01143B
:10419C000000000000006801140000000000004E48
:1041AC0001140001000000003401140001000000A3
:1041BC00002E01140001000000000A01640600003A
:1041CC0000000000E1000000000000FFFFFFFF0006
:1041DC0002040505050606060302020101342C241F
:1041EC001C17120D0A070532281E16100C080402A3
:1041FC0001000001020101000301010100020000A5
:10420C000000230E860E5312440E620E390E00006F
:0E421C0000003D09B80400C1808100000000D0
:00000001FF
