:100000000C9452070C947A070C947A070C947A0794
:100010000C947A070C947A070C947A070C947A075C
:100020000C947A070C947A070C94F01F0C946220BD
:100030000C947A070C947A070C947A070C947A073C
:100040000C947A070C94520A0C947A070C947A0751
:100050000C947A070C947A070C947A070C94640930
:100060000C947A070C947A070C947A070C947A070C
:100070000C947A070C947A070C947A070C947A07FC
:100080000C94630B0C947A070C947A070C947A07FF
:100090000C947A070C947A070C947A070C947A07DC
:1000A0000C947A070C947A070C947A07B608B9086E
:1000B000A808AC08B008DA08DA08DA08BD08C108F0
:1000C000C508CB08CF08DA08D508F0F89C8E8783DE
:1000D000878E9CF8F00000FEFF0303030303070E66
:1000E000FCF80000FEFF0303030303070EFCF80007
:1000F00000FFFF00000000000000FFFF0000FEFF07
:100100008383838383C7EE7C380000F8FC0E0703EB
:100110000303070EFCF800003F7FE0C08080C0E0D2
:100120007F3FFFFF01010101010101FFFF0000FF0F
:10013000FF0C0C0C0C1C3E77E3C100007FFFC0C01D
:10014000C0C0C0E0703F1F00001F3F70E0C0C0C0D3
:10015000E0703F1F00007FFFC1C1C1C1C1E3773E16
:100160001C00001F3F70E0C0C0C0E0703F1F0000D7
:1001700000000001FFFF010000000000000024005B
:1001800027002A002D003000D5F08D14A1C881CFA2
:10019000D9F1AF20000B020A021202040208020188
:1001A00002150117011601004F6666004F6E0053DD
:1001B0006F756E643A2000536565643A2020000034
:1001C000808040404080802040F8402000000000B7
:1001D00000000000000000C080F080C00000C23EAF
:1001E00002020282020202030181010101FF0000FA
:1001F000000000C00E312045444524310E030000AC
:10020000008000C000800000000000000000030625
:100210000818107FC000000000404040404000002F
:100220000000877810101C070000000000F88C8682
:100230008B838B868CF809090F01010000000000F8
:100240000000000000000000000FF080808080802F
:1002500080000000000000FF00000000000000001F
:100260000000000003000000030000000000000088
:10027000000000000000000000000000000000007E
:10028000001E0100000001011F010101010000002A
:10029000000000806010080C06020381416121E12A
:1002A0000101010F060E0830C06020202020202010
:1002B00020206040C08080C0202020C000000000BE
:1002C00000C06020C0800080C04040404040C080EE
:1002D000C04040C00000000080808080800E1A3244
:1002E000E2C65C700000000000000000000000009A
:1002F000000000030C102060C0800F1D38207867BC
:10030000C0C08080808080C0611F0000806020208D
:1003100020E00000000107FC00000007FC800080D6
:10032000C07F000000FF0F1910180C040CF800012A
:1003300003FF60010306F213111010302123FEA306
:100340000101071CFC860283C1414141C3060C1810
:1003500030C0000000F01808040F0A1E346C683822
:1003600000000000000103060C18E000030604046E
:10037000060300008080E03F6040408080818181F2
:100380008000000000FF0301794949494939000014
:1003900000FF70C000040FF800000000000000071C
:1003A000F8800080F8CF8083060C08080D07000055
:1003B0000001FF0000010306040C081810101010C3
:1003C00010101010101010180C0307040C08080867
:1003D000080C0C181010111E000000000000000096
:1003E0000102040C0C070102020202020101030EC9
:1003F00008090F07070407010000000000000000C3
:1004000000030203000000010101010302020203D4
:100410000101017B009300AF00DC002601B8014B15
:1004200002170455049704DD0427052E084E0AB769
:1004300007904000E38000E3904000E38000E390F9
:100440003E038D80903E00E38000E3903E00E38019
:1004500000E3903D038D80903E00E38000E3903EFA
:1004600000E38000E3903D038D80903D00E3800039
:10047000E3903D00E38000E3903B038D80F0902FFC
:100480000055800055902D00AA8000AA902F00AA48
:10049000800154903D00AA8000AA903D00AA80905F
:1004A0003D00AA80903D00AA80903D00AA80903E29
:1004B00000AA80903B015480F0902F00AA8000AAEF
:1004C000902F00AA80903600AA8000AA903600AA39
:1004D00080903200AA8000AA903200AA8090340056
:1004E000AA8000AA903400AA80903400AA8000AAB2
:1004F000903400AA8000AAF0546F74616C002B4401
:100500006973742E0053636F726500FF80003FC3F0
:10051000FC07F80080FFFFE04207FC0FF08083003B
:100520002042044C08108083002442044C88108F21
:10053000F3002442644C88108903232042644C0950
:10054000908903232042644C09908903232042644C
:100550004C09F089132321C2644C390089132327E5
:10056000C2040CF9008103232042040C090081031A
:10057000232042060C0900FFFFFFFFC3FDF7FF0029
:100580000000000000000000000020D1C1B1A3D194
:10059000C1B1A1FF001021113121FF0010C1B1A193
:1005A00091FF0810010100000001FE020202020298
:1005B00002FE1F10F010F010101FFEFEFEFEFEFEE9
:1005C000FEFE9F1FFF1FFF1F1F9F08080101000065
:1005D0000001003EE222E2223E0000BEFE3EFE3E60
:1005E000BE0000404141515161617171FF08080135
:1005F00001020101011824EAA1A9F22418183CFE05
:10060000FFFFFE3C18484947482053434F524500DE
:10061000484947482053434F524553000010F1E4E6
:10062000FF0020E3D3E3D3C585FF00000000003EB8
:100630005B4F5B3E3E6B4F6B3E1C3E7C3E1C183C52
:100640007E3C181C577D571C1C5E7F5E1C00183CAE
:100650001800FFE7C3E7FF0018241800FFE7DBE7F7
:10066000FF30483A060E2629792926407F050507DE
:10067000407F05253F5A3CE73C5A7F3E1C1C08083A
:100680001C1C3E7F14227F22145F5F005F5F0609FF
:100690007F017F006689956A606060606094A2FF58
:1006A000A29408047E040810207E201008082A1C4A
:1006B00008081C2A08081E101010100C1E0C1E0C16
:1006C00030383E3830060E3E0E06000000000000B6
:1006D000005F00000007000700147F147F14242A25
:1006E0007F2A1223130864623649562050000807F7
:1006F0000300001C2241000041221C002A1C7F1C18
:100700002A08083E08080080703000080808080819
:10071000000060600020100804023E5149453E0080
:10072000427F400072494949462141494D331814DE
:10073000127F1027454545393C4A4949314121112D
:1007400009073649494936464949291E000014001F
:100750000000403400000008142241141414141442
:10076000004122140802015909063E415D594E7CA0
:100770001211127C7F494949363E414141227F4155
:1007800041413E7F494949417F090909013E4141B3
:1007900051737F0808087F00417F41002040413F9E
:1007A000017F081422417F404040407F021C027FAD
:1007B0007F0408107F3E4141413E7F090909063E02
:1007C0004151215E7F0919294626494949320301D1
:1007D0007F01033F4040403F1F2040201F3F4038E3
:1007E000403F631408146303047804036159494DBE
:1007F00043007F4141410204081020004141417FF4
:100800000402010204404040404000030708002069
:10081000545478407F284444383844444428384469
:1008200044287F385454541800087E090218A4A4A0
:100830009C787F0804047800447D40002040403DBF
:10084000007F1028440000417F40007C0478047839
:100850007C080404783844444438FC1824241818CC
:10086000242418FC7C080404084854545424040428
:100870003F44243C4040207C1C2040201C3C403015
:10088000403C44281028444C9090907C4464544C44
:10089000440008364100000077000000413608009F
:1008A00002010204023C2623263C1EA1A161123A49
:1008B0004040207A38545455592155557941215496
:1008C000547841215554784020545579400C1E529B
:1008D000721239555555593954545459395554543F
:1008E000580000457C410002457D420001457C40A6
:1008F000F0292429F0F0282528F07C5455450020C3
:1009000054547C547C0A097F49324949493232485F
:10091000484832324A4848303A4141217A3A4240C6
:100920002078009DA0A07D39444444393D4040409A
:100930003D3C24FF2424487E4943662B2FFC2F2B6B
:10094000FF0929F620C0887E09032054547941000C
:1009500000447D413048484A32384040227A007A8B
:100960000A0A727D0D19317D2629292F2826292969
:10097000292630484D40203808080808080808088B
:10098000382F10C8ACBA2F102834FA00007B0000B2
:1009900008142A142222142A14089500220095AA69
:1009A000005500AAAA55AA55AA000000FF00101081
:1009B00010FF00141414FF001010FF00FF1010F0BF
:1009C00010F0141414FC001414F700FF0000FF00D2
:1009D000FF1414F404FC141417101F10101F101F20
:1009E0001414141F00101010F0000000001F10104D
:1009F00010101F10101010F010000000FF10101049
:100A0000101010101010FF10000000FF140000FF65
:100A100000FF00001F10170000FC04F4141417104E
:100A2000171414F404F40000FF00F7141414141441
:100A30001414F700F7141414171410101F101F14B7
:100A40001414F4141010F010F000001F101F000018
:100A5000001F14000000FC140000F010F01010FF44
:100A600010FF141414FF141010101F00000000F0E9
:100A700010FFFFFFFFFFF0F0F0F0F0FFFFFF0000BE
:100A8000000000FFFF0F0F0F0F0F38444438447C65
:100A90002A2A3E147E02020606027E027E02635568
:100AA0004941633844443C04407E201E2006027EB7
:100AB000020299A5E7A5991C2A492A1C4C720172C9
:100AC0004C304A4D4D303048784830BC625A463D33
:100AD0003E494949007E0101017E2A2A2A2A2A44E8
:100AE000445F444440514A444040444A514000001D
:100AF000FF0103E080FF000008086B6B0836123628
:100B00002436060F090F0600001818000000101008
:100B1000003040FF0101001F01011E00191D1712C6
:100B2000003C3C3C3C000000000006011501260191
:100B300037014A015D01720188019F01B801D201AC
:100B4000EE010B022A024B026E029302BA02E40289
:100B500010033F037003A403DC0317045504970438
:100B6000DD0427057505C80520067D06E006490752
:100B7000B8072D08A9082D09B9094D0AEA0A900BF2
:100B8000400CFA0CC00D910E6F0F5A1053115B12EE
:100B900072139A14D41520178018F519801B231D81
:100BA000DE1EB420A622B524E4263429A72B402E2D
:100BB0000031EA330037453ABC3D68414C456B494A
:100BC000C84D68524F57805C006210111213151601
:100BD00017181A1C1D1F21232527292C2E313437C5
:100BE0003A3E4145494E52575C62686E757B838B35
:100BF000939CA5AFB9C4D0DCE9F70000000200095E
:100C00000F0000030401000C0000000000000000C1
:100C10000000000000000000000000000000FF00D5
:100C2000000000FF00FF000000818181818181813F
:100C3000FFFF8181BF81818181818181818181816A
:100C4000FFFF8181FD81818181FF81A58181A58156
:100C5000FFFF8185B5959D81FF1010010103020002
:100C6000010000000000805028060141E222140C1F
:100C700008804070282512080E06010100000000BF
:100C800000000000000080D0E8FEFF7FFE3E1C0C4C
:100C900008804070383D1F0F0F0701010000000061
:100CA000000808010102020F0184EC7C3F3F7CEC4C
:100CB0008484EC7C3F3F7CEC840808010102020143
:100CC000013C4281A9A1A9423C3C7EFFFFFFFF7E7F
:100CD0003C08080101020103014070CC43C24C7082
:100CE000400038FE3FFF3E3800FFA9A9B9A9EFA98F
:100CF000FFFFFFFFFFFFFFFFFF00140014001400C1
:100D000014400040004000548044804480448044AB
:100D1000004400440054004000400040004050A007
:100D200050A055A051A0552000200020550241029E
:100D300041024102550210021002950090009000FD
:100D40001000151500100010001000150010001004
:100D5000001500100010001000150000000000AA8F
:100D6000008000AA0000000004040404040404FC41
:100D700020202020F80808080808E8283820203E0D
:100D80002222E20202FE2020202020E0000000C0FB
:100D9000404040784FC90909090F08080808F820A1
:100DA000202020F808080CFC000000000000001FB4
:100DB000000000001F00000000000F000000000005
:100DC00000000F0000000000000000FF0101010111
:100DD000FF000000003F00000000000000000700CE
:100DE0000000003F0000001F040802011040804086
:100DF0001020408040800802040180402010020141
:100E00001080102040402000000000250028002B0A
:100E1000002E00310004040404040304050202024D
:100E20000204030202020206060606060604040283
:100E3000020204040301080B00020202010009047B
:100E40000000010202000005240010010524010138
:100E50000104240206052406000107058103100091
:100E60004009040100020A000000070502024000D8
:100E70000007058302400000040309041201000278
:100E8000EF0201404123368000010102030141725B
:100E90006475696E6F204C4C430041424C313330D5
:100EA00036002F2E11241FBECFEFDAE0DEBFCDBFFC
:100EB00011E0A0E0B1E0E4E0F5E602C005900D929B
:100EC000A236B107D9F728E0A2E6B1E001C01D9231
:100ED000AB32B207E1F717E0C2E5D7E004C02197D3
:100EE000FE010E94892FC135D107C9F70E94CD228A
:100EF0000C9480320C940000CF92DF92EF92FF921C
:100F00000F931F93CF93DF936C017A018B01C0E0A5
:100F1000D0E0CE15DF0589F0D8016D918D01D601A5
:100F2000ED91FC910190F081E02DC6010995892B8E
:100F300011F47E0102C02196ECCFC701DF91CF9161
:100F40001F910F91FF90EF90DF90CF9008953FB7E2
:100F5000F89480918A0190918B01A0918C01B091BD
:100F60008D0126B5A89B05C02F3F19F00196A11D44
:100F7000B11D3FBFBA2FA92F982F8827820F911D2F
:100F8000A11DB11DBC01CD0142E0660F771F881F76
:100F9000991F4A95D1F708950E94A32FCF92DF920F
:100FA000EF92FF920F931F93CF93DF9300D000D067
:100FB000CDB7DEB76217730784079507FCF4890184
:100FC0009A016B017C01A9019801261B370B480B84
:100FD000590B69F029833A834B835C830E94EE2E80
:100FE00029813A814B815C810E94122F03C060E00D
:100FF00070E0CB016C0D7D1D8E1D9F1D0F900F901D
:101000000F900F90DF91CF911F910F91FF90EF9074
:10101000DF90CF9008954F925F926F927F92EF9200
:10102000FF920F931F93CF93DF93CDB7DEB7A197B6
:101030000FB6F894DEBF0FBECDBF7C01FA01CB0125
:1010400019A2223008F42AE08E010F5D1F4F422EB4
:10105000512C612C712CBF01A30192010E94442FDD
:10106000F901CA01015011096A3014F4605D01C030
:10107000695CD8016C93232B242B252B61F7011578
:10108000110591F0F80101900020E9F73197AF01C7
:10109000401B510BD701ED91FC910280F381E02DB3
:1010A000B801C701099502C080E090E0A1960FB693
:1010B000F894DEBF0FBECDBFDF91CF911F910F918E
:1010C000FF90EF907F906F905F904F900895EF9218
:1010D000FF920F931F93CF93DF938C017B01C0E0AE
:1010E000D0E0F701EC0FFD1F6491662361F0D80199
:1010F000ED91FC910190F081E02DC8010995892BBB
:1011000011F02196EECFCE01DF91CF911F910F917B
:10111000FF90EF900895362F90E0FC01E650F44FD9
:101120004491FC01E851F24F2491FC01EB5EF14F38
:101130008491882309F451C04423E1F150E0FA017D
:101140003197EF30F105B0F5EA5AFF4F0C94892F33
:10115000909180009F7707C0909180009F7D03C091
:1011600090918000977F9093800024C094B59F77E2
:1011700002C094B59F7D94BD1DC0909190009F7753
:1011800007C0909190009F7D03C090919000977F41
:10119000909390000FC09091C0009F7703C09091F2
:1011A000C0009F7D9093C00005C09091C200977FC2
:1011B0009093C200E82FF0E0EE0FFF1FE95FF14FC0
:1011C000A591B4918FB7F894EC91311103C020959B
:1011D0002E2301C02E2B2C938FBF0895CF93DF9326
:1011E00090E0FC01E851F24F2491FC01EB5EF14FDD
:1011F0008491882361F190E0880F991FFC01E658E3
:10120000FE4FC591D491FC01E95FF14FA591B491D6
:10121000611109C09FB7F894888120958223888343
:10122000EC912E230BC0623061F49FB7F8943881A3
:10123000822F809583238883EC912E2B2C939FBF44
:1012400006C08FB7F894E8812E2B28838FBFDF91DB
:10125000CF9108958F929F92AF92BF92CF92DF92DB
:10126000EF92FF926B017C010E94A7074B015C018A
:10127000C114D104E104F104F1F00E94A707DC01DC
:10128000CB0188199909AA09BB09883E9340A10599
:10129000B10570F321E0C21AD108E108F10888EE27
:1012A000880E83E0981EA11CB11CC114D104E10476
:1012B000F10419F7DDCFFF90EF90DF90CF90BF9052
:1012C000AF909F908F9008951F920F920FB60F923C
:1012D00011242F933F938F939F93AF93BF9380914C
:1012E0009E0190919F01A091A001B091A101309128
:1012F000890123E0230F2D3720F40196A11DB11D94
:1013000005C026E8230F0296A11DB11D2093890177
:1013100080939E0190939F01A093A001B093A1019F
:1013200080918A0190918B01A0918C01B0918D01E7
:101330000196A11DB11D80938A0190938B01A0930A
:101340008C01B0938D01BF91AF919F918F913F918F
:101350002F910F900FBE0F901F90189583B12FB152
:1013600099B130E02095309520783327A90124E009
:10137000559547952A95E1F7292F30E0209530952E
:101380002871332753E0359527955A95E1F7242B9B
:101390008095807D822B0895FC0121912EBD9C5F5C
:1013A00021910DB407FEFDCF2EBDE817F907C1F757
:1013B0000DB407FEFDCF0895CF92DF92EF92FF921A
:1013C0000F931F93CF93E82FF0E0EC5CF14FC491A3
:1013D000E62FF0E0603330F4E653F44FE4910E2F43
:1013E00010E006C0EE0FFF1FE653F54F0591149174
:1013F0006801E12CF12C60E074E284EF90E0A70139
:1014000096010E94122FBA01A901415051096109A8
:1014100071094115510581E06807710580F060E9A7
:1014200070ED83E090E0A70196010E94122FBA01AF
:10143000A901415051096109710983E001C081E0AE
:10144000C130C9F0C33031F590919100987F892B5C
:1014500080939100509399004093980010938801D5
:101460000093870181E08093860180917100826002
:10147000809371000FC090918100987F892B809399
:101480008100509389004093880080916F008260B2
:1014900080936F00CF911F910F91FF90EF90DF909D
:1014A000CF9008951F920F920FB60F9211242F9391
:1014B0003F938F939F93AF93BF93EF93FF9380914D
:1014C000AD01882309F44DC08091A9019091AA0132
:1014D000A091AB01B091AC01892B8A2B8B2B51F1E0
:1014E0008091A501E091A601F091A7019081892743
:1014F00080838091A9019091AA01A091AB01B09144
:10150000AC01181619061A061B06A4F58091A9014C
:101510009091AA01A091AB01B091AC010197A109F2
:10152000B1098093A9019093AA01A093AB01B09354
:10153000AC0120C01092AD0180916F008D7F80932F
:101540006F009091A501E091A601F091A701808123
:10155000282F30E0892F90E0809590958223932367
:1015600008C08091A501E091A601F091A7019081AA
:1015700089278083FF91EF91BF91AF919F918F91C8
:101580003F912F910F900FBE0F901F901895E82F4D
:10159000F0E0EC5CF14FE491E13019F0E33069F0F8
:1015A000089580916F008D7F80936F009091A501C9
:1015B000E091A601F091A70108C0109286019091D8
:1015C000A201E091A301F091A4018081282F30E0D5
:1015D000892F90E0809590958223932380830895AE
:1015E000E0916201F0916301BF016F5F7F4F7093E3
:1015F0006301609362014491942F907F842F8F70D8
:10160000903819F40E94C70AEBCF903981F43296D2
:10161000F0936301E0936201FB0164919091A80152
:101620008917F0F667FDDCCF0E94DC09D9CF903E28
:1016300049F48091640190916501909363018093D6
:101640006201CECF903F19F410926601089597FD84
:10165000C7CF3296F0936301E0936201FB012491BE
:1016600030E0342BA0918701B09188010E94662F51
:101670006C507E4F8F4F9F4F28EE33E040E050E09C
:101680000E94442F20938201309383014093840170
:10169000509385018091820190918301A0918401F2
:1016A000B0918501892B8A2B8B2B61F481E090E02E
:1016B000A0E0B0E08093820190938301A093840125
:1016C000B093850108951F920F920FB60F921124C7
:1016D0002F933F934F935F936F937F938F939F933A
:1016E000AF93BF93EF93FF9380918601882349F0D6
:1016F0008091A201E091A301F091A401908189273A
:10170000808380916601882329F1809182019091E4
:101710008301A0918401B0918501892B8A2B8B2BA9
:10172000C9F08091820190918301A0918401B091D0
:1017300085010197A109B1098093820190938301EA
:10174000A0938401B0938501892B8A2B8B2B11F4F4
:101750000E94F00AFF91EF91BF91AF919F918F91FD
:101760007F916F915F914F913F912F910F900FBE9D
:101770000F901F9018952F923F924F925F926F9209
:101780007F928F929F92AF92BF92CF92DF92EF9211
:10179000FF920F931F93CF93DF93CDB7DEB72A97B6
:1017A0000FB6F894DEBF0FBECDBF9E838D83202E73
:1017B000312CCB01820D931D97FD31C1603871052D
:1017C0000CF02DC1CA018E0D911D97FD28C140342A
:1017D00051050CF024C1DA0157FF04C0AA27BB272A
:1017E000A41BB50BA770BB27CA0157FD079613E0D2
:1017F000959587951A95E1F757FF07C0019748E03F
:1018000050E05A01AA1ABB0AD501EE2DE695E695DD
:10181000E695AE2EB12C4E2D477019F00FEFA01AA1
:10182000B00AAC015695542F442757954795460F5B
:10183000571F8501080F191F1C830B83412C512C46
:10184000F8E0EF2EF12C5701AA1ABB0ABA82A9823E
:10185000AB80BC808A159B0509F4E1C088309105F6
:1018600009F4DDC08F3F0FEF90070CF4CEC03A01B2
:1018700010E8610E711C8A010C561F4FAD80BE80AE
:10188000A00EB11EB886AF824B0100E010E0021539
:1018900013050CF0BAC0E0E88E16910409F4B5C047
:1018A00097FCA8C08F3FFFEF9F0709F4B4C0F80171
:1018B000E40DF51DEF80F884E618F708AA24A39438
:1018C000E20FF31FCA1013C0E491E40EF51EF0E01E
:1018D0005F010A2E02C0AA0CBB1C0A94E2F7BA866A
:1018E000A986F701B080E985FA85EB292BC0C110E4
:1018F00017C0E491E40EF51EF0E00A2E02C0EE0FD0
:10190000FF1F0A94E2F75F01A094B094BA86A986FB
:10191000F701A080B12CE985FA85AE22BF2213C061
:10192000E491E40EF51EF0E05F010A2E02C0AA0C5D
:10193000BB1C0A94E2F7BA86A986F701B080E98554
:10194000FA85EB255F01F701A082109709F452C0D8
:101950008730910509F44EC0F801E40DF51DAA2465
:10196000A394CA1011C0E20FF31FE491EE2EF12CE4
:101970005701098002C0B594A7940A94E2F7EF8159
:10198000F885F080AF2835C0EF80F884E618F708B6
:10199000E20FF31FC11018C0E491E60CF71CAE2E45
:1019A000B12C098002C0B594A7940A94E2F7F5011E
:1019B000E095F095FA87E987F701A080B12CE985D9
:1019C000FA85AE22BF2214C0E491E60CF71CAE2EBD
:1019D000B12CF501098002C0F595E7950A94E2F76C
:1019E000FA87E987F701B080E985FA85EB255F0181
:1019F000F701A0820F5F1F4FEF81F8853196F887BE
:101A0000EF83FFEF8F1A9F0A42CF0196420C531CBF
:101A100040585F4F1DCF109709F09ECFEBCF2A960D
:101A20000FB6F894DEBF0FBECDBFDF91CF911F91EF
:101A30000F91FF90EF90DF90CF90BF90AF909F906D
:101A40008F907F906F905F904F903F902F90089570
:101A50006038710518F54034510500F5A42FA6959E
:101A6000A695A695B0E047705527B695BA2FAA2738
:101A7000B795A7956A0F7B1FFC01E60FF71F81E062
:101A800090E001C0880F4A95EAF7222319F0948963
:101A9000892B03C0809594898923848B08952F9284
:101AA0003F924F925F926F927F928F929F92AF92EE
:101AB000BF92CF92DF92EF92FF920F931F93CF933B
:101AC000DF93CDB7DEB72A970FB6F894DEBF0FBE0F
:101AD000CDBF6A3091F4FC01E85EFB4F4081329744
:101AE0002081318158E0459F200D311D1124318323
:101AF0002083329711821082C1C06D3009F4BEC0BC
:101B00009A878987885E9B4F9C838B83DC012C900E
:101B1000E985FA85EA5EFB4F60807180E985FA8588
:101B2000EC5EFB4FFA83E9830081118100381105D7
:101B3000D4F0AB81BC812C91422F50E0E981FA8135
:101B400080819181F6E02F9F800D911D1124A98144
:101B5000BA818D939C93E985FA85E75EFB4F2081DE
:101B600021115EC08BC0B0E46B16710414F7C8017C
:101B7000E5E02E9E800D911D112418161906CCF655
:101B8000422C512CC301F8E02F9E800D911D112491
:101B90001816190674F655E0659F900111243F83CD
:101BA0002E83E12CF12C85E0E816F10441F0EE8162
:101BB000FF81EE0DFF1DE65DF94F349001C0312C21
:101BC000630138E0932D91709D834801882D801B1F
:101BD0008215B0F456018A2D8C19821568F42D8176
:101BE000A501B40189859A8538870E94280DAFEF39
:101BF000AA1ABA0A3885EFCFBFEF8B1A9B0AE6CF35
:101C000036943150C40CD51C3111DCCFEFEFEE1AF5
:101C1000FE0A040D151DF6E0EF16F10421F689CF3A
:101C20006AEF64039001659F300D112420583F4FE7
:101C3000281739071CF5A985BA85ED91FC911197F4
:101C40000190F081E02D6AE0CD012A960FB6F8945C
:101C5000DEBF0FBECDBFDF91CF911F910F91FF90DF
:101C6000EF90DF90CF90BF90AF909F908F907F903C
:101C70006F905F904F903F902F9009942A960FB6E7
:101C8000F894DEBF0FBECDBFDF91CF911F910F91B2
:101C9000FF90EF90DF90CF90BF90AF909F908F908C
:101CA0007F906F905F904F903F902F900895CF93CB
:101CB000DF9357FD21C0EC01CE59DF4FA0E0B0E02B
:101CC000288139812617370791F42A813B8124170F
:101CD000350769F445E04A9F90014B9F300D112470
:101CE000820F931FFC01EA59FF4F808106C01196B5
:101CF0002596AE31B10521F780E0DF91CF910895AF
:101D0000FC0115821482118A128A8FEF9FEF97834C
:101D10008683918780871386128615861486178698
:101D20001686108A0895DC011496ED91FC911597A2
:101D3000E49116968D919C9117978E0F911D0197A6
:101D400008950F931F93CF93DF939B0177FF02C0FA
:101D5000295F3F4FB3E035952795BA95E1F7FA0132
:101D600057FD3796A3E0F595E795AA95E1F7DC01D5
:101D70001296CD91DC911397C952DF4FE131F105F5
:101D8000D4F5C90137FD0F9644E0959587954A959E
:101D9000E1F763E070E00E94752F8C01C90160E1FA
:101DA00070E00E94752FAC01440F551FC80175E00B
:101DB000880F991F7A95E1F78C0F9D1FDC01A40F06
:101DC000B51FE830F10554F481E090E00E2E01C01B
:101DD000880F0A94EAF712969C910BC0BF016850D5
:101DE000710981E090E001C0880F6A95EAF71396C7
:101DF0009C91892349F4AF01B901CE01DF91CF91C4
:101E00001F910F910C94570E8FEFDF91CF911F917F
:101E10000F910895DC011496ED91FC911597319680
:101E200084910895CF93DF93FC01C085D1850E94F2
:101E30000A0F9E01280F311DC9010197DF91CF9133
:101E40000895AF92BF92CF92DF92EF92FF920F93DD
:101E50001F93CF93DF93EC01E62EF12CEC81FD81F3
:101E6000E491E695E695E695FE1608F04CC0EE2066
:101E700021F081E0E816E1F044C0C884D98491E003
:101E8000C91AD108AE80BF8088E0F89E8001112475
:101E9000B501600F711FA601CE010E94A10E811134
:101EA00034C00A0D1B1DB801695F7F4FA60124C015
:101EB00008851985CE010E940A0F98E0F99E6001FD
:101EC0001124A801480F511D6E817F816C0D7D1D6D
:101ED000CE010E94A10E811118C008851985CE017E
:101EE0000E940A0FA801480F511D8E819F818C0D01
:101EF0009D1DBC01695F7F4FCE010E94A10E811123
:101F000004C0F394ABCF80E001C081E0DF91CF91BA
:101F10001F910F91FF90EF90DF90CF90BF90AF9007
:101F20000895CF93DF93EC0161E00E94210F882395
:101F300021F028EF3FEF3D872C87DF91CF91089567
:101F40008F929F92AF92BF92CF92DF92EF92FF92C9
:101F50000F931F93CF93DF93EC01E62EF12CCE016C
:101F60000E940A0F869586958695F81608F04AC055
:101F700082E0E81621F0E3E0EE16E1F041C0A8842B
:101F8000B984F8E0FF9E80011124CE80DF8081E0DB
:101F9000C81AD108A501400F511FB601CE010E94F9
:101FA000A10E811131C0A501400F511F495F5F4F44
:101FB000B60121C088849984E8E0FE9E8001112446
:101FC000CE80DF80AC80BD80F5018491A401400FFC
:101FD000511FB601680F711DCE010E94A10E811123
:101FE00013C0F501A490A401400F511F495F5F4F3A
:101FF000B6016A0D711DCE010E94A10E811104C0AF
:10200000F394ADCF80E001C081E0DF91CF911F91CB
:102010000F91FF90EF90DF90CF90BF90AF909F9087
:102020008F900895EF92FF920F931F93CF93DF93BA
:102030001F92CDB7DEB7DC011496ED91FC91159798
:102040003496E4911C968D919C911D97E0FF19C0E8
:1020500016964D915C9117971A962D913C911B976E
:10206000240F351F17963C932E93169718962D9193
:102070003C911997820F931F19969C938E931897F2
:1020800083C17D01892B99F461E0CD010E94210F6C
:1020900081110DC0D7011C968D919C911D978630A2
:1020A00091052CF401961D969C938E931C97F70135
:1020B00084859585181619064CF500E010E0D701C7
:1020C0001C968D919C911D9708171907B4F461E037
:1020D000C7010E94210F81110DC0D70118968D9163
:1020E0009C911997019619969C938E9318970F5F60
:1020F0001F4FE5CFF70115861486F7018485958576
:10210000863091051CF4019695878487D7011C962B
:102110008D919C911D9797FFCDC001961D969C9324
:102120008E931C9700E010E0F70184859585801759
:1021300091070CF0BFC060E0C7010E94210FD701DA
:10214000882309F4ABC01496ED91FC911597349651
:10215000E491E1FD9FC0F70100851185015011094F
:1021600066817781A801C7010E94A10E8D3041F5DB
:10217000C7010E94930EA801BC01C7010E94A10ED5
:102180008E30F1F4F70186819781803491050CF44B
:1021900081C0D70112968D919C911397FC01EF504D
:1021A000FE4F29E835E031832083339784E0808334
:1021B0001296ED91FC911397E151FE4F118210821E
:1021C000F701008511850150110966817781A80109
:1021D000C7010E94A10E282FC70129830E94930ED8
:1021E000A801BC01C7010E94A10E182F2981273028
:1021F00011F0293031F5D70118968D919C911997DE
:10220000AC014150510957FF02C0495F5F4FF3E0F5
:1022100055954795FA95E1F7F7016681778177FF44
:1022200002C0695F7F4FE3E075956795EA95E1F736
:10223000D70112968D919C91139789529F4F0E94BE
:102240009313173011F0193029F5F7018085918526
:10225000AC014150510957FF02C0495F5F4F8A01ED
:1022600063E0159507956A95E1F7C7010E94930E03
:1022700097FD0796BC0153E0759567955A95E1F770
:10228000D70112968D919C911397A80189529F4F67
:102290000E949313F701158614860CC018968D9131
:1022A0009C911997019719969C938E9318970150BA
:1022B00011093ACFD7011A968D919C911B97181648
:1022C000190644F0F7018285938597FF5DC000E011
:1022D00010E052C000E010E0D7011A968D919C9159
:1022E0001B970817190774F7C7010E94930ED701AF
:1022F0001296ED91FC911397EB52FE4F20813181A4
:102300002F5F3F4F3695322F22273795279582171B
:102310009307C4F663E0C7010E94A00F8111D2CFDA
:10232000F701868197810196978386830F5F1F4F00
:10233000D3CFD7011296ED91FC911397ED52FE4F3A
:10234000808191819695982F8827979587951696E5
:102350002D913C91179782179307B4F462E0C7015F
:102360000E94A00F811110C0F7018681978101970B
:102370009783868301501109D7011A968D919C91FC
:102380001B9780179107ACF20F90DF91CF911F91AF
:102390000F91FF90EF9008950F931F93CF93DF93CA
:1023A000EC018C819D819C012A5F3F4FF901449192
:1023B00042FF62C0AA81BB811C96ED91FC911D97E2
:1023C000E4914E815F811E966D917C911F976E0FF7
:1023D000711D641775075CF462E06A8BFC01359629
:1023E000E491F0E0F195E195F109FB87EA87FC01C2
:1023F0006491460F511D1E966D917C911F97461753
:1024000057073CF443E04A8B3596849190E09B87D4
:102410008A87F901249123FFA2C06A89CE010E9414
:10242000A00F882319F0CE010E94910F8A89823073
:1024300071F46E817F81615071094FE750E0CE01E8
:102440000E94A10E811103C0CE010E94910F8A89C2
:10245000833009F084C0CE010E94930EBC016F5FEF
:102460007F4F4FE750E0CE010E94A10E811177C04F
:10247000CE010E94910F73C0F901249120FF2AC060
:102480008A89823091F462E0CE010E94A00F8823F5
:1024900011F083E014C0EC81FD813596E491F0E009
:1024A000F195E195F109FB87EA878A89833091F4F8
:1024B00063E0CE010E94A00F882329F082E08A8B7E
:1024C0001B861A8607C0EC81FD813596E491F0E009
:1024D000FB87EA87EC81FD813696E491E1FF3FC0FE
:1024E0008A898230D9F4CE010E94120FAC014F5F6D
:1024F0005F4F6E817F8161507109CE010E94A10EF4
:10250000811102C083E020C0EC81FD813596E49109
:10251000F0E0F195E195F109FB87EA878A8983303C
:10252000F1F4CE010E94120F8C01CE010E94930E95
:10253000A8014F5F5F4FBC016F5F7F4FCE010E94CC
:10254000A10E811105C082E08A8B1B861A8607C006
:10255000EC81FD813596E491F0E0FB87EA87CE01BE
:10256000DF91CF911F910F910C941210AF92BF92F7
:10257000CF92DF92EF92FF920F931F93CF93DF934F
:10258000CDB7DEB764970FB6F894DEBF0FBECDBFF0
:10259000FC017C018AE2E80EF11CCE01019600E00C
:1025A00010E0D701DC90D11040C0A3E1A09FC00192
:1025B000A19F900D1124DC015996AE0FBF1FE80FAB
:1025C000F91F768F658F81E082A782E083A703E001
:1025D000440F551F0A95E1F717965C934E93169793
:1025E00083E0220F331F8A95E1F719963C932E93CF
:1025F00018971B961C921E921A971D961C921E925B
:102600001C9750961C9250971F961C921E921E97D4
:1026100069557C4041F48CEF9FEF94A383A382E043
:1026200090E096A385A3CD016CC0C684D784D70162
:102630001B970D90BC91A02DCA1ADB0AD7FE03C0D0
:10264000D194C194D108DC01CD92DC920F5F1F4F71
:10265000B3E1EB0EF11C02960A30110509F0A1CF8F
:1026600099818E010D5F1F4F81E0B12CD801ED9053
:10267000FD908D01C92ED12CCE14DF0414F49E2DB3
:10268000B82E8F5F8A3091F783E1B89ED001112474
:10269000CD0149968E0F9F1FEA0FFB1F768F658F26
:1026A000A1E0A2A7A2E0A3A7A3E0440F551FAA950B
:1026B000E1F7DC0117965C934E93169713E0220F17
:1026C000331F1A95E1F719963C932E9318971B9692
:1026D0001C921E921A971D961C921E921C97509641
:1026E0001C9250971F961C921E921E9769557C4013
:1026F00041F42CEF3FEF34A323A322E030E036A3D4
:1027000025A364960FB6F894DEBF0FBECDBFDF9150
:10271000CF911F910F91FF90EF90DF90CF90BF90DE
:10272000AF900C94CC112F923F924F925F926F9288
:102730007F928F929F92AF92BF92CF92DF92EF9251
:10274000FF920F931F93CF93DF938C017B016A015C
:10275000EC01CA59DF4F1C018CEF280E311C84E1BB
:10276000482E512C9CE1692E96E0792E21E2A22E72
:1027700026E0B22E4A01E1E08E1A9108FE0134975C
:10278000808191818E159F05A9F532968081918176
:102790008C159D0579F58881873061F0893051F578
:1027A0009401A7016DEE75E0F801808191810E948E
:1027B000B6121EC0F80120813181F901ED51FE4FA2
:1027C00080819181019691838083B2010E94752F4F
:1027D000D901AF50BE4F892B49F432968081918147
:1027E000019691838083AD92BC9202C06D927C92DF
:1027F000F8E0F8832596C215D30509F0BFCFDF9125
:10280000CF911F910F91FF90EF90DF90CF90BF90ED
:10281000AF909F908F907F906F905F904F903F9080
:102820002F9008950F931F93CF93DF938C010E94F5
:102830000A0FD8011496CD91DC911597FE012491D1
:10284000829F9001112483E0359527958A95E1F7C1
:102850003296949131966491929FF001939FF00D7E
:10286000112470E01E968D919C911F970E94752FE8
:10287000269FA001279F500D369F500D1124CF0198
:10288000840F951F08968C0F9D1FDF91CF911F918C
:102890000F9108958F929F92AF92BF92CF92DF9245
:1028A000EF920F93CF93DF93EC01EC81FD8137968C
:1028B000E491EE2319F10E940A0FE82EEC81FD81CC
:1028C0000491CE010E9412149C01AA81BB81FD01DA
:1028D000E451FE4F4885598580819181481B590BF1
:1028E00032976E817F8180819181681B790BC12C29
:1028F00016968D919C9117970E94BB0BCE010E945A
:102900000A0FE82EEC81FD810491CE010E940A0F8E
:102910008C809D80F401C49033966491AA80BB8022
:102920008C9D6001112483E0D594C7948A95E1F7CA
:1029300070E08E859F850E94752FC69E9001C79E70
:10294000300DD69E300D1124285F3F4F280D391DC4
:10295000F501E451FE4F4885598580819181481BDE
:10296000590B32976E817F8180819181681B790B31
:10297000CC24C394F501868197810E94BB0B4E85C0
:102980005F854F5F5F4F8C819D81FC013296249162
:1029900031968491289FF00111244E175F071CF493
:1029A0005F874E8702C01F861E86DF91CF910F91F1
:1029B000EF90DF90CF90BF90AF909F908F90089551
:1029C000EF92FF920F931F93CF93DF93DC01169644
:1029D0002D913C911797EB01C21BD30B18968D914B
:1029E0009C911997D7FD3AC08A01081B190B17FD56
:1029F00035C01496ED91FC911597E491F0E0EC1739
:102A0000FD0764F17D01CD010E940A0F90E080175F
:102A1000910724F1C7010E941214D7011496ED9179
:102A2000FC9115972491A80133E0559547953A9567
:102A3000E1F7249FF001259FF00D1124CE0FDF1F39
:102A4000FC01EC0FFD1F849190E00770112702C07C
:102A5000959587950A95E2F7817001C080E0DF9136
:102A6000CF911F910F91FF90EF9008950C94042F38
:102A70000C94FC2E8F929F92AF92BF92CF92DF92D6
:102A8000FF920F931F93CF93DF93F12CCF2CD12C78
:102A900080918B0390918C03C816D9060CF076C0F8
:102AA000D194C194D108CC0CDD1C0091BE011091D1
:102AB000BF01055F1F4F0C0D1D1D80919A03909162
:102AC0009B03081B190BC091BC01D091BD0121963D
:102AD0008091980390919903C81BD90BA090B401E1
:102AE000B090B5014E0126E0820E911CD7FF0DC0BB
:102AF000C0E0D0E00AC0C817D9077CF421E0A801E3
:102B0000BE01C5010E94280D2196C40121E882164C
:102B100091048CF380E890E0EECF8091BE0190911B
:102B2000BF010A96C80ED91E80919A0390919B030B
:102B3000C81AD90AC091BC01D091BD0121968091DB
:102B4000980390919903C81BD90B0091B40110917F
:102B5000B5015E0186E0A80EB11CD7FF0DC0C0E034
:102B6000D0E00AC0C217D3077CF421E0A601BE0161
:102B7000C8010E94280D2196950181E8A816B1048C
:102B80008CF320E830E0EECFF39480CFDF91CF914B
:102B90001F910F91FF90DF90CF90BF90AF909F90CB
:102BA0008F900895EF92FF920F931F93CF93DF932F
:102BB000C0E0D0E0CE0182559E4F7C01FC0182A591
:102BC0008823B9F08E0109531E4FC8010E94930E4D
:102BD0004091980350919903841B950B1816190680
:102BE00044F4F701278D30A1241B350B2038310523
:102BF0005CF06396CE3BD105E9F6DF91CF911F9152
:102C00000F91FF90EF900895C8010E944A14F1CFF0
:102C10002F923F924F925F926F927F928F929F92EC
:102C2000AF92BF92CF92EF920F931F93CF93DF9308
:102C300000D000D000D0CDB7DEB7309198032091FE
:102C4000990380919A0390919B036CE070E00E943D
:102C5000752F3B018091950380FF3EC0832F922FFB
:102C600097FD0396959587959595879530E4A32EC6
:102C7000B12CB5010E94752F4C0124E0621A710835
:102C800066277727681B790BCC24C39440E1E42E98
:102C900000E428E63DE0A3018091B4019091B501E4
:102CA0000E94BB0BB5016819790928E63DE0A30134
:102CB0008091B4019091B5010E94BB0B60E870E077
:102CC0006819790928E63DE0A3018091B40190914B
:102CD000B5010E94BB0B2AC010E030E1630E711CED
:102CE00080E6A82EB12C212F30E08091980390919E
:102CF000990397FD03969595879595958795B501C9
:102D00000E94752FB901681B790BCC24C39408E18C
:102D1000E02E05E229EF3CE0A3018091B4019091FF
:102D2000B5010E94BB0B105A103EE9F68091980342
:102D30009091990397FD0796BC01E3E0759567951F
:102D4000EA95E1F77E836D834B01F3E0880C991CD3
:102D5000FA95E1F722242394312C809198039091E5
:102D6000990397FD079623E0959587952A95E1F7B6
:102D70004096ED81FE818E179F070CF4F1C0A09064
:102D80009A03B0909B03B7FE03C077E0A70EB11C77
:102D900053E0B594A7945A95E1F78D819E8197FDF4
:102DA0000F96B4E095958795BA95E1F763E070E0EA
:102DB0000E94752FFC018D819E8160E170E00E9470
:102DC000752F9C01220F331F350103E0660C771C21
:102DD0000A95E1F7CF0145E0880F991F4A95E1F781
:102DE00082559E4FAC01420F531FFA01E652FF4F2E
:102DF000FA83E983BA0167527F4F7C836B8300912A
:102E00009A0310919B03C80117FD079633E095952F
:102E100087953A95E1F708968A159B050CF459C0F9
:102E200071E1A716B1040CF05EC088E0A816B104E9
:102E30005CF4EB81FC812081C1010A2C01C0880F68
:102E40000A94EAF782230DC0C5010897910102C0D8
:102E5000220F331F8A95E2F7C901E981FA81908137
:102E60008923882309F43FC0A301401B510B8091A3
:102E7000980390919903B401681B790BC12C88E0E9
:102E8000E82E08E021EF3CE08091B4019091B5017B
:102E90000E94BB0B80919A0390919B03A301481B56
:102EA000590B8091980390919903B401681B790B99
:102EB000CC24C39429EE3CE08091B4019091B501FB
:102EC0000E94BB0BFFEFAF1ABF0A28E0620E711C15
:102ED00096CF6D817E816F5F7F4F7E836D8378E0BB
:102EE000870E911C3ACFA5016D817E8185E892E025
:102EF0000E94570E87508A3028F7E82FF0E0EE0F37
:102F0000FF1FEC5EFE4F4080518041145104D1F20E
:102F1000A301401B510B8091980390919903B40138
:102F2000681B790BC12CE8E0EE2E08E021EF3CE0B5
:102F30008091B4019091B5010E94BB0B80919A03DE
:102F400090919B03A301481B590B8091980390918A
:102F50009903B401681B790BCC24C3949201ACCFC4
:102F600026960FB6F894DEBF0FBECDBFDF91CF918E
:102F70001F910F91EF90CF90BF90AF909F908F9047
:102F80007F906F905F904F903F902F900895FF92A9
:102F90000F931F93CF93DF93F82E8B01EA0185E8FF
:102FA00092E00E94570E811124C0A0917D03B09140
:102FB0007E0385E08A9F90018B9F300D112422555E
:102FC0003E4FF901E75CFE4F118300833296D183B7
:102FD000C0833296F082CD0101968E31910529F0A1
:102FE00090937E0380937D0304C010927E03109221
:102FF0007D03DF91CF911F910F91FF900895CF92A4
:10300000DF92EF92FF920F931F93CF938C01C62F05
:10301000D72E462F572FBC018BE00E94C71778018F
:103020008FEFE81AF80A4C2F5D2DB7018CE00E9453
:10303000C717CF5FC03158F4CC2ED12CA601B801F0
:103040008FE00E94C717A601B70180E1F0CFCF91B2
:103050001F910F91FF90EF90DF90CF900895CF9246
:10306000DF92EF92FF920F931F93CF93DF938C0128
:10307000EB016B018FEFC81AD80AA601B8018DE0E9
:103080000E94C71778018FEFE81AF80AA601B70166
:103090008EE00E94C717AE01B8018FE00E94C717EB
:1030A000AE01B70180E1DF91CF911F910F91FF90A9
:1030B000EF90DF90CF900C94C7174F925F926F9272
:1030C0007F928F929F92AF92BF92CF92DF92EF92B8
:1030D000FF92CF93DF93EC014A015B0181E0809383
:1030E000AD012E01612C712C60E072E18AE790E065
:1030F000A30192010E94122F69017A0181E0C81A8E
:10310000D108E108F108C114D10481E0E806F10416
:1031100088F068E478EE81E090E0A30192010E94DB
:10312000122F69017A0181E0C81AD108E108F1087B
:1031300083E001C081E090918100987F982B90936B
:10314000810081149104A104B10471F0DE01AA0F81
:10315000BB1FA50194010E94312F28EE33E040E00F
:1031600050E00E94442F03C02FEF3FEFA901D092FF
:103170008900C09288002093A9013093AA0140934E
:10318000AB015093AC0180916F00826080936F001F
:10319000DF91CF91FF90EF90DF90CF90BF90AF90F5
:1031A0009F908F907F906F905F904F900895CF93F6
:1031B0008091A801823009F466C0282F30E0F9011F
:1031C000EC5CF14FC491F901ED53F84F99E0908315
:1031D0008F5F8093A80161E089E00E94EE08C13012
:1031E00019F0C33019F14FC0109280001092810085
:1031F000809181008860809381008091810081604E
:1032000080938100EEE1FEE0E491F0E0EE0FFF1F1D
:10321000E95FF14F859194919093A7018093A60166
:10322000E1EFFDE0E491E093A5012DC01092900044
:10323000109291008091910088608093910080911C
:103240009100816080939100EEE1FEE0E491F0E076
:10325000EE0FFF1FE95FF14F859194919093A401C8
:103260008093A301E1EFFDE0E491E093A20180915E
:10327000A801882321F06CE380E00E94DC0980E053
:10328000CF910C94C70ACF91089520E08DEB93E085
:10329000B22FB111BFEFFC010024B193B193B193F0
:1032A000B1930394D1F708952FB7F89480919E01BC
:1032B00090919F01A091A001B091A1012FBF809397
:1032C000A5039093A603A093A703B093A803089522
:1032D0000F931F938FB7F89400919E0110919F0157
:1032E0002091A0013091A1018FBF4091A503509181
:1032F000A6036091A7037091A80348535F4F6F4FD7
:103300007F4F81E0401751076207730708F080E0A4
:103310001F910F9108954F925F926F927F928F92BB
:103320009F92AF92BF92CF92DF92EF92FF920F9354
:103330001F93CF93DF93EC017B016A01C901A901BF
:10334000461B570B57FF03C05195419551099601F4
:103350002C1B3D0B37FF03C031952195310911E03E
:103360002417350714F010E00AC03C2D2D2D6C01F8
:10337000832F922F3C2F2D2FE701E32EF22ECC1618
:10338000DD0654F43E2D2F2D7C01832F922F3C2FF0
:103390002D2FE601C32ED22E26014C1A5D0A4C01B8
:1033A0008E189F0897FE03C0919481949108520152
:1033B00057FE03C02FEFA21AB20AB594A794E816DD
:1033C000F90614F08FEF01C081E0682E880F7708AE
:1033D000CC16DD06B4F0202F112319F0AE01B70191
:1033E00002C0A701BE0189EA93E00E94280DA81837
:1033F000B908B7FE04C0E60CF71CA40CB51C219656
:10340000E7CFDF91CF911F910F91FF90EF90DF9069
:10341000CF90BF90AF909F908F907F906F905F9074
:103420004F900895E091A903F091AA030190F081D3
:10343000E02D682F89EA93E00994EEE8F1E001902D
:103440000020E9F73197AF014E5851406EE871E026
:1034500089EA93E00C947C0780919C03813048F1C9
:10346000833018F08530A8F008950E9408160E9455
:10347000D21580919D0380FD1CC086EB91E00E94D7
:103480004A1480918B0390918C03892B91F00C94BA
:103490003A1586EB91E00E944A1480918B0390913B
:1034A0008C03892B11F00E943A150E9408160C9487
:1034B000D21508952F923F924F925F926F927F9212
:1034C0008F929F92AF92BF92CF92DF92EF92FF9234
:1034D0000F931F93CF93DF93CDB7DEB729970FB626
:1034E000F894DEBF0FBECDBF8C01E0918502F09154
:1034F0008602DF01A951BE4F2D913C91C901800F79
:10350000911F64E070E00E94752F8E0F9F1FFC01D9
:10351000ED50FE4F8081829FB001839F700D11247A
:10352000600F711F072E000C880B990B6115710538
:103530008105910511F00E94F32EC80163E070E04F
:103540000E94752F6C0145E0CC0CDD1C4A95E1F71B
:1035500080E090E0FC01EC0DFD1DE957FD4F10826D
:10356000019680329105B1F70E94EE2E23E030E003
:1035700040E050E00E94122FDC01CB010D96A11D0E
:10358000B11D382EE0918502F0918602E951FE4F7F
:10359000208120FF02C0212C02C038E0232E5801D8
:1035A00024E0AA0CBB1C2A95E1F7822C912C011572
:1035B000110589F4222041F0B4016F5F7F4F81E053
:1035C00090E00E942F1807C0BC016250710981E091
:1035D00090E00E94FF1781E0022C01C0880F0A943E
:1035E000EAF78D837501A60148575D4F59874887D3
:1035F000C12CD12C612C712CC40105969F838E8324
:10360000240192E0490E511C222061F0A8E0E885D7
:10361000F9852A1621F08291BD818B2B02C0808111
:1036200081608083C114D10409F0BBC0832D90E078
:103630009C012850310941E050E002C0440F551F61
:103640002A95E2F79A01A885B9853C91232B2C9302
:1036500001968031910561F70115110509F4A4C0A7
:103660008091830390918403081719070CF09CC084
:103670000E94EE2E2AE030E040E050E00E94122F3F
:10368000672B682B692BA1F40E94EE2E23E030E01B
:1036900040E050E00E94122FDC01CB010296A11DF8
:1036A000B11D6C012220B9F0E1E0CE1AD10813C09F
:1036B0000E94EE2E25E030E040E050E00E94122F04
:1036C000672B682B692B39F40E94EE2EFFE03F1226
:1036D0009EC08EE0382E8091890390918A038A15CE
:1036E0009B050CF061C00E94EE2E28E030E040E027
:1036F00050E00E94122F672B682B692BB9F50E94AE
:10370000EE2E24E130E040E050E00E94122F6A30BB
:1037100040F4232D30E022503109A70161ED7CE017
:103720001FC0603140F4232D30E022503109A70141
:1037300069EB7CE015C0633158F409301105B4F031
:10374000232D30E022503109A70161EA7CE008C056
:10375000093011055CF022E030E0A70169E57CE06A
:1037600080918502909186020E94B6120E94EE2EF0
:1037700020E130E040E050E00E94122F672B682BE0
:10378000692B91F4C114D10479F4632D70E04E815A
:103790005F814617570744F45FE065167104C9F569
:1037A00003C081E0C81AD1089FEF691A790AAFEF08
:1037B000EA1AFA0AE885F9853296F987E887F0E18E
:1037C0006F16710409F020CF8091830390918403D8
:1037D0000817190781F4C5010D96222031F0B401B4
:1037E0006F5F7F4F0E942F1806C0632D70E06250FC
:1037F00071090E94FF178091890390918A038A15AD
:103800009B05B4F5B0928A03A092890331C033942A
:1038100062CF9B0123503109032E000C440B550B42
:1038200067507109641575050CF4B201072E000C80
:10383000880B990B0E94CE0769837A838B839C83C4
:103840000E94EE2E24E030E040E050E00E94122F73
:10385000672B682B692B29F449815A81B70189E0CC
:1038600004C049815A81B70187E00E94C7179CCFE5
:1038700029960FB6F894DEBF0FBECDBFDF91CF9172
:103880001F910F91FF90EF90DF90CF90BF90AF907E
:103890009F908F907F906F905F904F903F902F9070
:1038A000089580918303909184039695982F88279B
:1038B00097958795019720918503309186033695DA
:1038C000322F222737952795215C3F4FE0918103C6
:1038D000F0918203DF01B695BA2FAA27B795A79575
:1038E0004091BC015091BD0140545109509399033E
:1038F000409398036091BE017091BF0168507109B7
:10390000261737072CF070939B0360939A0304C02B
:1039100030939B0320939A038417950724F4909384
:1039200099038093980380919803909199038A1743
:103930009B0724F4B0939903A0939803A091850268
:10394000B09186021E968D919C911F9797FF02C0A1
:1039500081589F4F880F892F881F990B019797FFD8
:1039600002C080E090E0E817F9073CF490938203EE
:103970008093810302960C945A1A0895FC01809159
:103980001D08811103C08FEF9FEF08959FB7F89432
:1039900082E08093E9002091F20030E012161306D5
:1039A00014F421E030E02115310559F0289884E61F
:1039B00080931C088091F10080838091F20088231D
:1039C00019F09FBFC90108958BE68093E800F9CFF5
:1039D0008091230881110DC082E080931F0884E04C
:1039E00080932008109222081092210881E0809391
:1039F00023088FE198E00895CF93DF931F92CDB70E
:103A0000DEB76983DC01ED91FC910280F381E02D4A
:103A100041E050E0BE016F5F7F4F09950F90DF914D
:103A2000CF91089583E08093E9008091F20088238C
:103A300019F08AE38093E8000895CF93DF931F92F3
:103A4000CDB7DEB7FC018485958597FD05C02FEFC6
:103A50003FEF358724870BC0CE0101960E94BE1C24
:103A6000019719F4898190E002C08FEF9FEF0F90CA
:103A7000DF91CF9108950F931F93CF93DF931F9200
:103A8000CDB7DEB78C01FC018485958597FF0EC00C
:103A9000CE0101960E94BE1C019719F4298130E0E5
:103AA00002C02FEF3FEFF80135872487F8018485A6
:103AB00095850F90DF91CF911F910F910895FC0193
:103AC0008485958597FD0BC09FB7F89482E080931D
:103AD000E9008091F2009FBF90E0019608959FB7A2
:103AE000F89482E08093E9008091F2009FBF90E01B
:103AF00008957F928F929F92AF92BF92CF92DF9262
:103B0000EF92FF920F931F93CF93DF936C015B01B2
:103B10007A0180910F01882309F46BC080911D0800
:103B2000882309F466C080911B0880FF05C080913E
:103B3000E00082608093E000E70110E00AEF83E09C
:103B4000982E90E4792E2AE3822E209709F448C01B
:103B50008FB7F8949092E9009091E80095FF06C025
:103B60009091F200272D291B922F01C090E08FBF6A
:103B700091110AC0015009F43CC061E070E080E09E
:103B800090E00E942A09E1CF292F30E0C217D30725
:103B90000CF49C2F8FB7F8949092E9002091E800E4
:103BA00025FF1CC0292F30E0C21BD30BF50191501B
:103BB00020F041914093F100FACFA20EB31E1123E1
:103BC00019F08092E80009C09091E80095FD06C0C8
:103BD0008092E80011E0209709F010E08FBFB5CF88
:103BE0001111B6CF5D9884E680931E081E141F0441
:103BF00044F081E090E0F6019383828380E090E0DE
:103C000001C0C701DF91CF911F910F91FF90EF90FD
:103C1000DF90CF90BF90AF909F908F907F9008954E
:103C2000CF92DF92EF92FF920F931F93CF93DF9388
:103C30001F92CDB7DEB7182F062FE42E862F880FE0
:103C40008E5F99830E94922283E00E949222F12E3D
:103C5000C12E9981D92E8C2D8F19801798F4F601D9
:103C6000E7FE02C0849101C080810E949222182F39
:103C700080E00E9492228123FFEFCF1ADF0A811198
:103C8000EACF01C081E00F90DF91CF911F910F919A
:103C9000FF90EF90DF90CF900895DF92EF92FF9228
:103CA0000F931F93CF93DF93D82E8A017B01E40EED
:103CB000F51EEB01CE15DF0571F0D7FE03C0FE0146
:103CC000849101C088810E94922221968111F2CFB5
:103CD0008FEF9FEF01C0C801DF91CF911F910F912E
:103CE000FF90EF90DF9008950F931F93CF93DF9392
:103CF0001F92CDB7DEB782E0898342E450E066E3ED
:103D00007EE080E80E944D1E0E94E81CDC011296B5
:103D10000D911C9113970115110569F0D801ED91D2
:103D2000FC910280F381E02DBE016F5F7F4FC801DF
:103D3000099597FF07C089810F90DF91CF911F915F
:103D40000F910895F80100851185E5CFCF92DF929C
:103D5000EF92FF921F93CF93DF9300D000D0CDB7A7
:103D6000DEB781E080939C031092A00310929F0322
:103D700010927E0310927D031092880310928703A5
:103D8000109282031092810310928A031092890389
:103D900080E090E02FEF3FEFFC01E751FD4F3183D2
:103DA0002083059686399105B9F7E12CF12C13E1B2
:103DB0001E9DC0011F9D900D1124499620918502E2
:103DC00030918602820F931F0E94800E8FEFE81AB7
:103DD000F80A8AE0E816F10459F7E0918502F091BB
:103DE0008602DF01A951BE4F2D913C91C90164E0CB
:103DF00070E00E94752FE80FF91FED50FE4F808193
:103E0000829FB001839F700D1124072E000C880B38
:103E1000990B611571058105910511F00E94F32E32
:103E2000E0918502F0918602E951FE4F20813181B7
:103E3000032E000C440B550B21153105410551058E
:103E400071F029833A834B835C830E94EE2E298193
:103E50003A814B815C810E94122F9B01AC01245F4F
:103E60003F4F6901032E000CEE08FF08E091850228
:103E7000F0918602E951FE4F80819181280F391F10
:103E8000032E000C440B550BC701B6010E94CE0750
:103E90009B01770F440B550BC701B6010E94CE075B
:103EA000709384036093830380E090E00E945A1A29
:103EB00081E090E00E945A1A82E090E00E945A1A33
:103EC00061E086EB91E00E94210F811105C086EB35
:103ED00091E00E941210F4CF0F900F900F900F906E
:103EE000DF91CF911F91FF90EF90DF90CF900C94D6
:103EF000511CCF93DF93AB01682F70E0403187E214
:103F000058076CF4483EC3E05C0764F4443651053E
:103F100064F44A30510564F420E030E00BC024E141
:103F200030E008C02FE030E005C02AE030E002C0F9
:103F300025E030E08091B4019091B501DC01AC5EE8
:103F4000BB4FE0E6F0E0EF01C21BD30BCD93DC9357
:103F5000FC01EA5EFB4F7183608360E070E02AE061
:103F60000E940B088091B4019091B50144960E9483
:103F7000CC096AEF70E080E090E00E942A090E947C
:103F8000AE098823E1F3DF91CF9108950F931F933A
:103F9000CF93DF932091BC013091BD01821793072D
:103FA000CCF0EB018C0186EB91E00E94930E801720
:103FB000910784F08091BE019091BF01C817D90785
:103FC0004CF086EB91E00E94120F8C179D0714F0C5
:103FD00081E001C080E0DF91CF911F910F910895A2
:103FE0001F920F920FB60F9211248F939F9380917F
:103FF000E1009091E100937F9093E10083FF0FC077
:104000001092E90091E09093EB001092EC0092E3A3
:104010009093ED0010921D0898E09093F00082FFBD
:1040200020C093E09093E9009091F200992319F059
:104030009AE39093E80090911E08992339F09091AB
:104040001E08915090931E08992389F190911C08A5
:10405000992339F090911C08915090931C08992352
:1040600041F184FF10C08091E2008E7E81608093D8
:10407000E2008091E1008F7E8093E10080911B0837
:104080008E7E806111C080FF16C08091E2008E7E1E
:1040900080618093E2008091E1008E7E8093E10058
:1040A00080911B088E7E816080931B0804C05D9AFE
:1040B000CDCF289AD6CF9F918F910F900FBE0F90A2
:1040C0001F9018951F920F920FB60F921124CF9246
:1040D000DF92EF92FF920F931F932F933F934F9393
:1040E0005F936F937F938F939F93AF93BF93EF9360
:1040F000FF93CF93DF93CDB7DEB76C97DEBFCDBF15
:104100001092E9008091E80083FFEDC168E0CE01E4
:1041100045960E94C02282EF8093E8008D8987FF38
:1041200005C09091E80090FFFCCF03C09EEF9093F4
:10413000E800982F907609F0C6C09E892F89188DC7
:1041400091110CC0803829F480911A088093F100F5
:1041500002C01092F1001092F10048C1422F50E0CD
:10416000512B913051F4811141C14130510509F079
:104170003DC180911A088D7F0BC0933061F481118D
:1041800035C14130510509F031C180911A08826072
:1041900080931A082BC1953041F48091E80080FF8C
:1041A000FCCF20682093E30021C1963009F05FC066
:1041B000EB8CFC8C1092E9001092180810921708F2
:1041C000123091F510921608109215080E94741E74
:1041D00099E0BE016F5F7F4FDB01E92F1D92EA95E9
:1041E000E9F799831A8391E09E8390EA98879AEF82
:1041F00099872091170830911808275F3F4F3C831B
:104200002B838D831092E9001092180810921708E2
:10421000F0921608E092150849E050E080E00E9414
:104220004D1E0E94741EE2C0F0921608E09215081E
:104230000E94E81CDC011296ED90FC901397E114AB
:10424000F10409F4C0C0D701ED91FC910480F5811F
:10425000E02DBE016B5E7F4FC7010995009719F0F5
:104260000CF0C4C0C7C0F701E084F184E8CF9730F8
:1042700009F4C0C0983021F481E08093F100B6C009
:10428000993009F0B3C0837009F0B4C0EDE4F1E0F7
:1042900081E021E036E39081992361F08093E90089
:1042A0002093EB0091919093EC003093ED008F5FA1
:1042B000873089F78EE78093EA001092EA008F89B1
:1042C00080931D0893C08B8D9C8D1092E9001092F5
:1042D0001808109217089093160880931508898D76
:1042E000811156C08E899D89913A59F4813209F025
:1042F00081C047E050E068E071E080E00E944D1E20
:1043000075C0913209F076C0833289F4888D90E0CF
:10431000982F88272F89822BA0E0B0E0809304019A
:1043200090930501A0930601B09307015FC080320E
:1043300069F48091E80082FFFCCF67E088E091E0BB
:104340000E94C0228BEF8093E80006C0823209F001
:104350004DC08F8980930F0180911908882319F02F
:10436000EEEFFAE002C0E0E0F8E080910801909101
:104370000901A0910A01B0910B01803B9440A10575
:10438000B10509F07BC080910F0180FF93C076C01A
:104390000E94E81CDC0112960D911C9113970115E7
:1043A000110541F1D801ED91FC910190F081E02DD2
:1043B000BE016B5E7F4FC8010995811117C0F801DE
:1043C00000851185ECCF113009F44EC0133091F403
:1043D0008F89882309F445C0823081F440E867E082
:1043E0008AE99EE00E94101E882321F08EEF8093C0
:1043F000E80079C081E28093EB0075C0813029F438
:1044000040E86BE08EE89EE0EDCF833099F70E94A4
:10441000E81CDC011296ED90FC9013978E010F5F63
:104420001F4F6801E114F10479F0D701ED91FC917F
:104430000680F781E02DB801C7010995080F111D0D
:10444000F701E084F184EECFD8011C92F6010190CF
:104450000020E9F73197BF016C197D0940E0C601E2
:10446000C1CF68E77EE002C06CE77EE061157105B0
:1044700009F2FB01449150E080E840CF0FB6F89478
:10448000A895809160008861809360001092600020
:104490000FBEA895EE3F2AE0F20739F08091FE0AA0
:1044A0009091FF0A91838083A1CF1092FF0A10920E
:1044B000FE0A9CCFEE3F8AE0F80731F080819181BF
:1044C0009093FF0A8093FE0A87E797E791838083A2
:1044D0009BE088E10FB6F894A895809360000FBE2A
:1044E0009093600083CF6C960FB6F894DEBF0FBE3A
:1044F000CDBFDF91CF91FF91EF91BF91AF919F9190
:104500008F917F916F915F914F913F912F911F916B
:104510000F91FF90EF90DF90CF900F900FBE0F9014
:104520001F90189540911708509118082091150870
:104530003091160842175307B4F49091E800957033
:10454000E1F39091E80092FD19C08093F100809111
:1045500017089091180801968F739927892B19F4E1
:104560008EEF8093E80080911708909118080196CB
:10457000909318088093170881E0089580E00895CB
:10458000615030F02091F100FC0120830196F8CFBA
:10459000289884E680931C080895CF93DF9300D079
:1045A00000D000D0CDB7DEB7789484B5826084BDEA
:1045B00084B5816084BD85B5826085BD85B5816027
:1045C00085BD80916E00816080936E0010928100A5
:1045D0008091810082608093810080918100816060
:1045E0008093810080918000816080938000809121
:1045F000910082608093910080919100816080930E
:104600009100809190008160809390008091C10022
:1046100084608093C1008091C10082608093C1005A
:104620008091C10081608093C1008091C30081604E
:104630008093C3008091C00082608093C00080910D
:10464000C20081608093C20080917A008460809370
:104650007A0080917A00826080937A0080917A005B
:10466000816080937A0080917A00806880937A00DC
:1046700010921D0810921A0810921B088091D70002
:1046800081608093D70080EA8093D80089B58061EB
:1046900089BD89B5826089BD09B400FEFDCF61E0A6
:1046A00070E080E090E00E942A098091D8008F7C21
:1046B00080618093D8008091E000807F8093E0004B
:1046C0008091E1008E7E8093E1008DE08093E20096
:1046D000559A209AEEEFFFE7859194918B3F9C4D80
:1046E00019F481E0809319081FB7F894809168014C
:1046F000811127C0E6E2FEE08491E9EFFDE09491AC
:10470000E82FF0E0EE0FFF1FE658FE4FA591B491A1
:10471000EC91E92321F461E081E10E948B0861E0E2
:1047200081E10E94EE088CB580618CBD8CB58064FF
:104730008CBD61E08FE00E94EE0861E080E10E94A4
:10474000EE08809168018F5F809368011FBF05E9C3
:1047500011E0F80184910E5F1F4F31966491882318
:1047600019F00E94EE08F5CF61E086E10E948B0807
:1047700061E070E080E090E00E942A0960E086E15C
:104780000E948B086AE070E080E090E00E942A09B5
:1047900061E086E10E948B08ECE2FEE0E491F0E04B
:1047A000EE0FFF1FE95FF14FA591B4919C918091AD
:1047B0006C01809589238C93EFEFFDE0E491E09309
:1047C0006C01EAE2FEE0E491F0E0EE0FFF1FE95F2A
:1047D000F14F8591949190936B0180936A01EDEF75
:1047E000FDE0E491E09369018CB58C7F8CBD8DB5C3
:1047F00081608DBDE0916A01F0916B0190818091A3
:104800006901809589238083E8E8F1E021E0E539BA
:10481000F20749F084918EBD00000DB407FEFDCF74
:104820008EB53196F3CFE0916A01F0916B019081E2
:1048300080916901892B80838091640081608093DD
:1048400064008091640082608093640080916400C1
:104850008068809364008091640080648093640029
:10486000809165008160809365000E94AE0983FF9E
:104870000BC080E094E01EBC00000DB407FEFDCF2D
:104880002EB50197C1F7FFCF3EEEA32EBB24BA94FD
:104890000E944519CC24C39420E1E22E08E52AECBD
:1048A00030E0A50164E170E089EA93E00E94BB0B6F
:1048B0008DEB93E00E94CC096BE170E080E090E02A
:1048C0000E942A0930EFA31206C06AEF70E080E070
:1048D00090E00E942A094FEFA41AB40A59E1A516E4
:1048E000B104B1F66EEE72E080E090E00E942A0919
:1048F0000E94D7180E94D7181092660182E090E0BB
:104900000E94FC2E882369F080916400877F809349
:10491000640080916500877F8093650081E08093CB
:10492000670181EA93E0A4E0A80FAC8310928101B3
:104930000E945419FF24FA9411E080E3A82EB12CB0
:1049400098E3892E912C0E946819882359F10E94BE
:10495000AE09982F917109F079C087FD02C086FFDA
:1049600005C09091030191279093030183FF0AC032
:10497000909100019F3F19F41093000103C09F5FC5
:104980009093000181FF0BC080910001813019F4E8
:10499000F092000105C081508093000101C0811197
:1049A0000E9454190E944519CC24C39400E2E02EC1
:1049B00000E623E932E040E050E06EE070E089EA92
:1049C00093E00E94BB0B05E32FEB31E04DE150E09B
:1049D00062E470E089EA93E00E94BB0B1092BE078C
:1049E0001092BD07B092C007A092BF0767EB71E0BD
:1049F00089EA93E00E9467084091000150E060E07E
:104A000070E02AE089EA93E00E940B081092BE074A
:104A10001092BD079092C0078092BF076FEA71E0C5
:104A200089EA93E00E94670880910301882319F0C6
:104A30006CEA71E002C068EA71E089EA93E00E94E2
:104A400067088DEB93E00E94CC097DCF6091000157
:104A500070E080E090E0611571058105910511F02D
:104A60000E94F32E01EA13E00E94EE2E2FEF30E0B9
:104A700040E050E00E94122FF80161938F01FC8109
:104A8000F013F2CF10928C0310928B0310928E03CE
:104A900010928D031092900310928F031092920344
:104AA0001092910381E090E090939403809393039C
:104AB00090939603809395038AEC95E09093BB01C5
:104AC0008093BA018AE090E09093BD018093BC018D
:104AD0001092BF011092BE011092C1011092C0014C
:104AE0001092C3011092C2011092C6011092C5012A
:104AF0001092C4010E94A61EA1E34A2EA4E05A2EE1
:104B0000BEE76B2EB4E07B2EFF24F39409EB14E098
:104B100080919C03882309F482C42FB7F894809174
:104B20009E0190919F01A091A001B091A1012FBF82
:104B300080937D0190937E01A0937F01B0938001CB
:104B400080910301882309F4D1C08091660181110D
:104B500032C0E090810127E02E1548F010936501E6
:104B600000936401109363010093620117C03BE05E
:104B70003E1548F070926501609264017092630185
:104B8000609262010BC04FE04E1560F050926501DB
:104B90004092640150926301409262010E94F00AC7
:104BA000F092660181E08E0D803119F080938101D1
:104BB00002C01092810180919F039091A003009701
:104BC000E1F0A3E1B4E0B0937801A0937701909372
:104BD0007601809375011092A00310929F03E2E08A
:104BE000F0E0F0930201E093010110927101109244
:104BF000720110927301109274012091750130912D
:104C000076012115310509F471C080907D019090E5
:104C10007E01A0907F01B090800140916D01509184
:104C20006E0160916F01709170018091710190919E
:104C30007201A0917301B0917401840F951FA61F9A
:104C4000B71F88169906AA06BB0608F44FC08091C4
:104C5000010190910201AC014F5F5F4F509302013F
:104C600040930101F901E80FF91F84918F3F59F436
:104C700010927601109275012FEF3FEF30930201F1
:104C80002093010133C0582F5F70F9019491319640
:104C9000E491E59FA0011124FA01E90FF11DAF0194
:104CA000FF0F660B770B40936D0150936E0160937D
:104CB0006F017093700182958F7090E081509048E1
:104CC000880F991FE0917701F0917801E80FF91FA3
:104CD00085919491969587950E945D1880927101B7
:104CE00090927201A0927301B092740140917D0183
:104CF00050917E0160917F017091800180917901D6
:104D000090917A01A0917B01B0917C018196A11DC7
:104D1000B11D84179507A607B70708F0F9CE409391
:104D2000790150937A0160937B0170937C010E941A
:104D300045190E94AE099091B20180FF06C0911101
:104D400007C091E09093B20103C091111092B2019B
:104D50009091B30184FF06C0911107C091E0909338
:104D6000B30103C091111092B3019091AF0183FF81
:104D700006C0911107C091E09093AF0103C091115B
:104D80001092AF019091B10181FF06C0911107C04F
:104D900091E09093B10103C091111092B1019091F3
:104DA000AE0187FF06C0911107C091E09093AE015C
:104DB00003C091111092AE019091B00186FF06C020
:104DC000911107C081E08093B00103C0911110924E
:104DD000B001E0908503F0908603C7019695982F67
:104DE0008827979587959C0121583F4F790180919D
:104DF000B301811102C083E001C084E02091AE01C3
:104E00009091B001211116C0911127C08091C0016D
:104E10009091C101181619062CF401979093C101C5
:104E20008093C0018091C0019091C10197FF2AC079
:104E3000019624C02091C0013091C1012150310957
:104E4000482F50E0519541955109241735070CF032
:104E5000B9C55093C1014093C001992399F02091A5
:104E6000C0013091C1012F5F3F4F90E0821793073F
:104E70002CF03093C1012093C00104C09093C10174
:104E80008093C0018091B201882361F086EB91E0AC
:104E90000E94910F882331F084E995E09093A0035C
:104EA00080939F038091B1018823C1F18091BC015F
:104EB0009091BD01803491058CF10091BE0110915B
:104EC000BF0186EB91E00E940A0FA801480F511D17
:104ED0004F5F5F4F6091BC017091BD0186EB91E027
:104EE0000E94A10E8B30D1F40091BE011091BF0140
:104EF00086EB91E00E940A0FD82E86EB91E00E948B
:104F0000930EBC01A8014D0D511D4F5F5F4F86EB05
:104F100091E00E94A10E8C3009F459C580919C0348
:104F2000833069F400919D0310919E0386EB91E01C
:104F30000E940A0F90E0081719070CF45AC58091D7
:104F40009C03843009F068C500919D0310919E0375
:104F500086EB91E00E940A0F90E0081719070CF009
:104F60005BC58091BE019091BF0101979093BF01F5
:104F70008093BE0180919D0390919E030196909332
:104F80009E0380939D0307EC11E04BE9242E45E03E
:104F9000342ED80151968C91882309F46DC0C80134
:104FA0000E94CC11F80160857185E616F70624F49D
:104FB000C8010E94800E60C0868197810E94C61F32
:104FC00081115DC5F801C084D184C8010E94930E8F
:104FD000B6010E94C61F811152C5C8010E94120F5E
:104FE000BC01D80116968D919C9117970E94C61FFF
:104FF000811145C5C8010E94120F6C01C8010E94B1
:10500000930EB6010E94C61F811139C535C080912B
:10501000BE019091BF01F801A084B184A816B90621
:105020000CF45C0186EB91E00E94120F4C01C80168
:105030000E94120F881699060CF031C586EB91E09C
:105040000E94120F8A159B050CF02BC5EFEFCE1AAC
:10505000DE0A86EB91E00E94930E5C01C8010E947B
:10506000930EA816B9060CF018C586EB91E00E94C5
:10507000930E8C159D055CF60D5E1F4F32E00538D2
:10508000130709F086CF80919C03813081F48091D1
:10509000BE019091BF01E816F9064CF482E08093BE
:1050A0009C0389E190E090939E0380939D038091FF
:1050B0009C03823009F04EC100919D0310919E0324
:1050C0000115110509F046C1809193039091940355
:1050D000019790939403809393030E942C1A8091DC
:1050E000930390919403892B89F110928C03109271
:1050F0008B038091950380FD02C008E510E08AECE7
:1051000095E09093BB018093BA018AE090E0909380
:10511000BD018093BC011093BF010093BE011092AA
:10512000C1011092C0011092C3011092C2011092ED
:10513000C6011092C5011092C4010E94A61E68EC1F
:1051400070E080E090E00E942A0904C18091BC01D7
:105150009091BD0197FD079633E0959587953A9517
:10516000E1F720918F0330919003820F931F90936A
:10517000900380938F0310929C03E090B401F09011
:10518000B50100E110E021E048E050E0B801C701BE
:105190000E94280D0F5F1F4F00371105A1F700E196
:1051A00010E021E047E350E0B801C7010E94280D5C
:1051B0000F5F1F4F00371105A1F708E010E021E055
:1051C000A80160E170E0C7010E94280D0F5F1F4F2A
:1051D00008331105A1F708E010E021E0A8016FE60F
:1051E00070E0C7010E94280D0F5F1F4F08331105A3
:1051F000A1F7C090B401D090B50121E1E22EF12CCD
:1052000009E010E020E0A801B701C6010E94280DC6
:105210000F5F1F4F07331105A9F74FEFE41AF40A88
:105220005FE6E516F10461F7A090B401B090B50116
:105230009CE0C92ED12CE12CF12C00E010E0F8010B
:1052400083E0F595E7958A95E1F7EE0DFF1DE55FA3
:10525000FA4F8491980127703327A0E8B0E002C08C
:10526000B595A7952A95E2F7E82FF0E0EA23FB230E
:10527000EF2B41F021E0A601B801625E7F4FC5012E
:105280000E94280D0F5F1F4F08341105C1F6B9E0C9
:10529000EB0EF11CEFEFCE1ADE0AFEE7EF16F1047B
:1052A00061F68091B4019091B501FC01EC5EFB4F79
:1052B0000AE110E01183008332962DE130E0318362
:1052C000208365E075E00E9467088091B4019091A9
:1052D000B501FC01EC5EFB4F24E130E0318320831B
:1052E000329625E230E0318320836EEF74E00E9435
:1052F00067088091B4019091B501FC01EC5EFB4F11
:105300001183008332962DE230E03183208368EFF1
:1053100074E00E94670860918D0370918E038DE1A7
:105320000E94791F60918F037091900385E20E9423
:10533000791F60918F037091900380918D039091FC
:105340008E03680F791F70938E0360938D038DE237
:105350000E94791F80919C03813069F420919D0304
:1053600030919E032115310531F0215031093093E0
:105370009E0320939D038350823008F03EC000912D
:105380009D0310919E0386EB91E00E940A0F90E02E
:105390000817190791F510929E0310929D038091B2
:1053A000BC019091BD0197FD079623E095958795E7
:1053B0002A95E1F720918F0330919003820F931F7C
:1053C0009093900380938F0380919503909196031F
:1053D000019690939603809395032AE030E03093F2
:1053E000BD012093BC0180FD76C388E590E09093D9
:1053F000BF018093BE010E94A61E80919C03811173
:105400000E942C1A1092BE071092BD071092C0077E
:105410001092BF078DEB93E00E94CC0975CB10E092
:105420008091A801181728F4812F0E94C70A1F5FD6
:10543000F7CF10926601E0908D03F0908E03E11497
:10544000F10409F40AC202E310E0312CC8010E9401
:105450003815D82EC80101960E9438152FEFD212A8
:1054600002C08F3F29F0282F30E0C9019D2902C0DA
:1054700080E090E08E159F0508F0E8C180E2898306
:105480008A838B830E94541910E0B4E1CB2ED12C77
:1054900008E3402E512CE12E012E000CFF0837E0CE
:1054A000E30EF11CE3E0EE0CFF1CEA95E1F7570177
:1054B00046E0A40EB11CF0E46F2E712CA8E48A2EF5
:1054C000912C0E94451980E190E09093BE07809353
:1054D000BD071092C0071092BF0765E076E089EA29
:1054E00093E00E94670880918E038F9380918D03D3
:1054F0008F93AEE5B1E0BF93AF93AEE8B1E0BF9359
:10550000AF930E94A82F28E530E03093BE07209388
:10551000BD071092C0071092BF070E941D1A50923B
:10552000BE074092BD07D092C007C092BF078981D5
:105530000E94121A7092BE076092BD07D092C007F7
:10554000C092BF078A810E94121A9092BE07809271
:10555000BD07D092C007C092BF078B810E94121A6C
:1055600001E02BE130E04EE350E06BE170E088E3D6
:1055700090E00E948B192BE130E046E450E06BE1B3
:1055800070E080E490E00E948B192BE130E04EE463
:1055900050E06BE170E088E490E00E948B1900E03D
:1055A0002CE130E048E550E06CE170E088E390E009
:1055B0000E948B1901E02CE130E0A5016CE170E064
:1055C000C7010E948B198DEB93E00E94CC090E94C9
:1055D00068190F900F900F900F900F900F908823E5
:1055E00009F46FCF0E94AE09082F87FD02C080FF2B
:1055F00011C0115017FD0DC080910301882351F097
:105600004AEF50E060E070E086E194E00E945D18AF
:1056100001C010E006FF11C01F5F13306CF48091D1
:105620000301882351F04AEF50E060E070E086E12A
:1056300094E00E945D1801C012E001FF45C0E12E18
:10564000012E000CFF08E1E0F0E0EC0FFD1FEE0D75
:10565000FF1DB080B394B08280910301882341F094
:105660004AEF50E060E070E08BE092E00E945D184D
:1056700030E3B31208C080E2E1E0F0E0EC0FFD1F80
:10568000EE0DFF1D8083E1E0F0E0EC0FFD1FEE0D5D
:10569000FF1D8081813211F481E48083E1E0F0E03C
:1056A000EC0FFD1FEE0DFF1D80818B3511F480E3A3
:1056B0008083E1E0F0E0EC0FFD1FEE0DFF1D808127
:1056C000803411F481E2808303FF45C0E12E012E76
:1056D000000CFF08E1E0F0E0EC0FFD1FEE0DFF1DF8
:1056E000B080BA94B08280910301882341F04AEFE0
:1056F00050E060E070E08BE092E00E945D1840E2D4
:10570000B41208C08FE3E1E0F0E0EC0FFD1FEE0DF6
:10571000FF1D8083E1E0F0E0EC0FFD1FEE0DFF1DAB
:1057200080818F3211F48AE58083E1E0F0E0EC0FB4
:10573000FD1FEE0DFF1D80818F3111F48FE28083FC
:10574000E1E0F0E0EC0FFD1FEE0DFF1D80818034E5
:1057500011F480E2808304FF1CC0809103011230A9
:1057600064F41F5F8823C1F04AEF50E060E070E00E
:1057700086E194E00E945D180FC0882309F44CC0B4
:105780004AEF50E060E070E086E194E00E945D182E
:1057900043C0002309F47FCE0E9454197CCE8F3F72
:1057A00009F451C0E82EF12CFD283801B4E36B0E4A
:1057B000711CC3010E943815482E6801E5E3CE0E26
:1057C000D11CC6010E943815582E0A5C1F4FC80113
:1057D0000E943815282E60918E03C4010E94361550
:1057E00060918D03C5010E9436156981C3010E9435
:1057F00036156A81C6010E9436156B81C8010E9468
:105800003615F0928E03E0928D0349825A822B82E4
:105810003394FAE03F1609F155E0359E80011124DA
:10582000480182E3880E911CC4010E943815D82ECD
:10583000580193E3A90EB11CC5010E943815AFEFC2
:10584000DA12B0CFACCFE12CF12CAFCF33940B5F99
:105850001F4F0436110509F0F9CD0E94451980E269
:1058600090E09093BE078093BD071092C0071092FE
:10587000BF0760E176E089EA93E00E94670802E3EF
:1058800010E03AE0E32EF12C612C712C4EE8C42E8E
:1058900041E0D42E58E1252E312C67E5A62E61E09B
:1058A000B62E70E3872E912C2FEF621A720A7F9228
:1058B0006F92A3E5B1E0BF93AF93DF92CF920E94C6
:1058C000A82F3092BE072092BD07F092C007E09249
:1058D000BF070E941D1AC8010E943815582EC80122
:1058E00001960E9438150F900F900F900F900F9017
:1058F0000F90FFEF5F1203C08F3F09F441C090E0AB
:105900009C0135292901232BD9F1C80104960E9455
:105910003815382FC80103963E830E943815282F6A
:10592000C80102962D830E9438155F924F923E81E6
:10593000432F032E000C550B5F933F932D81422F75
:10594000022E000C550B5F932F93282F082E000C6E
:10595000330B3F938F93BF92AF92DF92CF920E940F
:10596000A82F9092BE078092BD07F092C007E092E8
:10597000BF070E941D1A0FB6F894DEBF0FBECDBF41
:1059800058E0E50EF11C0B5F1F4F8AE068167104AA
:1059900009F08ACF8DEB93E00E94CC090E94541944
:1059A0000E94AE098823E1F30E9468198823C1F39D
:1059B00080E090E0892B11F40C9496240E94000062
:1059C0000C9491243093C1012093C00146CA809168
:1059D000B8019091B901FC01EF50FE4F29E835E084
:1059E00031832083339723E0208331961182108204
:1059F00095CA8091BE019091BF0101969093BF011D
:105A00008093BE0180919D0390919E030196909397
:105A10009E0380939D0393CA80919C03823029F555
:105A200020919D0330919E038091BE019091BF0112
:105A30002A31310514F0019701C002969093BF01FD
:105A40008093BE018091BE019091BF01E816F906D6
:105A50002CF410929E0310929D0395CA2150310997
:105A600030939E0320939D038ECA813009F08BCA28
:105A700086EB91E00E9412100E94511C84CA809112
:105A8000BC019091BD01D8011696CD90DC9017977E
:105A9000C816D9060CF0DDCA1CC0C801E8CAC80186
:105AA000CFCAA501B60186EB91E00E94E0148823DD
:105AB00061F0D801ED91FC910190F081E02DA501FC
:105AC000B601C8010995811109C0BFEFAB1ABB0A25
:105AD000A9CA6C01BECA80E090E089CCF80184813B
