:100000000C9431060C9459060C9459060C9459061C
:100010000C9459060C9459060C9459060C945906E4
:100020000C9459060C9459060C9421150C949315B4
:100030000C9459060C9459060C9459060C945906C4
:100040000C9459060C9459060C9459060C945906B4
:100050000C9459060C9459060C9459060C943B0DBB
:100060000C9459060C9459060C9459060C94590694
:100070000C9459060C9459060C9459060C94590684
:100080000C943D0E0C9459060C9459060C94590688
:100090000C9459060C9459060C9459060C94590664
:1000A0000C9459060C9459060C945906A51DDF1D95
:1000B000C51DC81DC51DC51D8E1DC51DC51DC51D64
:1000C000301EF61DC51DC51DC51DC51DC51D131E34
:1000D0008C1EC21E331FAB1E331F331F751E331FF2
:1000E000331F331F131FD91E331F331F331F331FFB
:1000F000331FF61E0A07B7062307A60623072307A2
:100100008F06230723072307E106CB0623072307D0
:10011000230723072307F006E317D217E517D417A1
:10012000D617D817DA17DC17DE17E017F0F89C8E11
:100130008783878E9CF8F00000FEFF030303030310
:10014000070EFCF80000FEFF0303030303070EFC89
:10015000F80000FFFF00000000000000FFFF0000AB
:10016000FEFF8383838383C7EE7C380000F8FC0E98
:1001700007030303070EFCF800003F7FE0C0808008
:10018000C0E07F3FFFFF01010101010101FFFF000E
:1001900000FFFF0C0C0C0C1C3E77E3C100007FFF3E
:1001A000C0C0C0C0C0E0703F1F00001F3F70E0C073
:1001B000C0C0E0703F1F00007FFFC1C1C1C1C1E3EB
:1001C000773E1C00001F3F70E0C0C0C0E0703F1FC2
:1001D000000000000001FFFF01000000D5F08D14B9
:1001E000A1C881CFD9F1AF2000010204081020403E
:1001F0008000000000003E5B4F5B3E3E6B4F6B3E5D
:100200001C3E7C3E1C183C7E3C181C577D571C1C19
:100210005E7F5E1C00183C1800FFE7C3E7FF001874
:10022000241800FFE7DBE7FF30483A060E2629795D
:100230002926407F050507407F05253F5A3CE73CBE
:100240005A7F3E1C1C08081C1C3E7F14227F22146F
:100250005F5F005F5F06097F017F006689956A60C6
:100260006060606094A2FFA29408047E04081020DD
:100270007E201008082A1C08081C2A08081E1010D6
:1002800010100C1E0C1E0C30383E3830060E3E0E80
:1002900006000000000000005F00000007000700EB
:1002A000147F147F14242A7F2A12231308646236D1
:1002B000495620500008070300001C22410000415D
:1002C000221C002A1C7F1C2A08083E080800807097
:1002D00030000808080808000060600020100804CA
:1002E000023E5149453E00427F400072494949461D
:1002F0002141494D331814127F1027454545393C9B
:100300004A49493141211109073649494936464987
:1003100049291E00001400000040340000000814A9
:100320002241141414141400412214080201590922
:10033000063E415D594E7C1211127C7F4949493677
:100340003E414141227F4141413E7F494949417FF0
:10035000090909013E414151737F0808087F0041A6
:100360007F41002040413F017F081422417F4040EF
:1003700040407F021C027F7F0408107F3E414141C4
:100380003E7F090909063E4151215E7F0919294630
:10039000264949493203017F01033F4040403F1F46
:1003A0002040201F3F4038403F631408146303047B
:1003B0007804036159494D43007F414141020408DB
:1003C0001020004141417F040201020440404040AE
:1003D00040000307080020545478407F28444438E4
:1003E0003844444428384444287F3854545418002E
:1003F000087E090218A4A49C787F080404780044AD
:100400007D40002040403D007F1028440000417F97
:1004100040007C047804787C080404783844444420
:1004200038FC1824241818242418FC7C0804040818
:10043000485454542404043F44243C4040207C1C31
:100440002040201C3C4030403C44281028444C9024
:1004500090907C4464544C4400083641000000777E
:100460000000004136080002010204023C26232657
:100470003C1EA1A161123A4040207A38545455598B
:1004800021555579412154547841215554784020C3
:10049000545579400C1E52721239555555593954DC
:1004A00054545939555454580000457C4100024574
:1004B0007D420001457C40F0292429F0F0282528C0
:1004C000F07C545545002054547C547C0A097F49E3
:1004D00032494949323248484832324A4848303A2B
:1004E0004141217A3A42402078009DA0A07D3944C4
:1004F0004444393D4040403D3C24FF2424487E494B
:1005000043662B2FFC2F2BFF0929F620C0887E097C
:100510000320545479410000447D413048484A3218
:10052000384040227A007A0A0A727D0D19317D2600
:1005300029292F28262929292630484D40203808E6
:1005400008080808080808382F10C8ACBA2F102867
:1005500034FA00007B000008142A142222142A1402
:10056000089500220095AA005500AAAA55AA55AAE6
:10057000000000FF00101010FF00141414FF001002
:1005800010FF00FF1010F010F0141414FC001414ED
:10059000F700FF0000FF00FF1414F404FC1414170C
:1005A000101F10101F101F1414141F00101010F033
:1005B000000000001F101010101F10101010F0107D
:1005C000000000FF101010101010101010FF10008D
:1005D0000000FF140000FF00FF00001F10170000C4
:1005E000FC04F414141710171414F404F40000FF9E
:1005F00000F714141414141414F700F71414141737
:100600001410101F101F141414F4141010F010F014
:1006100000001F101F0000001F14000000FC140049
:1006200000F010F01010FF10FF141414FF1410103D
:10063000101F00000000F010FFFFFFFFFFF0F0F0C0
:10064000F0F0FFFFFF0000000000FFFF0F0F0F0F93
:100650000F38444438447C2A2A3E147E020206069F
:10066000027E027E0263554941633844443C0440A3
:100670007E201E2006027E020299A5E7A5991C2A6B
:10068000492A1C4C7201724C304A4D4D303048782A
:100690004830BC625A463D3E494949007E0101014D
:1006A0007E2A2A2A2A2A44445F444440514A44402C
:1006B00040444A51400000FF0103E080FF00000871
:1006C000086B6B083612362436060F090F06000039
:1006D00018180000001010003040FF0101001F0139
:1006E000011E00191D1712003C3C3C3C000000009C
:1006F0000000000000003E5B4F5B3E3E6B4F6B3ED8
:100700001C3E7C3E1C183C7E3C181C577D571C1C14
:100710005E7F5E1C00183C1800FFE7C3E7FF00186F
:10072000241800FFE7DBE7FF30483A060E26297958
:100730002926407F050507407F05253F5A3CE73CB9
:100740005A7F3E1C1C08081C1C3E7F14227F22146A
:100750005F5F005F5F06097F017F006689956A60C1
:100760006060606094A2FFA29408047E04081020D8
:100770007E201008082A1C08081C2A08081E1010D1
:1007800010100C1E0C1E0C30383E3830060E3E0E7B
:1007900006000000000000005F00000007000700E6
:1007A000147F147F14242A7F2A12231308646236CC
:1007B000495620500008070300001C224100004158
:1007C000221C002A1C7F1C2A08083E080800807092
:1007D00030000808080808000060600020100804C5
:1007E000023E5149453E00427F4000724949494618
:1007F0002141494D331814127F1027454545393C96
:100800004A49493141211109073649494936464982
:1008100049291E00001400000040340000000814A4
:10082000224114141414140041221408020159091D
:10083000063E415D594E7C1211127C7F4949493672
:100840003E414141227F4141413E7F494949417FEB
:10085000090909013E414151737F0808087F0041A1
:100860007F41002040413F017F081422417F4040EA
:1008700040407F021C027F7F0408107F3E414141BF
:100880003E7F090909063E4151215E7F091929462B
:10089000264949493203017F01033F4040403F1F41
:1008A0002040201F3F4038403F6314081463030476
:1008B0007804036159494D43007F414141020408D6
:1008C0001020004141417F040201020440404040A9
:1008D00040000307080020545478407F28444438DF
:1008E0003844444428384444287F38545454180029
:1008F000087E090218A4A49C787F080404780044A8
:100900007D40002040403D007F1028440000417F92
:1009100040007C047804787C08040478384444441B
:1009200038FC1824241818242418FC7C0804040813
:10093000485454542404043F44243C4040207C1C2C
:100940002040201C3C4030403C44281028444C901F
:1009500090907C4464544C44000836410000007779
:100960000000004136080002010204023C26232652
:100970003C1EA1A161123A4040207A385454555986
:1009800021555579412154547841215554784020BE
:10099000545579400C1E52721239555555593954D7
:1009A00054545939555454580000457C410002456F
:1009B0007D420001457C40F0292429F0F0282528BB
:1009C000F07C545545002054547C547C0A097F49DE
:1009D00032494949323248484832324A4848303A26
:1009E0004141217A3A42402078009DA0A07D3944BF
:1009F0004444393D4040403D3C24FF2424487E4946
:100A000043662B2FFC2F2BFF0929F620C0887E0977
:100A10000320545479410000447D413048484A3213
:100A2000384040227A007A0A0A727D0D19317D26FB
:100A300029292F28262929292630484D40203808E1
:100A400008080808080808382F10C8ACBA2F102862
:100A500034FA00007B000008142A142222142A14FD
:100A6000089500220095AA005500AAAA55AA55AAE1
:100A7000000000FF00101010FF00141414FF0010FD
:100A800010FF00FF1010F010F0141414FC001414E8
:100A9000F700FF0000FF00FF1414F404FC14141707
:100AA000101F10101F101F1414141F00101010F02E
:100AB000000000001F101010101F10101010F01078
:100AC000000000FF101010101010101010FF100088
:100AD0000000FF140000FF00FF00001F10170000BF
:100AE000FC04F414141710171414F404F40000FF99
:100AF00000F714141414141414F700F71414141732
:100B00001410101F101F141414F4141010F010F00F
:100B100000001F101F0000001F14000000FC140044
:100B200000F010F01010FF10FF141414FF14101038
:100B3000101F00000000F010FFFFFFFFFFF0F0F0BB
:100B4000F0F0FFFFFF0000000000FFFF0F0F0F0F8E
:100B50000F38444438447C2A2A3E147E020206069A
:100B6000027E027E0263554941633844443C04409E
:100B70007E201E2006027E020299A5E7A5991C2A66
:100B8000492A1C4C7201724C304A4D4D3030487825
:100B90004830BC625A463D3E494949007E01010148
:100BA0007E2A2A2A2A2A44445F444440514A444027
:100BB00040444A51400000FF0103E080FF0000086C
:100BC000086B6B083612362436060F090F06000034
:100BD00018180000001010003040FF0101001F0134
:100BE000011E00191D1712003C3C3C3C0000000097
:100BF00000080B00020202010009040000010202C9
:100C0000000005240010010524010101042402064E
:100C100005240600010705810310004009040100B6
:100C2000020A0000000705020240000007058302D7
:100C30004000000403090412010002EF02014041D8
:100C400023368000010102030141726475696E6FF1
:100C5000204C4C430041424C3133303600005B2184
:100C6000552111241FBECFEFDAE0DEBFCDBF12E069
:100C7000A0E0B1E0E0E2F4E502C005900D92AC35F1
:100C8000B107D9F728E0ACE5B2E001C01D92A93167
:100C9000B207E1F716E0C0E3D6E004C02197FE01F9
:100CA0000E94E827CF32D107C9F70E941F190C9480
:100CB000032A0C940000FC0131969C01275F3F4FF2
:100CC0005AE0DF0111974C919081549FD00111247B
:100CD000A90FB11DA358BD4F8C9181110AC0453198
:100CE00048F49A3038F43296E217F30751F781E06E
:100CF000089580E008958093040180930301082EF5
:100D0000000C990BAA0BBB0BFC01E956F109E2316F
:100D1000F10508F098C0E658FF4F0C94E82781E0F1
:100D200080934F0394E09093500322E0209351036B
:100D3000909352038093530395E090935403209330
:100D40005503909356038093020161C082E0809323
:100D50004F0394E0909350038093510323E020933A
:100D600052038093530325E02093540310C082E084
:100D700080934F0394E0909350038093510323E0BA
:100D8000209352038093530335E03093540331E0B2
:100D90003093550352C082E080934F0394E09093C8
:100DA00050038093510323E0209352038093530315
:100DB00025E02093540321E020935503909356039C
:100DC0003EC092E090934F0384E080935003909351
:100DD000510323E02093520321E0209353030EC0DC
:100DE00092E090934F0384E08093500321E020939E
:100DF000510333E0309352039093530335E0309323
:100E000054032093550380935603909302018093DB
:100E10000301089581E080934F0394E09093500381
:100E20008093510393E0909352038093530395E092
:100E3000909354038093550326E0209356038093A8
:100E40000201909303010895CF92DF92EF92FF92F7
:100E5000CF93C82F0E94742427E0C22ED12CE12CFE
:100E6000F12CA70196010E94BC256F3F7F4F8F4F49
:100E70009F4F9CF00E947424A70196010E94BC25FC
:100E80006F5F7F4F8F4F9F4F0E94892420E030E09B
:100E900040E05FE30E94572612C00E947424A7011D
:100EA00096010E94BC256F5F7F4F8F4F9F4F0E941E
:100EB000892420E030E040E05FE30E9456260E9453
:100EC00035276330710581059105E1F064F46130E7
:100ED000710581059105A1F06230710581059105CB
:100EE000B9F48CE616C0653071058105910571F085
:100EF0005CF0663071058105910551F48AE709C0FF
:100F000089E607C08AE605C084E703C083E701C01D
:100F10008FE680930001C11180930401CF91FF906F
:100F2000EF90DF90CF900895EF92FF920F931F9371
:100F3000CF93DF931F92CDB7DEB77C01FC01008118
:100F40001181C80169830E94A6256981681719F07B
:100F5000C8010E94AE25C7010F90DF91CF911F916C
:100F60000F91FF90EF9008952F923F924F925F92D2
:100F70006F927F928F929F92AF92BF92CF92DF92A9
:100F8000EF92FF920F931F93CF93DF93CDB7DEB70E
:100F90002F970FB6F894DEBF0FBECDBF8E010F5F47
:100FA0001F4F98E0F80111929A95E9F720E030E0A0
:100FB000D901A15BBC4FF801E20FF31F9C91908314
:100FC00011969C9191832E5F3F4F2830310581F718
:100FD0008C3609F44CC3823709F47AC3843609F09D
:100FE00047C480E090E04AE0FC01E15BFC4F2081D7
:100FF0003181429FF0011124E30FF11DE358FD4FB1
:101000001082F801E80FF91F2F5F208302968830C5
:10101000910551F7C8010E945B06882391F080E09A
:1010200090E0D801A80FB91FFC01E15BFC4F2C91A7
:10103000208311962C91218302968830910589F79F
:1010400017C480E090E04AE021E0FC01E15BFC4F46
:101050003181E0814E9FF0011124E30FF11DE3582F
:10106000FD4F208302968830910579F78091000129
:101070000E947B068FE493E00E945B068111EDC223
:101080000E94850D80E492E00E94DC120E94D01242
:1010900081E00E9403138111A1C00E94D0120E941E
:1010A000A01320E440E860E070E080E090E00E945F
:1010B000A01249E568E070E088E790E00E94E61140
:1010C0004FE46EE070E088E790E00E94E61145E5AD
:1010D00064E170E088E790E00E94E6114CE46CE186
:1010E00070E088E790E00E94E6114FE462E270E071
:1010F00088E790E00E94E61143E568E270E088E747
:1011000090E00E94E61145E46EE270E088E790E02E
:101110000E94E61141E264E370E088E790E00E94FB
:10112000E61143E56EE070E084E690E00E94E6118F
:1011300043E465E170E084E690E00E94E6114FE44C
:101140006CE170E084E690E00E94E61142E563E223
:1011500070E084E690E00E94E61145E46AE270E007
:1011600084E690E00E94E6114AE36FE270E084E6D4
:1011700090E00E94E61182E00E94C317482F6EE0C3
:1011800070E08AE590E00E94E61181E00E94C317BA
:10119000482F65E170E08AE590E00E94E61180E06A
:1011A0000E94C317482F6CE170E08AE590E00E942E
:1011B000E61140E363E270E08AE590E00E94E61108
:1011C00040E36AE270E08AE590E00E94E6118BE875
:1011D00097E00E94EE0E0E94D20E5ACF80916302D9
:1011E00090916402181619060CF454C00E94A013C2
:1011F00048E461E070E08FE790E00E94E61149E486
:1012000067E070E08FE790E00E94E61147E46DE050
:1012100070E08FE790E00E94E61148E463E170E03F
:101220008FE790E00E94E61143E56CE170E08FE704
:1012300090E00E94E61143E462E270E08FE790E004
:101240000E94E6114FE468E270E08FE790E00E94B0
:10125000E61142E56EE270E08FE790E00E94E61151
:1012600045E464E370E08FE790E00E94E61143E517
:101270006AE370E08FE790E00E94E6118BE897E068
:101280000E94EE0E74ECC72ED12C0CE610E0A12CBF
:10129000B12C34C1C09066028091670290916502C2
:1012A000FAE0CF9E60011124C90ED11C24E6829F72
:1012B000C00CD11C112464ECA62EB12CF12CC5015C
:1012C0000E944D11082FC50101960E944D11182F43
:1012D000C50102960E944D111F3F21F48F3F11F46A
:1012E0000F3F61F09AE0199F90011124280F311DE2
:1012F000E4E60E9F200D311D112402C020E030E0F5
:101300002C153D0508F0F0C00E94A01380E28093E8
:1013100058038093590380935A0310E081E2E82E2A
:1013200090E3D92E21E4C22E00E23FE2B32E4AE53B
:10133000A42E5FE3952E8BE897E00E94EE0E0E94AC
:10134000A01348E463E070E08FE790E00E94E611AC
:1013500049E469E070E08FE790E00E94E61147E41D
:101360006FE070E08FE790E00E94E61148E465E1ED
:1013700070E08FE790E00E94E61143E56EE170E0D7
:101380008FE790E00E94E61143E464E270E08FE7AB
:1013900090E00E94E6114FE46AE270E08FE790E08F
:1013A0000E94E61142E560E370E08FE790E00E9462
:1013B000E61145E466E370E08FE790E00E94E611F5
:1013C00040916702405D65E170E083E790E00E9434
:1013D000E61140916602405D6BE170E083E790E0CA
:1013E0000E94E61140916502405D61E270E083E792
:1013F00090E00E94E6114091580365E170E087E5B6
:1014000090E00E94E611409159036CE170E087E59D
:1014100090E00E94E61140915A0364E270E087E593
:1014200090E00E94E611F7E01F9FB00111249B019C
:10143000255E3F4F6C5E7F4F40E550E080E590E0D9
:101440000E940E1364E670E080E090E00E94010DBF
:101450000E94B40E83FF02C0111111500E94B40EFD
:1014600081FF03C0123008F41F5F0E94B40E86FF94
:1014700017C0E12FF0E0E85AFC4F80818F5F803386
:1014800011F0808301C000838081813209F4C08221
:1014900080818B3509F4D0828081803409F4E08228
:1014A0000E94B40E87FF17C0E12FF0E0E85AFC4F0E
:1014B00080818150803211F0808301C090828081D0
:1014C0008F3209F4A08280818F3109F4B08280814B
:1014D000803409F400830E94B40E84FD2AC10E9466
:1014E000B40E80FD26C127CFF394E6E0AE0EB11C0A
:1014F000A114F1E0BF0609F0E2CE78CE41E329E085
:10150000A216B10429F04A0D60E070E0C8010BC0DA
:101510006FEF7FEF82E190E00E94391240E364E0D8
:1015200070E082E190E00E9439128BE897E00E941F
:10153000EE0EC6010E944D11982EC60101960E9422
:101540004D11F82EC60102960E944D11E82EC601DB
:1015500003960E944D11482F80935803C6010496AC
:101560004E870E944D11782E80935903C60105962F
:101570000E944D11882E80935A034E85E11005C0BC
:10158000F11003C0992009F449C06CE070E0C80173
:101590000E943912472D62E170E0C8010E943912A1
:1015A000482D68E170E0C8010E9439128BE897E08D
:1015B0000E94EE0E40E34E0D911011C0F1103BC1A0
:1015C00064E270E0C8010E94391240E36AE270E010
:1015D000C8010E94391240E360E370E041C16AE251
:1015E00070E0C8010E94391240E34F0D64E270E0E0
:1015F000C8010E94391240E3490D6EE170E0C80154
:101600000E94391240E360E370E0C8010E94391281
:1016100040E366E370E0C8010E9439128FEFA81A18
:10162000B80A0A50110996E0C90ED11CEAE0AE16BC
:10163000B10409F063CF8BE897E00E94EE0E0E94A0
:10164000D01281E00E940313811105C00E94D012C4
:101650000E94D20EF6CF0E94E7178091000180937E
:1016600004018093030180E00E94240701C180E00F
:1016700090E03AE0FC01E15BFC4F2181E0813E9F7C
:10168000F0011124E20FF11DE358FD4F1082F80123
:10169000E80FF91F2150218302968830910551F7F8
:1016A000C8010E945B06882309F4E2C080E090E054
:1016B000D801A80FB91FFC01E15BFC4F2C912083DE
:1016C00011962C91218302968830910589F7D0C01C
:1016D00080E090E03AE0FC01E15BFC4F2181E08199
:1016E0003E9FF0011124E20FF11DE358FD4F1082DF
:1016F000F801E80FF91F2F5F2183029688309105CA
:1017000051F7C8010E945B06882309F4B1C080E04C
:1017100090E0D801A80FB91FFC01E15BFC4F2C91B0
:10172000208311962C91218302968830910589F7A8
:101730009FC0123010F41F5FFECD609167023090A1
:101740006602E090650226E0F29E800111242801E5
:1017500084EC480E511CC2016B870E944D11282F4A
:10176000380195EC690E711CC3012F870E944D1141
:10177000282E4801E6EC8E0E911CC4010E944D11EA
:10178000582F5801F7ECAF0EB11CC5015D870E94C0
:101790004D11482F680188ECC80ED11CC6014E8738
:1017A0000E944D11382F07531F4FC8013C870E94DC
:1017B0004D11782F5A8649866B85CE0109967B8715
:1017C0000E9494077A866986632DCE0109960E944D
:1017D00094079A8689866E2DCE0109960E949407F9
:1017E00060915803BA86A986CE0109960E94940793
:1017F00060915903DA86C986CE0109960E94940742
:1018000060915A031A870987CE0109960E949407AE
:101810004E85409358033C85309359037B857093E4
:101820005A03F3942F85622F322C5D85E52E9AE0C2
:10183000F91289CFDBCC6AE270E0C8010E9439124C
:1018400040E34F0D64E270E0C8010E94391240E3AA
:1018500060E370E0C8010E94391240E366E370E083
:10186000C8010E9439128BE897E00E94EE0ED6CE96
:101870002F960FB6F894DEBF0FBECDBFDF91CF918C
:101880001F910F91FF90EF90DF90CF90BF90AF909E
:101890009F908F907F906F905F904F903F902F9090
:1018A0000895CF92DF92EF92FF920F931F93CF9301
:1018B000DF936C017A018B01C0E0D0E0CE15DF052B
:1018C00089F0D8016D918D01D601ED91FC910190C7
:1018D000F081E02DC6010995892B11F47E0102C02B
:1018E0002196ECCFC701DF91CF911F910F91FF900F
:1018F000EF90DF90CF90089580916003E0915E03B8
:10190000F0915F03882349F0CF01029690935F0323
:1019100080935E03859194910895CF0102969093F0
:101920005F0380935E0380819181089580915B03C2
:10193000089508950E94E529EF92FF920F931F9357
:10194000CF93DF93EC017B018A0188819981009715
:1019500029F02A813B8124173507F8F4B8016F5F1D
:101960007F4F0E941B29009759F0998388831B831E
:101970000A832C813D81232B81F4FC0110820DC050
:1019800088819981009711F00E948328198218821A
:101990001D821C821B821A8207C01D830C83B70123
:1019A000888199810E94FC29CE01DF91CF911F91FE
:1019B0000F91FF90EF9008953FB7F89480916803DE
:1019C00090916903A0916A03B0916B0326B5A89B1F
:1019D00005C02F3F19F00196A11DB11D3FBFBA2FC1
:1019E000A92F982F8827820F911DA11DB11DBC0121
:1019F000CD0142E0660F771F881F991F4A95D1F7E6
:101A000008958F929F92AF92BF92CF92DF92EF9202
:101A1000FF926B017C010E94DC0C4B015C01C11444
:101A2000D104E104F104F1F00E94DC0CDC01CB01F3
:101A300088199909AA09BB09883E9340A105B105F7
:101A400070F321E0C21AD108E108F10888EE880E8F
:101A500083E0981EA11CB11CC114D104E104F1045F
:101A600019F7DDCFFF90EF90DF90CF90BF90AF9050
:101A70009F908F9008951F920F920FB60F9211248E
:101A80002F933F938F939F93AF93BF9380915F0268
:101A900090916002A0916102B0916202309167035F
:101AA00023E0230F2D3720F40196A11DB11D05C0A1
:101AB00026E8230F0296A11DB11D20936703809392
:101AC0005F0290936002A0936102B09362028091E2
:101AD000680390916903A0916A03B0916B0301962A
:101AE000A11DB11D8093680390936903A0936A03BD
:101AF000B0936B03BF91AF919F918F913F912F91C5
:101B00000F900FBE0F901F901895E1E7F0E08081D5
:101B10008D7F8083109291002D982D9810925E02F7
:101B20000895CF92DF92EF92FF920F931F93CF937E
:101B3000DF930E947C0C811520E8920751F4DF911D
:101B4000CF911F910F91FF90EF90DF90CF900C9469
:101B5000850D21E020935E02813020E8920751F448
:101B600080915C0390915D0390935F0380935E038B
:101B70000E947C0C97FD05C020915C02222309F491
:101B800040C020915D0221113CC021E020936103FF
:101B9000EC01DF77209769F481E0809362032D9850
:101BA0003FE9C32E3FE0D32EE12CF12CCAEFD0E069
:101BB00014C08E0120E030E060E472E48FE090E039
:101BC000A90198010E94BC2569017A0181E0C81A27
:101BD000D108E108F10810926203E0917007F091DA
:101BE00071070995811103C081E0809362038091A0
:101BF0006103882309F43FC08091620381113BC0D7
:101C000003C010926103C4CF2D9935C02D9A0E9454
:101C10007C0C009771F09C01DE010E944726DC01DC
:101C2000CB0129E0B595A795979587952A95D1F78A
:101C300003C08FEF9FEFDC01109290002AE0209309
:101C40009100D0929900C092980080936303909382
:101C50006403A0936503B093660380917100826072
:101C600080937100DF91CF911F910F91FF90EF90C2
:101C7000DF90CF9008952D98CACF1F920F920FB684
:101C80000F9211242F933F934F935F936F937F9302
:101C90008F939F93AF93BF93EF93FF9380916303D1
:101CA00090916403A0916503B0916603892B8A2B00
:101CB0008B2B81F18091620381110BC095B180E281
:101CC000982795B990916103992319F095B18927C7
:101CD00085B98091630390916403A0916503B091ED
:101CE0006603181619061A061B06B4F480916303DE
:101CF00090916403A0916503B09166030197A109D7
:101D0000B1098093630390936403A0936503B09338
:101D1000660302C00E94910DFF91EF91BF91AF91B8
:101D20009F918F917F916F915F914F913F912F91F3
:101D30000F900FBE0F901F9018959C01E1E7F0E007
:101D400090819D7F90831092600330935F03209376
:101D50005E0330935D0320935C030C94910DBC01F2
:101D600080E090E00C94010D83B12FB199B130E087
:101D70002095309520783327A90124E05595479583
:101D80002A95E1F7292F30E02095309528713327E7
:101D900053E0359527955A95E1F7242B8095807D62
:101DA000822B089583B7817F83BF83B7816083BF10
:101DB000889583B78E7F83BF08958EBD00000DB4D4
:101DC00007FEFDCF089510925B032598259808958E
:101DD000259A259A81E080935B0308958091700392
:101DE0008EBDE1E7F3E081910DB407FEFDCF8EBD1E
:101DF00087E0E037F807B9F70DB407FEFDCF089587
:101E000060387105D0F440345105B8F4E9EEF1E0E2
:101E100080E1849FD001A0781124A60F4770E40FC1
:101E2000F11D8491A059BC4F222319F06C91862B8F
:101E300003C080956C9186238C9308952F923F92D6
:101E40004F925F926F927F928F929F92AF92BF92CA
:101E5000CF92DF92EF92FF920F931F93CF93DF9376
:101E6000CDB7DEB729970FB6F894DEBF0FBECDBF52
:101E7000FC016A3069F4248D808D918D38E0239FB8
:101E8000800D911D1124918F808F178A168AAAC008
:101E90006D3009F4A7C099878887F48C338C228C25
:101EA000608C718C0689178900381105C4F0A885EB
:101EB000B9855C962C915C97422F50E056968D9197
:101EC0009C915797B6E02B9F800D911D1124E885BA
:101ED000F985978B868B258D21116EC083C0F0E428
:101EE0006F16710424F7C80125E0F29E800D911D44
:101EF000112418161906DCF68F2D90E09C838B8335
:101F0000C301A8E0FA9E800D911D11241816190630
:101F100074F6B5E06B9FB0011124FB01EF50FE4F4A
:101F2000FA83E98330E08885998504969E838D83C2
:101F3000E981FA81E490353009F4E12C430188E02D
:101F4000482EE0FC02C0532C01C0522C51100BC093
:101F5000321009C0E6944A948B819C81880E991EA8
:101F60004110EFCF1BC068018C2D801B8F1590F79F
:101F700054018A2D88198F1568F4252DA501B60105
:101F80008D819E813F830E94000F9FEFA91AB90A9D
:101F90003F81EFCFAFEFCA1ADA0AE6CF3F5FEB819E
:101FA000FC810E0F1F1F89819A8101969A83898374
:101FB000363009F0BDCF7BCF6AEF64039001659F97
:101FC000300D112420583F4F281739075CF4A8859D
:101FD000B985ED91FC9111970190F081E02D6AE0B7
:101FE000CD01099581E090E029960FB6F894DEBF07
:101FF0000FBECDBFDF91CF911F910F91FF90EF905A
:10200000DF90CF90BF90AF909F908F907F906F9018
:102010005F904F903F902F900895CF92DF92EF9274
:10202000FF922091F8013091F9014091FA0150910D
:10203000FB0160E070E080E492E40E94C3266B0143
:102040007C0120E030E0A9010E94C32720E030E0BD
:1020500040E05FE387FD05C0C701B6010E94572637
:1020600004C0C701B6010E9456260E943527E4E04D
:10207000660F771F881F991FEA95D1F70E94892460
:102080002FE632E143E85FE30E94E82420E030E0FD
:1020900040E450E40E94E82420E030E040E05FE3C8
:1020A0000E94E8240E943C2770937B0760937A0784
:1020B00020E030E0A901C701B6010E94C32720E05B
:1020C00030E040E05FE387FD05C0C701B6010E9434
:1020D000572604C0C701B6010E9456260E94352724
:1020E00054E0660F771F881F991F5A95D1F70E94F9
:1020F00089242FE632E143E85FE30E94E8249B0154
:10210000AC010E94572620E030E040E05FE30E94EF
:10211000E8240E943C27709379076093780720E0B9
:1021200030E0A901C701B6010E94C32720E030E0DA
:1021300040E05FE387FD05C0C701B6010E94572656
:1021400004C0C701B6010E9456260E94352744E00C
:10215000660F771F881F991F4A95D1F70E9489241F
:102160002FE632E143E85FE30E94E82420E030E01C
:1021700040EC5FE30E94E82420E030E040E05FE3D1
:102180000E94E8240E943C277093770760937607AB
:1021900020E030E0A901C701B6010E94C32720E07A
:1021A00030E040E05FE387FD05C0C701B6010E9453
:1021B000572604C0C701B6010E9456260E94352743
:1021C00034E0660F771F881F991F3A95D1F70E9458
:1021D00089242FE632E143E85FE30E94E82420E00F
:1021E00030E040E05FE30E94E8240E943C277093C7
:1021F00075076093740720E030E0A901C701B601BC
:102200000E94C32720E030E040E05FE387FD05C087
:10221000C701B6010E94572604C0C701B6010E943B
:1022200056260E94352724E0660F771F881F991FC6
:102230002A95D1F70E9489242FE632E143E85FE333
:102240000E94E82420E030E040E05FE30E94E824C0
:1022500020E030E040E05FE30E94E8240E943C2759
:10226000709373076093720780910601813011F0BB
:10227000823041F486E591E0FF90EF90DF90CF90BF
:102280000C949D0E80E191E00E949D0E109206013B
:10229000FF90EF90DF90CF9008950C94A6257F9249
:1022A0008F929F92AF92BF92CF92DF92EF92FF9266
:1022B0000F931F93CF93DF936C015B017A018091A1
:1022C0000F01882309F46BC080916F03882309F400
:1022D00066C080916D0380FF05C08091E000826040
:1022E0008093E000E70110E00AEF83E0982E90E48D
:1022F000792E2AE3822E209709F448C08FB7F894EC
:102300009092E9009091E80095FF06C09091F2004C
:10231000272D291B922F01C090E08FBF91110AC079
:10232000015009F43CC061E070E080E090E00E9460
:10233000010DE1CF292F30E0C217D3070CF49C2FF9
:102340008FB7F8949092E9002091E80025FF1CC017
:10235000292F30E0C21BD30BF501915020F04191A1
:102360004093F100FACFA20EB31E112319F0809210
:10237000E80009C09091E80095FD06C08092E80051
:1023800011E0209709F010E08FBFB5CF1111B6CF43
:102390005D9884E680936C031E141F0444F081E072
:1023A00090E0F6019383828380E090E001C0C70152
:1023B000DF91CF911F910F91FF90EF90DF90CF9021
:1023C000BF90AF909F908F907F9008956F927F9273
:1023D0008F929F92AF92BF92CF92DF92EF92FF9235
:1023E0000F931F93CF939B012C5F3F4F2A343105EE
:1023F00090F5893091057CF15B016C0185E0489F87
:102400007001112400E010E00530110539F0F801E9
:10241000EE0DFF1DEF50F94FC49101C0C0E0612CDB
:10242000712C48018A0C9B1C2C2F2170B601661957
:102430007709A4018BE897E00E94000FC6958FEF03
:10244000681A780A88E06816710471F70F5F1F4FE9
:1024500006301105C9F6CF911F910F91FF90EF90B3
:10246000DF90CF90BF90AF909F908F907F906F90B4
:1024700008958138910514F40C94E6110895DF92C3
:10248000EF92FF920F931F93CF93DF937C01D22E95
:102490008B01040F111DEB0177FF0EC0C0E0D0E0EF
:1024A0000BC0C417D5077CF42D2DAE01B7018BE806
:1024B00097E00E94000F2196A801013411058CF3CA
:1024C00040E450E0EECFDF91CF911F910F91FF904C
:1024D000EF90DF9008959C01240F311D1216130612
:1024E00074F5803891055CF5FC0197FF02C0E0E0CF
:1024F000F0E02138310514F020E830E02E1BAB016C
:102500004770552781E001C0880F4A95EAF777FFA9
:1025100002C0695F7F4F93E0759567959A95E1F7E3
:102520007695762F662777956795E60FF71FE05922
:10253000FC4F215020F09081982B9193FACF089571
:10254000EF92FF920F931F93CF93DF93EC018B01D8
:10255000E42EF22E6034710510F40E946B12B80163
:102560006F0D711D615071096034710520F44E2D9D
:10257000CE010E946B1221E04F2DB801CE010E94C6
:102580003F12CE018E0D911D21E04F2DB801019714
:10259000DF91CF911F910F91FF90EF900C943F121C
:1025A000CF93DF93C7E8D7E089858A870E94B40E6E
:1025B0008987DF91CF910895009771F0FC01019018
:1025C0000020E9F73197AF01481B590BBC018CE79C
:1025D00097E00E949C0C14C080917C0790917D072D
:1025E000009711F00E94832810927D0710927C07BB
:1025F000109281071092800710927F0710927E0739
:102600008CE797E0089520919107282329F4909171
:102610009007982381E009F480E008955F926F921B
:102620007F928F929F92AF92BF92CF92DF92EF9262
:10263000FF920F931F93CF93DF93EC018B017A01ED
:10264000A901461B570B57FF03C0519541955109EE
:10265000C7018C1B9D0B97FF03C091958195910934
:10266000552453948417950714F0512C0AC09E2DBD
:102670008F2D7901292F382F9C2F8D2FE801092FBD
:10268000182FEC16FD0654F4902F812F8901292F65
:10269000382F9C2F8D2FE701E92EF82E37016C1A69
:1026A0007D0A5901A01AB10AB7FE03C0B194A194E2
:1026B000B108630177FE03C08FEFC81AD80AD5941A
:1026C000C7940217130714F08FEF01C081E0882E22
:1026D000880F9908EC16FD06B4F021E0552019F09A
:1026E000AE01B80102C0A801BE018BE897E00E94CC
:1026F000000FCA18DB08D7FE04C0080D191DC60C50
:10270000D71C2196E7CFDF91CF911F910F91FF90BA
:10271000EF90DF90CF90BF90AF909F908F907F9081
:102720006F905F90089580E0E0E7F3E081118FEF14
:10273000002481938193819381930394D1F7089529
:102740000E949313E7E8F7E0118E108E178A168A1D
:1027500008951F93CF93DF9300D01F92CDB7DEB7BC
:10276000182F5E9A88EC90E06B830E94AF0E5E9803
:1027700082E090E09A8389836B81CE0101960E946A
:10278000940784EF91E00E94AF0E5E9A0E94B40E0F
:1027900081238117D9F30F900F900F90DF91CF9184
:1027A0001F910895FC0180916F03811103C08FEF89
:1027B0009FEF08959FB7F89482E08093E9002091FD
:1027C000F20030E01216130614F421E030E0211577
:1027D000310559F0289884E680936E038091F100CA
:1027E00080838091F200882319F09FBFC90108956A
:1027F0008BE68093E800F9CF8091A90781110DC085
:1028000082E08093A50784E08093A6071092A80732
:102810001092A70781E08093A90785EA97E00895C1
:10282000CF93DF931F92CDB7DEB76983DC01ED91C3
:10283000FC910280F381E02D41E050E0BE016F5F2A
:102840007F4F09950F90DF91CF91089583E080939A
:10285000E9008091F200882319F08AE38093E80070
:102860000895FC018485958597FD0BC09FB7F8946A
:1028700082E08093E9008091F2009FBF90E0019692
:1028800008959FB7F89482E08093E9008091F20068
:102890009FBF90E008954091130850911408209133
:1028A00011083091120842175307B4F49091E800D0
:1028B0009570E1F39091E80092FD19C08093F100CA
:1028C000809113089091140801968F739927892B92
:1028D00019F48EEF8093E80080911308909114080A
:1028E0000196909314088093130881E0089580E086
:1028F0000895DF92EF92FF920F931F93CF93DF9390
:10290000D82E8A017B01E40EF51EEB01CE15DF0502
:1029100071F0D7FE03C0FE01849101C088810E943E
:102920004B1421968111F2CF8FEF9FEF01C0C801A8
:10293000DF91CF911F910F91FF90EF90DF9008955D
:10294000615030F02091F100FC0120830196F8CF16
:10295000289884E680936E030895CF93DF931F92A7
:10296000CDB7DEB7FC018485958597FD05C02FEFB7
:102970003FEF358724870BC0CE0101960E94D2130A
:10298000019719F4898190E002C08FEF9FEF0F90BB
:10299000DF91CF9108950F931F93CF93DF931F92F1
:1029A000CDB7DEB78C01FC018485958597FF0EC0FD
:1029B000CE0101960E94D213019719F4298130E0CB
:1029C00002C02FEF3FEFF80135872487F801848597
:1029D00095850F90DF91CF911F910F9108950F93DF
:1029E0001F93CF93DF931F92CDB7DEB782E0898329
:1029F00042E450E061EF7BE080E80E9479140E949D
:102A0000FC13DC0112960D911C9113970115110511
:102A100069F0D801ED91FC910280F381E02DBE01B7
:102A20006F5F7F4FC801099597FF07C089810F909D
:102A3000DF91CF911F910F910895F80100851185C5
:102A4000E5CF1F920F920FB60F9211248F939F9391
:102A50008091E1009091E100937F9093E10083FFEA
:102A60000FC01092E90091E09093EB001092EC00FF
:102A700092E39093ED0010926F0398E09093F00032
:102A800082FF20C093E09093E9009091F200992397
:102A900019F09AE39093E80090916C03992339F030
:102AA00090916C03915090936C03992389F19091CC
:102AB0006E03992339F090916E03915090936E03B9
:102AC000992341F184FF10C08091E2008E7E8160E5
:102AD0008093E2008091E1008F7E8093E1008091FD
:102AE0006D038E7E806111C080FF16C08091E20070
:102AF0008E7E80618093E2008091E1008E7E8093E3
:102B0000E10080916D038E7E816080936D0304C02F
:102B10005D9ACDCF289AD6CF9F918F910F900FBEFF
:102B20000F901F9018951F920F920FB60F921124BD
:102B3000CF92DF92EF92FF920F931F932F933F93C9
:102B40004F935F936F937F938F939F93AF93BF93B5
:102B5000EF93FF93CF93DF93CDB7DEB76C97DEBFD4
:102B6000CDBF1092E9008091E80083FFEDC168E0DD
:102B7000CE0145960E94A01482EF8093E8008D89D3
:102B800087FF05C09091E80090FFFCCF03C09EEF47
:102B90009093E800982F907609F0C6C09E892F89FF
:102BA000188D91110CC0803829F480911008809301
:102BB000F10002C01092F1001092F10048C1422FC2
:102BC00050E0512B913051F4811141C141305105F8
:102BD00009F03DC1809110088D7F0BC0933061F4E6
:102BE000811135C14130510509F031C18091100882
:102BF0008260809310082BC1953041F48091E800E9
:102C000080FFFCCF20682093E30021C1963009F0BB
:102C10005FC0EB8CFC8C1092E900109214081092AB
:102C20001308123091F510921208109211080E94A8
:102C3000EF1499E0BE016F5F7F4FDB01E92F1D921A
:102C4000EA95E9F799831A8391E09E8390EA988741
:102C50009AEF99872091130830911408275F3F4F0E
:102C60003C832B838D831092E900109214081092FC
:102C70001308F0921208E092110849E050E080E059
:102C80000E9479140E94EF14E2C0F0921208E092C0
:102C900011080E94FC13DC011296ED90FC90139732
:102CA000E114F10409F4C0C0D701ED91FC91048056
:102CB000F581E02DBE016B5E7F4FC701099500973E
:102CC00019F00CF0C4C0C7C0F701E084F184E8CF6C
:102CD000973009F4C0C0983021F481E08093F1006E
:102CE000B6C0993009F0B3C0837009F0B4C0EBE20C
:102CF000F2E081E021E036E39081992361F0809356
:102D0000E9002093EB0091919093EC003093ED005B
:102D10008F5F873089F78EE78093EA001092EA0090
:102D20008F8980936F0393C08B8D9C8D1092E900E7
:102D300010921408109213089093120880931108AF
:102D4000898D811156C08E899D89913A59F48132BD
:102D500009F081C047E050E068E071E080E00E9447
:102D6000791475C0913209F076C0833289F4888D68
:102D700090E0982F88272F89822BA0E0B0E08093E5
:102D8000FC019093FD01A093FE01B093FF015FC091
:102D9000803269F48091E80082FFFCCF67E088E030
:102DA00091E00E94A0148BEF8093E80006C082326D
:102DB00009F04DC08F8980930F0180910F088823FF
:102DC00019F0EEEFFAE002C0E0E0F8E080910801CF
:102DD00090910901A0910A01B0910B01803B9440B0
:102DE000A105B10509F07BC080910F0180FF93C060
:102DF00076C00E94FC13DC0112960D911C91139772
:102E00000115110541F1D801ED91FC910190F0817E
:102E1000E02DBE016B5E7F4FC8010995811117C07F
:102E2000F80100851185ECCF113009F44EC0133044
:102E300091F48F89882309F445C0823081F440E8F9
:102E400067E085E59CE00E94E923882321F08EEF6E
:102E50008093E80079C081E28093EB0075C08130F7
:102E600029F440E86BE089E49CE0EDCF833099F7EA
:102E70000E94FC13DC011296ED90FC9013978E01DA
:102E80000F5F1F4F6801E114F10479F0D701ED9154
:102E9000FC910680F781E02DB801C7010995080F64
:102EA000111DF701E084F184EECFD8011C92F601E8
:102EB00001900020E9F73197BF016C197D0940E0CE
:102EC000C601C1CF63E37CE002C067E37CE061152B
:102ED000710509F2FB01449150E080E840CF0FB644
:102EE000F894A895809160008861809360001092AA
:102EF00060000FBEA895EE3F2AE0F20739F08091FE
:102F0000FE0A9091FF0A91838083A1CF1092FF0A5D
:102F10001092FE0A9CCFEE3F8AE0F80731F08081E4
:102F200091819093FF0A8093FE0A87E797E7918348
:102F300080839BE088E10FB6F894A89580936000A9
:102F40000FBE9093600083CF6C960FB6F894DEBFEF
:102F50000FBECDBFDF91CF91FF91EF91BF91AF91A8
:102F60009F918F917F916F915F914F913F912F91A1
:102F70001F910F91FF90EF90DF90CF900F900FBEB9
:102F80000F901F901895E82FF0E0EB59FD4FE0816E
:102F90008E2F90E08A309105A8F4FC01E457FF4F92
:102FA0000C94E82781E3089583E3089584E308956A
:102FB00085E3089586E3089587E3089588E30895F7
:102FC00089E30895089580E3089582E3089583E5F1
:102FD00092E00E94DC120E94D01281E080930601F0
:102FE00040E050E060E87FE34093F8015093F9013E
:102FF0006093FA017093FB019FE690930401909314
:10300000000110925703809307010E94D01281E0C3
:103010000E94240780E00E942407809104010E94FE
:103020007B062DE732E045E180E090E0F901E80F12
:10303000F91F108201968A309105C1F74150265F31
:103040003F4F4111F1CFE8E6F2E085E18E0F11929A
:103050008E13FDCF109265021092660210926702E5
:1030600081E00E9403138111E4C00E94D0120E94EB
:10307000A01320E440E860E070E080E090E00E946F
:10308000A01244E56CE070E080E590E00E94E6115B
:1030900045E463E170E080E590E00E94E61144E5DC
:1030A0006AE170E080E590E00E94E61142E561E2AD
:1030B00070E080E590E00E94E61149E468E270E08B
:1030C00080E590E00E94E61143E56FE270E080E564
:1030D00090E00E94E61123E330E048E450E06CE029
:1030E00070E088E490E00E940E134DE460E170E02F
:1030F00088E190E00E94E61145E567E170E088E133
:1031000090E00E94E61143E56EE170E088E190E016
:103110000E94E61149E465E270E088E190E00E94D7
:10312000E61143E46CE270E088E190E00E94E61171
:103130004FE468E270E08FE090E00E94E61146E420
:103140006FE270E08FE090E00E94E61146E466E3F3
:1031500070E08FE090E00E94E6114FE46AE070E0DA
:103160008FE090E00E94E6114EE461E170E08FE0B4
:1031700090E00E94E61182E00E940313882329F068
:103180000E94E30E81E08093070188E00E94031310
:10319000882321F00E94E80E109207018091070118
:1031A00081111EC028E030E04CE050E065E070E0A6
:1031B0008AE090E00E940E1325E030E04EE050E0FF
:1031C00068E070E08CE090E00E940E1325E030E0B3
:1031D0004AE050E065E070E08EE090E00E940E135F
:1031E000809107018823F1F026E230E04CE050E0C6
:1031F00063E270E08AE090E00E940E1323E230E088
:103200004EE050E066E270E08CE090E00E940E1329
:1032100023E230E04AE050E063E270E08EE090E0CC
:103220000E940E138BE897E00E94EE0E0E94D20ED1
:1032300017CF81E392E00E94DC120C94D012CF935E
:10324000DF93CDB7DEB7A1970FB6F894DEBF0FBE00
:10325000CDBF789484B5826084BD84B5816084BD1F
:1032600085B5826085BD85B5816085BD80916E0024
:10327000816080936E001092810080918100826055
:103280008093810080918100816080938100809192
:1032900080008160809380008091910082608093A3
:1032A00091008091910081608093910080919000C5
:1032B0008160809390008091C10084608093C10000
:1032C0008091C10082608093C1008091C1008160C3
:1032D0008093C1008091C30081608093C30080917E
:1032E000C00082608093C0008091C20081608093A2
:1032F000C20080917A00846080937A0080917A0085
:10330000826080937A0080917A00816080937A0055
:1033100080917A00806880937A0010926F031092F7
:10332000100810926D038091D70081608093D700C0
:1033300080EA8093D80089B5806189BD89B58260B3
:1033400089BD09B400FEFDCF61E070E080E090E04F
:103350000E94010D8091D8008F7C80618093D800FD
:103360008091E000807F8093E0008091E1008E7E7C
:103370008093E1008DE08093E200559A209AEEEF71
:10338000FFE7859194918B3F9C4D19F481E08093E8
:103390000F0881EC80937C0085B1886485B92398FF
:1033A00084B1866484B9589A899880B3836180BB5C
:1033B0008F9A85B1806D85B98BB188618BB9879AF9
:1033C00084B18F6284B98AB1876E8AB92D9A84B12B
:1033D0008F6D84B98EB18F6B8EB98DB18F6B8DB9B6
:1033E000259A259A80E58CBD81E08DBD85E090E031
:1033F0000E94AF0E899A85E090E00E94AF0E8898F7
:103400008C980CED11E0EDE0FE2EF00EF8018491A9
:103410000E94DD0E0F5F1F4FF012F8CF8C9A81E8EB
:103420008093640081E08093650000E014E080E018
:103430000E94DD0E01501109D1F70E94B40E83FFE6
:1034400025C08C9885EA0E94DD0E8C9A5E985E9865
:103450005E98809164008062809364000E94D20E26
:10346000FDCF5E980E94B40E8970893019F46FEF19
:103470000E94A9130E94B40E8370833019F460E097
:103480000E94A91388EC90E00E94AF0E0E94B40E37
:1034900080FDE7CF5E9A82E090E00E94A625882317
:1034A00019F00E94E80E02C00E94E30E5E980EEE34
:1034B0001FEF78E0A72EB12C0E94B40E86FF04C047
:1034C0005E9A5E9A5E9A8AC00C3FFFEF1F0719F062
:1034D0000831110511F45E9A5E980E949313003F23
:1034E0002FEF120794F48BE897E00E94EE0E8BE129
:1034F00090E00E94AF0E003F3FEF130709F059C064
:103500008AEF90E00E94AF0E54C0980117FF04C0EC
:1035100022273327201B310B27703327C80117FDC3
:10352000079663E0959587956A95E1F717FF05C0C3
:103530000197A501421B530B9A017C01F694FE2CC6
:10354000EE24F794E79460E070E03501621A730AA4
:10355000D701A058BF4F4D018F3FBFEF9B0744F4E9
:103560000196685A7F4F7401603B710589F7BBCFA4
:10357000D701AC5FBB4F40E050E08F3FEFEF9E07BD
:1035800009F4C9C5FA01E60FF71FE45DFE4FE491A7
:103590006D01C818D908CE0CDF1CF0E01F01022E07
:1035A00001C0220C0A94EAF7F601508025282082F7
:1035B000B2C50F5F1F4F0931110509F07DCF8CEBAC
:1035C00092E00E94AF0E5E9AE0918B07F0918C071B
:1035D0000190F081E02D8BE897E0099582E390E07F
:1035E0000E94AF0E0E94B40E8111F8CF0E94A0136A
:1035F00080E180939207809164008E7F80936400C5
:1036000080917A00806480937A0080917A0086FDB0
:10361000FCCF00917800109179000E94DC0C20E032
:1036200030E0980111270027600F711F821F931F40
:10363000611571058105910511F00E947924809131
:1036400064008160809364000E94E30E10925D022A
:1036500010925C0281E080935D020E94E7178091E6
:103660000701811102C00E940D109E012F5F3F4F84
:10367000190188E692E035E1380F3D8F80915E02B6
:10368000811105C080910701882309F45FC52FB718
:10369000F89480915F0290916002A0916102B091D4
:1036A00062022FBF40919707509198076091990748
:1036B00070919A0720919B07222341F02091930754
:1036C000821B80939C0710929B071DC5841795074A
:1036D000A607B70738F4481B423008F414C50E9407
:1036E000D20E11C521E020939B07809393079093FE
:1036F0009407A0939507B093960720919207820FA5
:10370000911DA11DB11D8093970790939807A093D9
:103710009907B0939A0780918E0790918F07019631
:1037200090938F0780938E070E94D0120E94B40E50
:1037300087FF03C084E60E94B4070E94B40E84FF92
:1037400004C081E08093570302C01092570381E0C8
:103750000E940313882351F0809105018093040196
:1037600090910301909305010E947B0680E40E94E2
:103770000313882309F450C0809104018F3609F4A3
:103780004BC088E0D1011D928A95E9F730914F0333
:1037900030930101209150032093020180E090E0DA
:1037A000DC01A15BBC4FF101E80FF91F4C91408394
:1037B00011964C91418302968830910589F7F10169
:1037C000DE011296AE01475F5F4F8081831B8083CD
:1037D0008C91821B8C939081830F8083822F891B15
:1037E0008C9332961296E417F50779F7C1010E947F
:1037F0005B06882389F080E090E0D101A80FB91F13
:10380000FC01E15BFC4F2C91208311962C912183CC
:1038100002968830910589F70E94B40E81FF0DC091
:103820000E94B40E83FD9AC408C00E94D0120E9468
:10383000D01281E392E00E94DC1282E00E94031326
:10384000882319F082E70E94B40788E00E940313DE
:10385000882319F08CE60E94B4070E94A013E8E6C2
:10386000F2E0FA8BE98B1C861B862DE732E03C8B5D
:103870002B8B1E861D86A1E0B0E0B88BAF872B8511
:103880003C85032E000C440B550B298F3A8F4B8F30
:103890005C8FEB89FC894D855E85E40FF51F808187
:1038A00081110DC08D859E8501969E878D87AF8580
:1038B000B8891696B88BAF870A9759F77DC0698D7E
:1038C0007A8D8B8D9C8D0E9489249B01AC0163E3D2
:1038D00073E383EF92E40E9456260E9435276D8B96
:1038E0007E8B8F8B988F0D891E8926E046E06F8531
:1038F0007889C8010E94A012E989FA89608170E084
:1039000080E090E00E9489246B017C018090820716
:1039100090908307A0908407B090850720E030E066
:1039200040E85EE3C501B4010E94E8242B013C019C
:103930009B01AC01C701B6010E94C327181684F48D
:1039400020E030E040E05FE3C501B4010E94E824DC
:103950009B01AC01C701B6010E94822487FD19C0FA
:1039600020E030E040E450E4C301B2010E94E824CA
:103970009B01AC01C701B6010E94C32718160CF0C9
:1039800091CFA5019401C701B6010E94822487FF4F
:1039900089CFED88FE88F6E0EF0EF11C0E151F05AD
:1039A00009F480CF21E046E06F857889C8010E9444
:1039B0003F120F5F1F4FF2CF2B893C89265F3F4F8D
:1039C0003C8B2B8B4B855C854A5F5F4F5C874B87BD
:1039D00089899A8901969A8B898B4E37510509F00E
:1039E00048CFE12CF12CF701E15BFC4F01816081B4
:1039F00036E0039F800111240F5F1F4F46E0649F54
:103A0000B0011124072E000C880B990B0E94892409
:103A10009B01AC0163E373E383EF92E40E945626BB
:103A20000E943527DC01CB0126E046E0B8010E9468
:103A3000A01252E0E50EF11C88E0E816F10499F6B8
:103A400021E04DE360E070E080E090E00E943F12F2
:103A500040E860E070E080E090E00E946B1240E897
:103A60006DE370E080E090E00E946B1282E00E94C3
:103A7000C317482F6EE070E08FE790E00E94E611D8
:103A800081E00E94C317482F65E170E08FE790E066
:103A90000E94E61180E00E94C317482F6CE170E09D
:103AA0008FE790E00E94E61140E363E270E08FE769
:103AB00090E00E94E61140E36AE270E08FE790E058
:103AC0000E94E61180915703882309F4D0C102E6D1
:103AD00010E020E04EE160E270E0C8010E943F1279
:103AE0000F5F1F4F00381105A1F72EE14EE160E294
:103AF00070E082E690E00E94A012E09100018E2F1B
:103B0000EE0F990BAA0BBB0BFC01E956F109E23150
:103B1000F105D8F5EA5AFF4F0C94E82725E045E077
:103B20006AE270E08CE690E00E94A01225E045E099
:103B30006FE270E08CE690E00E94A01225E045E084
:103B40006AE270E081E790E067C025E045E06AE264
:103B500070E08CE690E00E94A01225E045E06FE264
:103B600070E08CE690E00E94A01225E045E064E35E
:103B700070E08CE690E00E94A01225E045E069E349
:103B800070E08CE690E00E94A01202E610E087C090
:103B900025E045E06AE270E08CE690E00E94A01229
:103BA00025E045E06FE270E08CE690E00E94A01214
:103BB00025E045E064E370E08CE690E067C025E036
:103BC00045E06AE270E08CE690E00E94A01225E0F9
:103BD00045E06FE270E08CE690E00E94A01225E0E4
:103BE00045E064E370E08CE690E033C025E045E01A
:103BF0006AE270E08CE690E00E94A01225E045E0C9
:103C00006FE270E08CE690E00E94A01225E045E0B3
:103C100064E370E08CE690E00E94A01225E045E0AD
:103C20006FE270E039C025E045E064E370E08CE6C7
:103C300090E00E94A01225E045E06FE270E08CE683
:103C400090E00E94A01225E045E06FE270E081E77D
:103C500090E00E94A01225E045E06AE270E01CC0FE
:103C600025E045E06AE270E08CE690E00E94A01258
:103C700025E045E06FE270E08CE690E00E94A01243
:103C800025E045E06FE270E081E790E00E94A0123D
:103C900025E045E064E370E081E790E074CF20E048
:103CA0004EE160E070E0C8010E943F120F5F1F4FBD
:103CB00000381105A1F72EE14EE160E070E082E6E8
:103CC00090E00E94A012E09105018E2FEE0F990B5B
:103CD000AA0BBB0BFC01E956F109E231F10508F032
:103CE000C2C0E859FF4F0C94E82725E045E06AE0A0
:103CF00070E08CE690E00E94A01225E045E06FE0C5
:103D000070E08CE690E00E94A01225E045E06AE0B9
:103D100070E081E790E063C025E045E06AE070E094
:103D20008CE690E00E94A01225E045E06FE070E094
:103D30008CE690E00E94A01225E045E064E170E08E
:103D40008CE690E00E94A01225E045E069E170E079
:103D50008CE690E086C025E045E06AE070E08CE605
:103D600090E00E94A01225E045E06FE070E08CE654
:103D700090E00E94A01225E045E064E170E08CE64E
:103D800090E067C025E045E06AE070E08CE690E0F6
:103D90000E94A01225E045E06FE070E08CE690E024
:103DA0000E94A01225E045E064E170E08CE690E01E
:103DB00033C025E045E06AE070E08CE690E00E94C8
:103DC000A01225E045E06FE070E08CE690E00E94F4
:103DD000A01225E045E064E170E08CE690E00E94EE
:103DE000A01225E045E06FE070E039C025E045E035
:103DF00064E170E08CE690E00E94A01225E045E0CE
:103E00006FE070E08CE690E00E94A01225E045E0B3
:103E10006FE070E081E790E00E94A01225E045E0AD
:103E20006AE070E01CC025E045E06AE070E08CE6E6
:103E300090E00E94A01225E045E06FE070E08CE683
:103E400090E00E94A01225E045E06FE070E081E77D
:103E500090E00E94A01225E045E064E170E081E777
:103E600090E00E94A0128BE897E00E94EE0E8BE893
:103E700097E00E94EE0E2091F8013091F9014091F7
:103E8000FA015091FB0160E070E080E492E40E944E
:103E9000C3266B017C0120E030E0A9010E94C3270A
:103EA00020E030E040E05FE387FD05C0C701B601D8
:103EB0000E94572604C0C701B6010E9456260E94E0
:103EC000352770E080918E0790918F070E94D4274C
:103ED000892B19F484E60E94B4078DE7C82E82E08E
:103EE000D82E08E612E0F12C9AE0E92E80E090E06E
:103EF00020E0F601E80FF91F308131112F5F0196A4
:103F00008A309105B1F72A3008F4F4C0D8017C90CA
:103F10008090820790908307A0908407B0908507D7
:103F2000672D70E080E090E00E948924A501940153
:103F30000E94822487FF03C07394D8017C92F80109
:103F4000608170E080E090E00E948924A5019401E6
:103F50000E94C32787FDCEC0D101EE2D1D92EA95A8
:103F6000E9F74DE752E080E090E0B12CF81202C092
:103F7000BB24B394F1019C012B0D311DE29EB001D5
:103F8000E39E700D112420E030E0D901A60FB71F89
:103F9000A358BD4FAC90DA01A20FB31F90809C9242
:103FA000A1922F5F3F4F2A30310579F70196465F86
:103FB0005F4F85319105D1F6E8E6F2E080E090E0D0
:103FC0002191211101962D8D2E13FACFB09065020B
:103FD000B80EB09265022DEC3CEC4CEC5DE36091C8
:103FE000F8017091F9018091FA019091FB010E9412
:103FF00057269B01AC016093F8017093F9018093FF
:10400000FA019093FB0160E070E080E492E40E948A
:10401000C3266093820770938307809384079093ED
:10402000850739E03B1530F58B2D6E2D0E94C82792
:10403000B92E682F70E080E090E00E9489240E94F1
:104040006B279B01AC016091660270E080E090E01C
:104050002E8F3F8F48A359A30E9489242E8D3F8D18
:1040600048A159A10E9457260E943C2760936602EE
:10407000B0926502809166028A3028F16E2D0E940E
:10408000C827B92E682F70E080E090E00E94892454
:104090000E946B279B01AC016091670270E080E099
:1040A00090E02E8F3F8F48A359A30E9489242E8D24
:1040B0003F8D48A159A10E9457260E943C2760933A
:1040C0006702B092660220916702809166024AE020
:1040D000849FC001112454E6259F800D911D112459
:1040E00020916502820F911D909364028093630278
:1040F000D8011C92F3940F5F1F4FBAE0CB0ED11C76
:10410000E5E1FE12F3CE80E090E0892B09F4B6CA17
:104110000E940000B3CA2115310581F0FA01E60FB3
:10412000F71FE45DFE4FE491F0E0062C02C0F59528
:10413000E7950A94E2F7DC90ED29EC934F5F5F4F2F
:1041400011964835510509F018CA0ACA809106012E
:104150008F5F809306010E940D1099CA809180079D
:1041600090918107892B09F462CB61E372E0809121
:104170007C0790917D070E94F329892B09F057CB8A
:1041800089E392E00E94DC120E94D01281E00E943A
:10419000031381114ACB0E94D01202E310E020E009
:1041A00046E365E070E0C8010E943F120F5F1F4FB9
:1041B00006341105A1F726E344E165E070E082E3EF
:1041C00090E00E94A01240E56CE070E08EE390E089
:1041D0000E94E61141E463E170E08EE390E00E940A
:1041E000E61145E56AE170E08EE390E00E94E61199
:1041F00043E561E270E08EE390E00E94E61145E461
:1042000068E270E08EE390E00E94E61144E46FE221
:1042100070E08EE390E00E94E6118BE897E00E9448
:10422000EE0E0E94D20EB2CF0F931F93CF93DF9367
:10423000EC0181E090E00E94A62580FF2EC08AE07C
:1042400090E00E94A6259FEF980F9E3F30F522E355
:1042500030E03F8B2E8B28E330E0398F288F0BE046
:1042600010E0E881F9810190F081E02D682FCE0106
:104270000995C8010E94A6250F5F1F4F0131110546
:1042800081F7CE0104960E94EE0E88EE93E0DF9156
:10429000CF911F910F910C94AF0EDF91CF911F9191
:1042A0000F91089504970C94142180917C079091AC
:1042B0007D070C9483288F929F92AF92BF92CF92EA
:1042C000DF92EF92FF920F931F93CF93DF931092A1
:1042D000B4071092B30788EE93E0A0E0B0E08093BB
:1042E000B5079093B607A093B707B093B8078EE0D1
:1042F00092E09093B2078093B1078FEF9FEF909376
:10430000BE078093BD0710928A071092890710920A
:1043100090071092910720E12093920790938F07C6
:1043200080938E0710929707109298071092990722
:1043300010929A0710929B078EE192E09093880763
:104340008093870788E292E090938C0780938B0795
:1043500010929E0710929D071092A00710929F073F
:1043600081E08093A1071092A2078093A307109287
:10437000A40786E99CE0909371078093700780E022
:1043800090E890930E0880930D082D98259A2D980B
:10439000259AC090F801D090F901E090FA01F090D0
:1043A000FB01A701960160E070E080E292E40E94C8
:1043B000C32660938207709383078093840790934A
:1043C000850710927D0710927C0710927F0710924C
:1043D0007E07109281071092800749E050E069E45F
:1043E00072E08CE797E00E949C0CA701960160E0C8
:1043F00070E080E492E40E94C3264B015C0120E05F
:1044000030E0A9010E94C32720E030E040E05FE3F4
:1044100087FD05C0C501B4010E94572604C0C5012F
:10442000B4010E9456260E943527E4E0660F771FEC
:10443000881F991FEA95D1F70E9489242FE632E15F
:1044400043E85FE30E94E82420E030E040E450E4E9
:104450000E94E8240E943C276B0170937B076093C5
:104460007A0720E030E0A901C501B4010E94C3270A
:1044700020E030E040E05FE387FD05C0C501B40106
:104480000E94572604C0C501B4010E9456260E940E
:10449000352754E0660F771F881F991F5A95D1F76B
:1044A0000E9489242FE632E143E85FE30E94E8247A
:1044B0009B01AC010E9457260E943C278B01709300
:1044C00079076093780720E030E0A901C501B401C5
:1044D0000E94C32720E030E040E05FE387FD05C095
:1044E000C501B4010E94572604C0C501B4010E9451
:1044F00056260E94352744E0660F771F881F991FB4
:104500004A95D1F70E9489242FE632E143E85FE320
:104510000E94E82420E030E040EC5FE30E94E824C1
:104520000E943C277B01709377076093760720E019
:1045300030E0A901C501B4010E94C32720E030E0AA
:1045400040E05FE387FD05C0C501B4010E94572626
:1045500004C0C501B4010E9456260E94352734E0EC
:10456000660F771F881F991F3A95D1F70E948924FB
:104570002FE632E143E85FE30E94E8240E943C27F3
:10458000EB01709375076093740720E030E0A90198
:10459000C501B4010E94C32720E030E040E05FE3A2
:1045A00087FD05C0C501B4010E94572604C0C5019E
:1045B000B4010E9456260E94352724E0660F771F1B
:1045C000881F991F2A95D1F70E9489242FE632E18E
:1045D00043E85FE30E94E82420E030E040E05FE34E
:1045E0000E94E8240E943C2770937307609372072F
:1045F000D0935901C093580170935D0160935C01A1
:104600007093610160936001D0936501C093640170
:10461000709369016093680170936D0160936C0100
:10462000D0937101C0937001709375016093740110
:104630007093790160937801D0937D01C0937C01E0
:104640007093810160938001709385016093840170
:10465000D0938901C093880170938D0160938C0180
:104660007093910160939001D0939501C093940150
:10467000D0939901C0939801D0939D01C0939C0160
:10468000D093A101C093A001D093A501C093A40130
:10469000D093A901C093A801F092AD01E092AC01C2
:1046A0007093B1016093B001D093B501C093B40190
:1046B0007093B9016093B8017093BD016093BC0120
:1046C000F092C101E092C0017093C5016093C401F2
:1046D000D093C901C093C8017093CD016093CC0100
:1046E0007093D1016093D001D093D501C093D401D0
:1046F0007093D9016093D8017093DD016093DC0160
:10470000D093E101C093E001D093E501C093E401AF
:10471000D093E901C093E801D093ED01C093EC017F
:10472000D093F101C093F001D093F501C093F4014F
:1047300010931301009312011093170100931601B7
:1047400010931B0100931A0110931F0100931E0187
:104750001093230100932201109327010093260157
:1047600010932B0100932A0110932F0100932E0127
:1047700010933301009332011093370100933601F7
:1047800010933B0100933A0110933F0100933E01C7
:10479000D0934301C0934201D0934701C093460197
:1047A00010934B0100934A01D0924F01C0924E01E9
:1047B000D0935301C0935201DF91CF911F910F917C
:1047C000FF90EF90DF90CF90BF90AF909F908F9031
:1047D0000895CF92DF92EF92FF920F931F93CF93A2
:1047E000DF931F92CDB7DEB7182F062FE42E862F4A
:1047F000880F8E5F99830E944B1483E00E944B14B4
:10480000F12EC12E9981D92E8C2D8F19801798F4F5
:10481000F601E7FE02C0849101C080810E944B1422
:10482000182F80E00E944B148123FFEFCF1ADF0A7C
:104830008111EACF01C081E00F90DF91CF911F91EC
:104840000F91FF90EF90DF90CF9008958F929F92FD
:10485000AF92BF92CF92DF92EF92FF92CF93DF930E
:10486000EC01688179818A819B81611571058105DF
:10487000910521F464E279ED8BE597E02DE133EFCA
:1048800041E050E00E94BC2549015A019B01AC0166
:10489000A7EAB1E40E94DB256B017C01ACEEB4EF2A
:1048A000A50194010E94E925DC01CB018C0D9D1D21
:1048B000AE1DBF1DB7FF03C00197A109B048888393
:1048C0009983AA83BB83BC01CD019F77DF91CF91F0
:1048D000FF90EF90DF90CF90BF90AF909F908F9020
:1048E00008950E942624089580E092E00E942624E4
:1048F00008956093000270930102809302029093E6
:10490000030208950E94C42408F481E00895E89405
:1049100009C097FB3EF490958095709561957F4F07
:104920008F4F9F4F9923A9F0F92F96E9BB279395B5
:10493000F695879577956795B795F111F8CFFAF4C5
:10494000BB0F11F460FF1BC06F5F7F4F8F4F9F4FF6
:1049500016C0882311F096E911C0772321F09EE854
:10496000872F762F05C0662371F096E8862F70E0BA
:1049700060E02AF09A95660F771F881FDAF7880F94
:104980009695879597F90895990F0008550FAA0BEA
:10499000E0E8FEEF16161706E807F907C0F0121652
:1049A0001306E407F50798F0621B730B840B950B55
:1049B00039F40A2661F0232B242B252B21F40895AA
:1049C0000A2609F4A140A6958FEF811D811D089547
:1049D0000E94FB240C946C250E945E2538F00E94F6
:1049E000652520F0952311F00C9455250C945B253A
:1049F00011240C94A0250E947D2570F3959FC1F38E
:104A0000950F50E0551F629FF001729FBB27F00D7C
:104A1000B11D639FAA27F00DB11DAA1F649F6627D1
:104A2000B00DA11D661F829F2227B00DA11D621F20
:104A3000739FB00DA11D621F839FA00D611D221FDA
:104A4000749F3327A00D611D231F849F600D211DBE
:104A5000822F762F6A2F11249F5750409AF0F1F041
:104A600088234AF0EE0FFF1FBB1F661F771F881FAA
:104A700091505040A9F79E3F510580F00C94552568
:104A80000C94A0255F3FE4F3983ED4F38695779588
:104A90006795B795F795E7959F5FC1F7FE2B880F50
:104AA000911D9695879597F9089597F99F6780E8E6
:104AB00070E060E008959FEF80EC089500240A9470
:104AC0001616170618060906089500240A941216E9
:104AD0001306140605060895092E0394000C11F41C
:104AE000882352F0BB0F40F4BF2B11F460FF04C0C9
:104AF0006F5F7F4F8F4F9F4F089557FD9058440F22
:104B0000551F59F05F3F71F04795880F97FB991F2C
:104B100061F09F3F79F087950895121613061406E9
:104B2000551FF2CF4695F1DF08C016161706180676
:104B3000991FF1CF86957105610508940895E89451
:104B4000BB2766277727CB0197F90895F999FECF00
:104B500092BD81BDF89A992780B50895262FF999BD
:104B6000FECF1FBA92BD81BD20BD0FB6F894FA9A50
:104B7000F99A0FBE01960895052E97FB1EF4009436
:104B80000E94D32557FD07D00E94252607FC03D09D
:104B90004EF40C94D32550954095309521953F4F78
:104BA0004F4F5F4F089590958095709561957F4F19
:104BB0008F4F9F4F08950E944726A59F900DB49F49
:104BC000900DA49F800D911D11240895B7FF0C94A2
:104BD000DB250E94DB25821B930B08952F923F92C9
:104BE0004F925F926F927F928F929F92AF92BF92FD
:104BF000CF92DF92EF92FF920F931F93CF93DF93A9
:104C0000CDB7DEB7CA1BDB0B0FB6F894DEBF0FBE05
:104C1000CDBF09942A88398848885F846E847D8452
:104C20008C849B84AA84B984C884DF80EE80FD8054
:104C30000C811B81AA81B981CE0FD11D0FB6F894CA
:104C4000DEBF0FBECDBFED010895A1E21A2EAA1B53
:104C5000BB1BFD010DC0AA1FBB1FEE1FFF1FA2172C
:104C6000B307E407F50720F0A21BB30BE40BF50B29
:104C7000661F771F881F991F1A9469F760957095B2
:104C8000809590959B01AC01BD01CF010895A29F35
:104C9000B001B39FC001A39F700D811D1124911D10
:104CA000B29F700D811D1124911D08955058BB278E
:104CB000AA270E946E260C946C250E945E2538F06F
:104CC0000E94652520F039F49F3F19F426F40C94D6
:104CD0005B250EF4E095E7FB0C945525E92F0E9427
:104CE0007D2558F3BA17620773078407950720F0EC
:104CF00079F4A6F50C949F250EF4E0950B2EBA2FAF
:104D0000A02D0B01B90190010C01CA01A0011124D1
:104D1000FF27591B99F0593F50F4503E68F11A167D
:104D2000F040A22F232F342F4427585FF3CF46950E
:104D300037952795A795F0405395C9F77EF41F1630
:104D4000BA0B620B730B840BBAF09150A1F0FF0FFA
:104D5000BB1F661F771F881FC2F70EC0BA0F621FE6
:104D6000731F841F48F4879577956795B795F795D6
:104D70009E3F08F0B0CF9395880F08F09927EE0F6B
:104D80009795879508950E94D7260C946C250E94CC
:104D9000652558F00E945E2540F029F45F3F29F018
:104DA0000C94552551110C94A0250C945B250E9460
:104DB0007D2568F39923B1F3552391F3951B550B8A
:104DC000BB27AA2762177307840738F09F5F5F4FDE
:104DD000220F331F441FAA1FA9F335D00E2E3AF01D
:104DE000E0E832D091505040E695001CCAF72BD035
:104DF000FE2F29D0660F771F881FBB1F2617370786
:104E00004807AB07B0E809F0BB0B802DBF01FF27B7
:104E100093585F4F3AF09E3F510578F00C9455251A
:104E20000C94A0255F3FE4F3983ED4F386957795E4
:104E30006795B795F7959F5FC9F7880F911D969570
:104E4000879597F90895E1E0660F771F881FBB1FCC
:104E5000621773078407BA0720F0621B730B840B79
:104E6000BA0BEE1F88F7E09508950E943C276894DE
:104E7000B1110C94A02508950E94852588F09F57B4
:104E800098F0B92F9927B751B0F0E1F0660F771F6E
:104E9000881F991F1AF0BA95C9F714C0B13091F064
:104EA0000E949F25B1E008950C949F25672F782FCD
:104EB0008827B85F39F0B93FCCF386957795679529
:104EC000B395D9F73EF490958095709561957F4F95
:104ED0008F4F9F4F08950E94AB2790F09F3748F463
:104EE000911116F00C94A02560E070E080E89FEB33
:104EF000089526F41B16611D711D811D0C948227D7
:104F00000C949D27882371F4772321F09850872BE8
:104F1000762F07C0662311F499270DC09051862B78
:104F200070E060E02AF09A95660F771F881FDAF725
:104F3000880F9695879597F908959F3F31F0915086
:104F400020F4879577956795B795880F911D96956D
:104F5000879597F908950E948525A0F0BEE7B917B7
:104F600088F4BB279F3860F41616B11D672F782F81
:104F70008827985FF7CF869577956795B11D9395AC
:104F80009639C8F308950E94C42408F48FEF089559
:104F9000991B79E004C0991F961708F0961B881F8B
:104FA0007A95C9F780950895AA1BBB1B51E107C0EC
:104FB000AA1FBB1FA617B70710F0A61BB70B881FA9
:104FC000991F5A95A9F780959095BC01CD01089538
:104FD000EE0FFF1F0590F491E02D0994CF93DF931E
:104FE0008230910510F482E090E0E0911708F09192
:104FF000180820E030E0C0E0D0E0309711F14081A7
:10500000518148175907C0F04817590761F4828148
:105010009381209719F09B838A832BC09093180863
:105020008093170826C02115310519F04217530740
:1050300018F49A01BE01DF01EF010280F381E02D37
:10504000DCCF2115310509F1281B390B243031053E
:1050500090F412968D919C9113976115710521F032
:10506000FB019383828304C09093180880931708F0
:10507000FD01329644C0FD01E20FF31F819391932D
:10508000225031092D933C933AC02091150830915C
:105090001608232B41F42091060230910702309329
:1050A000160820931508209104023091050221155D
:1050B000310541F42DB73EB74091080250910902E5
:1050C000241B350BE0911508F0911608E217F30741
:1050D000A0F42E1B3F0B2817390778F0AC014E5F68
:1050E0005F4F2417350748F04E0F5F1F5093160887
:1050F000409315088193919302C0E0E0F0E0CF0166
:10510000DF91CF9108950F931F93CF93DF93009773
:1051100009F48CC0FC0132971382128200911708A7
:10512000109118080115110581F420813181820F39
:10513000931F20911508309116082817390779F523
:10514000F0931608E093150871C0D80140E050E0D4
:10515000AE17BF0750F412962D913C911397AD01F5
:105160002115310509F1D901F3CF9D01DA0133830E
:10517000228360817181860F971F8217930769F4DC
:10518000EC0128813981260F371F2E5F3F4F318375
:1051900020838A819B8193838283452B29F4F0931A
:1051A0001808E093170842C01396FC93EE931297E9
:1051B000ED01499159919E01240F351FE217F30724
:1051C00071F480819181840F951F029611969C93B2
:1051D0008E938281938113969C938E931297E0E035
:1051E000F0E0D80112968D919C911397009719F0D9
:1051F000F8018C01F6CF8D919C9198012E5F3F4F65
:10520000820F931F2091150830911608281739072F
:1052100069F4309729F4109218081092170802C008
:10522000138212821093160800931508DF91CF9114
:105230001F910F910895A0E0B0E0E1E2F9E20C9433
:10524000F225EC01009721F4CB010E94EE27B8C0B3
:10525000FC01E60FF71F9C0122503109E217F3070A
:1052600008F4ACC0D9010D911C91119706171707CE
:10527000B0F00530110508F49FC0C80104978617E7
:10528000970708F499C002501109061B170B0193E8
:1052900011936D937C93CF010E9483288DC05B0195
:1052A000A01AB10A4C01800E911EA0911708B0916E
:1052B000180840E050E0E12CF12C109709F44AC0A6
:1052C000A815B905D1F56D907C901197630182E026
:1052D000C80ED11CCA14DB0480F1A3014A195B0972
:1052E0006A0182E0C80ED11C1296BC9012971396E8
:1052F000AC91B5E0CB16D10440F0B282A3835183C8
:105300004083D9016D937C930AC00E5F1F4FC30188
:10531000800F911FF90191838083EB2DFA2FE11407
:10532000F10431F0D7011396FC93EE93129744C029
:10533000F0931808E09317083FC08D919C91119746
:105340004817590708F4AC017D0112960D90BC91E5
:10535000A02DB3CF80911508909116088815990556
:10536000E1F446175707C8F48091040290910502B2
:10537000009741F48DB79EB7409108025091090201
:10538000841B950BE817F907C8F4F0931608E0930F
:105390001508F901718360830FC0CB010E94EE27CD
:1053A0007C01009759F0A801BE010E94EA29CE01B4
:1053B0000E948328C70104C0CE0102C080E090E0B3
:1053C000CDB7DEB7EEE00C940E2681E090E0F894C5
:1053D0000C94032AFB01DC0102C001900D924150A4
:1053E0005040D8F70895FB01DC018D9101908019A0
:1053F0000110D9F3990B0895FB01DC0101900D9286
:105400000020E1F7089516E0C0E3D6E004C0FE01F5
:105410000E94E8272196C133D107C9F7F894FFCF3E
:105420006F01046F6F6F010100E1000000000000D8
:10543000490100000501000025010000F600000000
:1054400005010000DC000000CF000000F6000000B5
:10545000490100000501000025010000F6000000E0
:105460000501000049010000B80100009F01000093
:1054700000000000008093020000ED0100000B021C
:1054800000004B0200000B020000ED010000B8011B
:105490000000B80100000B020000930200004B0264
:1054A00000000B020000ED010000ED0100000B0206
:1054B00000004B020000930200000B020000B80144
:1054C0000000B8010000000000004B020000BA021A
:1054D0000000700300000F030000BA0200009302F6
:1054E00000000B020000930200004B0200000B02C0
:1054F0000000ED010000ED0100000B0200004B0276
:105500000000930200000B020000B8010000B80187
:1055100000000000000000800000803FFFFFFFFF50
:1055200001000000000019088000000000001014B5
:105530004F113114AD14CB142614000000001E0FBF
:10554000510C1421FCFF0000522100C18081000099
:1055500000706C6179696E670070617573656400D5
:1055600067616D654F7665720073657474696E6707
:0C5570005570006D61696E4D656E750030
:00000001FF
